{
  "contractName": "MintSplitERC721",
  "abi": [
    {
      "inputs": [],
      "stateMutability": "nonpayable",
      "type": "constructor"
    },
    {
      "anonymous": false,
      "inputs": [
        {
          "indexed": true,
          "internalType": "address",
          "name": "owner",
          "type": "address"
        },
        {
          "indexed": true,
          "internalType": "address",
          "name": "approved",
          "type": "address"
        },
        {
          "indexed": true,
          "internalType": "uint256",
          "name": "tokenId",
          "type": "uint256"
        }
      ],
      "name": "Approval",
      "type": "event"
    },
    {
      "anonymous": false,
      "inputs": [
        {
          "indexed": true,
          "internalType": "address",
          "name": "owner",
          "type": "address"
        },
        {
          "indexed": true,
          "internalType": "address",
          "name": "operator",
          "type": "address"
        },
        {
          "indexed": false,
          "internalType": "bool",
          "name": "approved",
          "type": "bool"
        }
      ],
      "name": "ApprovalForAll",
      "type": "event"
    },
    {
      "anonymous": false,
      "inputs": [
        {
          "indexed": true,
          "internalType": "address",
          "name": "previousOwner",
          "type": "address"
        },
        {
          "indexed": true,
          "internalType": "address",
          "name": "newOwner",
          "type": "address"
        }
      ],
      "name": "OwnershipTransferred",
      "type": "event"
    },
    {
      "anonymous": false,
      "inputs": [
        {
          "indexed": true,
          "internalType": "address",
          "name": "from",
          "type": "address"
        },
        {
          "indexed": true,
          "internalType": "address",
          "name": "to",
          "type": "address"
        },
        {
          "indexed": true,
          "internalType": "uint256",
          "name": "tokenId",
          "type": "uint256"
        }
      ],
      "name": "Transfer",
      "type": "event"
    },
    {
      "inputs": [],
      "name": "allowMintingAfter",
      "outputs": [
        {
          "internalType": "uint256",
          "name": "",
          "type": "uint256"
        }
      ],
      "stateMutability": "view",
      "type": "function",
      "constant": true
    },
    {
      "inputs": [
        {
          "internalType": "address",
          "name": "to",
          "type": "address"
        },
        {
          "internalType": "uint256",
          "name": "tokenId",
          "type": "uint256"
        }
      ],
      "name": "approve",
      "outputs": [],
      "stateMutability": "nonpayable",
      "type": "function"
    },
    {
      "inputs": [
        {
          "internalType": "address",
          "name": "owner",
          "type": "address"
        }
      ],
      "name": "balanceOf",
      "outputs": [
        {
          "internalType": "uint256",
          "name": "",
          "type": "uint256"
        }
      ],
      "stateMutability": "view",
      "type": "function",
      "constant": true
    },
    {
      "inputs": [],
      "name": "baseURI",
      "outputs": [
        {
          "internalType": "string",
          "name": "",
          "type": "string"
        }
      ],
      "stateMutability": "view",
      "type": "function",
      "constant": true
    },
    {
      "inputs": [],
      "name": "contentCount",
      "outputs": [
        {
          "internalType": "uint256",
          "name": "",
          "type": "uint256"
        }
      ],
      "stateMutability": "view",
      "type": "function",
      "constant": true
    },
    {
      "inputs": [
        {
          "internalType": "uint256",
          "name": "",
          "type": "uint256"
        }
      ],
      "name": "contentSupplies",
      "outputs": [
        {
          "internalType": "uint256",
          "name": "_value",
          "type": "uint256"
        }
      ],
      "stateMutability": "view",
      "type": "function",
      "constant": true
    },
    {
      "inputs": [
        {
          "internalType": "uint256",
          "name": "",
          "type": "uint256"
        }
      ],
      "name": "contentUriOverrides",
      "outputs": [
        {
          "internalType": "string",
          "name": "",
          "type": "string"
        }
      ],
      "stateMutability": "view",
      "type": "function",
      "constant": true
    },
    {
      "inputs": [
        {
          "internalType": "uint256",
          "name": "tokenId",
          "type": "uint256"
        }
      ],
      "name": "getApproved",
      "outputs": [
        {
          "internalType": "address",
          "name": "",
          "type": "address"
        }
      ],
      "stateMutability": "view",
      "type": "function",
      "constant": true
    },
    {
      "inputs": [
        {
          "internalType": "address",
          "name": "owner",
          "type": "address"
        },
        {
          "internalType": "address",
          "name": "operator",
          "type": "address"
        }
      ],
      "name": "isApprovedForAll",
      "outputs": [
        {
          "internalType": "bool",
          "name": "",
          "type": "bool"
        }
      ],
      "stateMutability": "view",
      "type": "function",
      "constant": true
    },
    {
      "inputs": [],
      "name": "isPaused",
      "outputs": [
        {
          "internalType": "bool",
          "name": "",
          "type": "bool"
        }
      ],
      "stateMutability": "view",
      "type": "function",
      "constant": true
    },
    {
      "inputs": [],
      "name": "mintLimit",
      "outputs": [
        {
          "internalType": "uint256",
          "name": "",
          "type": "uint256"
        }
      ],
      "stateMutability": "view",
      "type": "function",
      "constant": true
    },
    {
      "inputs": [],
      "name": "mintPrice",
      "outputs": [
        {
          "internalType": "uint256",
          "name": "",
          "type": "uint256"
        }
      ],
      "stateMutability": "view",
      "type": "function",
      "constant": true
    },
    {
      "inputs": [],
      "name": "name",
      "outputs": [
        {
          "internalType": "string",
          "name": "",
          "type": "string"
        }
      ],
      "stateMutability": "view",
      "type": "function",
      "constant": true
    },
    {
      "inputs": [],
      "name": "owner",
      "outputs": [
        {
          "internalType": "address",
          "name": "",
          "type": "address"
        }
      ],
      "stateMutability": "view",
      "type": "function",
      "constant": true
    },
    {
      "inputs": [
        {
          "internalType": "uint256",
          "name": "tokenId",
          "type": "uint256"
        }
      ],
      "name": "ownerOf",
      "outputs": [
        {
          "internalType": "address",
          "name": "",
          "type": "address"
        }
      ],
      "stateMutability": "view",
      "type": "function",
      "constant": true
    },
    {
      "inputs": [],
      "name": "renounceOwnership",
      "outputs": [],
      "stateMutability": "nonpayable",
      "type": "function"
    },
    {
      "inputs": [],
      "name": "revenueSplitter",
      "outputs": [
        {
          "internalType": "contract RevenueSplitter",
          "name": "",
          "type": "address"
        }
      ],
      "stateMutability": "view",
      "type": "function",
      "constant": true
    },
    {
      "inputs": [
        {
          "internalType": "address",
          "name": "from",
          "type": "address"
        },
        {
          "internalType": "address",
          "name": "to",
          "type": "address"
        },
        {
          "internalType": "uint256",
          "name": "tokenId",
          "type": "uint256"
        }
      ],
      "name": "safeTransferFrom",
      "outputs": [],
      "stateMutability": "nonpayable",
      "type": "function"
    },
    {
      "inputs": [
        {
          "internalType": "address",
          "name": "from",
          "type": "address"
        },
        {
          "internalType": "address",
          "name": "to",
          "type": "address"
        },
        {
          "internalType": "uint256",
          "name": "tokenId",
          "type": "uint256"
        },
        {
          "internalType": "bytes",
          "name": "_data",
          "type": "bytes"
        }
      ],
      "name": "safeTransferFrom",
      "outputs": [],
      "stateMutability": "nonpayable",
      "type": "function"
    },
    {
      "inputs": [
        {
          "internalType": "address",
          "name": "operator",
          "type": "address"
        },
        {
          "internalType": "bool",
          "name": "approved",
          "type": "bool"
        }
      ],
      "name": "setApprovalForAll",
      "outputs": [],
      "stateMutability": "nonpayable",
      "type": "function"
    },
    {
      "inputs": [
        {
          "internalType": "uint256",
          "name": "",
          "type": "uint256"
        }
      ],
      "name": "supplyLimits",
      "outputs": [
        {
          "internalType": "uint256",
          "name": "",
          "type": "uint256"
        }
      ],
      "stateMutability": "view",
      "type": "function",
      "constant": true
    },
    {
      "inputs": [
        {
          "internalType": "bytes4",
          "name": "interfaceId",
          "type": "bytes4"
        }
      ],
      "name": "supportsInterface",
      "outputs": [
        {
          "internalType": "bool",
          "name": "",
          "type": "bool"
        }
      ],
      "stateMutability": "view",
      "type": "function",
      "constant": true
    },
    {
      "inputs": [],
      "name": "symbol",
      "outputs": [
        {
          "internalType": "string",
          "name": "",
          "type": "string"
        }
      ],
      "stateMutability": "view",
      "type": "function",
      "constant": true
    },
    {
      "inputs": [],
      "name": "timeDeployed",
      "outputs": [
        {
          "internalType": "uint256",
          "name": "",
          "type": "uint256"
        }
      ],
      "stateMutability": "view",
      "type": "function",
      "constant": true
    },
    {
      "inputs": [
        {
          "internalType": "uint256",
          "name": "index",
          "type": "uint256"
        }
      ],
      "name": "tokenByIndex",
      "outputs": [
        {
          "internalType": "uint256",
          "name": "",
          "type": "uint256"
        }
      ],
      "stateMutability": "view",
      "type": "function",
      "constant": true
    },
    {
      "inputs": [
        {
          "internalType": "address",
          "name": "owner",
          "type": "address"
        },
        {
          "internalType": "uint256",
          "name": "index",
          "type": "uint256"
        }
      ],
      "name": "tokenOfOwnerByIndex",
      "outputs": [
        {
          "internalType": "uint256",
          "name": "",
          "type": "uint256"
        }
      ],
      "stateMutability": "view",
      "type": "function",
      "constant": true
    },
    {
      "inputs": [],
      "name": "totalSupply",
      "outputs": [
        {
          "internalType": "uint256",
          "name": "",
          "type": "uint256"
        }
      ],
      "stateMutability": "view",
      "type": "function",
      "constant": true
    },
    {
      "inputs": [
        {
          "internalType": "address",
          "name": "from",
          "type": "address"
        },
        {
          "internalType": "address",
          "name": "to",
          "type": "address"
        },
        {
          "internalType": "uint256",
          "name": "tokenId",
          "type": "uint256"
        }
      ],
      "name": "transferFrom",
      "outputs": [],
      "stateMutability": "nonpayable",
      "type": "function"
    },
    {
      "inputs": [
        {
          "internalType": "address",
          "name": "newOwner",
          "type": "address"
        }
      ],
      "name": "transferOwnership",
      "outputs": [],
      "stateMutability": "nonpayable",
      "type": "function"
    },
    {
      "inputs": [
        {
          "internalType": "address",
          "name": "_owner",
          "type": "address"
        },
        {
          "internalType": "address",
          "name": "_revenueSplitter",
          "type": "address"
        },
        {
          "components": [
            {
              "internalType": "string",
              "name": "projectName",
              "type": "string"
            },
            {
              "internalType": "string",
              "name": "symbol",
              "type": "string"
            },
            {
              "internalType": "uint256",
              "name": "contentCount",
              "type": "uint256"
            },
            {
              "internalType": "uint256[]",
              "name": "supplyLimits",
              "type": "uint256[]"
            },
            {
              "internalType": "uint256",
              "name": "mintPrice",
              "type": "uint256"
            },
            {
              "internalType": "uint256",
              "name": "mintLimit",
              "type": "uint256"
            },
            {
              "internalType": "uint256",
              "name": "releaseTime",
              "type": "uint256"
            },
            {
              "internalType": "string",
              "name": "baseURI",
              "type": "string"
            }
          ],
          "internalType": "struct MintSplitSharedLibV1.ProjectParams",
          "name": "_params",
          "type": "tuple"
        }
      ],
      "name": "initialize",
      "outputs": [],
      "stateMutability": "nonpayable",
      "type": "function"
    },
    {
      "inputs": [
        {
          "internalType": "uint256[]",
          "name": "contentIds",
          "type": "uint256[]"
        }
      ],
      "name": "mint",
      "outputs": [],
      "stateMutability": "payable",
      "type": "function",
      "payable": true
    },
    {
      "inputs": [
        {
          "internalType": "uint256",
          "name": "tokenId",
          "type": "uint256"
        }
      ],
      "name": "getRoyalties",
      "outputs": [
        {
          "internalType": "address payable[]",
          "name": "",
          "type": "address[]"
        },
        {
          "internalType": "uint256[]",
          "name": "",
          "type": "uint256[]"
        }
      ],
      "stateMutability": "view",
      "type": "function",
      "constant": true
    },
    {
      "inputs": [],
      "name": "getSecondsUntilMinting",
      "outputs": [
        {
          "internalType": "uint256",
          "name": "",
          "type": "uint256"
        }
      ],
      "stateMutability": "view",
      "type": "function",
      "constant": true
    },
    {
      "inputs": [
        {
          "internalType": "uint256",
          "name": "tokenId",
          "type": "uint256"
        }
      ],
      "name": "tokenURI",
      "outputs": [
        {
          "internalType": "string",
          "name": "",
          "type": "string"
        }
      ],
      "stateMutability": "view",
      "type": "function",
      "constant": true
    },
    {
      "inputs": [
        {
          "internalType": "uint256",
          "name": "tokenId",
          "type": "uint256"
        }
      ],
      "name": "tokenSubject",
      "outputs": [
        {
          "internalType": "uint256[2]",
          "name": "",
          "type": "uint256[2]"
        }
      ],
      "stateMutability": "view",
      "type": "function",
      "constant": true
    },
    {
      "inputs": [],
      "name": "getSupplyLimits",
      "outputs": [
        {
          "internalType": "uint256[]",
          "name": "",
          "type": "uint256[]"
        }
      ],
      "stateMutability": "view",
      "type": "function",
      "constant": true
    },
    {
      "inputs": [
        {
          "internalType": "bool",
          "name": "_state",
          "type": "bool"
        }
      ],
      "name": "setIsPaused",
      "outputs": [],
      "stateMutability": "nonpayable",
      "type": "function"
    },
    {
      "inputs": [
        {
          "internalType": "uint256[]",
          "name": "newSupplyLimits",
          "type": "uint256[]"
        }
      ],
      "name": "addContent",
      "outputs": [],
      "stateMutability": "nonpayable",
      "type": "function"
    },
    {
      "inputs": [
        {
          "internalType": "string",
          "name": "newBaseURI",
          "type": "string"
        }
      ],
      "name": "setBaseURI",
      "outputs": [],
      "stateMutability": "nonpayable",
      "type": "function"
    },
    {
      "inputs": [
        {
          "internalType": "string",
          "name": "newURI",
          "type": "string"
        },
        {
          "internalType": "uint256",
          "name": "contentId",
          "type": "uint256"
        }
      ],
      "name": "setContentURI",
      "outputs": [],
      "stateMutability": "nonpayable",
      "type": "function"
    }
  ],
  "bytecode": "0x6080604052600061013155600061013460146101000a81548160ff0219169083151502179055503480156200003357600080fd5b50600060019054906101000a900460ff166200005e5760008054906101000a900460ff16156200006f565b6200006e6200012b60201b60201c565b5b620000b1576040517f08c379a0000000000000000000000000000000000000000000000000000000008152600401620000a890620001e3565b60405180910390fd5b60008060019054906101000a900460ff16159050801562000102576001600060016101000a81548160ff02191690831515021790555060016000806101000a81548160ff0219169083151502179055505b8015620001245760008060016101000a81548160ff0219169083151502179055505b5062000205565b600062000143306200014960201b62001ff11760201c565b15905090565b600080823b905060008111915050919050565b600082825260208201905092915050565b7f496e697469616c697a61626c653a20636f6e747261637420697320616c72656160008201527f647920696e697469616c697a6564000000000000000000000000000000000000602082015250565b6000620001cb602e836200015c565b9150620001d8826200016d565b604082019050919050565b60006020820190508181036000830152620001fe81620001bc565b9050919050565b6154df80620002156000396000f3fe60806040526004361061023b5760003560e01c80638da5cb5b1161012e578063c87b56dd116100ab578063e5015d9e1161006f578063e5015d9e146108c2578063e985e9c5146108eb578063f2fde38b14610928578063f378828314610951578063f8e93ef91461098e5761023b565b8063c87b56dd146107cb578063c91435bc14610808578063cc45969614610831578063cf8faa3d1461085c578063e2a55994146108995761023b565b8063a22cb465116100f2578063a22cb465146106e5578063a75052cb1461070e578063b187bd2614610739578063b88d4fde14610764578063bb3bafd61461078d5761023b565b80638da5cb5b146105fc5780639354f1751461062757806395d89b4114610664578063996517cf1461068f5780639d2b86f6146106ba5761023b565b80632f745c59116101bc5780636817c76c116101805780636817c76c146105275780636c0360eb1461055257806370a082311461057d578063715018a6146105ba578063872bdcdb146105d15761023b565b80632f745c591461041e57806342842e0e1461045b5780634f6ccce71461048457806355f804b3146104c15780636352211e146104ea5761023b565b806319188c351161020357806319188c351461033957806323b872dd14610364578063240976bf1461038d57806328b74c95146103b65780632dbefd0b146103e15761023b565b806301ffc9a71461024057806306fdde031461027d578063081812fc146102a8578063095ea7b3146102e557806318160ddd1461030e575b600080fd5b34801561024c57600080fd5b5061026760048036038101906102629190613688565b6109aa565b60405161027491906136d0565b60405180910390f35b34801561028957600080fd5b50610292610a24565b60405161029f9190613784565b60405180910390f35b3480156102b457600080fd5b506102cf60048036038101906102ca91906137dc565b610ab6565b6040516102dc919061384a565b60405180910390f35b3480156102f157600080fd5b5061030c60048036038101906103079190613891565b610b3b565b005b34801561031a57600080fd5b50610323610c53565b60405161033091906138e0565b60405180910390f35b34801561034557600080fd5b5061034e610c60565b60405161035b91906138e0565b60405180910390f35b34801561037057600080fd5b5061038b600480360381019061038691906138fb565b610c67565b005b34801561039957600080fd5b506103b460048036038101906103af919061397a565b610cc7565b005b3480156103c257600080fd5b506103cb610d61565b6040516103d89190613a65565b60405180910390f35b3480156103ed57600080fd5b50610408600480360381019061040391906137dc565b610dba565b6040516104159190613784565b60405180910390f35b34801561042a57600080fd5b5061044560048036038101906104409190613891565b610e5b565b60405161045291906138e0565b60405180910390f35b34801561046757600080fd5b50610482600480360381019061047d91906138fb565b610f00565b005b34801561049057600080fd5b506104ab60048036038101906104a691906137dc565b610f20565b6040516104b891906138e0565b60405180910390f35b3480156104cd57600080fd5b506104e860048036038101906104e39190613aec565b610f91565b005b3480156104f657600080fd5b50610511600480360381019061050c91906137dc565b611024565b60405161051e919061384a565b60405180910390f35b34801561053357600080fd5b5061053c6110d6565b60405161054991906138e0565b60405180910390f35b34801561055e57600080fd5b506105676110dd565b6040516105749190613784565b60405180910390f35b34801561058957600080fd5b506105a4600480360381019061059f9190613b39565b61116c565b6040516105b191906138e0565b60405180910390f35b3480156105c657600080fd5b506105cf611224565b005b3480156105dd57600080fd5b506105e66112ac565b6040516105f391906138e0565b60405180910390f35b34801561060857600080fd5b506106116112b3565b60405161061e919061384a565b60405180910390f35b34801561063357600080fd5b5061064e600480360381019061064991906137dc565b6112dd565b60405161065b91906138e0565b60405180910390f35b34801561067057600080fd5b50610679611302565b6040516106869190613784565b60405180910390f35b34801561069b57600080fd5b506106a4611394565b6040516106b191906138e0565b60405180910390f35b3480156106c657600080fd5b506106cf61139b565b6040516106dc9190613bc5565b60405180910390f35b3480156106f157600080fd5b5061070c60048036038101906107079190613be0565b6113c2565b005b34801561071a57600080fd5b506107236113d8565b60405161073091906138e0565b60405180910390f35b34801561074557600080fd5b5061074e61141f565b60405161075b91906136d0565b60405180910390f35b34801561077057600080fd5b5061078b60048036038101906107869190613d50565b611433565b005b34801561079957600080fd5b506107b460048036038101906107af91906137dc565b611495565b6040516107c2929190613ea3565b60405180910390f35b3480156107d757600080fd5b506107f260048036038101906107ed91906137dc565b611571565b6040516107ff9190613784565b60405180910390f35b34801561081457600080fd5b5061082f600480360381019061082a9190613eff565b611643565b005b34801561083d57600080fd5b506108466118d6565b60405161085391906138e0565b60405180910390f35b34801561086857600080fd5b50610883600480360381019061087e91906137dc565b6118dd565b60405161089091906138e0565b60405180910390f35b3480156108a557600080fd5b506108c060048036038101906108bb9190613fc4565b6118fc565b005b3480156108ce57600080fd5b506108e960048036038101906108e49190614011565b611a0e565b005b3480156108f757600080fd5b50610912600480360381019061090d9190614071565b611acf565b60405161091f91906136d0565b60405180910390f35b34801561093457600080fd5b5061094f600480360381019061094a9190613b39565b611b63565b005b34801561095d57600080fd5b50610978600480360381019061097391906137dc565b611c5b565b6040516109859190614135565b60405180910390f35b6109a860048036038101906109a39190613fc4565b611d02565b005b60007f780e9d63000000000000000000000000000000000000000000000000000000007bffffffffffffffffffffffffffffffffffffffffffffffffffffffff1916827bffffffffffffffffffffffffffffffffffffffffffffffffffffffff19161480610a1d5750610a1c82612004565b5b9050919050565b606060658054610a339061417f565b80601f0160208091040260200160405190810160405280929190818152602001828054610a5f9061417f565b8015610aac5780601f10610a8157610100808354040283529160200191610aac565b820191906000526020600020905b815481529060010190602001808311610a8f57829003601f168201915b5050505050905090565b6000610ac1826120e6565b610b00576040517f08c379a0000000000000000000000000000000000000000000000000000000008152600401610af790614223565b60405180910390fd5b6069600083815260200190815260200160002060009054906101000a900473ffffffffffffffffffffffffffffffffffffffff169050919050565b6000610b4682611024565b90508073ffffffffffffffffffffffffffffffffffffffff168373ffffffffffffffffffffffffffffffffffffffff161415610bb7576040517f08c379a0000000000000000000000000000000000000000000000000000000008152600401610bae906142b5565b60405180910390fd5b8073ffffffffffffffffffffffffffffffffffffffff16610bd6612152565b73ffffffffffffffffffffffffffffffffffffffff161480610c055750610c0481610bff612152565b611acf565b5b610c44576040517f08c379a0000000000000000000000000000000000000000000000000000000008152600401610c3b90614347565b60405180910390fd5b610c4e838361215a565b505050565b6000609980549050905090565b6101325481565b610c78610c72612152565b82612213565b610cb7576040517f08c379a0000000000000000000000000000000000000000000000000000000008152600401610cae906143d9565b60405180910390fd5b610cc28383836122f1565b505050565b610ccf612152565b73ffffffffffffffffffffffffffffffffffffffff16610ced6112b3565b73ffffffffffffffffffffffffffffffffffffffff1614610d43576040517f08c379a0000000000000000000000000000000000000000000000000000000008152600401610d3a90614445565b60405180910390fd5b8061013460146101000a81548160ff02191690831515021790555050565b606061012e805480602002602001604051908101604052809291908181526020018280548015610db057602002820191906000526020600020905b815481526020019060010190808311610d9c575b5050505050905090565b6101386020528060005260406000206000915090508054610dda9061417f565b80601f0160208091040260200160405190810160405280929190818152602001828054610e069061417f565b8015610e535780601f10610e2857610100808354040283529160200191610e53565b820191906000526020600020905b815481529060010190602001808311610e3657829003601f168201915b505050505081565b6000610e668361116c565b8210610ea7576040517f08c379a0000000000000000000000000000000000000000000000000000000008152600401610e9e906144d7565b60405180910390fd5b609760008473ffffffffffffffffffffffffffffffffffffffff1673ffffffffffffffffffffffffffffffffffffffff168152602001908152602001600020600083815260200190815260200160002054905092915050565b610f1b83838360405180602001604052806000815250611433565b505050565b6000610f2a610c53565b8210610f6b576040517f08c379a0000000000000000000000000000000000000000000000000000000008152600401610f6290614569565b60405180910390fd5b60998281548110610f7f57610f7e614589565b5b90600052602060002001549050919050565b610f99612152565b73ffffffffffffffffffffffffffffffffffffffff16610fb76112b3565b73ffffffffffffffffffffffffffffffffffffffff161461100d576040517f08c379a000000000000000000000000000000000000000000000000000000000815260040161100490614445565b60405180910390fd5b8181610133919061101f929190613444565b505050565b6000806067600084815260200190815260200160002060009054906101000a900473ffffffffffffffffffffffffffffffffffffffff169050600073ffffffffffffffffffffffffffffffffffffffff168173ffffffffffffffffffffffffffffffffffffffff1614156110cd576040517f08c379a00000000000000000000000000000000000000000000000000000000081526004016110c49061462a565b60405180910390fd5b80915050919050565b61012f5481565b61013380546110eb9061417f565b80601f01602080910402602001604051908101604052809291908181526020018280546111179061417f565b80156111645780601f1061113957610100808354040283529160200191611164565b820191906000526020600020905b81548152906001019060200180831161114757829003601f168201915b505050505081565b60008073ffffffffffffffffffffffffffffffffffffffff168273ffffffffffffffffffffffffffffffffffffffff1614156111dd576040517f08c379a00000000000000000000000000000000000000000000000000000000081526004016111d4906146bc565b60405180910390fd5b606860008373ffffffffffffffffffffffffffffffffffffffff1673ffffffffffffffffffffffffffffffffffffffff168152602001908152602001600020549050919050565b61122c612152565b73ffffffffffffffffffffffffffffffffffffffff1661124a6112b3565b73ffffffffffffffffffffffffffffffffffffffff16146112a0576040517f08c379a000000000000000000000000000000000000000000000000000000000815260040161129790614445565b60405180910390fd5b6112aa600061254d565b565b6101315481565b600060c960009054906101000a900473ffffffffffffffffffffffffffffffffffffffff16905090565b61012e81815481106112ee57600080fd5b906000526020600020016000915090505481565b6060606680546113119061417f565b80601f016020809104026020016040519081016040528092919081815260200182805461133d9061417f565b801561138a5780601f1061135f5761010080835404028352916020019161138a565b820191906000526020600020905b81548152906001019060200180831161136d57829003601f168201915b5050505050905090565b6101305481565b61013460009054906101000a900473ffffffffffffffffffffffffffffffffffffffff1681565b6113d46113cd612152565b8383612613565b5050565b600061013154610132546113ec919061470b565b42101561141757426101315461013254611406919061470b565b6114109190614761565b905061141c565b600090505b90565b61013460149054906101000a900460ff1681565b61144461143e612152565b83612213565b611483576040517f08c379a000000000000000000000000000000000000000000000000000000000815260040161147a906143d9565b60405180910390fd5b61148f84848484612780565b50505050565b60608060006101376000858152602001908152602001600020905061013460009054906101000a900473ffffffffffffffffffffffffffffffffffffffff1673ffffffffffffffffffffffffffffffffffffffff1663fb3bc76e8260006002811061150357611502614589565b5b01546040518263ffffffff1660e01b815260040161152191906138e0565b600060405180830381865afa15801561153e573d6000803e3d6000fd5b505050506040513d6000823e3d601f19601f82011682018060405250810190611567919061495c565b9250925050915091565b606061157c826120e6565b61158557600080fd5b600061159083611c5b565b905060006115b5826000600281106115ab576115aa614589565b5b60200201516127dc565b905060008151116115d5576040518060200160405280600081525061163a565b806115f7836000600281106115ed576115ec614589565b5b602002015161293f565b6116188460016002811061160e5761160d614589565b5b602002015161293f565b60405160200161162a93929190614aa8565b6040516020818303038152906040525b92505050919050565b600060019054906101000a900460ff1661166b5760008054906101000a900460ff1615611674565b611673612aa0565b5b6116b3576040517f08c379a00000000000000000000000000000000000000000000000000000000081526004016116aa90614b61565b60405180910390fd5b60008060019054906101000a900460ff161590508015611703576001600060016101000a81548160ff02191690831515021790555060016000806101000a81548160ff0219169083151502179055505b81604001358280606001906117189190614b90565b90501461172457600080fd5b6117d28280600001906117379190614bf3565b8080601f016020809104026020016040519081016040528093929190818152602001838380828437600081840152601f19601f8201169050808301925050505050505083806020019061178a9190614bf3565b8080601f016020809104026020016040519081016040528093929190818152602001838380828437600081840152601f19601f82011690508083019250505050505050612ab1565b6117db8461254d565b8261013460006101000a81548173ffffffffffffffffffffffffffffffffffffffff021916908373ffffffffffffffffffffffffffffffffffffffff160217905550816040013561012d819055508180606001906118399190614b90565b61012e91906118499291906134ca565b50816080013561012f819055508160a0013561013081905550818060e001906118729190614bf3565b6101339190611882929190613444565b50428260c0013511156118a757428260c0013561189f9190614761565b610131819055505b426101328190555080156118d05760008060016101000a81548160ff0219169083151502179055505b50505050565b61012d5481565b6101366020528060005260406000206000915090508060000154905081565b611904612152565b73ffffffffffffffffffffffffffffffffffffffff166119226112b3565b73ffffffffffffffffffffffffffffffffffffffff1614611978576040517f08c379a000000000000000000000000000000000000000000000000000000000815260040161196f90614445565b60405180910390fd5b6000828290501161198857600080fd5b8181905061012d600082825461199e919061470b565b9250508190555060005b82829050811015611a095761012e8383838181106119c9576119c8614589565b5b9050602002013590806001815401808255809150506001900390600052602060002001600090919091909150558080611a0190614c56565b9150506119a8565b505050565b611a16612152565b73ffffffffffffffffffffffffffffffffffffffff16611a346112b3565b73ffffffffffffffffffffffffffffffffffffffff1614611a8a576040517f08c379a0000000000000000000000000000000000000000000000000000000008152600401611a8190614445565b60405180910390fd5b600081118015611a9d575061012d548111155b611aa657600080fd5b828261013860008481526020019081526020016000209190611ac9929190613444565b50505050565b6000606a60008473ffffffffffffffffffffffffffffffffffffffff1673ffffffffffffffffffffffffffffffffffffffff16815260200190815260200160002060008373ffffffffffffffffffffffffffffffffffffffff1673ffffffffffffffffffffffffffffffffffffffff16815260200190815260200160002060009054906101000a900460ff16905092915050565b611b6b612152565b73ffffffffffffffffffffffffffffffffffffffff16611b896112b3565b73ffffffffffffffffffffffffffffffffffffffff1614611bdf576040517f08c379a0000000000000000000000000000000000000000000000000000000008152600401611bd690614445565b60405180910390fd5b600073ffffffffffffffffffffffffffffffffffffffff168173ffffffffffffffffffffffffffffffffffffffff161415611c4f576040517f08c379a0000000000000000000000000000000000000000000000000000000008152600401611c4690614d11565b60405180910390fd5b611c588161254d565b50565b611c63613517565b611c6c826120e6565b611cab576040517f08c379a0000000000000000000000000000000000000000000000000000000008152600401611ca290614d7d565b60405180910390fd5b6101376000838152602001908152602001600020600280602002604051908101604052809291908260028015611cf6576020028201915b815481526020019060010190808311611ce2575b50505050509050919050565b600260fb541415611d48576040517f08c379a0000000000000000000000000000000000000000000000000000000008152600401611d3f90614de9565b60405180910390fd5b600260fb8190555061013460149054906101000a900460ff1615611d6b57600080fd5b6101315461013254611d7d919061470b565b421015611d8957600080fd5b60008282905011611d9957600080fd5b6000610130541115611dcc576101305482829050611db63361116c565b611dc0919061470b565b1115611dcb57600080fd5b5b611dd46112b3565b73ffffffffffffffffffffffffffffffffffffffff163373ffffffffffffffffffffffffffffffffffffffff1614611e245761012f5482829050611e189190614e09565b3414611e2357600080fd5b5b61013460009054906101000a900473ffffffffffffffffffffffffffffffffffffffff1673ffffffffffffffffffffffffffffffffffffffff1663a84f8f763484846040518463ffffffff1660e01b8152600401611e83929190614ec4565b6000604051808303818588803b158015611e9c57600080fd5b505af1158015611eb0573d6000803e3d6000fd5b505050505060005b82829050811015611fe4576000838383818110611ed857611ed7614589565b5b905060200201359050600081118015611ef4575061012d548111155b611efd57600080fd5b60006101366000838152602001908152602001600020905061012e600183611f259190614761565b81548110611f3657611f35614589565b5b90600052602060002001546001611f4c83612b1e565b611f56919061470b565b1115611f6157600080fd5b611f6a81612b2c565b611f75610135612b2c565b6000611f82610135612b1e565b9050611f8e3382612b42565b6040518060400160405280848152602001611fa884612b1e565b8152506101376000838152602001908152602001600020906002611fcd929190613539565b505050508080611fdc90614c56565b915050611eb8565b50600160fb819055505050565b600080823b905060008111915050919050565b60007f80ac58cd000000000000000000000000000000000000000000000000000000007bffffffffffffffffffffffffffffffffffffffffffffffffffffffff1916827bffffffffffffffffffffffffffffffffffffffffffffffffffffffff191614806120cf57507f5b5e139f000000000000000000000000000000000000000000000000000000007bffffffffffffffffffffffffffffffffffffffffffffffffffffffff1916827bffffffffffffffffffffffffffffffffffffffffffffffffffffffff1916145b806120df57506120de82612d10565b5b9050919050565b60008073ffffffffffffffffffffffffffffffffffffffff166067600084815260200190815260200160002060009054906101000a900473ffffffffffffffffffffffffffffffffffffffff1673ffffffffffffffffffffffffffffffffffffffff1614159050919050565b600033905090565b816069600083815260200190815260200160002060006101000a81548173ffffffffffffffffffffffffffffffffffffffff021916908373ffffffffffffffffffffffffffffffffffffffff160217905550808273ffffffffffffffffffffffffffffffffffffffff166121cd83611024565b73ffffffffffffffffffffffffffffffffffffffff167f8c5be1e5ebec7d5bd14f71427d1e84f3dd0314c0f7b2291e5b200ac8c7c3b92560405160405180910390a45050565b600061221e826120e6565b61225d576040517f08c379a000000000000000000000000000000000000000000000000000000000815260040161225490614f5a565b60405180910390fd5b600061226883611024565b90508073ffffffffffffffffffffffffffffffffffffffff168473ffffffffffffffffffffffffffffffffffffffff1614806122d757508373ffffffffffffffffffffffffffffffffffffffff166122bf84610ab6565b73ffffffffffffffffffffffffffffffffffffffff16145b806122e857506122e78185611acf565b5b91505092915050565b8273ffffffffffffffffffffffffffffffffffffffff1661231182611024565b73ffffffffffffffffffffffffffffffffffffffff1614612367576040517f08c379a000000000000000000000000000000000000000000000000000000000815260040161235e90614fec565b60405180910390fd5b600073ffffffffffffffffffffffffffffffffffffffff168273ffffffffffffffffffffffffffffffffffffffff1614156123d7576040517f08c379a00000000000000000000000000000000000000000000000000000000081526004016123ce9061507e565b60405180910390fd5b6123e2838383612d7a565b6123ed60008261215a565b6001606860008573ffffffffffffffffffffffffffffffffffffffff1673ffffffffffffffffffffffffffffffffffffffff168152602001908152602001600020600082825461243d9190614761565b925050819055506001606860008473ffffffffffffffffffffffffffffffffffffffff1673ffffffffffffffffffffffffffffffffffffffff1681526020019081526020016000206000828254612494919061470b565b92505081905550816067600083815260200190815260200160002060006101000a81548173ffffffffffffffffffffffffffffffffffffffff021916908373ffffffffffffffffffffffffffffffffffffffff160217905550808273ffffffffffffffffffffffffffffffffffffffff168473ffffffffffffffffffffffffffffffffffffffff167fddf252ad1be2c89b69c2b068fc378daa952ba7f163c4a11628f55a4df523b3ef60405160405180910390a4505050565b600060c960009054906101000a900473ffffffffffffffffffffffffffffffffffffffff1690508160c960006101000a81548173ffffffffffffffffffffffffffffffffffffffff021916908373ffffffffffffffffffffffffffffffffffffffff1602179055508173ffffffffffffffffffffffffffffffffffffffff168173ffffffffffffffffffffffffffffffffffffffff167f8be0079c531659141344cd1fd0a4f28419497f9722a3daafe3b4186f6b6457e060405160405180910390a35050565b8173ffffffffffffffffffffffffffffffffffffffff168373ffffffffffffffffffffffffffffffffffffffff161415612682576040517f08c379a0000000000000000000000000000000000000000000000000000000008152600401612679906150ea565b60405180910390fd5b80606a60008573ffffffffffffffffffffffffffffffffffffffff1673ffffffffffffffffffffffffffffffffffffffff16815260200190815260200160002060008473ffffffffffffffffffffffffffffffffffffffff1673ffffffffffffffffffffffffffffffffffffffff16815260200190815260200160002060006101000a81548160ff0219169083151502179055508173ffffffffffffffffffffffffffffffffffffffff168373ffffffffffffffffffffffffffffffffffffffff167f17307eab39ab6107e8899845ad3d59bd9653f200f220920489ca2b5937696c318360405161277391906136d0565b60405180910390a3505050565b61278b8484846122f1565b61279784848484612e8e565b6127d6576040517f08c379a00000000000000000000000000000000000000000000000000000000081526004016127cd9061517c565b60405180910390fd5b50505050565b60606000610138600084815260200190815260200160002080546127ff9061417f565b9050141561289a5761013380546128159061417f565b80601f01602080910402602001604051908101604052809291908181526020018280546128419061417f565b801561288e5780601f106128635761010080835404028352916020019161288e565b820191906000526020600020905b81548152906001019060200180831161287157829003601f168201915b5050505050905061293a565b610138600083815260200190815260200160002080546128b99061417f565b80601f01602080910402602001604051908101604052809291908181526020018280546128e59061417f565b80156129325780601f1061290757610100808354040283529160200191612932565b820191906000526020600020905b81548152906001019060200180831161291557829003601f168201915b505050505090505b919050565b60606000821415612987576040518060400160405280600181526020017f30000000000000000000000000000000000000000000000000000000000000008152509050612a9b565b600082905060005b600082146129b95780806129a290614c56565b915050600a826129b291906151cb565b915061298f565b60008167ffffffffffffffff8111156129d5576129d4613c25565b5b6040519080825280601f01601f191660200182016040528015612a075781602001600182028036833780820191505090505b5090505b60008514612a9457600182612a209190614761565b9150600a85612a2f91906151fc565b6030612a3b919061470b565b60f81b818381518110612a5157612a50614589565b5b60200101907effffffffffffffffffffffffffffffffffffffffffffffffffffffffffffff1916908160001a905350600a85612a8d91906151cb565b9450612a0b565b8093505050505b919050565b6000612aab30611ff1565b15905090565b600060019054906101000a900460ff16612b00576040517f08c379a0000000000000000000000000000000000000000000000000000000008152600401612af79061529f565b60405180910390fd5b612b08613016565b612b10613067565b612b1a82826130b8565b5050565b600081600001549050919050565b6001816000016000828254019250508190555050565b600073ffffffffffffffffffffffffffffffffffffffff168273ffffffffffffffffffffffffffffffffffffffff161415612bb2576040517f08c379a0000000000000000000000000000000000000000000000000000000008152600401612ba99061530b565b60405180910390fd5b612bbb816120e6565b15612bfb576040517f08c379a0000000000000000000000000000000000000000000000000000000008152600401612bf290615377565b60405180910390fd5b612c0760008383612d7a565b6001606860008473ffffffffffffffffffffffffffffffffffffffff1673ffffffffffffffffffffffffffffffffffffffff1681526020019081526020016000206000828254612c57919061470b565b92505081905550816067600083815260200190815260200160002060006101000a81548173ffffffffffffffffffffffffffffffffffffffff021916908373ffffffffffffffffffffffffffffffffffffffff160217905550808273ffffffffffffffffffffffffffffffffffffffff16600073ffffffffffffffffffffffffffffffffffffffff167fddf252ad1be2c89b69c2b068fc378daa952ba7f163c4a11628f55a4df523b3ef60405160405180910390a45050565b60007f01ffc9a7000000000000000000000000000000000000000000000000000000007bffffffffffffffffffffffffffffffffffffffffffffffffffffffff1916827bffffffffffffffffffffffffffffffffffffffffffffffffffffffff1916149050919050565b612d85838383613139565b600073ffffffffffffffffffffffffffffffffffffffff168373ffffffffffffffffffffffffffffffffffffffff161415612dc857612dc38161313e565b612e07565b8173ffffffffffffffffffffffffffffffffffffffff168373ffffffffffffffffffffffffffffffffffffffff1614612e0657612e058382613187565b5b5b600073ffffffffffffffffffffffffffffffffffffffff168273ffffffffffffffffffffffffffffffffffffffff161415612e4a57612e45816132f4565b612e89565b8273ffffffffffffffffffffffffffffffffffffffff168273ffffffffffffffffffffffffffffffffffffffff1614612e8857612e8782826133c5565b5b5b505050565b6000612eaf8473ffffffffffffffffffffffffffffffffffffffff16611ff1565b15613009578373ffffffffffffffffffffffffffffffffffffffff1663150b7a02612ed8612152565b8786866040518563ffffffff1660e01b8152600401612efa94939291906153ec565b6020604051808303816000875af1925050508015612f3657506040513d601f19601f82011682018060405250810190612f33919061544d565b60015b612fb9573d8060008114612f66576040519150601f19603f3d011682016040523d82523d6000602084013e612f6b565b606091505b50600081511415612fb1576040517f08c379a0000000000000000000000000000000000000000000000000000000008152600401612fa89061517c565b60405180910390fd5b805181602001fd5b63150b7a0260e01b7bffffffffffffffffffffffffffffffffffffffffffffffffffffffff1916817bffffffffffffffffffffffffffffffffffffffffffffffffffffffff19161491505061300e565b600190505b949350505050565b600060019054906101000a900460ff16613065576040517f08c379a000000000000000000000000000000000000000000000000000000000815260040161305c9061529f565b60405180910390fd5b565b600060019054906101000a900460ff166130b6576040517f08c379a00000000000000000000000000000000000000000000000000000000081526004016130ad9061529f565b60405180910390fd5b565b600060019054906101000a900460ff16613107576040517f08c379a00000000000000000000000000000000000000000000000000000000081526004016130fe9061529f565b60405180910390fd5b816065908051906020019061311d929190613579565b508060669080519060200190613134929190613579565b505050565b505050565b609980549050609a600083815260200190815260200160002081905550609981908060018154018082558091505060019003906000526020600020016000909190919091505550565b600060016131948461116c565b61319e9190614761565b9050600060986000848152602001908152602001600020549050818114613283576000609760008673ffffffffffffffffffffffffffffffffffffffff1673ffffffffffffffffffffffffffffffffffffffff168152602001908152602001600020600084815260200190815260200160002054905080609760008773ffffffffffffffffffffffffffffffffffffffff1673ffffffffffffffffffffffffffffffffffffffff168152602001908152602001600020600084815260200190815260200160002081905550816098600083815260200190815260200160002081905550505b6098600084815260200190815260200160002060009055609760008573ffffffffffffffffffffffffffffffffffffffff1673ffffffffffffffffffffffffffffffffffffffff16815260200190815260200160002060008381526020019081526020016000206000905550505050565b600060016099805490506133089190614761565b90506000609a600084815260200190815260200160002054905060006099838154811061333857613337614589565b5b90600052602060002001549050806099838154811061335a57613359614589565b5b906000526020600020018190555081609a600083815260200190815260200160002081905550609a60008581526020019081526020016000206000905560998054806133a9576133a861547a565b5b6001900381819060005260206000200160009055905550505050565b60006133d08361116c565b905081609760008573ffffffffffffffffffffffffffffffffffffffff1673ffffffffffffffffffffffffffffffffffffffff168152602001908152602001600020600083815260200190815260200160002081905550806098600084815260200190815260200160002081905550505050565b8280546134509061417f565b90600052602060002090601f01602090048101928261347257600085556134b9565b82601f1061348b57803560ff19168380011785556134b9565b828001600101855582156134b9579182015b828111156134b857823582559160200191906001019061349d565b5b5090506134c691906135ff565b5090565b828054828255906000526020600020908101928215613506579160200282015b828111156135055782358255916020019190600101906134ea565b5b50905061351391906135ff565b5090565b6040518060400160405280600290602082028036833780820191505090505090565b8260028101928215613568579160200282015b8281111561356757825182559160200191906001019061354c565b5b50905061357591906135ff565b5090565b8280546135859061417f565b90600052602060002090601f0160209004810192826135a757600085556135ee565b82601f106135c057805160ff19168380011785556135ee565b828001600101855582156135ee579182015b828111156135ed5782518255916020019190600101906135d2565b5b5090506135fb91906135ff565b5090565b5b80821115613618576000816000905550600101613600565b5090565b6000604051905090565b600080fd5b600080fd5b60007fffffffff0000000000000000000000000000000000000000000000000000000082169050919050565b61366581613630565b811461367057600080fd5b50565b6000813590506136828161365c565b92915050565b60006020828403121561369e5761369d613626565b5b60006136ac84828501613673565b91505092915050565b60008115159050919050565b6136ca816136b5565b82525050565b60006020820190506136e560008301846136c1565b92915050565b600081519050919050565b600082825260208201905092915050565b60005b8381101561372557808201518184015260208101905061370a565b83811115613734576000848401525b50505050565b6000601f19601f8301169050919050565b6000613756826136eb565b61376081856136f6565b9350613770818560208601613707565b6137798161373a565b840191505092915050565b6000602082019050818103600083015261379e818461374b565b905092915050565b6000819050919050565b6137b9816137a6565b81146137c457600080fd5b50565b6000813590506137d6816137b0565b92915050565b6000602082840312156137f2576137f1613626565b5b6000613800848285016137c7565b91505092915050565b600073ffffffffffffffffffffffffffffffffffffffff82169050919050565b600061383482613809565b9050919050565b61384481613829565b82525050565b600060208201905061385f600083018461383b565b92915050565b61386e81613829565b811461387957600080fd5b50565b60008135905061388b81613865565b92915050565b600080604083850312156138a8576138a7613626565b5b60006138b68582860161387c565b92505060206138c7858286016137c7565b9150509250929050565b6138da816137a6565b82525050565b60006020820190506138f560008301846138d1565b92915050565b60008060006060848603121561391457613913613626565b5b60006139228682870161387c565b93505060206139338682870161387c565b9250506040613944868287016137c7565b9150509250925092565b613957816136b5565b811461396257600080fd5b50565b6000813590506139748161394e565b92915050565b6000602082840312156139905761398f613626565b5b600061399e84828501613965565b91505092915050565b600081519050919050565b600082825260208201905092915050565b6000819050602082019050919050565b6139dc816137a6565b82525050565b60006139ee83836139d3565b60208301905092915050565b6000602082019050919050565b6000613a12826139a7565b613a1c81856139b2565b9350613a27836139c3565b8060005b83811015613a58578151613a3f88826139e2565b9750613a4a836139fa565b925050600181019050613a2b565b5085935050505092915050565b60006020820190508181036000830152613a7f8184613a07565b905092915050565b600080fd5b600080fd5b600080fd5b60008083601f840112613aac57613aab613a87565b5b8235905067ffffffffffffffff811115613ac957613ac8613a8c565b5b602083019150836001820283011115613ae557613ae4613a91565b5b9250929050565b60008060208385031215613b0357613b02613626565b5b600083013567ffffffffffffffff811115613b2157613b2061362b565b5b613b2d85828601613a96565b92509250509250929050565b600060208284031215613b4f57613b4e613626565b5b6000613b5d8482850161387c565b91505092915050565b6000819050919050565b6000613b8b613b86613b8184613809565b613b66565b613809565b9050919050565b6000613b9d82613b70565b9050919050565b6000613baf82613b92565b9050919050565b613bbf81613ba4565b82525050565b6000602082019050613bda6000830184613bb6565b92915050565b60008060408385031215613bf757613bf6613626565b5b6000613c058582860161387c565b9250506020613c1685828601613965565b9150509250929050565b600080fd5b7f4e487b7100000000000000000000000000000000000000000000000000000000600052604160045260246000fd5b613c5d8261373a565b810181811067ffffffffffffffff82111715613c7c57613c7b613c25565b5b80604052505050565b6000613c8f61361c565b9050613c9b8282613c54565b919050565b600067ffffffffffffffff821115613cbb57613cba613c25565b5b613cc48261373a565b9050602081019050919050565b82818337600083830152505050565b6000613cf3613cee84613ca0565b613c85565b905082815260208101848484011115613d0f57613d0e613c20565b5b613d1a848285613cd1565b509392505050565b600082601f830112613d3757613d36613a87565b5b8135613d47848260208601613ce0565b91505092915050565b60008060008060808587031215613d6a57613d69613626565b5b6000613d788782880161387c565b9450506020613d898782880161387c565b9350506040613d9a878288016137c7565b925050606085013567ffffffffffffffff811115613dbb57613dba61362b565b5b613dc787828801613d22565b91505092959194509250565b600081519050919050565b600082825260208201905092915050565b6000819050602082019050919050565b6000613e0a82613809565b9050919050565b613e1a81613dff565b82525050565b6000613e2c8383613e11565b60208301905092915050565b6000602082019050919050565b6000613e5082613dd3565b613e5a8185613dde565b9350613e6583613def565b8060005b83811015613e96578151613e7d8882613e20565b9750613e8883613e38565b925050600181019050613e69565b5085935050505092915050565b60006040820190508181036000830152613ebd8185613e45565b90508181036020830152613ed18184613a07565b90509392505050565b600080fd5b60006101008284031215613ef657613ef5613eda565b5b81905092915050565b600080600060608486031215613f1857613f17613626565b5b6000613f268682870161387c565b9350506020613f378682870161387c565b925050604084013567ffffffffffffffff811115613f5857613f5761362b565b5b613f6486828701613edf565b9150509250925092565b60008083601f840112613f8457613f83613a87565b5b8235905067ffffffffffffffff811115613fa157613fa0613a8c565b5b602083019150836020820283011115613fbd57613fbc613a91565b5b9250929050565b60008060208385031215613fdb57613fda613626565b5b600083013567ffffffffffffffff811115613ff957613ff861362b565b5b61400585828601613f6e565b92509250509250929050565b60008060006040848603121561402a57614029613626565b5b600084013567ffffffffffffffff8111156140485761404761362b565b5b61405486828701613a96565b93509350506020614067868287016137c7565b9150509250925092565b6000806040838503121561408857614087613626565b5b60006140968582860161387c565b92505060206140a78582860161387c565b9150509250929050565b600060029050919050565b600081905092915050565b6000819050919050565b6000602082019050919050565b6140e7816140b1565b6140f181846140bc565b92506140fc826140c7565b8060005b8381101561412d57815161411487826139e2565b965061411f836140d1565b925050600181019050614100565b505050505050565b600060408201905061414a60008301846140de565b92915050565b7f4e487b7100000000000000000000000000000000000000000000000000000000600052602260045260246000fd5b6000600282049050600182168061419757607f821691505b602082108114156141ab576141aa614150565b5b50919050565b7f4552433732313a20617070726f76656420717565727920666f72206e6f6e657860008201527f697374656e7420746f6b656e0000000000000000000000000000000000000000602082015250565b600061420d602c836136f6565b9150614218826141b1565b604082019050919050565b6000602082019050818103600083015261423c81614200565b9050919050565b7f4552433732313a20617070726f76616c20746f2063757272656e74206f776e6560008201527f7200000000000000000000000000000000000000000000000000000000000000602082015250565b600061429f6021836136f6565b91506142aa82614243565b604082019050919050565b600060208201905081810360008301526142ce81614292565b9050919050565b7f4552433732313a20617070726f76652063616c6c6572206973206e6f74206f7760008201527f6e6572206e6f7220617070726f76656420666f7220616c6c0000000000000000602082015250565b60006143316038836136f6565b915061433c826142d5565b604082019050919050565b6000602082019050818103600083015261436081614324565b9050919050565b7f4552433732313a207472616e736665722063616c6c6572206973206e6f74206f60008201527f776e6572206e6f7220617070726f766564000000000000000000000000000000602082015250565b60006143c36031836136f6565b91506143ce82614367565b604082019050919050565b600060208201905081810360008301526143f2816143b6565b9050919050565b7f4f776e61626c653a2063616c6c6572206973206e6f7420746865206f776e6572600082015250565b600061442f6020836136f6565b915061443a826143f9565b602082019050919050565b6000602082019050818103600083015261445e81614422565b9050919050565b7f455243373231456e756d657261626c653a206f776e657220696e646578206f7560008201527f74206f6620626f756e6473000000000000000000000000000000000000000000602082015250565b60006144c1602b836136f6565b91506144cc82614465565b604082019050919050565b600060208201905081810360008301526144f0816144b4565b9050919050565b7f455243373231456e756d657261626c653a20676c6f62616c20696e646578206f60008201527f7574206f6620626f756e64730000000000000000000000000000000000000000602082015250565b6000614553602c836136f6565b915061455e826144f7565b604082019050919050565b6000602082019050818103600083015261458281614546565b9050919050565b7f4e487b7100000000000000000000000000000000000000000000000000000000600052603260045260246000fd5b7f4552433732313a206f776e657220717565727920666f72206e6f6e657869737460008201527f656e7420746f6b656e0000000000000000000000000000000000000000000000602082015250565b60006146146029836136f6565b915061461f826145b8565b604082019050919050565b6000602082019050818103600083015261464381614607565b9050919050565b7f4552433732313a2062616c616e636520717565727920666f7220746865207a6560008201527f726f206164647265737300000000000000000000000000000000000000000000602082015250565b60006146a6602a836136f6565b91506146b18261464a565b604082019050919050565b600060208201905081810360008301526146d581614699565b9050919050565b7f4e487b7100000000000000000000000000000000000000000000000000000000600052601160045260246000fd5b6000614716826137a6565b9150614721836137a6565b9250827fffffffffffffffffffffffffffffffffffffffffffffffffffffffffffffffff03821115614756576147556146dc565b5b828201905092915050565b600061476c826137a6565b9150614777836137a6565b92508282101561478a576147896146dc565b5b828203905092915050565b600067ffffffffffffffff8211156147b0576147af613c25565b5b602082029050602081019050919050565b6147ca81613dff565b81146147d557600080fd5b50565b6000815190506147e7816147c1565b92915050565b60006148006147fb84614795565b613c85565b9050808382526020820190506020840283018581111561482357614822613a91565b5b835b8181101561484c578061483888826147d8565b845260208401935050602081019050614825565b5050509392505050565b600082601f83011261486b5761486a613a87565b5b815161487b8482602086016147ed565b91505092915050565b600067ffffffffffffffff82111561489f5761489e613c25565b5b602082029050602081019050919050565b6000815190506148bf816137b0565b92915050565b60006148d86148d384614884565b613c85565b905080838252602082019050602084028301858111156148fb576148fa613a91565b5b835b81811015614924578061491088826148b0565b8452602084019350506020810190506148fd565b5050509392505050565b600082601f83011261494357614942613a87565b5b81516149538482602086016148c5565b91505092915050565b6000806040838503121561497357614972613626565b5b600083015167ffffffffffffffff8111156149915761499061362b565b5b61499d85828601614856565b925050602083015167ffffffffffffffff8111156149be576149bd61362b565b5b6149ca8582860161492e565b9150509250929050565b600081905092915050565b60006149ea826136eb565b6149f481856149d4565b9350614a04818560208601613707565b80840191505092915050565b7f2d00000000000000000000000000000000000000000000000000000000000000600082015250565b6000614a466001836149d4565b9150614a5182614a10565b600182019050919050565b7f2e6a736f6e000000000000000000000000000000000000000000000000000000600082015250565b6000614a926005836149d4565b9150614a9d82614a5c565b600582019050919050565b6000614ab482866149df565b9150614ac082856149df565b9150614acb82614a39565b9150614ad782846149df565b9150614ae282614a85565b9150819050949350505050565b7f496e697469616c697a61626c653a20636f6e747261637420697320616c72656160008201527f647920696e697469616c697a6564000000000000000000000000000000000000602082015250565b6000614b4b602e836136f6565b9150614b5682614aef565b604082019050919050565b60006020820190508181036000830152614b7a81614b3e565b9050919050565b600080fd5b600080fd5b600080fd5b60008083356001602003843603038112614bad57614bac614b81565b5b80840192508235915067ffffffffffffffff821115614bcf57614bce614b86565b5b602083019250602082023603831315614beb57614bea614b8b565b5b509250929050565b60008083356001602003843603038112614c1057614c0f614b81565b5b80840192508235915067ffffffffffffffff821115614c3257614c31614b86565b5b602083019250600182023603831315614c4e57614c4d614b8b565b5b509250929050565b6000614c61826137a6565b91507fffffffffffffffffffffffffffffffffffffffffffffffffffffffffffffffff821415614c9457614c936146dc565b5b600182019050919050565b7f4f776e61626c653a206e6577206f776e657220697320746865207a65726f206160008201527f6464726573730000000000000000000000000000000000000000000000000000602082015250565b6000614cfb6026836136f6565b9150614d0682614c9f565b604082019050919050565b60006020820190508181036000830152614d2a81614cee565b9050919050565b7f746f6b656e20646f6573206e6f74206578697374000000000000000000000000600082015250565b6000614d676014836136f6565b9150614d7282614d31565b602082019050919050565b60006020820190508181036000830152614d9681614d5a565b9050919050565b7f5265656e7472616e637947756172643a207265656e7472616e742063616c6c00600082015250565b6000614dd3601f836136f6565b9150614dde82614d9d565b602082019050919050565b60006020820190508181036000830152614e0281614dc6565b9050919050565b6000614e14826137a6565b9150614e1f836137a6565b9250817fffffffffffffffffffffffffffffffffffffffffffffffffffffffffffffffff0483118215151615614e5857614e576146dc565b5b828202905092915050565b600080fd5b6000614e7483856139b2565b93507f07ffffffffffffffffffffffffffffffffffffffffffffffffffffffffffffff831115614ea757614ea6614e63565b5b602083029250614eb8838584613cd1565b82840190509392505050565b60006020820190508181036000830152614edf818486614e68565b90509392505050565b7f4552433732313a206f70657261746f7220717565727920666f72206e6f6e657860008201527f697374656e7420746f6b656e0000000000000000000000000000000000000000602082015250565b6000614f44602c836136f6565b9150614f4f82614ee8565b604082019050919050565b60006020820190508181036000830152614f7381614f37565b9050919050565b7f4552433732313a207472616e73666572206f6620746f6b656e2074686174206960008201527f73206e6f74206f776e0000000000000000000000000000000000000000000000602082015250565b6000614fd66029836136f6565b9150614fe182614f7a565b604082019050919050565b6000602082019050818103600083015261500581614fc9565b9050919050565b7f4552433732313a207472616e7366657220746f20746865207a65726f2061646460008201527f7265737300000000000000000000000000000000000000000000000000000000602082015250565b60006150686024836136f6565b91506150738261500c565b604082019050919050565b600060208201905081810360008301526150978161505b565b9050919050565b7f4552433732313a20617070726f766520746f2063616c6c657200000000000000600082015250565b60006150d46019836136f6565b91506150df8261509e565b602082019050919050565b60006020820190508181036000830152615103816150c7565b9050919050565b7f4552433732313a207472616e7366657220746f206e6f6e20455243373231526560008201527f63656976657220696d706c656d656e7465720000000000000000000000000000602082015250565b60006151666032836136f6565b91506151718261510a565b604082019050919050565b6000602082019050818103600083015261519581615159565b9050919050565b7f4e487b7100000000000000000000000000000000000000000000000000000000600052601260045260246000fd5b60006151d6826137a6565b91506151e1836137a6565b9250826151f1576151f061519c565b5b828204905092915050565b6000615207826137a6565b9150615212836137a6565b9250826152225761522161519c565b5b828206905092915050565b7f496e697469616c697a61626c653a20636f6e7472616374206973206e6f74206960008201527f6e697469616c697a696e67000000000000000000000000000000000000000000602082015250565b6000615289602b836136f6565b91506152948261522d565b604082019050919050565b600060208201905081810360008301526152b88161527c565b9050919050565b7f4552433732313a206d696e7420746f20746865207a65726f2061646472657373600082015250565b60006152f56020836136f6565b9150615300826152bf565b602082019050919050565b60006020820190508181036000830152615324816152e8565b9050919050565b7f4552433732313a20746f6b656e20616c7265616479206d696e74656400000000600082015250565b6000615361601c836136f6565b915061536c8261532b565b602082019050919050565b6000602082019050818103600083015261539081615354565b9050919050565b600081519050919050565b600082825260208201905092915050565b60006153be82615397565b6153c881856153a2565b93506153d8818560208601613707565b6153e18161373a565b840191505092915050565b6000608082019050615401600083018761383b565b61540e602083018661383b565b61541b60408301856138d1565b818103606083015261542d81846153b3565b905095945050505050565b6000815190506154478161365c565b92915050565b60006020828403121561546357615462613626565b5b600061547184828501615438565b91505092915050565b7f4e487b7100000000000000000000000000000000000000000000000000000000600052603160045260246000fdfea2646970667358221220fac7845685e5715b7fc43a512d6dabddaf5626790ec2f3ae8be7b5ac61a9388864736f6c634300080c0033",
  "immutableReferences": {},
  "source": "// contracts/MintSplitERC721.sol\n// SPDX-License-Identifier: MIT\npragma solidity ^0.8.0;\n\nimport \"@openzeppelin/contracts-upgradeable/token/ERC721/extensions/ERC721EnumerableUpgradeable.sol\";\nimport \"@openzeppelin/contracts-upgradeable/security/ReentrancyGuardUpgradeable.sol\";\nimport \"@openzeppelin/contracts-upgradeable/access/OwnableUpgradeable.sol\";\nimport \"@manifoldxyz/royalty-registry-solidity/contracts/specs/IManifold.sol\";\nimport \"@openzeppelin/contracts/utils/Strings.sol\";\nimport \"@openzeppelin/contracts/utils/Counters.sol\";\nimport \"./RevenueSplitter.sol\";\n\n// TODO: Consider using ERC721 fork to optimize gas\ncontract MintSplitERC721 is IManifold, ERC721EnumerableUpgradeable, OwnableUpgradeable, ReentrancyGuardUpgradeable {\n    using Counters for Counters.Counter;\n    using Strings for uint;\n\n    uint public contentCount;\n    uint[] public supplyLimits;\n    uint public mintPrice;\n    uint public mintLimit;\n    uint public allowMintingAfter = 0;\n    uint public timeDeployed;\n    string public baseURI;\n    RevenueSplitter public revenueSplitter;\n    bool public isPaused = false;\n\n    Counters.Counter private tokenIds;\n    mapping (uint => Counters.Counter) public contentSupplies;\n    mapping (uint => uint[2]) private tokenSubjects; // [content id, edition #]\n    mapping (uint => string) public contentUriOverrides;\n\n    constructor() initializer {}\n\n    function initialize(\n        address _owner,\n        address _revenueSplitter,\n        MintSplitSharedLibV1.ProjectParams calldata _params\n    ) initializer public {\n        require(_params.supplyLimits.length == _params.contentCount);\n\n        __ERC721_init(_params.projectName, _params.symbol);\n        _transferOwnership(_owner);\n        revenueSplitter = RevenueSplitter(_revenueSplitter);\n\n        contentCount = _params.contentCount;\n        supplyLimits = _params.supplyLimits;\n        mintPrice = _params.mintPrice;\n        mintLimit = _params.mintLimit;\n        baseURI = _params.baseURI;\n\n        if (_params.releaseTime > block.timestamp) {\n            allowMintingAfter = _params.releaseTime - block.timestamp;\n        }\n\n        timeDeployed = block.timestamp;\n    }\n\n    // Internal\n    function _baseURI(uint contentId) internal view virtual returns (string memory) {\n        if (bytes(contentUriOverrides[contentId]).length == 0) return baseURI;\n\n        return contentUriOverrides[contentId];\n    }\n\n    // External\n    function mint(uint[] calldata contentIds) external payable nonReentrant {\n        require(!isPaused);\n        require(block.timestamp >= timeDeployed + allowMintingAfter);\n        require(contentIds.length > 0);\n        \n        if (mintLimit > 0) {\n            require((balanceOf(msg.sender) + contentIds.length) <= mintLimit);\n        }\n\n        if (msg.sender != owner()) {\n            require(msg.value == (contentIds.length * mintPrice));\n        }\n\n        revenueSplitter.receiveMint{value: msg.value}(contentIds);\n\n        for (uint i = 0; i < contentIds.length; i++) {\n            uint contentId = contentIds[i];\n            require(contentId > 0 && contentId <= contentCount);\n\n            Counters.Counter storage contentSupply = contentSupplies[contentId];\n\n            // The supply limit for content id 1 is found at supplyLimits[0]\n            require((contentSupply.current() + 1) <= supplyLimits[contentId - 1]);\n\n            contentSupply.increment();\n            tokenIds.increment();\n\n            uint newTokenId = tokenIds.current();\n            _mint(msg.sender, newTokenId);\n            tokenSubjects[newTokenId] = [contentId, contentSupply.current()];\n        }\n    }\n\n    function getRoyalties(uint256 tokenId) external view returns (address payable[] memory, uint256[] memory) {\n        uint[2] storage subject = tokenSubjects[tokenId];\n        return revenueSplitter.getContentRoyalties(subject[0]);\n    }\n\n    function getSecondsUntilMinting() external view returns (uint256) {\n        if (block.timestamp < timeDeployed + allowMintingAfter) {\n            return (timeDeployed + allowMintingAfter) - block.timestamp;\n        } else {\n            return 0;\n        }\n    }\n\n    function tokenURI(uint256 tokenId)\n        public\n        view\n        virtual\n        override\n        returns (string memory)\n    {\n        require(_exists(tokenId));\n\n        uint[2] memory subject = tokenSubject(tokenId);\n        string memory currentBaseURI = _baseURI(subject[0]);\n        return\n            bytes(currentBaseURI).length > 0\n                ? string(\n                    abi.encodePacked(\n                        currentBaseURI,\n                        subject[0].toString(), // content id\n                        '-',\n                        subject[1].toString(), // edition #\n                        \".json\"\n                    )\n                )\n                : \"\";\n    }\n\n    // Public\n    function tokenSubject(uint tokenId) public view returns (uint[2] memory) {\n        require(_exists(tokenId), \"token does not exist\");\n\n        return tokenSubjects[tokenId];\n    }\n\n    function getSupplyLimits() public view returns (uint[] memory) {\n        return supplyLimits;\n    }\n\n    // Only Owner\n    function setIsPaused(bool _state) public onlyOwner {\n        isPaused = _state;\n    }\n\n    function addContent(uint[] calldata newSupplyLimits) external onlyOwner {\n        require(newSupplyLimits.length > 0);\n        contentCount += newSupplyLimits.length;\n        for (uint i = 0; i < newSupplyLimits.length; i++) {\n            supplyLimits.push(newSupplyLimits[i]);\n        }\n    }\n\n    function setBaseURI(string calldata newBaseURI) public onlyOwner {\n        baseURI = newBaseURI;\n    }\n    \n    function setContentURI(string calldata newURI, uint contentId) public onlyOwner {\n        require(contentId > 0 && contentId <= contentCount);\n        contentUriOverrides[contentId] = newURI;\n    }\n}",
  "sourcePath": "/Users/justinfsl/Dev/misc/mintsplit/solidity/contracts/MintSplitERC721.sol",
  "compiler": {
    "name": "solc",
    "version": "0.8.12+commit.f00d7308.Emscripten.clang"
  },
  "schemaVersion": "3.3.4",
  "updatedAt": "2022-03-03T18:38:31.105Z",
  "networkType": "ethereum",
  "devdoc": {
    "kind": "dev",
    "methods": {
      "approve(address,uint256)": {
        "details": "See {IERC721-approve}."
      },
      "balanceOf(address)": {
        "details": "See {IERC721-balanceOf}."
      },
      "getApproved(uint256)": {
        "details": "See {IERC721-getApproved}."
      },
      "getRoyalties(uint256)": {
        "details": "Get royalites of a token.  Returns list of receivers and basisPoints  bytes4(keccak256('getRoyalties(uint256)')) == 0xbb3bafd6  => 0xbb3bafd6 = 0xbb3bafd6"
      },
      "isApprovedForAll(address,address)": {
        "details": "See {IERC721-isApprovedForAll}."
      },
      "name()": {
        "details": "See {IERC721Metadata-name}."
      },
      "owner()": {
        "details": "Returns the address of the current owner."
      },
      "ownerOf(uint256)": {
        "details": "See {IERC721-ownerOf}."
      },
      "renounceOwnership()": {
        "details": "Leaves the contract without owner. It will not be possible to call `onlyOwner` functions anymore. Can only be called by the current owner. NOTE: Renouncing ownership will leave the contract without an owner, thereby removing any functionality that is only available to the owner."
      },
      "safeTransferFrom(address,address,uint256)": {
        "details": "See {IERC721-safeTransferFrom}."
      },
      "safeTransferFrom(address,address,uint256,bytes)": {
        "details": "See {IERC721-safeTransferFrom}."
      },
      "setApprovalForAll(address,bool)": {
        "details": "See {IERC721-setApprovalForAll}."
      },
      "supportsInterface(bytes4)": {
        "details": "See {IERC165-supportsInterface}."
      },
      "symbol()": {
        "details": "See {IERC721Metadata-symbol}."
      },
      "tokenByIndex(uint256)": {
        "details": "See {IERC721Enumerable-tokenByIndex}."
      },
      "tokenOfOwnerByIndex(address,uint256)": {
        "details": "See {IERC721Enumerable-tokenOfOwnerByIndex}."
      },
      "tokenURI(uint256)": {
        "details": "See {IERC721Metadata-tokenURI}."
      },
      "totalSupply()": {
        "details": "See {IERC721Enumerable-totalSupply}."
      },
      "transferFrom(address,address,uint256)": {
        "details": "See {IERC721-transferFrom}."
      },
      "transferOwnership(address)": {
        "details": "Transfers ownership of the contract to a new account (`newOwner`). Can only be called by the current owner."
      }
    },
    "version": 1
  },
  "userdoc": {
    "kind": "user",
    "methods": {},
    "version": 1
  }
}