{
  "contractName": "MintSplitERC721",
  "abi": [
    {
      "inputs": [],
      "stateMutability": "nonpayable",
      "type": "constructor"
    },
    {
      "anonymous": false,
      "inputs": [
        {
          "indexed": true,
          "internalType": "address",
          "name": "owner",
          "type": "address"
        },
        {
          "indexed": true,
          "internalType": "address",
          "name": "approved",
          "type": "address"
        },
        {
          "indexed": true,
          "internalType": "uint256",
          "name": "tokenId",
          "type": "uint256"
        }
      ],
      "name": "Approval",
      "type": "event"
    },
    {
      "anonymous": false,
      "inputs": [
        {
          "indexed": true,
          "internalType": "address",
          "name": "owner",
          "type": "address"
        },
        {
          "indexed": true,
          "internalType": "address",
          "name": "operator",
          "type": "address"
        },
        {
          "indexed": false,
          "internalType": "bool",
          "name": "approved",
          "type": "bool"
        }
      ],
      "name": "ApprovalForAll",
      "type": "event"
    },
    {
      "anonymous": false,
      "inputs": [
        {
          "indexed": true,
          "internalType": "address",
          "name": "previousOwner",
          "type": "address"
        },
        {
          "indexed": true,
          "internalType": "address",
          "name": "newOwner",
          "type": "address"
        }
      ],
      "name": "OwnershipTransferred",
      "type": "event"
    },
    {
      "anonymous": false,
      "inputs": [
        {
          "indexed": true,
          "internalType": "address",
          "name": "from",
          "type": "address"
        },
        {
          "indexed": true,
          "internalType": "address",
          "name": "to",
          "type": "address"
        },
        {
          "indexed": true,
          "internalType": "uint256",
          "name": "tokenId",
          "type": "uint256"
        }
      ],
      "name": "Transfer",
      "type": "event"
    },
    {
      "inputs": [
        {
          "internalType": "address",
          "name": "to",
          "type": "address"
        },
        {
          "internalType": "uint256",
          "name": "tokenId",
          "type": "uint256"
        }
      ],
      "name": "approve",
      "outputs": [],
      "stateMutability": "nonpayable",
      "type": "function"
    },
    {
      "inputs": [
        {
          "internalType": "address",
          "name": "",
          "type": "address"
        }
      ],
      "name": "balance",
      "outputs": [
        {
          "internalType": "uint256",
          "name": "",
          "type": "uint256"
        }
      ],
      "stateMutability": "view",
      "type": "function",
      "constant": true
    },
    {
      "inputs": [
        {
          "internalType": "address",
          "name": "owner",
          "type": "address"
        }
      ],
      "name": "balanceOf",
      "outputs": [
        {
          "internalType": "uint256",
          "name": "",
          "type": "uint256"
        }
      ],
      "stateMutability": "view",
      "type": "function",
      "constant": true
    },
    {
      "inputs": [
        {
          "internalType": "uint256",
          "name": "",
          "type": "uint256"
        }
      ],
      "name": "contentSupply",
      "outputs": [
        {
          "internalType": "uint256",
          "name": "_value",
          "type": "uint256"
        }
      ],
      "stateMutability": "view",
      "type": "function",
      "constant": true
    },
    {
      "inputs": [
        {
          "internalType": "uint256",
          "name": "",
          "type": "uint256"
        }
      ],
      "name": "contentURI",
      "outputs": [
        {
          "internalType": "string",
          "name": "",
          "type": "string"
        }
      ],
      "stateMutability": "view",
      "type": "function",
      "constant": true
    },
    {
      "inputs": [
        {
          "internalType": "uint256",
          "name": "",
          "type": "uint256"
        }
      ],
      "name": "editions",
      "outputs": [
        {
          "internalType": "uint256",
          "name": "",
          "type": "uint256"
        }
      ],
      "stateMutability": "view",
      "type": "function",
      "constant": true
    },
    {
      "inputs": [
        {
          "internalType": "uint256",
          "name": "tokenId",
          "type": "uint256"
        }
      ],
      "name": "getApproved",
      "outputs": [
        {
          "internalType": "address",
          "name": "",
          "type": "address"
        }
      ],
      "stateMutability": "view",
      "type": "function",
      "constant": true
    },
    {
      "inputs": [
        {
          "internalType": "address",
          "name": "owner",
          "type": "address"
        },
        {
          "internalType": "address",
          "name": "operator",
          "type": "address"
        }
      ],
      "name": "isApprovedForAll",
      "outputs": [
        {
          "internalType": "bool",
          "name": "",
          "type": "bool"
        }
      ],
      "stateMutability": "view",
      "type": "function",
      "constant": true
    },
    {
      "inputs": [],
      "name": "isPaused",
      "outputs": [
        {
          "internalType": "bool",
          "name": "",
          "type": "bool"
        }
      ],
      "stateMutability": "view",
      "type": "function",
      "constant": true
    },
    {
      "inputs": [],
      "name": "name",
      "outputs": [
        {
          "internalType": "string",
          "name": "",
          "type": "string"
        }
      ],
      "stateMutability": "view",
      "type": "function",
      "constant": true
    },
    {
      "inputs": [],
      "name": "owner",
      "outputs": [
        {
          "internalType": "address",
          "name": "",
          "type": "address"
        }
      ],
      "stateMutability": "view",
      "type": "function",
      "constant": true
    },
    {
      "inputs": [
        {
          "internalType": "uint256",
          "name": "tokenId",
          "type": "uint256"
        }
      ],
      "name": "ownerOf",
      "outputs": [
        {
          "internalType": "address",
          "name": "",
          "type": "address"
        }
      ],
      "stateMutability": "view",
      "type": "function",
      "constant": true
    },
    {
      "inputs": [],
      "name": "renounceOwnership",
      "outputs": [],
      "stateMutability": "nonpayable",
      "type": "function"
    },
    {
      "inputs": [
        {
          "internalType": "address",
          "name": "from",
          "type": "address"
        },
        {
          "internalType": "address",
          "name": "to",
          "type": "address"
        },
        {
          "internalType": "uint256",
          "name": "tokenId",
          "type": "uint256"
        }
      ],
      "name": "safeTransferFrom",
      "outputs": [],
      "stateMutability": "nonpayable",
      "type": "function"
    },
    {
      "inputs": [
        {
          "internalType": "address",
          "name": "from",
          "type": "address"
        },
        {
          "internalType": "address",
          "name": "to",
          "type": "address"
        },
        {
          "internalType": "uint256",
          "name": "tokenId",
          "type": "uint256"
        },
        {
          "internalType": "bytes",
          "name": "_data",
          "type": "bytes"
        }
      ],
      "name": "safeTransferFrom",
      "outputs": [],
      "stateMutability": "nonpayable",
      "type": "function"
    },
    {
      "inputs": [
        {
          "internalType": "address",
          "name": "operator",
          "type": "address"
        },
        {
          "internalType": "bool",
          "name": "approved",
          "type": "bool"
        }
      ],
      "name": "setApprovalForAll",
      "outputs": [],
      "stateMutability": "nonpayable",
      "type": "function"
    },
    {
      "inputs": [],
      "name": "symbol",
      "outputs": [
        {
          "internalType": "string",
          "name": "",
          "type": "string"
        }
      ],
      "stateMutability": "view",
      "type": "function",
      "constant": true
    },
    {
      "inputs": [
        {
          "internalType": "uint256",
          "name": "",
          "type": "uint256"
        }
      ],
      "name": "tokenContent",
      "outputs": [
        {
          "internalType": "uint256",
          "name": "",
          "type": "uint256"
        }
      ],
      "stateMutability": "view",
      "type": "function",
      "constant": true
    },
    {
      "inputs": [
        {
          "internalType": "uint256",
          "name": "",
          "type": "uint256"
        }
      ],
      "name": "tokenEdition",
      "outputs": [
        {
          "internalType": "uint256",
          "name": "",
          "type": "uint256"
        }
      ],
      "stateMutability": "view",
      "type": "function",
      "constant": true
    },
    {
      "inputs": [],
      "name": "tokens",
      "outputs": [
        {
          "internalType": "uint256",
          "name": "_value",
          "type": "uint256"
        }
      ],
      "stateMutability": "view",
      "type": "function",
      "constant": true
    },
    {
      "inputs": [],
      "name": "totalBalance",
      "outputs": [
        {
          "internalType": "uint256",
          "name": "",
          "type": "uint256"
        }
      ],
      "stateMutability": "view",
      "type": "function",
      "constant": true
    },
    {
      "inputs": [
        {
          "internalType": "address",
          "name": "from",
          "type": "address"
        },
        {
          "internalType": "address",
          "name": "to",
          "type": "address"
        },
        {
          "internalType": "uint256",
          "name": "tokenId",
          "type": "uint256"
        }
      ],
      "name": "transferFrom",
      "outputs": [],
      "stateMutability": "nonpayable",
      "type": "function"
    },
    {
      "inputs": [
        {
          "internalType": "address",
          "name": "newOwner",
          "type": "address"
        }
      ],
      "name": "transferOwnership",
      "outputs": [],
      "stateMutability": "nonpayable",
      "type": "function"
    },
    {
      "inputs": [
        {
          "internalType": "address",
          "name": "_owner",
          "type": "address"
        },
        {
          "internalType": "address",
          "name": "_factory",
          "type": "address"
        },
        {
          "components": [
            {
              "internalType": "string",
              "name": "name",
              "type": "string"
            },
            {
              "internalType": "string",
              "name": "symbol",
              "type": "string"
            },
            {
              "internalType": "string",
              "name": "baseURI",
              "type": "string"
            },
            {
              "internalType": "uint256",
              "name": "mintPrice",
              "type": "uint256"
            },
            {
              "internalType": "uint256",
              "name": "releaseTime",
              "type": "uint256"
            }
          ],
          "internalType": "struct MintSplit.Params",
          "name": "_params",
          "type": "tuple"
        },
        {
          "internalType": "uint256[]",
          "name": "_editions",
          "type": "uint256[]"
        }
      ],
      "name": "initialize",
      "outputs": [],
      "stateMutability": "nonpayable",
      "type": "function"
    },
    {
      "inputs": [
        {
          "internalType": "bytes4",
          "name": "interfaceId",
          "type": "bytes4"
        }
      ],
      "name": "supportsInterface",
      "outputs": [
        {
          "internalType": "bool",
          "name": "",
          "type": "bool"
        }
      ],
      "stateMutability": "view",
      "type": "function",
      "constant": true
    },
    {
      "inputs": [
        {
          "internalType": "uint256[]",
          "name": "contentIds",
          "type": "uint256[]"
        }
      ],
      "name": "mint",
      "outputs": [],
      "stateMutability": "payable",
      "type": "function",
      "payable": true
    },
    {
      "inputs": [
        {
          "internalType": "address payable",
          "name": "account",
          "type": "address"
        }
      ],
      "name": "release",
      "outputs": [],
      "stateMutability": "nonpayable",
      "type": "function"
    },
    {
      "inputs": [
        {
          "internalType": "uint256",
          "name": "tokenId",
          "type": "uint256"
        }
      ],
      "name": "tokenURI",
      "outputs": [
        {
          "internalType": "string",
          "name": "",
          "type": "string"
        }
      ],
      "stateMutability": "view",
      "type": "function",
      "constant": true
    },
    {
      "inputs": [
        {
          "internalType": "uint256",
          "name": "tokenId",
          "type": "uint256"
        }
      ],
      "name": "getRoyalties",
      "outputs": [
        {
          "internalType": "address payable[]",
          "name": "recipients_",
          "type": "address[]"
        },
        {
          "internalType": "uint256[]",
          "name": "bps",
          "type": "uint256[]"
        }
      ],
      "stateMutability": "view",
      "type": "function",
      "constant": true
    },
    {
      "inputs": [],
      "name": "getEditions",
      "outputs": [
        {
          "internalType": "uint256[]",
          "name": "",
          "type": "uint256[]"
        }
      ],
      "stateMutability": "view",
      "type": "function",
      "constant": true
    },
    {
      "inputs": [],
      "name": "getParams",
      "outputs": [
        {
          "components": [
            {
              "internalType": "string",
              "name": "name",
              "type": "string"
            },
            {
              "internalType": "string",
              "name": "symbol",
              "type": "string"
            },
            {
              "internalType": "string",
              "name": "baseURI",
              "type": "string"
            },
            {
              "internalType": "uint256",
              "name": "mintPrice",
              "type": "uint256"
            },
            {
              "internalType": "uint256",
              "name": "releaseTime",
              "type": "uint256"
            }
          ],
          "internalType": "struct MintSplit.Params",
          "name": "",
          "type": "tuple"
        }
      ],
      "stateMutability": "view",
      "type": "function",
      "constant": true
    },
    {
      "inputs": [],
      "name": "getDefaultSplits",
      "outputs": [
        {
          "components": [
            {
              "internalType": "address payable[]",
              "name": "recipients",
              "type": "address[]"
            },
            {
              "internalType": "uint256[]",
              "name": "bps",
              "type": "uint256[]"
            }
          ],
          "internalType": "struct MintSplit.PaymentSplit",
          "name": "mintSplit",
          "type": "tuple"
        },
        {
          "components": [
            {
              "internalType": "address payable[]",
              "name": "recipients",
              "type": "address[]"
            },
            {
              "internalType": "uint256[]",
              "name": "bps",
              "type": "uint256[]"
            }
          ],
          "internalType": "struct MintSplit.PaymentSplit",
          "name": "royaltySplit",
          "type": "tuple"
        }
      ],
      "stateMutability": "view",
      "type": "function",
      "constant": true
    },
    {
      "inputs": [
        {
          "internalType": "uint256",
          "name": "cid",
          "type": "uint256"
        },
        {
          "internalType": "bool",
          "name": "isMint",
          "type": "bool"
        }
      ],
      "name": "getContentSplits",
      "outputs": [
        {
          "components": [
            {
              "internalType": "address payable[]",
              "name": "recipients",
              "type": "address[]"
            },
            {
              "internalType": "uint256[]",
              "name": "bps",
              "type": "uint256[]"
            }
          ],
          "internalType": "struct MintSplit.PaymentSplit",
          "name": "split",
          "type": "tuple"
        }
      ],
      "stateMutability": "view",
      "type": "function",
      "constant": true
    },
    {
      "inputs": [
        {
          "components": [
            {
              "internalType": "uint256",
              "name": "id",
              "type": "uint256"
            },
            {
              "internalType": "uint256",
              "name": "editions",
              "type": "uint256"
            },
            {
              "internalType": "string",
              "name": "uri",
              "type": "string"
            }
          ],
          "internalType": "struct MintSplit.Content",
          "name": "content",
          "type": "tuple"
        }
      ],
      "name": "addContent",
      "outputs": [],
      "stateMutability": "nonpayable",
      "type": "function"
    },
    {
      "inputs": [
        {
          "components": [
            {
              "internalType": "uint256",
              "name": "id",
              "type": "uint256"
            },
            {
              "internalType": "uint256",
              "name": "editions",
              "type": "uint256"
            },
            {
              "internalType": "string",
              "name": "uri",
              "type": "string"
            }
          ],
          "internalType": "struct MintSplit.Content",
          "name": "content",
          "type": "tuple"
        }
      ],
      "name": "setContent",
      "outputs": [],
      "stateMutability": "nonpayable",
      "type": "function"
    },
    {
      "inputs": [
        {
          "components": [
            {
              "internalType": "uint256",
              "name": "contentId",
              "type": "uint256"
            },
            {
              "internalType": "bool",
              "name": "isMint",
              "type": "bool"
            },
            {
              "components": [
                {
                  "internalType": "address payable[]",
                  "name": "recipients",
                  "type": "address[]"
                },
                {
                  "internalType": "uint256[]",
                  "name": "bps",
                  "type": "uint256[]"
                }
              ],
              "internalType": "struct MintSplit.PaymentSplit",
              "name": "split",
              "type": "tuple"
            }
          ],
          "internalType": "struct MintSplit.PaymentSplitConfig",
          "name": "config",
          "type": "tuple"
        },
        {
          "internalType": "bool",
          "name": "isDefault",
          "type": "bool"
        }
      ],
      "name": "setSplit",
      "outputs": [],
      "stateMutability": "nonpayable",
      "type": "function"
    },
    {
      "inputs": [],
      "name": "togglePaused",
      "outputs": [],
      "stateMutability": "nonpayable",
      "type": "function"
    },
    {
      "inputs": [
        {
          "components": [
            {
              "internalType": "string",
              "name": "name",
              "type": "string"
            },
            {
              "internalType": "string",
              "name": "symbol",
              "type": "string"
            },
            {
              "internalType": "string",
              "name": "baseURI",
              "type": "string"
            },
            {
              "internalType": "uint256",
              "name": "mintPrice",
              "type": "uint256"
            },
            {
              "internalType": "uint256",
              "name": "releaseTime",
              "type": "uint256"
            }
          ],
          "internalType": "struct MintSplit.Params",
          "name": "newParams",
          "type": "tuple"
        }
      ],
      "name": "setParams",
      "outputs": [],
      "stateMutability": "nonpayable",
      "type": "function"
    },
    {
      "inputs": [],
      "name": "withdraw",
      "outputs": [],
      "stateMutability": "nonpayable",
      "type": "function"
    }
  ],
  "bytecode": "0x60806040523480156200001157600080fd5b50600060019054906101000a900460ff166200003c5760008054906101000a900460ff16156200004d565b6200004c6200010960201b60201c565b5b6200008f576040517f08c379a00000000000000000000000000000000000000000000000000000000081526004016200008690620001c1565b60405180910390fd5b60008060019054906101000a900460ff161590508015620000e0576001600060016101000a81548160ff02191690831515021790555060016000806101000a81548160ff0219169083151502179055505b8015620001025760008060016101000a81548160ff0219169083151502179055505b50620001e3565b600062000121306200012760201b620025b11760201c565b15905090565b600080823b905060008111915050919050565b600082825260208201905092915050565b7f496e697469616c697a61626c653a20636f6e747261637420697320616c72656160008201527f647920696e697469616c697a6564000000000000000000000000000000000000602082015250565b6000620001a9602e836200013a565b9150620001b6826200014b565b604082019050919050565b60006020820190508181036000830152620001dc816200019a565b9050919050565b615ea080620001f36000396000f3fe6080604052600436106102305760003560e01c8063755ca5bc1161012e578063bb3bafd6116100ab578063e3d670d71161006f578063e3d670d714610875578063e985e9c5146108b2578063f2fde38b146108ef578063f8e93ef914610918578063fdacfbec1461093457610230565b8063bb3bafd61461077d578063c51f9ab9146107bb578063c87b56dd146107e4578063d7e271b314610821578063df6efc6c1461084a57610230565b8063a22cb465116100f2578063a22cb465146106a9578063a6045242146106d2578063ad7a672f146106fe578063b187bd2614610729578063b88d4fde1461075457610230565b8063755ca5bc146105c257806385e4ae00146105ff5780638da5cb5b1461062857806395d89b41146106535780639d63848a1461067e57610230565b806336566f06116101bc5780635e615a6b116101805780635e615a6b146104c95780636352211e146104f45780636e667c351461053157806370a082311461056e578063715018a6146105ab57610230565b806336566f06146103f85780633969a1a51461040f5780633ccfd60b1461044c57806342842e0e146104635780634bb3ba1d1461048c57610230565b8063095ea7b311610203578063095ea7b31461031757806319165587146103405780631974b8921461036957806323b872dd14610392578063279c806e146103bb57610230565b806301ffc9a71461023557806306f9eec41461027257806306fdde03146102af578063081812fc146102da575b600080fd5b34801561024157600080fd5b5061025c60048036038101906102579190613904565b61095d565b604051610269919061394c565b60405180910390f35b34801561027e57600080fd5b506102996004803603810190610294919061399d565b6109d7565b6040516102a691906139d9565b60405180910390f35b3480156102bb57600080fd5b506102c46109f6565b6040516102d19190613a8d565b60405180910390f35b3480156102e657600080fd5b5061030160048036038101906102fc919061399d565b610a88565b60405161030e9190613af0565b60405180910390f35b34801561032357600080fd5b5061033e60048036038101906103399190613b37565b610b0d565b005b34801561034c57600080fd5b5061036760048036038101906103629190613bb5565b610c24565b005b34801561037557600080fd5b50610390600480360381019061038b9190613c06565b610d52565b005b34801561039e57600080fd5b506103b960048036038101906103b49190613c4f565b610e1a565b005b3480156103c757600080fd5b506103e260048036038101906103dd919061399d565b610e7a565b6040516103ef91906139d9565b60405180910390f35b34801561040457600080fd5b5061040d610e9e565b005b34801561041b57600080fd5b506104366004803603810190610431919061399d565b610f46565b60405161044391906139d9565b60405180910390f35b34801561045857600080fd5b50610461610f5f565b005b34801561046f57600080fd5b5061048a60048036038101906104859190613c4f565b611061565b005b34801561049857600080fd5b506104b360048036038101906104ae9190613cce565b611081565b6040516104c09190613ece565b60405180910390f35b3480156104d557600080fd5b506104de6111b5565b6040516104eb9190613fbe565b60405180910390f35b34801561050057600080fd5b5061051b6004803603810190610516919061399d565b611399565b6040516105289190613af0565b60405180910390f35b34801561053d57600080fd5b506105586004803603810190610553919061399d565b61144a565b6040516105659190613a8d565b60405180910390f35b34801561057a57600080fd5b5061059560048036038101906105909190613fe0565b6114eb565b6040516105a291906139d9565b60405180910390f35b3480156105b757600080fd5b506105c06115a2565b005b3480156105ce57600080fd5b506105e960048036038101906105e4919061399d565b61162a565b6040516105f691906139d9565b60405180910390f35b34801561060b57600080fd5b5061062660048036038101906106219190613c06565b611643565b005b34801561063457600080fd5b5061063d611716565b60405161064a9190613af0565b60405180910390f35b34801561065f57600080fd5b50610668611740565b6040516106759190613a8d565b60405180910390f35b34801561068a57600080fd5b506106936117d2565b6040516106a091906139d9565b60405180910390f35b3480156106b557600080fd5b506106d060048036038101906106cb919061400d565b6117df565b005b3480156106de57600080fd5b506106e76117f5565b6040516106f592919061404d565b60405180910390f35b34801561070a57600080fd5b506107136119fb565b60405161072091906139d9565b60405180910390f35b34801561073557600080fd5b5061073e611a01565b60405161074b919061394c565b60405180910390f35b34801561076057600080fd5b5061077b600480360381019061077691906141b9565b611a14565b005b34801561078957600080fd5b506107a4600480360381019061079f919061399d565b611a76565b6040516107b292919061431a565b60405180910390f35b3480156107c757600080fd5b506107e260048036038101906107dd91906143d0565b611ba3565b005b3480156107f057600080fd5b5061080b6004803603810190610806919061399d565b611da8565b6040516108189190613a8d565b60405180910390f35b34801561082d57600080fd5b5061084860048036038101906108439190614493565b611eec565b005b34801561085657600080fd5b5061085f6120d8565b60405161086c91906144ef565b60405180910390f35b34801561088157600080fd5b5061089c60048036038101906108979190613fe0565b612130565b6040516108a991906139d9565b60405180910390f35b3480156108be57600080fd5b506108d960048036038101906108d49190614511565b612149565b6040516108e6919061394c565b60405180910390f35b3480156108fb57600080fd5b5061091660048036038101906109119190613fe0565b6121dd565b005b610932600480360381019061092d9190614551565b6122d4565b005b34801561094057600080fd5b5061095b6004803603810190610956919061459e565b612520565b005b60007fbb3bafd6000000000000000000000000000000000000000000000000000000007bffffffffffffffffffffffffffffffffffffffffffffffffffffffff1916827bffffffffffffffffffffffffffffffffffffffffffffffffffffffff191614806109d057506109cf826125c4565b5b9050919050565b61010a6020528060005260406000206000915090508060000154905081565b606060658054610a0590614616565b80601f0160208091040260200160405190810160405280929190818152602001828054610a3190614616565b8015610a7e5780601f10610a5357610100808354040283529160200191610a7e565b820191906000526020600020905b815481529060010190602001808311610a6157829003601f168201915b5050505050905090565b6000610a93826126a6565b610ad2576040517f08c379a0000000000000000000000000000000000000000000000000000000008152600401610ac9906146b9565b60405180910390fd5b6069600083815260200190815260200160002060009054906101000a900473ffffffffffffffffffffffffffffffffffffffff169050919050565b6000610b1882611399565b90508073ffffffffffffffffffffffffffffffffffffffff168373ffffffffffffffffffffffffffffffffffffffff1603610b88576040517f08c379a0000000000000000000000000000000000000000000000000000000008152600401610b7f9061474b565b60405180910390fd5b8073ffffffffffffffffffffffffffffffffffffffff16610ba7612712565b73ffffffffffffffffffffffffffffffffffffffff161480610bd65750610bd581610bd0612712565b612149565b5b610c15576040517f08c379a0000000000000000000000000000000000000000000000000000000008152600401610c0c906147dd565b60405180910390fd5b610c1f838361271a565b505050565b600260c95403610c69576040517f08c379a0000000000000000000000000000000000000000000000000000000008152600401610c6090614849565b60405180910390fd5b600260c98190555060fe60009054906101000a900460ff1615610c8b57600080fd5b600061010d60008373ffffffffffffffffffffffffffffffffffffffff1673ffffffffffffffffffffffffffffffffffffffff16815260200190815260200160002054905060008111610cdd57600080fd5b600061010d60008473ffffffffffffffffffffffffffffffffffffffff1673ffffffffffffffffffffffffffffffffffffffff168152602001908152602001600020819055508060fd6000828254610d359190614898565b92505081905550610d4682826127d3565b50600160c98190555050565b610d5a612712565b73ffffffffffffffffffffffffffffffffffffffff1660fc60009054906101000a900473ffffffffffffffffffffffffffffffffffffffff1673ffffffffffffffffffffffffffffffffffffffff1614610db357600080fd5b60fb81602001359080600181540180825580915050600190039060005260206000200160009091909190915055808060400190610df091906148db565b610109600060fb8054905081526020019081526020016000209190610e169291906136d9565b5050565b610e2b610e25612712565b826128c7565b610e6a576040517f08c379a0000000000000000000000000000000000000000000000000000000008152600401610e61906149b0565b60405180910390fd5b610e758383836129a5565b505050565b60fb8181548110610e8a57600080fd5b906000526020600020016000915090505481565b610ea6612712565b73ffffffffffffffffffffffffffffffffffffffff16610ec4611716565b73ffffffffffffffffffffffffffffffffffffffff1614610f1a576040517f08c379a0000000000000000000000000000000000000000000000000000000008152600401610f1190614a1c565b60405180910390fd5b60fe60009054906101000a900460ff161560fe60006101000a81548160ff021916908315150217905550565b61010b6020528060005260406000206000915090505481565b610f67612712565b73ffffffffffffffffffffffffffffffffffffffff16610f85611716565b73ffffffffffffffffffffffffffffffffffffffff1614610fdb576040517f08c379a0000000000000000000000000000000000000000000000000000000008152600401610fd290614a1c565b60405180910390fd5b60003373ffffffffffffffffffffffffffffffffffffffff1660fd54476110029190614898565b60405161100e90614a6d565b60006040518083038185875af1925050503d806000811461104b576040519150601f19603f3d011682016040523d82523d6000602084013e611050565b606091505b505090508061105e57600080fd5b50565b61107c83838360405180602001604052806000815250611a14565b505050565b61108961375f565b816110a75761011060008481526020019081526020016000206110bc565b61010f60008481526020019081526020016000205b6040518060400160405290816000820180548060200260200160405190810160405280929190818152602001828054801561114c57602002820191906000526020600020905b8160009054906101000a900473ffffffffffffffffffffffffffffffffffffffff1673ffffffffffffffffffffffffffffffffffffffff1681526020019060010190808311611102575b50505050508152602001600182018054806020026020016040519081016040528092919081815260200182805480156111a457602002820191906000526020600020905b815481526020019060010190808311611190575b505050505081525050905092915050565b6111bd613779565b60ff6040518060a00160405290816000820180546111da90614616565b80601f016020809104026020016040519081016040528092919081815260200182805461120690614616565b80156112535780601f1061122857610100808354040283529160200191611253565b820191906000526020600020905b81548152906001019060200180831161123657829003601f168201915b5050505050815260200160018201805461126c90614616565b80601f016020809104026020016040519081016040528092919081815260200182805461129890614616565b80156112e55780601f106112ba576101008083540402835291602001916112e5565b820191906000526020600020905b8154815290600101906020018083116112c857829003601f168201915b505050505081526020016002820180546112fe90614616565b80601f016020809104026020016040519081016040528092919081815260200182805461132a90614616565b80156113775780601f1061134c57610100808354040283529160200191611377565b820191906000526020600020905b81548152906001019060200180831161135a57829003601f168201915b5050505050815260200160038201548152602001600482015481525050905090565b6000806067600084815260200190815260200160002060009054906101000a900473ffffffffffffffffffffffffffffffffffffffff169050600073ffffffffffffffffffffffffffffffffffffffff168173ffffffffffffffffffffffffffffffffffffffff1603611441576040517f08c379a000000000000000000000000000000000000000000000000000000000815260040161143890614af4565b60405180910390fd5b80915050919050565b610109602052806000526040600020600091509050805461146a90614616565b80601f016020809104026020016040519081016040528092919081815260200182805461149690614616565b80156114e35780601f106114b8576101008083540402835291602001916114e3565b820191906000526020600020905b8154815290600101906020018083116114c657829003601f168201915b505050505081565b60008073ffffffffffffffffffffffffffffffffffffffff168273ffffffffffffffffffffffffffffffffffffffff160361155b576040517f08c379a000000000000000000000000000000000000000000000000000000000815260040161155290614b86565b60405180910390fd5b606860008373ffffffffffffffffffffffffffffffffffffffff1673ffffffffffffffffffffffffffffffffffffffff168152602001908152602001600020549050919050565b6115aa612712565b73ffffffffffffffffffffffffffffffffffffffff166115c8611716565b73ffffffffffffffffffffffffffffffffffffffff161461161e576040517f08c379a000000000000000000000000000000000000000000000000000000000815260040161161590614a1c565b60405180910390fd5b6116286000612c00565b565b61010c6020528060005260406000206000915090505481565b61164b612712565b73ffffffffffffffffffffffffffffffffffffffff1660fc60009054906101000a900473ffffffffffffffffffffffffffffffffffffffff1673ffffffffffffffffffffffffffffffffffffffff16146116a457600080fd5b600081600001359050816020013560fb6001836116c19190614898565b815481106116d2576116d1614ba6565b5b90600052602060002001819055508180604001906116f091906148db565b610109600084815260200190815260200160002091906117119291906136d9565b505050565b6000609760009054906101000a900473ffffffffffffffffffffffffffffffffffffffff16905090565b60606066805461174f90614616565b80601f016020809104026020016040519081016040528092919081815260200182805461177b90614616565b80156117c85780601f1061179d576101008083540402835291602001916117c8565b820191906000526020600020905b8154815290600101906020018083116117ab57829003601f168201915b5050505050905090565b6101088060000154905081565b6117f16117ea612712565b8383612cc6565b5050565b6117fd61375f565b61180561375f565b610104610106816040518060400160405290816000820180548060200260200160405190810160405280929190818152602001828054801561189c57602002820191906000526020600020905b8160009054906101000a900473ffffffffffffffffffffffffffffffffffffffff1673ffffffffffffffffffffffffffffffffffffffff1681526020019060010190808311611852575b50505050508152602001600182018054806020026020016040519081016040528092919081815260200182805480156118f457602002820191906000526020600020905b8154815260200190600101908083116118e0575b5050505050815250509150806040518060400160405290816000820180548060200260200160405190810160405280929190818152602001828054801561199057602002820191906000526020600020905b8160009054906101000a900473ffffffffffffffffffffffffffffffffffffffff1673ffffffffffffffffffffffffffffffffffffffff1681526020019060010190808311611946575b50505050508152602001600182018054806020026020016040519081016040528092919081815260200182805480156119e857602002820191906000526020600020905b8154815260200190600101908083116119d4575b5050505050815250509050915091509091565b60fd5481565b60fe60009054906101000a900460ff1681565b611a25611a1f612712565b836128c7565b611a64576040517f08c379a0000000000000000000000000000000000000000000000000000000008152600401611a5b906149b0565b60405180910390fd5b611a7084848484612e32565b50505050565b606080611a82836126a6565b611a8b57600080fd5b6000610110600061010b60008781526020019081526020016000205481526020019081526020016000209050806000018160010181805480602002602001604051908101604052809291908181526020018280548015611b4057602002820191906000526020600020905b8160009054906101000a900473ffffffffffffffffffffffffffffffffffffffff1673ffffffffffffffffffffffffffffffffffffffff1681526020019060010190808311611af6575b5050505050915080805480602002602001604051908101604052809291908181526020018280548015611b9257602002820191906000526020600020905b815481526020019060010190808311611b7e575b505050505090509250925050915091565b600060019054906101000a900460ff16611bcb5760008054906101000a900460ff1615611bd4565b611bd3612e8e565b5b611c13576040517f08c379a0000000000000000000000000000000000000000000000000000000008152600401611c0a90614c47565b60405180910390fd5b60008060019054906101000a900460ff161590508015611c63576001600060016101000a81548160ff02191690831515021790555060016000806101000a81548160ff0219169083151502179055505b611d11848060000190611c7691906148db565b8080601f016020809104026020016040519081016040528093929190818152602001838380828437600081840152601f19601f82011690508083019250505050505050858060200190611cc991906148db565b8080601f016020809104026020016040519081016040528093929190818152602001838380828437600081840152601f19601f82011690508083019250505050505050612e9f565b611d1a86612c00565b8460fc60006101000a81548173ffffffffffffffffffffffffffffffffffffffff021916908373ffffffffffffffffffffffffffffffffffffffff1602179055508360ff8181611d6a919061502f565b905050828260fb9190611d7e9291906137a8565b508015611da05760008060016101000a81548160ff0219169083151502179055505b505050505050565b6060611db3826126a6565b611dbc57600080fd5b600061010b6000848152602001908152602001600020549050600061010960008381526020019081526020016000209050600080828054611dfc90614616565b905014611e095781611e0f565b60ff6002015b8054611e1a90614616565b80601f0160208091040260200160405190810160405280929190818152602001828054611e4690614616565b8015611e935780601f10611e6857610100808354040283529160200191611e93565b820191906000526020600020905b815481529060010190602001808311611e7657829003601f168201915b5050505050905080611ea484612f0c565b611ec161010c600089815260200190815260200160002054612f0c565b604051602001611ed393929190615111565b6040516020818303038152906040529350505050919050565b611ef4612712565b73ffffffffffffffffffffffffffffffffffffffff16611f12611716565b73ffffffffffffffffffffffffffffffffffffffff1614611f68576040517f08c379a0000000000000000000000000000000000000000000000000000000008152600401611f5f90614a1c565b60405180910390fd5b36828060400190611f799190615158565b90506006818060000190611f8d9190615180565b905010611f9957600080fd5b808060200190611fa991906151e3565b9050818060000190611fbb9190615180565b905014611fc757600080fd5b811561201557826020016020810190611fe09190615246565b611ffb57806101068181611ff4919061569c565b905061200e565b80610104818161200b919061569c565b90505b50506120d4565b6000836000013590506000811161202b57600080fd5b83602001602081019061203e9190615246565b156120ac5760008280600001906120559190615180565b90501161010e600083815260200190815260200160002060006101000a81548160ff0219169083151502179055508161010f600083815260200190815260200160002081816120a4919061569c565b9050506120d1565b81610110600083815260200190815260200160002081816120cd919061569c565b9050505b50505b5050565b606060fb80548060200260200160405190810160405280929190818152602001828054801561212657602002820191906000526020600020905b815481526020019060010190808311612112575b5050505050905090565b61010d6020528060005260406000206000915090505481565b6000606a60008473ffffffffffffffffffffffffffffffffffffffff1673ffffffffffffffffffffffffffffffffffffffff16815260200190815260200160002060008373ffffffffffffffffffffffffffffffffffffffff1673ffffffffffffffffffffffffffffffffffffffff16815260200190815260200160002060009054906101000a900460ff16905092915050565b6121e5612712565b73ffffffffffffffffffffffffffffffffffffffff16612203611716565b73ffffffffffffffffffffffffffffffffffffffff1614612259576040517f08c379a000000000000000000000000000000000000000000000000000000000815260040161225090614a1c565b60405180910390fd5b600073ffffffffffffffffffffffffffffffffffffffff168173ffffffffffffffffffffffffffffffffffffffff16036122c8576040517f08c379a00000000000000000000000000000000000000000000000000000000081526004016122bf9061571c565b60405180910390fd5b6122d181612c00565b50565b600260c95403612319576040517f08c379a000000000000000000000000000000000000000000000000000000000815260040161231090614849565b60405180910390fd5b600260c98190555060fe60009054906101000a900460ff161561233b57600080fd5b612343611716565b73ffffffffffffffffffffffffffffffffffffffff163373ffffffffffffffffffffffffffffffffffffffff16146123a657348282905060ff6003015461238a9190615288565b1461239457600080fd5b60ff6004015442116123a557600080fd5b5b60005b828290508110156125135760008383838181106123c9576123c8614ba6565b5b905060200201359050600081116123df57600080fd5b60fb805490508111156123f157600080fd5b600061010a6000838152602001908152602001600020905060006124148261306c565b905060fb6001846124259190614898565b8154811061243657612435614ba6565b5b9060005260206000200154811061244c57600080fd5b6124558261307a565b61246061010861307a565b600061246d61010861306c565b90508361010b600083815260200190815260200160002081905550600182612495919061573c565b61010c6000838152602001908152602001600020819055506124b73382613090565b60006101046000018054905011806124ed575061010e600085815260200190815260200160002060009054906101000a900460ff165b156124fc576124fb8461325d565b5b50505050808061250b90615792565b9150506123a9565b50600160c9819055505050565b612528612712565b73ffffffffffffffffffffffffffffffffffffffff16612546611716565b73ffffffffffffffffffffffffffffffffffffffff161461259c576040517f08c379a000000000000000000000000000000000000000000000000000000000815260040161259390614a1c565b60405180910390fd5b8060ff81816125ab919061502f565b90505050565b600080823b905060008111915050919050565b60007f80ac58cd000000000000000000000000000000000000000000000000000000007bffffffffffffffffffffffffffffffffffffffffffffffffffffffff1916827bffffffffffffffffffffffffffffffffffffffffffffffffffffffff1916148061268f57507f5b5e139f000000000000000000000000000000000000000000000000000000007bffffffffffffffffffffffffffffffffffffffffffffffffffffffff1916827bffffffffffffffffffffffffffffffffffffffffffffffffffffffff1916145b8061269f575061269e826133c0565b5b9050919050565b60008073ffffffffffffffffffffffffffffffffffffffff166067600084815260200190815260200160002060009054906101000a900473ffffffffffffffffffffffffffffffffffffffff1673ffffffffffffffffffffffffffffffffffffffff1614159050919050565b600033905090565b816069600083815260200190815260200160002060006101000a81548173ffffffffffffffffffffffffffffffffffffffff021916908373ffffffffffffffffffffffffffffffffffffffff160217905550808273ffffffffffffffffffffffffffffffffffffffff1661278d83611399565b73ffffffffffffffffffffffffffffffffffffffff167f8c5be1e5ebec7d5bd14f71427d1e84f3dd0314c0f7b2291e5b200ac8c7c3b92560405160405180910390a45050565b80471015612816576040517f08c379a000000000000000000000000000000000000000000000000000000000815260040161280d90615826565b60405180910390fd5b60008273ffffffffffffffffffffffffffffffffffffffff168260405161283c90614a6d565b60006040518083038185875af1925050503d8060008114612879576040519150601f19603f3d011682016040523d82523d6000602084013e61287e565b606091505b50509050806128c2576040517f08c379a00000000000000000000000000000000000000000000000000000000081526004016128b9906158b8565b60405180910390fd5b505050565b60006128d2826126a6565b612911576040517f08c379a00000000000000000000000000000000000000000000000000000000081526004016129089061594a565b60405180910390fd5b600061291c83611399565b90508073ffffffffffffffffffffffffffffffffffffffff168473ffffffffffffffffffffffffffffffffffffffff16148061298b57508373ffffffffffffffffffffffffffffffffffffffff1661297384610a88565b73ffffffffffffffffffffffffffffffffffffffff16145b8061299c575061299b8185612149565b5b91505092915050565b8273ffffffffffffffffffffffffffffffffffffffff166129c582611399565b73ffffffffffffffffffffffffffffffffffffffff1614612a1b576040517f08c379a0000000000000000000000000000000000000000000000000000000008152600401612a12906159dc565b60405180910390fd5b600073ffffffffffffffffffffffffffffffffffffffff168273ffffffffffffffffffffffffffffffffffffffff1603612a8a576040517f08c379a0000000000000000000000000000000000000000000000000000000008152600401612a8190615a6e565b60405180910390fd5b612a9583838361342a565b612aa060008261271a565b6001606860008573ffffffffffffffffffffffffffffffffffffffff1673ffffffffffffffffffffffffffffffffffffffff1681526020019081526020016000206000828254612af09190614898565b925050819055506001606860008473ffffffffffffffffffffffffffffffffffffffff1673ffffffffffffffffffffffffffffffffffffffff1681526020019081526020016000206000828254612b47919061573c565b92505081905550816067600083815260200190815260200160002060006101000a81548173ffffffffffffffffffffffffffffffffffffffff021916908373ffffffffffffffffffffffffffffffffffffffff160217905550808273ffffffffffffffffffffffffffffffffffffffff168473ffffffffffffffffffffffffffffffffffffffff167fddf252ad1be2c89b69c2b068fc378daa952ba7f163c4a11628f55a4df523b3ef60405160405180910390a4505050565b6000609760009054906101000a900473ffffffffffffffffffffffffffffffffffffffff16905081609760006101000a81548173ffffffffffffffffffffffffffffffffffffffff021916908373ffffffffffffffffffffffffffffffffffffffff1602179055508173ffffffffffffffffffffffffffffffffffffffff168173ffffffffffffffffffffffffffffffffffffffff167f8be0079c531659141344cd1fd0a4f28419497f9722a3daafe3b4186f6b6457e060405160405180910390a35050565b8173ffffffffffffffffffffffffffffffffffffffff168373ffffffffffffffffffffffffffffffffffffffff1603612d34576040517f08c379a0000000000000000000000000000000000000000000000000000000008152600401612d2b90615ada565b60405180910390fd5b80606a60008573ffffffffffffffffffffffffffffffffffffffff1673ffffffffffffffffffffffffffffffffffffffff16815260200190815260200160002060008473ffffffffffffffffffffffffffffffffffffffff1673ffffffffffffffffffffffffffffffffffffffff16815260200190815260200160002060006101000a81548160ff0219169083151502179055508173ffffffffffffffffffffffffffffffffffffffff168373ffffffffffffffffffffffffffffffffffffffff167f17307eab39ab6107e8899845ad3d59bd9653f200f220920489ca2b5937696c3183604051612e25919061394c565b60405180910390a3505050565b612e3d8484846129a5565b612e498484848461342f565b612e88576040517f08c379a0000000000000000000000000000000000000000000000000000000008152600401612e7f90615b6c565b60405180910390fd5b50505050565b6000612e99306125b1565b15905090565b600060019054906101000a900460ff16612eee576040517f08c379a0000000000000000000000000000000000000000000000000000000008152600401612ee590615bfe565b60405180910390fd5b612ef66135b6565b612efe613607565b612f088282613658565b5050565b606060008203612f53576040518060400160405280600181526020017f30000000000000000000000000000000000000000000000000000000000000008152509050613067565b600082905060005b60008214612f85578080612f6e90615792565b915050600a82612f7e9190615c4d565b9150612f5b565b60008167ffffffffffffffff811115612fa157612fa061408e565b5b6040519080825280601f01601f191660200182016040528015612fd35781602001600182028036833780820191505090505b5090505b6000851461306057600182612fec9190614898565b9150600a85612ffb9190615c7e565b6030613007919061573c565b60f81b81838151811061301d5761301c614ba6565b5b60200101907effffffffffffffffffffffffffffffffffffffffffffffffffffffffffffff1916908160001a905350600a856130599190615c4d565b9450612fd7565b8093505050505b919050565b600081600001549050919050565b6001816000016000828254019250508190555050565b600073ffffffffffffffffffffffffffffffffffffffff168273ffffffffffffffffffffffffffffffffffffffff16036130ff576040517f08c379a00000000000000000000000000000000000000000000000000000000081526004016130f690615cfb565b60405180910390fd5b613108816126a6565b15613148576040517f08c379a000000000000000000000000000000000000000000000000000000000815260040161313f90615d67565b60405180910390fd5b6131546000838361342a565b6001606860008473ffffffffffffffffffffffffffffffffffffffff1673ffffffffffffffffffffffffffffffffffffffff16815260200190815260200160002060008282546131a4919061573c565b92505081905550816067600083815260200190815260200160002060006101000a81548173ffffffffffffffffffffffffffffffffffffffff021916908373ffffffffffffffffffffffffffffffffffffffff160217905550808273ffffffffffffffffffffffffffffffffffffffff16600073ffffffffffffffffffffffffffffffffffffffff167fddf252ad1be2c89b69c2b068fc378daa952ba7f163c4a11628f55a4df523b3ef60405160405180910390a45050565b600061010e600083815260200190815260200160002060009054906101000a900460ff1661328d576101046132a2565b61010f60008381526020019081526020016000205b905060ff6003015460fd60008282546132bb919061573c565b9250508190555060005b81600001805490508110156133bb576127108260010182815481106132ed576132ec614ba6565b5b906000526020600020015460ff600301546133089190615288565b6133129190615c4d565b61010d600084600001848154811061332d5761332c614ba6565b5b9060005260206000200160009054906101000a900473ffffffffffffffffffffffffffffffffffffffff1673ffffffffffffffffffffffffffffffffffffffff1673ffffffffffffffffffffffffffffffffffffffff16815260200190815260200160002060008282546133a1919061573c565b9250508190555080806133b390615792565b9150506132c5565b505050565b60007f01ffc9a7000000000000000000000000000000000000000000000000000000007bffffffffffffffffffffffffffffffffffffffffffffffffffffffff1916827bffffffffffffffffffffffffffffffffffffffffffffffffffffffff1916149050919050565b505050565b60006134508473ffffffffffffffffffffffffffffffffffffffff166125b1565b156135a9578373ffffffffffffffffffffffffffffffffffffffff1663150b7a02613479612712565b8786866040518563ffffffff1660e01b815260040161349b9493929190615ddc565b6020604051808303816000875af19250505080156134d757506040513d601f19601f820116820180604052508101906134d49190615e3d565b60015b613559573d8060008114613507576040519150601f19603f3d011682016040523d82523d6000602084013e61350c565b606091505b506000815103613551576040517f08c379a000000000000000000000000000000000000000000000000000000000815260040161354890615b6c565b60405180910390fd5b805181602001fd5b63150b7a0260e01b7bffffffffffffffffffffffffffffffffffffffffffffffffffffffff1916817bffffffffffffffffffffffffffffffffffffffffffffffffffffffff1916149150506135ae565b600190505b949350505050565b600060019054906101000a900460ff16613605576040517f08c379a00000000000000000000000000000000000000000000000000000000081526004016135fc90615bfe565b60405180910390fd5b565b600060019054906101000a900460ff16613656576040517f08c379a000000000000000000000000000000000000000000000000000000000815260040161364d90615bfe565b60405180910390fd5b565b600060019054906101000a900460ff166136a7576040517f08c379a000000000000000000000000000000000000000000000000000000000815260040161369e90615bfe565b60405180910390fd5b81606590805190602001906136bd9291906137f5565b5080606690805190602001906136d49291906137f5565b505050565b8280546136e590614616565b90600052602060002090601f016020900481019282613707576000855561374e565b82601f1061372057803560ff191683800117855561374e565b8280016001018555821561374e579182015b8281111561374d578235825591602001919060010190613732565b5b50905061375b919061387b565b5090565b604051806040016040528060608152602001606081525090565b6040518060a0016040528060608152602001606081526020016060815260200160008152602001600081525090565b8280548282559060005260206000209081019282156137e4579160200282015b828111156137e35782358255916020019190600101906137c8565b5b5090506137f1919061387b565b5090565b82805461380190614616565b90600052602060002090601f016020900481019282613823576000855561386a565b82601f1061383c57805160ff191683800117855561386a565b8280016001018555821561386a579182015b8281111561386957825182559160200191906001019061384e565b5b509050613877919061387b565b5090565b5b8082111561389457600081600090555060010161387c565b5090565b6000604051905090565b600080fd5b600080fd5b60007fffffffff0000000000000000000000000000000000000000000000000000000082169050919050565b6138e1816138ac565b81146138ec57600080fd5b50565b6000813590506138fe816138d8565b92915050565b60006020828403121561391a576139196138a2565b5b6000613928848285016138ef565b91505092915050565b60008115159050919050565b61394681613931565b82525050565b6000602082019050613961600083018461393d565b92915050565b6000819050919050565b61397a81613967565b811461398557600080fd5b50565b60008135905061399781613971565b92915050565b6000602082840312156139b3576139b26138a2565b5b60006139c184828501613988565b91505092915050565b6139d381613967565b82525050565b60006020820190506139ee60008301846139ca565b92915050565b600081519050919050565b600082825260208201905092915050565b60005b83811015613a2e578082015181840152602081019050613a13565b83811115613a3d576000848401525b50505050565b6000601f19601f8301169050919050565b6000613a5f826139f4565b613a6981856139ff565b9350613a79818560208601613a10565b613a8281613a43565b840191505092915050565b60006020820190508181036000830152613aa78184613a54565b905092915050565b600073ffffffffffffffffffffffffffffffffffffffff82169050919050565b6000613ada82613aaf565b9050919050565b613aea81613acf565b82525050565b6000602082019050613b056000830184613ae1565b92915050565b613b1481613acf565b8114613b1f57600080fd5b50565b600081359050613b3181613b0b565b92915050565b60008060408385031215613b4e57613b4d6138a2565b5b6000613b5c85828601613b22565b9250506020613b6d85828601613988565b9150509250929050565b6000613b8282613aaf565b9050919050565b613b9281613b77565b8114613b9d57600080fd5b50565b600081359050613baf81613b89565b92915050565b600060208284031215613bcb57613bca6138a2565b5b6000613bd984828501613ba0565b91505092915050565b600080fd5b600060608284031215613bfd57613bfc613be2565b5b81905092915050565b600060208284031215613c1c57613c1b6138a2565b5b600082013567ffffffffffffffff811115613c3a57613c396138a7565b5b613c4684828501613be7565b91505092915050565b600080600060608486031215613c6857613c676138a2565b5b6000613c7686828701613b22565b9350506020613c8786828701613b22565b9250506040613c9886828701613988565b9150509250925092565b613cab81613931565b8114613cb657600080fd5b50565b600081359050613cc881613ca2565b92915050565b60008060408385031215613ce557613ce46138a2565b5b6000613cf385828601613988565b9250506020613d0485828601613cb9565b9150509250929050565b600081519050919050565b600082825260208201905092915050565b6000819050602082019050919050565b613d4381613b77565b82525050565b6000613d558383613d3a565b60208301905092915050565b6000602082019050919050565b6000613d7982613d0e565b613d838185613d19565b9350613d8e83613d2a565b8060005b83811015613dbf578151613da68882613d49565b9750613db183613d61565b925050600181019050613d92565b5085935050505092915050565b600081519050919050565b600082825260208201905092915050565b6000819050602082019050919050565b613e0181613967565b82525050565b6000613e138383613df8565b60208301905092915050565b6000602082019050919050565b6000613e3782613dcc565b613e418185613dd7565b9350613e4c83613de8565b8060005b83811015613e7d578151613e648882613e07565b9750613e6f83613e1f565b925050600181019050613e50565b5085935050505092915050565b60006040830160008301518482036000860152613ea78282613d6e565b91505060208301518482036020860152613ec18282613e2c565b9150508091505092915050565b60006020820190508181036000830152613ee88184613e8a565b905092915050565b600082825260208201905092915050565b6000613f0c826139f4565b613f168185613ef0565b9350613f26818560208601613a10565b613f2f81613a43565b840191505092915050565b600060a0830160008301518482036000860152613f578282613f01565b91505060208301518482036020860152613f718282613f01565b91505060408301518482036040860152613f8b8282613f01565b9150506060830151613fa06060860182613df8565b506080830151613fb36080860182613df8565b508091505092915050565b60006020820190508181036000830152613fd88184613f3a565b905092915050565b600060208284031215613ff657613ff56138a2565b5b600061400484828501613b22565b91505092915050565b60008060408385031215614024576140236138a2565b5b600061403285828601613b22565b925050602061404385828601613cb9565b9150509250929050565b600060408201905081810360008301526140678185613e8a565b9050818103602083015261407b8184613e8a565b90509392505050565b600080fd5b600080fd5b7f4e487b7100000000000000000000000000000000000000000000000000000000600052604160045260246000fd5b6140c682613a43565b810181811067ffffffffffffffff821117156140e5576140e461408e565b5b80604052505050565b60006140f8613898565b905061410482826140bd565b919050565b600067ffffffffffffffff8211156141245761412361408e565b5b61412d82613a43565b9050602081019050919050565b82818337600083830152505050565b600061415c61415784614109565b6140ee565b90508281526020810184848401111561417857614177614089565b5b61418384828561413a565b509392505050565b600082601f8301126141a05761419f614084565b5b81356141b0848260208601614149565b91505092915050565b600080600080608085870312156141d3576141d26138a2565b5b60006141e187828801613b22565b94505060206141f287828801613b22565b935050604061420387828801613988565b925050606085013567ffffffffffffffff811115614224576142236138a7565b5b6142308782880161418b565b91505092959194509250565b600082825260208201905092915050565b600061425882613d0e565b614262818561423c565b935061426d83613d2a565b8060005b8381101561429e5781516142858882613d49565b975061429083613d61565b925050600181019050614271565b5085935050505092915050565b600082825260208201905092915050565b60006142c782613dcc565b6142d181856142ab565b93506142dc83613de8565b8060005b8381101561430d5781516142f48882613e07565b97506142ff83613e1f565b9250506001810190506142e0565b5085935050505092915050565b60006040820190508181036000830152614334818561424d565b9050818103602083015261434881846142bc565b90509392505050565b600060a0828403121561436757614366613be2565b5b81905092915050565b600080fd5b600080fd5b60008083601f8401126143905761438f614084565b5b8235905067ffffffffffffffff8111156143ad576143ac614370565b5b6020830191508360208202830111156143c9576143c8614375565b5b9250929050565b6000806000806000608086880312156143ec576143eb6138a2565b5b60006143fa88828901613b22565b955050602061440b88828901613b22565b945050604086013567ffffffffffffffff81111561442c5761442b6138a7565b5b61443888828901614351565b935050606086013567ffffffffffffffff811115614459576144586138a7565b5b6144658882890161437a565b92509250509295509295909350565b60006060828403121561448a57614489613be2565b5b81905092915050565b600080604083850312156144aa576144a96138a2565b5b600083013567ffffffffffffffff8111156144c8576144c76138a7565b5b6144d485828601614474565b92505060206144e585828601613cb9565b9150509250929050565b6000602082019050818103600083015261450981846142bc565b905092915050565b60008060408385031215614528576145276138a2565b5b600061453685828601613b22565b925050602061454785828601613b22565b9150509250929050565b60008060208385031215614568576145676138a2565b5b600083013567ffffffffffffffff811115614586576145856138a7565b5b6145928582860161437a565b92509250509250929050565b6000602082840312156145b4576145b36138a2565b5b600082013567ffffffffffffffff8111156145d2576145d16138a7565b5b6145de84828501614351565b91505092915050565b7f4e487b7100000000000000000000000000000000000000000000000000000000600052602260045260246000fd5b6000600282049050600182168061462e57607f821691505b602082108103614641576146406145e7565b5b50919050565b7f4552433732313a20617070726f76656420717565727920666f72206e6f6e657860008201527f697374656e7420746f6b656e0000000000000000000000000000000000000000602082015250565b60006146a3602c836139ff565b91506146ae82614647565b604082019050919050565b600060208201905081810360008301526146d281614696565b9050919050565b7f4552433732313a20617070726f76616c20746f2063757272656e74206f776e6560008201527f7200000000000000000000000000000000000000000000000000000000000000602082015250565b60006147356021836139ff565b9150614740826146d9565b604082019050919050565b6000602082019050818103600083015261476481614728565b9050919050565b7f4552433732313a20617070726f76652063616c6c6572206973206e6f74206f7760008201527f6e6572206e6f7220617070726f76656420666f7220616c6c0000000000000000602082015250565b60006147c76038836139ff565b91506147d28261476b565b604082019050919050565b600060208201905081810360008301526147f6816147ba565b9050919050565b7f5265656e7472616e637947756172643a207265656e7472616e742063616c6c00600082015250565b6000614833601f836139ff565b915061483e826147fd565b602082019050919050565b6000602082019050818103600083015261486281614826565b9050919050565b7f4e487b7100000000000000000000000000000000000000000000000000000000600052601160045260246000fd5b60006148a382613967565b91506148ae83613967565b9250828210156148c1576148c0614869565b5b828203905092915050565b600080fd5b600080fd5b600080fd5b600080833560016020038436030381126148f8576148f76148cc565b5b80840192508235915067ffffffffffffffff82111561491a576149196148d1565b5b602083019250600182023603831315614936576149356148d6565b5b509250929050565b7f4552433732313a207472616e736665722063616c6c6572206973206e6f74206f60008201527f776e6572206e6f7220617070726f766564000000000000000000000000000000602082015250565b600061499a6031836139ff565b91506149a58261493e565b604082019050919050565b600060208201905081810360008301526149c98161498d565b9050919050565b7f4f776e61626c653a2063616c6c6572206973206e6f7420746865206f776e6572600082015250565b6000614a066020836139ff565b9150614a11826149d0565b602082019050919050565b60006020820190508181036000830152614a35816149f9565b9050919050565b600081905092915050565b50565b6000614a57600083614a3c565b9150614a6282614a47565b600082019050919050565b6000614a7882614a4a565b9150819050919050565b7f4552433732313a206f776e657220717565727920666f72206e6f6e657869737460008201527f656e7420746f6b656e0000000000000000000000000000000000000000000000602082015250565b6000614ade6029836139ff565b9150614ae982614a82565b604082019050919050565b60006020820190508181036000830152614b0d81614ad1565b9050919050565b7f4552433732313a2062616c616e636520717565727920666f7220746865207a6560008201527f726f206164647265737300000000000000000000000000000000000000000000602082015250565b6000614b70602a836139ff565b9150614b7b82614b14565b604082019050919050565b60006020820190508181036000830152614b9f81614b63565b9050919050565b7f4e487b7100000000000000000000000000000000000000000000000000000000600052603260045260246000fd5b7f496e697469616c697a61626c653a20636f6e747261637420697320616c72656160008201527f647920696e697469616c697a6564000000000000000000000000000000000000602082015250565b6000614c31602e836139ff565b9150614c3c82614bd5565b604082019050919050565b60006020820190508181036000830152614c6081614c24565b9050919050565b600082905092915050565b60008190508160005260206000209050919050565b60006020601f8301049050919050565b600082821b905092915050565b600060088302614cd47fffffffffffffffffffffffffffffffffffffffffffffffffffffffffffffffff82614c97565b614cde8683614c97565b95508019841693508086168417925050509392505050565b6000819050919050565b6000614d1b614d16614d1184613967565b614cf6565b613967565b9050919050565b6000819050919050565b614d3583614d00565b614d49614d4182614d22565b848454614ca4565b825550505050565b600090565b614d5e614d51565b614d69818484614d2c565b505050565b5b81811015614d8d57614d82600082614d56565b600181019050614d6f565b5050565b601f821115614dd257614da381614c72565b614dac84614c87565b81016020851015614dbb578190505b614dcf614dc785614c87565b830182614d6e565b50505b505050565b600082821c905092915050565b6000614df560001984600802614dd7565b1980831691505092915050565b6000614e0e8383614de4565b9150826002028217905092915050565b614e288383614c67565b67ffffffffffffffff811115614e4157614e4061408e565b5b614e4b8254614616565b614e56828285614d91565b6000601f831160018114614e855760008415614e73578287013590505b614e7d8582614e02565b865550614ee5565b601f198416614e9386614c72565b60005b82811015614ebb57848901358255600182019150602085019450602081019050614e96565b86831015614ed85784890135614ed4601f891682614de4565b8355505b6001600288020188555050505b50505050505050565b614ef9838383614e1e565b505050565b60008135614f0b81613971565b80915050919050565b60008160001b9050919050565b60007fffffffffffffffffffffffffffffffffffffffffffffffffffffffffffffffff614f4d84614f14565b9350801983169250808416831791505092915050565b614f6c82614d00565b614f7f614f7882614d22565b8354614f21565b8255505050565b6000810160008301614f9881856148db565b614fa3818386614eee565b505050506001810160208301614fb981856148db565b614fc4818386614eee565b505050506002810160408301614fda81856148db565b614fe5818386614eee565b50505050600381016060830180614ffb81614efe565b90506150078184614f63565b50505060048101608083018061501c81614efe565b90506150288184614f63565b5050505050565b6150398282614f86565b5050565b600081905092915050565b6000615053826139f4565b61505d818561503d565b935061506d818560208601613a10565b80840191505092915050565b7f2d00000000000000000000000000000000000000000000000000000000000000600082015250565b60006150af60018361503d565b91506150ba82615079565b600182019050919050565b7f2e6a736f6e000000000000000000000000000000000000000000000000000000600082015250565b60006150fb60058361503d565b9150615106826150c5565b600582019050919050565b600061511d8286615048565b91506151298285615048565b9150615134826150a2565b91506151408284615048565b915061514b826150ee565b9150819050949350505050565b600082356001604003833603038112615174576151736148cc565b5b80830191505092915050565b6000808335600160200384360303811261519d5761519c6148cc565b5b80840192508235915067ffffffffffffffff8211156151bf576151be6148d1565b5b6020830192506020820236038313156151db576151da6148d6565b5b509250929050565b60008083356001602003843603038112615200576151ff6148cc565b5b80840192508235915067ffffffffffffffff821115615222576152216148d1565b5b60208301925060208202360383131561523e5761523d6148d6565b5b509250929050565b60006020828403121561525c5761525b6138a2565b5b600061526a84828501613cb9565b91505092915050565b6000819050919050565b600081549050919050565b600061529382613967565b915061529e83613967565b9250817fffffffffffffffffffffffffffffffffffffffffffffffffffffffffffffffff04831182151516156152d7576152d6614869565b5b828202905092915050565b60008190506001806001038301049050919050565b60008190508160005260206000209050919050565b5b8181101561532b57615320600082614d56565b60018101905061530d565b5050565b8183101561536857615340826152e2565b615349846152e2565b615352836152f7565b818101838201615362818361530c565b50505050505b505050565b680100000000000000008211156153875761538661408e565b5b6153908161527d565b82825561539e83828461532f565b505050565b600082905092915050565b600081356153bb81613b89565b80915050919050565b6000600883026153e873ffffffffffffffffffffffffffffffffffffffff82614c97565b6153f28683614c97565b95508019841693508086168417925050509392505050565b600061542561542061541b84613aaf565b614cf6565b613aaf565b9050919050565b60006154378261540a565b9050919050565b60006154498261542c565b9050919050565b6000819050919050565b6154638361543e565b61547761546f82615450565b8484546153c4565b825550505050565b61548983836153a3565b615493818361536d565b61549c83615273565b6154a5836152f7565b6000805b848110156154e057836154bb816153ae565b90506154c881848661545a565b602085019450600184019350506001810190506154a9565b5050505050505050565b6154f583838361547f565b505050565b6000819050919050565b600081549050919050565b60008190506001806001038301049050919050565b60008190508160005260206000209050919050565b5b818110156155585761554d600082614d56565b60018101905061553a565b5050565b818310156155955761556d8261550f565b6155768461550f565b61557f83615524565b81810183820161558f8183615539565b50505050505b505050565b680100000000000000008211156155b4576155b361408e565b5b6155bd81615504565b8282556155cb83828461555c565b505050565b600082905092915050565b6155e583836155d0565b6155ef818361559a565b6155f8836154fa565b61560183615524565b6000805b8481101561563c578361561781614efe565b9050615624818486614d2c565b60208501945060018401935050600181019050615605565b5050505050505050565b6156518383836155db565b505050565b60008101600083016156688185615180565b6156738183866154ea565b50505050600181016020830161568981856151e3565b615694818386615646565b505050505050565b6156a68282615656565b5050565b7f4f776e61626c653a206e6577206f776e657220697320746865207a65726f206160008201527f6464726573730000000000000000000000000000000000000000000000000000602082015250565b60006157066026836139ff565b9150615711826156aa565b604082019050919050565b60006020820190508181036000830152615735816156f9565b9050919050565b600061574782613967565b915061575283613967565b9250827fffffffffffffffffffffffffffffffffffffffffffffffffffffffffffffffff0382111561578757615786614869565b5b828201905092915050565b600061579d82613967565b91507fffffffffffffffffffffffffffffffffffffffffffffffffffffffffffffffff82036157cf576157ce614869565b5b600182019050919050565b7f416464726573733a20696e73756666696369656e742062616c616e6365000000600082015250565b6000615810601d836139ff565b915061581b826157da565b602082019050919050565b6000602082019050818103600083015261583f81615803565b9050919050565b7f416464726573733a20756e61626c6520746f2073656e642076616c75652c207260008201527f6563697069656e74206d61792068617665207265766572746564000000000000602082015250565b60006158a2603a836139ff565b91506158ad82615846565b604082019050919050565b600060208201905081810360008301526158d181615895565b9050919050565b7f4552433732313a206f70657261746f7220717565727920666f72206e6f6e657860008201527f697374656e7420746f6b656e0000000000000000000000000000000000000000602082015250565b6000615934602c836139ff565b915061593f826158d8565b604082019050919050565b6000602082019050818103600083015261596381615927565b9050919050565b7f4552433732313a207472616e73666572206f6620746f6b656e2074686174206960008201527f73206e6f74206f776e0000000000000000000000000000000000000000000000602082015250565b60006159c66029836139ff565b91506159d18261596a565b604082019050919050565b600060208201905081810360008301526159f5816159b9565b9050919050565b7f4552433732313a207472616e7366657220746f20746865207a65726f2061646460008201527f7265737300000000000000000000000000000000000000000000000000000000602082015250565b6000615a586024836139ff565b9150615a63826159fc565b604082019050919050565b60006020820190508181036000830152615a8781615a4b565b9050919050565b7f4552433732313a20617070726f766520746f2063616c6c657200000000000000600082015250565b6000615ac46019836139ff565b9150615acf82615a8e565b602082019050919050565b60006020820190508181036000830152615af381615ab7565b9050919050565b7f4552433732313a207472616e7366657220746f206e6f6e20455243373231526560008201527f63656976657220696d706c656d656e7465720000000000000000000000000000602082015250565b6000615b566032836139ff565b9150615b6182615afa565b604082019050919050565b60006020820190508181036000830152615b8581615b49565b9050919050565b7f496e697469616c697a61626c653a20636f6e7472616374206973206e6f74206960008201527f6e697469616c697a696e67000000000000000000000000000000000000000000602082015250565b6000615be8602b836139ff565b9150615bf382615b8c565b604082019050919050565b60006020820190508181036000830152615c1781615bdb565b9050919050565b7f4e487b7100000000000000000000000000000000000000000000000000000000600052601260045260246000fd5b6000615c5882613967565b9150615c6383613967565b925082615c7357615c72615c1e565b5b828204905092915050565b6000615c8982613967565b9150615c9483613967565b925082615ca457615ca3615c1e565b5b828206905092915050565b7f4552433732313a206d696e7420746f20746865207a65726f2061646472657373600082015250565b6000615ce56020836139ff565b9150615cf082615caf565b602082019050919050565b60006020820190508181036000830152615d1481615cd8565b9050919050565b7f4552433732313a20746f6b656e20616c7265616479206d696e74656400000000600082015250565b6000615d51601c836139ff565b9150615d5c82615d1b565b602082019050919050565b60006020820190508181036000830152615d8081615d44565b9050919050565b600081519050919050565b600082825260208201905092915050565b6000615dae82615d87565b615db88185615d92565b9350615dc8818560208601613a10565b615dd181613a43565b840191505092915050565b6000608082019050615df16000830187613ae1565b615dfe6020830186613ae1565b615e0b60408301856139ca565b8181036060830152615e1d8184615da3565b905095945050505050565b600081519050615e37816138d8565b92915050565b600060208284031215615e5357615e526138a2565b5b6000615e6184828501615e28565b9150509291505056fea2646970667358221220dfba809522f096280b944b7462699d6bd153d57382eae9754a7a4eb1e226443964736f6c634300080d0033",
  "immutableReferences": {},
  "source": "// SPDX-License-Identifier: MIT\npragma solidity ^0.8.0;\nimport \"@openzeppelin/contracts-upgradeable/token/ERC721/ERC721Upgradeable.sol\";\nimport \"@openzeppelin/contracts-upgradeable/access/OwnableUpgradeable.sol\";\nimport \"@openzeppelin/contracts-upgradeable/utils/AddressUpgradeable.sol\";\nimport \"@openzeppelin/contracts-upgradeable/security/ReentrancyGuardUpgradeable.sol\";\nimport \"@openzeppelin/contracts/utils/introspection/ERC165Checker.sol\";\nimport \"@openzeppelin/contracts/utils/introspection/ERC165.sol\";\nimport \"@openzeppelin/contracts/utils/Counters.sol\";\nimport \"@openzeppelin/contracts/utils/Strings.sol\";\nimport \"@openzeppelin/contracts/proxy/Clones.sol\";\nimport \"@manifoldxyz/royalty-registry-solidity/contracts/specs/IManifold.sol\";\nimport \"./MintSplit.sol\";\nimport \"./MintSplitFactory.sol\";\n\n/// @author mintsplit.io\n\n/// @title MintSplit ERC721 Smart Contract\ncontract MintSplitERC721 is ERC721Upgradeable, OwnableUpgradeable, ReentrancyGuardUpgradeable, IManifold {\n    using Counters for Counters.Counter;\n    using Strings for uint;\n\n    uint256[] public editions;\n    address factory;\n    uint256 public totalBalance;\n    bool public isPaused;\n    MintSplit.Params private params;\n    MintSplit.PaymentSplit defaultMintSplit;\n    MintSplit.PaymentSplit defaultRoyaltySplit;\n    Counters.Counter public tokens;\n\n    mapping (uint => string) public contentURI;\n    mapping (uint256 => Counters.Counter) public contentSupply;\n    mapping (uint256 => uint256) public tokenContent;\n    mapping (uint256 => uint256) public tokenEdition;\n    mapping (address => uint256) public balance;\n    mapping (uint256 => bool) mintSplitOverride;\n    mapping (uint256 => MintSplit.PaymentSplit) mintSplits;\n    mapping (uint256 => MintSplit.PaymentSplit) royaltySplits;\n\n    modifier onlyFactory() {\n        require(factory == _msgSender());\n        _;\n    }\n\n    /**\n    @dev Automatically mark the implementation\n    contract as initialized when it is deployed\n    */\n    constructor() initializer {}\n\n    /**\n    Initialize a new project\n    @dev Initialize a new ERC721 clone\n    @param _owner the address that initialized the ERC721 clone\n    @param _factory the address of the MintSplitFactory that initialized the ERC721 clone\n    @param _params the project settings configured by the user\n    @param _editions the editions of the initial content\n    */\n    function initialize(address _owner, address _factory, MintSplit.Params calldata _params, uint256[] calldata _editions) initializer public {\n        __ERC721_init(_params.name, _params.symbol);\n        _transferOwnership(_owner);\n        factory = _factory;\n        params = _params;\n        editions = _editions;\n    }\n\n    function supportsInterface(bytes4 interfaceId) public view virtual override(ERC721Upgradeable) returns (bool) {\n        return\n            interfaceId == type(IManifold).interfaceId ||\n            super.supportsInterface(interfaceId);\n    }\n\n    /**\n    Mint NFTs\n    @param contentIds an array of content ids to be minted\n    */\n    function mint(uint256[] calldata contentIds) external payable nonReentrant {\n        require(!isPaused);\n        if (msg.sender != owner()) {\n            require(params.mintPrice * contentIds.length == msg.value);\n            require(block.timestamp > params.releaseTime);\n        }\n        for(uint256 i; i < contentIds.length; i++) {\n            uint cid = contentIds[i];\n            require(cid > 0);\n            require(cid <= editions.length);\n            Counters.Counter storage supply = contentSupply[cid];\n            uint256 currentSupply = supply.current();\n            require(currentSupply < editions[cid-1]);\n            supply.increment();\n            tokens.increment();\n            uint tid = tokens.current();\n            tokenContent[tid] = cid;\n            tokenEdition[tid] = currentSupply+1;\n            _mint(msg.sender, tid);\n            if (defaultMintSplit.recipients.length > 0 || mintSplitOverride[cid]) _updateBalance(cid);\n        }\n    }\n\n    /**\n    Release funds to the user\n    @param account the account whom to release funds\n    */\n    function release(address payable account) external nonReentrant {\n        require(!isPaused);\n        uint payment = balance[account];\n        require(payment > 0);\n        balance[account] = 0;\n        totalBalance -= payment;\n        AddressUpgradeable.sendValue(account, payment);\n    }\n\n    /**\n    Get the URI for the token\n    @param tokenId the token id for which to get the URI\n    */\n    function tokenURI(uint tokenId) public view virtual override returns (string memory) {\n        require(_exists(tokenId));\n        uint cid = tokenContent[tokenId];\n        string storage cURI = contentURI[cid];\n        string memory uri = (bytes(cURI).length == 0) ? params.baseURI : cURI;\n        return string(abi.encodePacked(uri, cid.toString(), \"-\", tokenEdition[tokenId].toString(), \".json\"));\n    }\n\n    /**\n    @dev Get royalites of a token.\n    @return recipients_ addresses of the split recipients\n    @return bps basis points of split recipients\n    */\n    function getRoyalties(uint tokenId) external view returns(address payable[] memory recipients_, uint256[] memory bps) {\n        require(_exists(tokenId));\n        MintSplit.PaymentSplit storage results = royaltySplits[tokenContent[tokenId]];\n        return (results.recipients, results.bps);\n    }\n\n    /**\n    Get editions\n    @return editions the list of content editions\n    */\n    function getEditions() external view returns(uint[] memory) {\n        return editions;\n    }\n    \n    /**\n    Get project params\n    @return params the active params for this contract\n    */\n    function getParams() external view returns(MintSplit.Params memory) {\n        return params;\n    }\n    \n    /**\n    Get default splits\n    @return mintSplit the default mint splits\n    @return royaltySplit the default royalty splits\n    */\n    function getDefaultSplits() external view returns(MintSplit.PaymentSplit memory mintSplit, MintSplit.PaymentSplit memory royaltySplit) {\n        return (defaultMintSplit, defaultRoyaltySplit);\n    }\n    \n    /**\n    Get splits for a specific content\n    @param cid the id for the content to retrieve splits\n    @param isMint flag for determining split type\n    @return split the splits for this content\n    */\n    function getContentSplits(uint256 cid, bool isMint) external view returns(MintSplit.PaymentSplit memory split) {\n        return isMint ? mintSplits[cid] : royaltySplits[cid];\n    }\n\n    /**\n    Add content\n    @dev only the factory can use this function\n    @param content the data for adding content\n    */\n    function addContent(MintSplit.Content calldata content) external onlyFactory {\n        editions.push(content.editions);\n        contentURI[editions.length] = content.uri;\n    }\n    \n    /**\n    Update content\n    @dev only the factory can use this function\n    @param content the data for updating content\n    */\n    function setContent(MintSplit.Content calldata content) external onlyFactory {\n        uint256 cid = content.id;\n        editions[cid-1] = content.editions;\n        contentURI[cid] = content.uri;\n    }\n\n    /**\n    Set split\n    @param config the data for configuring the content split\n    @param isDefault flag for setting default splits\n    */\n    function setSplit(MintSplit.PaymentSplitConfig calldata config, bool isDefault) external onlyOwner {\n        MintSplit.PaymentSplit calldata split = config.split;\n        require(split.recipients.length < 6);\n        require(split.recipients.length == split.bps.length);\n        if (isDefault) {\n            config.isMint ? (defaultMintSplit = split) : (defaultRoyaltySplit = split);\n            return;\n        }\n        uint cid = config.contentId;\n        require(cid > 0);\n        if (config.isMint) {\n            mintSplitOverride[cid] = (split.recipients.length > 0);\n            mintSplits[cid] = split;\n        } else {\n            royaltySplits[cid] = split;\n        }\n    }\n\n    /// Toggle paused state\n    function togglePaused() external onlyOwner {\n        isPaused = !isPaused;\n    }\n\n    /**\n    Update project params\n    @param newParams the data for updating project params\n    */\n    function setParams(MintSplit.Params calldata newParams) external onlyOwner {\n        params = newParams;\n    }\n\n    /// Withdraw contract funds\n    function withdraw() external onlyOwner {\n        (bool success, ) = payable(msg.sender).call{\n            value: (address(this).balance - totalBalance)\n        }(\"\");\n        require(success);\n    }\n\n    /**\n    Update balance\n    @param cid the id of content for which to update the contract balance\n    */\n    function _updateBalance(uint256 cid) internal {\n        MintSplit.PaymentSplit storage split = mintSplitOverride[cid] ? mintSplits[cid] : defaultMintSplit;\n        totalBalance += params.mintPrice;\n        for(uint256 i; i < split.recipients.length; i++) {\n            balance[split.recipients[i]] += (params.mintPrice*split.bps[i])/10000;\n        }\n    }\n}",
  "sourcePath": "/Users/justinfsl/Dev/misc/mintsplit/solidity/contracts/MintSplitERC721.sol",
  "compiler": {
    "name": "solc",
    "version": "0.8.13+commit.abaa5c0e.Emscripten.clang"
  },
  "schemaVersion": "3.3.4",
  "updatedAt": "2022-04-14T19:29:50.225Z",
  "networkType": "ethereum",
  "devdoc": {
    "kind": "dev",
    "methods": {
      "addContent((uint256,uint256,string))": {
        "details": "only the factory can use this function",
        "params": {
          "content": "the data for adding content"
        }
      },
      "approve(address,uint256)": {
        "details": "See {IERC721-approve}."
      },
      "balanceOf(address)": {
        "details": "See {IERC721-balanceOf}."
      },
      "constructor": {
        "details": "Automatically mark the implementation contract as initialized when it is deployed"
      },
      "getApproved(uint256)": {
        "details": "See {IERC721-getApproved}."
      },
      "getContentSplits(uint256,bool)": {
        "params": {
          "cid": "the id for the content to retrieve splits",
          "isMint": "flag for determining split type"
        },
        "returns": {
          "split": "the splits for this content"
        }
      },
      "getDefaultSplits()": {
        "returns": {
          "mintSplit": "the default mint splits",
          "royaltySplit": "the default royalty splits"
        }
      },
      "getEditions()": {
        "returns": {
          "_0": "editions the list of content editions"
        }
      },
      "getParams()": {
        "returns": {
          "_0": "params the active params for this contract"
        }
      },
      "getRoyalties(uint256)": {
        "details": "Get royalites of a token.",
        "returns": {
          "bps": "basis points of split recipients",
          "recipients_": "addresses of the split recipients"
        }
      },
      "initialize(address,address,(string,string,string,uint256,uint256),uint256[])": {
        "details": "Initialize a new ERC721 clone",
        "params": {
          "_editions": "the editions of the initial content",
          "_factory": "the address of the MintSplitFactory that initialized the ERC721 clone",
          "_owner": "the address that initialized the ERC721 clone",
          "_params": "the project settings configured by the user"
        }
      },
      "isApprovedForAll(address,address)": {
        "details": "See {IERC721-isApprovedForAll}."
      },
      "mint(uint256[])": {
        "params": {
          "contentIds": "an array of content ids to be minted"
        }
      },
      "name()": {
        "details": "See {IERC721Metadata-name}."
      },
      "owner()": {
        "details": "Returns the address of the current owner."
      },
      "ownerOf(uint256)": {
        "details": "See {IERC721-ownerOf}."
      },
      "release(address)": {
        "params": {
          "account": "the account whom to release funds"
        }
      },
      "renounceOwnership()": {
        "details": "Leaves the contract without owner. It will not be possible to call `onlyOwner` functions anymore. Can only be called by the current owner. NOTE: Renouncing ownership will leave the contract without an owner, thereby removing any functionality that is only available to the owner."
      },
      "safeTransferFrom(address,address,uint256)": {
        "details": "See {IERC721-safeTransferFrom}."
      },
      "safeTransferFrom(address,address,uint256,bytes)": {
        "details": "See {IERC721-safeTransferFrom}."
      },
      "setApprovalForAll(address,bool)": {
        "details": "See {IERC721-setApprovalForAll}."
      },
      "setContent((uint256,uint256,string))": {
        "details": "only the factory can use this function",
        "params": {
          "content": "the data for updating content"
        }
      },
      "setParams((string,string,string,uint256,uint256))": {
        "params": {
          "newParams": "the data for updating project params"
        }
      },
      "setSplit((uint256,bool,(address[],uint256[])),bool)": {
        "params": {
          "config": "the data for configuring the content split",
          "isDefault": "flag for setting default splits"
        }
      },
      "supportsInterface(bytes4)": {
        "details": "See {IERC165-supportsInterface}."
      },
      "symbol()": {
        "details": "See {IERC721Metadata-symbol}."
      },
      "tokenURI(uint256)": {
        "params": {
          "tokenId": "the token id for which to get the URI"
        }
      },
      "transferFrom(address,address,uint256)": {
        "details": "See {IERC721-transferFrom}."
      },
      "transferOwnership(address)": {
        "details": "Transfers ownership of the contract to a new account (`newOwner`). Can only be called by the current owner."
      }
    },
    "title": "MintSplit ERC721 Smart Contract",
    "version": 1
  },
  "userdoc": {
    "kind": "user",
    "methods": {
      "addContent((uint256,uint256,string))": {
        "notice": "Add content"
      },
      "getContentSplits(uint256,bool)": {
        "notice": "Get splits for a specific content"
      },
      "getDefaultSplits()": {
        "notice": "Get default splits"
      },
      "getEditions()": {
        "notice": "Get editions"
      },
      "getParams()": {
        "notice": "Get project params"
      },
      "initialize(address,address,(string,string,string,uint256,uint256),uint256[])": {
        "notice": "Initialize a new project"
      },
      "mint(uint256[])": {
        "notice": "Mint NFTs"
      },
      "release(address)": {
        "notice": "Release funds to the user"
      },
      "setContent((uint256,uint256,string))": {
        "notice": "Update content"
      },
      "setParams((string,string,string,uint256,uint256))": {
        "notice": "Update project params"
      },
      "setSplit((uint256,bool,(address[],uint256[])),bool)": {
        "notice": "Set split"
      },
      "togglePaused()": {
        "notice": "Toggle paused state"
      },
      "tokenURI(uint256)": {
        "notice": "Get the URI for the token"
      },
      "withdraw()": {
        "notice": "Withdraw contract funds"
      }
    },
    "version": 1
  }
}