{
  "contractName": "MintSplitERC721",
  "abi": [
    {
      "inputs": [],
      "stateMutability": "nonpayable",
      "type": "constructor"
    },
    {
      "anonymous": false,
      "inputs": [
        {
          "indexed": true,
          "internalType": "address",
          "name": "owner",
          "type": "address"
        },
        {
          "indexed": true,
          "internalType": "address",
          "name": "approved",
          "type": "address"
        },
        {
          "indexed": true,
          "internalType": "uint256",
          "name": "tokenId",
          "type": "uint256"
        }
      ],
      "name": "Approval",
      "type": "event"
    },
    {
      "anonymous": false,
      "inputs": [
        {
          "indexed": true,
          "internalType": "address",
          "name": "owner",
          "type": "address"
        },
        {
          "indexed": true,
          "internalType": "address",
          "name": "operator",
          "type": "address"
        },
        {
          "indexed": false,
          "internalType": "bool",
          "name": "approved",
          "type": "bool"
        }
      ],
      "name": "ApprovalForAll",
      "type": "event"
    },
    {
      "anonymous": false,
      "inputs": [
        {
          "indexed": true,
          "internalType": "address",
          "name": "previousOwner",
          "type": "address"
        },
        {
          "indexed": true,
          "internalType": "address",
          "name": "newOwner",
          "type": "address"
        }
      ],
      "name": "OwnershipTransferred",
      "type": "event"
    },
    {
      "anonymous": false,
      "inputs": [
        {
          "indexed": true,
          "internalType": "address",
          "name": "from",
          "type": "address"
        },
        {
          "indexed": true,
          "internalType": "address",
          "name": "to",
          "type": "address"
        },
        {
          "indexed": true,
          "internalType": "uint256",
          "name": "tokenId",
          "type": "uint256"
        }
      ],
      "name": "Transfer",
      "type": "event"
    },
    {
      "inputs": [
        {
          "internalType": "address",
          "name": "to",
          "type": "address"
        },
        {
          "internalType": "uint256",
          "name": "tokenId",
          "type": "uint256"
        }
      ],
      "name": "approve",
      "outputs": [],
      "stateMutability": "nonpayable",
      "type": "function"
    },
    {
      "inputs": [
        {
          "internalType": "address",
          "name": "owner",
          "type": "address"
        }
      ],
      "name": "balanceOf",
      "outputs": [
        {
          "internalType": "uint256",
          "name": "",
          "type": "uint256"
        }
      ],
      "stateMutability": "view",
      "type": "function",
      "constant": true
    },
    {
      "inputs": [
        {
          "internalType": "uint256",
          "name": "",
          "type": "uint256"
        }
      ],
      "name": "contentUriOverrides",
      "outputs": [
        {
          "internalType": "string",
          "name": "",
          "type": "string"
        }
      ],
      "stateMutability": "view",
      "type": "function",
      "constant": true
    },
    {
      "inputs": [
        {
          "internalType": "uint256",
          "name": "tokenId",
          "type": "uint256"
        }
      ],
      "name": "getApproved",
      "outputs": [
        {
          "internalType": "address",
          "name": "",
          "type": "address"
        }
      ],
      "stateMutability": "view",
      "type": "function",
      "constant": true
    },
    {
      "inputs": [
        {
          "internalType": "address",
          "name": "owner",
          "type": "address"
        },
        {
          "internalType": "address",
          "name": "operator",
          "type": "address"
        }
      ],
      "name": "isApprovedForAll",
      "outputs": [
        {
          "internalType": "bool",
          "name": "",
          "type": "bool"
        }
      ],
      "stateMutability": "view",
      "type": "function",
      "constant": true
    },
    {
      "inputs": [],
      "name": "name",
      "outputs": [
        {
          "internalType": "string",
          "name": "",
          "type": "string"
        }
      ],
      "stateMutability": "view",
      "type": "function",
      "constant": true
    },
    {
      "inputs": [],
      "name": "owner",
      "outputs": [
        {
          "internalType": "address",
          "name": "",
          "type": "address"
        }
      ],
      "stateMutability": "view",
      "type": "function",
      "constant": true
    },
    {
      "inputs": [
        {
          "internalType": "uint256",
          "name": "tokenId",
          "type": "uint256"
        }
      ],
      "name": "ownerOf",
      "outputs": [
        {
          "internalType": "address",
          "name": "",
          "type": "address"
        }
      ],
      "stateMutability": "view",
      "type": "function",
      "constant": true
    },
    {
      "inputs": [],
      "name": "paused",
      "outputs": [
        {
          "internalType": "bool",
          "name": "",
          "type": "bool"
        }
      ],
      "stateMutability": "view",
      "type": "function",
      "constant": true
    },
    {
      "inputs": [],
      "name": "renounceOwnership",
      "outputs": [],
      "stateMutability": "nonpayable",
      "type": "function"
    },
    {
      "inputs": [],
      "name": "revenueSplitter",
      "outputs": [
        {
          "internalType": "contract RevenueSplitter",
          "name": "",
          "type": "address"
        }
      ],
      "stateMutability": "view",
      "type": "function",
      "constant": true
    },
    {
      "inputs": [
        {
          "internalType": "address",
          "name": "from",
          "type": "address"
        },
        {
          "internalType": "address",
          "name": "to",
          "type": "address"
        },
        {
          "internalType": "uint256",
          "name": "tokenId",
          "type": "uint256"
        }
      ],
      "name": "safeTransferFrom",
      "outputs": [],
      "stateMutability": "nonpayable",
      "type": "function"
    },
    {
      "inputs": [
        {
          "internalType": "address",
          "name": "from",
          "type": "address"
        },
        {
          "internalType": "address",
          "name": "to",
          "type": "address"
        },
        {
          "internalType": "uint256",
          "name": "tokenId",
          "type": "uint256"
        },
        {
          "internalType": "bytes",
          "name": "_data",
          "type": "bytes"
        }
      ],
      "name": "safeTransferFrom",
      "outputs": [],
      "stateMutability": "nonpayable",
      "type": "function"
    },
    {
      "inputs": [
        {
          "internalType": "address",
          "name": "operator",
          "type": "address"
        },
        {
          "internalType": "bool",
          "name": "approved",
          "type": "bool"
        }
      ],
      "name": "setApprovalForAll",
      "outputs": [],
      "stateMutability": "nonpayable",
      "type": "function"
    },
    {
      "inputs": [
        {
          "internalType": "uint256",
          "name": "",
          "type": "uint256"
        }
      ],
      "name": "supplies",
      "outputs": [
        {
          "internalType": "uint256",
          "name": "_value",
          "type": "uint256"
        }
      ],
      "stateMutability": "view",
      "type": "function",
      "constant": true
    },
    {
      "inputs": [],
      "name": "symbol",
      "outputs": [
        {
          "internalType": "string",
          "name": "",
          "type": "string"
        }
      ],
      "stateMutability": "view",
      "type": "function",
      "constant": true
    },
    {
      "inputs": [
        {
          "internalType": "uint256",
          "name": "",
          "type": "uint256"
        }
      ],
      "name": "tokenContent",
      "outputs": [
        {
          "internalType": "uint256",
          "name": "",
          "type": "uint256"
        }
      ],
      "stateMutability": "view",
      "type": "function",
      "constant": true
    },
    {
      "inputs": [
        {
          "internalType": "uint256",
          "name": "",
          "type": "uint256"
        }
      ],
      "name": "tokenEdition",
      "outputs": [
        {
          "internalType": "uint256",
          "name": "",
          "type": "uint256"
        }
      ],
      "stateMutability": "view",
      "type": "function",
      "constant": true
    },
    {
      "inputs": [],
      "name": "tokenLimit",
      "outputs": [
        {
          "internalType": "uint256",
          "name": "",
          "type": "uint256"
        }
      ],
      "stateMutability": "view",
      "type": "function",
      "constant": true
    },
    {
      "inputs": [
        {
          "internalType": "address",
          "name": "from",
          "type": "address"
        },
        {
          "internalType": "address",
          "name": "to",
          "type": "address"
        },
        {
          "internalType": "uint256",
          "name": "tokenId",
          "type": "uint256"
        }
      ],
      "name": "transferFrom",
      "outputs": [],
      "stateMutability": "nonpayable",
      "type": "function"
    },
    {
      "inputs": [
        {
          "internalType": "address",
          "name": "newOwner",
          "type": "address"
        }
      ],
      "name": "transferOwnership",
      "outputs": [],
      "stateMutability": "nonpayable",
      "type": "function"
    },
    {
      "inputs": [
        {
          "internalType": "address",
          "name": "owner",
          "type": "address"
        },
        {
          "components": [
            {
              "internalType": "string",
              "name": "projectName",
              "type": "string"
            },
            {
              "internalType": "string",
              "name": "symbol",
              "type": "string"
            },
            {
              "internalType": "uint256",
              "name": "contentCount",
              "type": "uint256"
            },
            {
              "internalType": "uint256[]",
              "name": "editions",
              "type": "uint256[]"
            },
            {
              "internalType": "uint256",
              "name": "mintPrice",
              "type": "uint256"
            },
            {
              "internalType": "uint256",
              "name": "releaseTime",
              "type": "uint256"
            },
            {
              "internalType": "string",
              "name": "baseURI",
              "type": "string"
            },
            {
              "internalType": "uint256",
              "name": "package",
              "type": "uint256"
            }
          ],
          "internalType": "struct MintSplitSharedLib.ProjectParams",
          "name": "params",
          "type": "tuple"
        },
        {
          "internalType": "uint256",
          "name": "maxLimit",
          "type": "uint256"
        }
      ],
      "name": "initialize",
      "outputs": [],
      "stateMutability": "nonpayable",
      "type": "function"
    },
    {
      "inputs": [
        {
          "internalType": "bytes4",
          "name": "interfaceId",
          "type": "bytes4"
        }
      ],
      "name": "supportsInterface",
      "outputs": [
        {
          "internalType": "bool",
          "name": "",
          "type": "bool"
        }
      ],
      "stateMutability": "view",
      "type": "function",
      "constant": true
    },
    {
      "inputs": [
        {
          "internalType": "uint256",
          "name": "cid",
          "type": "uint256"
        }
      ],
      "name": "mint",
      "outputs": [],
      "stateMutability": "payable",
      "type": "function",
      "payable": true
    },
    {
      "inputs": [
        {
          "internalType": "uint256[]",
          "name": "contentIds",
          "type": "uint256[]"
        }
      ],
      "name": "mintBatch",
      "outputs": [],
      "stateMutability": "payable",
      "type": "function",
      "payable": true
    },
    {
      "inputs": [
        {
          "internalType": "uint256",
          "name": "tokenId",
          "type": "uint256"
        }
      ],
      "name": "getRoyalties",
      "outputs": [
        {
          "internalType": "address payable[]",
          "name": "recipients_",
          "type": "address[]"
        },
        {
          "internalType": "uint256[]",
          "name": "bps",
          "type": "uint256[]"
        }
      ],
      "stateMutability": "view",
      "type": "function",
      "constant": true
    },
    {
      "inputs": [
        {
          "internalType": "uint256",
          "name": "tokenId",
          "type": "uint256"
        }
      ],
      "name": "tokenURI",
      "outputs": [
        {
          "internalType": "string",
          "name": "",
          "type": "string"
        }
      ],
      "stateMutability": "view",
      "type": "function",
      "constant": true
    },
    {
      "inputs": [],
      "name": "getParams",
      "outputs": [
        {
          "components": [
            {
              "internalType": "string",
              "name": "projectName",
              "type": "string"
            },
            {
              "internalType": "string",
              "name": "symbol",
              "type": "string"
            },
            {
              "internalType": "uint256",
              "name": "contentCount",
              "type": "uint256"
            },
            {
              "internalType": "uint256[]",
              "name": "editions",
              "type": "uint256[]"
            },
            {
              "internalType": "uint256",
              "name": "mintPrice",
              "type": "uint256"
            },
            {
              "internalType": "uint256",
              "name": "releaseTime",
              "type": "uint256"
            },
            {
              "internalType": "string",
              "name": "baseURI",
              "type": "string"
            },
            {
              "internalType": "uint256",
              "name": "package",
              "type": "uint256"
            }
          ],
          "internalType": "struct MintSplitSharedLib.ProjectParams",
          "name": "params",
          "type": "tuple"
        }
      ],
      "stateMutability": "view",
      "type": "function",
      "constant": true
    },
    {
      "inputs": [
        {
          "internalType": "address",
          "name": "implementation",
          "type": "address"
        },
        {
          "components": [
            {
              "internalType": "uint256",
              "name": "contentId",
              "type": "uint256"
            },
            {
              "internalType": "bool",
              "name": "isMint",
              "type": "bool"
            },
            {
              "components": [
                {
                  "internalType": "address payable[]",
                  "name": "recipients",
                  "type": "address[]"
                },
                {
                  "internalType": "uint256[]",
                  "name": "bps",
                  "type": "uint256[]"
                }
              ],
              "internalType": "struct MintSplitSharedLib.PaymentSplit",
              "name": "split",
              "type": "tuple"
            }
          ],
          "internalType": "struct MintSplitSharedLib.PaymentSplitConfig[]",
          "name": "configs",
          "type": "tuple[]"
        },
        {
          "components": [
            {
              "internalType": "address payable[]",
              "name": "recipients",
              "type": "address[]"
            },
            {
              "internalType": "uint256[]",
              "name": "bps",
              "type": "uint256[]"
            }
          ],
          "internalType": "struct MintSplitSharedLib.PaymentSplit",
          "name": "defaultMint",
          "type": "tuple"
        },
        {
          "components": [
            {
              "internalType": "address payable[]",
              "name": "recipients",
              "type": "address[]"
            },
            {
              "internalType": "uint256[]",
              "name": "bps",
              "type": "uint256[]"
            }
          ],
          "internalType": "struct MintSplitSharedLib.PaymentSplit",
          "name": "defaultRoyalty",
          "type": "tuple"
        }
      ],
      "name": "addRevenueSplitter",
      "outputs": [],
      "stateMutability": "nonpayable",
      "type": "function"
    },
    {
      "inputs": [],
      "name": "togglePaused",
      "outputs": [],
      "stateMutability": "nonpayable",
      "type": "function"
    },
    {
      "inputs": [
        {
          "internalType": "string",
          "name": "uri",
          "type": "string"
        }
      ],
      "name": "setBaseURI",
      "outputs": [],
      "stateMutability": "nonpayable",
      "type": "function"
    },
    {
      "inputs": [
        {
          "internalType": "string",
          "name": "uri",
          "type": "string"
        },
        {
          "internalType": "uint256",
          "name": "contentId",
          "type": "uint256"
        }
      ],
      "name": "setContentURI",
      "outputs": [],
      "stateMutability": "nonpayable",
      "type": "function"
    },
    {
      "inputs": [
        {
          "components": [
            {
              "internalType": "string",
              "name": "projectName",
              "type": "string"
            },
            {
              "internalType": "string",
              "name": "symbol",
              "type": "string"
            },
            {
              "internalType": "uint256",
              "name": "contentCount",
              "type": "uint256"
            },
            {
              "internalType": "uint256[]",
              "name": "editions",
              "type": "uint256[]"
            },
            {
              "internalType": "uint256",
              "name": "mintPrice",
              "type": "uint256"
            },
            {
              "internalType": "uint256",
              "name": "releaseTime",
              "type": "uint256"
            },
            {
              "internalType": "string",
              "name": "baseURI",
              "type": "string"
            },
            {
              "internalType": "uint256",
              "name": "package",
              "type": "uint256"
            }
          ],
          "internalType": "struct MintSplitSharedLib.ProjectParams",
          "name": "newParams",
          "type": "tuple"
        }
      ],
      "name": "setParams",
      "outputs": [],
      "stateMutability": "nonpayable",
      "type": "function"
    },
    {
      "inputs": [],
      "name": "withdraw",
      "outputs": [],
      "stateMutability": "nonpayable",
      "type": "function"
    }
  ],
  "bytecode": "0x60806040523480156200001157600080fd5b50600060019054906101000a900460ff166200003c5760008054906101000a900460ff16156200004d565b6200004c6200010960201b60201c565b5b6200008f576040517f08c379a00000000000000000000000000000000000000000000000000000000081526004016200008690620001c1565b60405180910390fd5b60008060019054906101000a900460ff161590508015620000e0576001600060016101000a81548160ff02191690831515021790555060016000806101000a81548160ff0219169083151502179055505b8015620001025760008060016101000a81548160ff0219169083151502179055505b50620001e3565b600062000121306200012760201b620020121760201c565b15905090565b600080823b905060008111915050919050565b600082825260208201905092915050565b7f496e697469616c697a61626c653a20636f6e747261637420697320616c72656160008201527f647920696e697469616c697a6564000000000000000000000000000000000000602082015250565b6000620001a9602e836200013a565b9150620001b6826200014b565b604082019050919050565b60006020820190508181036000830152620001dc816200019a565b9050919050565b615eca80620001f36000396000f3fe6080604052600436106101f95760003560e01c806370a082311161010d578063a22cb465116100a0578063d4f7da921161006f578063d4f7da9214610737578063e5015d9e14610760578063e985e9c514610789578063f2fde38b146107c6578063ffb2b55a146107ef576101f9565b8063a22cb4651461066a578063b88d4fde14610693578063bb3bafd6146106bc578063c87b56dd146106fa576101f9565b806394b57a1d116100dc57806394b57a1d146105cf57806395d89b41146105f85780639d2b86f614610623578063a0712d681461064e576101f9565b806370a0823114610513578063715018a614610550578063755ca5bc146105675780638da5cb5b146105a4576101f9565b80633969a1a51161019057806355f804b31161015f57806355f804b31461042c57806356c7627e146104555780635c975abb146104805780635e615a6b146104ab5780636352211e146104d6576101f9565b80633969a1a5146103865780633ccfd60b146103c357806342842e0e146103da578063489159c814610403576101f9565b806323b872dd116101cc57806323b872dd146102cc57806326f1a1fd146102f55780632dbefd0b1461033257806336566f061461036f576101f9565b806301ffc9a7146101fe57806306fdde031461023b578063081812fc14610266578063095ea7b3146102a3575b600080fd5b34801561020a57600080fd5b50610225600480360381019061022091906134ec565b61080b565b6040516102329190613534565b60405180910390f35b34801561024757600080fd5b50610250610885565b60405161025d91906135e8565b60405180910390f35b34801561027257600080fd5b5061028d60048036038101906102889190613640565b610917565b60405161029a91906136ae565b60405180910390f35b3480156102af57600080fd5b506102ca60048036038101906102c591906136f5565b61099c565b005b3480156102d857600080fd5b506102f360048036038101906102ee9190613735565b610ab3565b005b34801561030157600080fd5b5061031c60048036038101906103179190613640565b610b13565b6040516103299190613797565b60405180910390f35b34801561033e57600080fd5b5061035960048036038101906103549190613640565b610b31565b60405161036691906135e8565b60405180910390f35b34801561037b57600080fd5b50610384610bd1565b005b34801561039257600080fd5b506103ad60048036038101906103a89190613640565b610c79565b6040516103ba9190613797565b60405180910390f35b3480156103cf57600080fd5b506103d8610c91565b005b3480156103e657600080fd5b5061040160048036038101906103fc9190613735565b610d86565b005b34801561040f57600080fd5b5061042a600480360381019061042591906137d7565b610da6565b005b34801561043857600080fd5b50610453600480360381019061044e9190613885565b610e5b565b005b34801561046157600080fd5b5061046a610ef0565b6040516104779190613797565b60405180910390f35b34801561048c57600080fd5b50610495610ef6565b6040516104a29190613534565b60405180910390f35b3480156104b757600080fd5b506104c0610f09565b6040516104cd9190613a9f565b60405180910390f35b3480156104e257600080fd5b506104fd60048036038101906104f89190613640565b61115a565b60405161050a91906136ae565b60405180910390f35b34801561051f57600080fd5b5061053a60048036038101906105359190613ac1565b61120b565b6040516105479190613797565b60405180910390f35b34801561055c57600080fd5b506105656112c2565b005b34801561057357600080fd5b5061058e60048036038101906105899190613640565b61134a565b60405161059b9190613797565b60405180910390f35b3480156105b057600080fd5b506105b9611362565b6040516105c691906136ae565b60405180910390f35b3480156105db57600080fd5b506105f660048036038101906105f19190613aee565b61138c565b005b34801561060457600080fd5b5061060d611565565b60405161061a91906135e8565b60405180910390f35b34801561062f57600080fd5b506106386115f7565b6040516106459190613bbc565b60405180910390f35b61066860048036038101906106639190613640565b61161d565b005b34801561067657600080fd5b50610691600480360381019061068c9190613c03565b6117f8565b005b34801561069f57600080fd5b506106ba60048036038101906106b59190613d73565b61180e565b005b3480156106c857600080fd5b506106e360048036038101906106de9190613640565b611870565b6040516106f1929190613f35565b60405180910390f35b34801561070657600080fd5b50610721600480360381019061071c9190613640565b61195b565b60405161072e91906135e8565b60405180910390f35b34801561074357600080fd5b5061075e60048036038101906107599190613fe1565b611a07565b005b34801561076c57600080fd5b50610787600480360381019061078291906140a1565b611bb6565b005b34801561079557600080fd5b506107b060048036038101906107ab9190614101565b611c5a565b6040516107bd9190613534565b60405180910390f35b3480156107d257600080fd5b506107ed60048036038101906107e89190613ac1565b611cee565b005b61080960048036038101906108049190614197565b611de5565b005b60007f2d3d182e000000000000000000000000000000000000000000000000000000007bffffffffffffffffffffffffffffffffffffffffffffffffffffffff1916827bffffffffffffffffffffffffffffffffffffffffffffffffffffffff1916148061087e575061087d82612025565b5b9050919050565b60606065805461089490614213565b80601f01602080910402602001604051908101604052809291908181526020018280546108c090614213565b801561090d5780601f106108e25761010080835404028352916020019161090d565b820191906000526020600020905b8154815290600101906020018083116108f057829003601f168201915b5050505050905090565b600061092282612107565b610961576040517f08c379a0000000000000000000000000000000000000000000000000000000008152600401610958906142b6565b60405180910390fd5b6069600083815260200190815260200160002060009054906101000a900473ffffffffffffffffffffffffffffffffffffffff169050919050565b60006109a78261115a565b90508073ffffffffffffffffffffffffffffffffffffffff168373ffffffffffffffffffffffffffffffffffffffff1603610a17576040517f08c379a0000000000000000000000000000000000000000000000000000000008152600401610a0e90614348565b60405180910390fd5b8073ffffffffffffffffffffffffffffffffffffffff16610a36612173565b73ffffffffffffffffffffffffffffffffffffffff161480610a655750610a6481610a5f612173565b611c5a565b5b610aa4576040517f08c379a0000000000000000000000000000000000000000000000000000000008152600401610a9b906143da565b60405180910390fd5b610aae838361217b565b505050565b610ac4610abe612173565b82612234565b610b03576040517f08c379a0000000000000000000000000000000000000000000000000000000008152600401610afa9061446c565b60405180910390fd5b610b0e838383612312565b505050565b60d26020528060005260406000206000915090508060000154905081565b60d56020528060005260406000206000915090508054610b5090614213565b80601f0160208091040260200160405190810160405280929190818152602001828054610b7c90614213565b8015610bc95780601f10610b9e57610100808354040283529160200191610bc9565b820191906000526020600020905b815481529060010190602001808311610bac57829003601f168201915b505050505081565b610bd9612173565b73ffffffffffffffffffffffffffffffffffffffff16610bf7611362565b73ffffffffffffffffffffffffffffffffffffffff1614610c4d576040517f08c379a0000000000000000000000000000000000000000000000000000000008152600401610c44906144d8565b60405180910390fd5b60d860009054906101000a900460ff161560d860006101000a81548160ff021916908315150217905550565b60d36020528060005260406000206000915090505481565b610c99612173565b73ffffffffffffffffffffffffffffffffffffffff16610cb7611362565b73ffffffffffffffffffffffffffffffffffffffff1614610d0d576040517f08c379a0000000000000000000000000000000000000000000000000000000008152600401610d04906144d8565b60405180910390fd5b60003373ffffffffffffffffffffffffffffffffffffffff1647604051610d3390614529565b60006040518083038185875af1925050503d8060008114610d70576040519150601f19603f3d011682016040523d82523d6000602084013e610d75565b606091505b5050905080610d8357600080fd5b50565b610da18383836040518060200160405280600081525061180e565b505050565b610dae612173565b73ffffffffffffffffffffffffffffffffffffffff16610dcc611362565b73ffffffffffffffffffffffffffffffffffffffff1614610e22576040517f08c379a0000000000000000000000000000000000000000000000000000000008152600401610e19906144d8565b60405180910390fd5b610e3d60d654828060600190610e38919061454d565b61256d565b610e4657600080fd5b8060c98181610e559190614c19565b90505050565b610e63612173565b73ffffffffffffffffffffffffffffffffffffffff16610e81611362565b73ffffffffffffffffffffffffffffffffffffffff1614610ed7576040517f08c379a0000000000000000000000000000000000000000000000000000000008152600401610ece906144d8565b60405180910390fd5b818160c96006019190610eeb929190613312565b505050565b60d65481565b60d860009054906101000a900460ff1681565b610f11613398565b60c960405180610100016040529081600082018054610f2f90614213565b80601f0160208091040260200160405190810160405280929190818152602001828054610f5b90614213565b8015610fa85780601f10610f7d57610100808354040283529160200191610fa8565b820191906000526020600020905b815481529060010190602001808311610f8b57829003601f168201915b50505050508152602001600182018054610fc190614213565b80601f0160208091040260200160405190810160405280929190818152602001828054610fed90614213565b801561103a5780601f1061100f5761010080835404028352916020019161103a565b820191906000526020600020905b81548152906001019060200180831161101d57829003601f168201915b50505050508152602001600282015481526020016003820180548060200260200160405190810160405280929190818152602001828054801561109c57602002820191906000526020600020905b815481526020019060010190808311611088575b5050505050815260200160048201548152602001600582015481526020016006820180546110c990614213565b80601f01602080910402602001604051908101604052809291908181526020018280546110f590614213565b80156111425780601f1061111757610100808354040283529160200191611142565b820191906000526020600020905b81548152906001019060200180831161112557829003601f168201915b50505050508152602001600782015481525050905090565b6000806067600084815260200190815260200160002060009054906101000a900473ffffffffffffffffffffffffffffffffffffffff169050600073ffffffffffffffffffffffffffffffffffffffff168173ffffffffffffffffffffffffffffffffffffffff1603611202576040517f08c379a00000000000000000000000000000000000000000000000000000000081526004016111f990614c99565b60405180910390fd5b80915050919050565b60008073ffffffffffffffffffffffffffffffffffffffff168273ffffffffffffffffffffffffffffffffffffffff160361127b576040517f08c379a000000000000000000000000000000000000000000000000000000000815260040161127290614d2b565b60405180910390fd5b606860008373ffffffffffffffffffffffffffffffffffffffff1673ffffffffffffffffffffffffffffffffffffffff168152602001908152602001600020549050919050565b6112ca612173565b73ffffffffffffffffffffffffffffffffffffffff166112e8611362565b73ffffffffffffffffffffffffffffffffffffffff161461133e576040517f08c379a0000000000000000000000000000000000000000000000000000000008152600401611335906144d8565b60405180910390fd5b61134860006125d4565b565b60d46020528060005260406000206000915090505481565b6000609760009054906101000a900473ffffffffffffffffffffffffffffffffffffffff16905090565b600060019054906101000a900460ff166113b45760008054906101000a900460ff16156113bd565b6113bc61269a565b5b6113fc576040517f08c379a00000000000000000000000000000000000000000000000000000000081526004016113f390614dbd565b60405180910390fd5b60008060019054906101000a900460ff16159050801561144c576001600060016101000a81548160ff02191690831515021790555060016000806101000a81548160ff0219169083151502179055505b61146582848060600190611460919061454d565b61256d565b61146e57600080fd5b61151c83806000019061148191906145b0565b8080601f016020809104026020016040519081016040528093929190818152602001838380828437600081840152601f19601f820116905080830192505050505050508480602001906114d491906145b0565b8080601f016020809104026020016040519081016040528093929190818152602001838380828437600081840152601f19601f820116905080830192505050505050506126ab565b611525846125d4565b8260c981816115349190614c19565b9050508160d681905550801561155f5760008060016101000a81548160ff0219169083151502179055505b50505050565b60606066805461157490614213565b80601f01602080910402602001604051908101604052809291908181526020018280546115a090614213565b80156115ed5780601f106115c2576101008083540402835291602001916115ed565b820191906000526020600020905b8154815290600101906020018083116115d057829003601f168201915b5050505050905090565b60d160009054906101000a900473ffffffffffffffffffffffffffffffffffffffff1681565b60d860009054906101000a900460ff161561163757600080fd5b61163f611362565b73ffffffffffffffffffffffffffffffffffffffff163373ffffffffffffffffffffffffffffffffffffffff16146116945760c960050154421161168257600080fd5b60c960040154341461169357600080fd5b5b600060d26000838152602001908152602001600020905060c96003016001836116bd9190614ddd565b815481106116ce576116cd614e11565b5b90600052602060002001546116e282612718565b106116ec57600080fd5b6116f581612726565b6116ff60d7612726565b600061170b60d7612718565b9050611717338261273c565b8260d360008381526020019081526020016000208190555061173882612718565b60d460008381526020019081526020016000208190555060d860019054906101000a900460ff16156117f35760d160009054906101000a900473ffffffffffffffffffffffffffffffffffffffff1673ffffffffffffffffffffffffffffffffffffffff166377262d2a34856040518363ffffffff1660e01b81526004016117c09190613797565b6000604051808303818588803b1580156117d957600080fd5b505af11580156117ed573d6000803e3d6000fd5b50505050505b505050565b61180a611803612173565b8383612909565b5050565b61181f611819612173565b83612234565b61185e576040517f08c379a00000000000000000000000000000000000000000000000000000000081526004016118559061446c565b60405180910390fd5b61186a84848484612a75565b50505050565b60608061187c83612107565b61188557600080fd5b60d860019054906101000a900460ff1661189e57600080fd5b60d160009054906101000a900473ffffffffffffffffffffffffffffffffffffffff1673ffffffffffffffffffffffffffffffffffffffff1663fc973d1f60d36000868152602001908152602001600020546040518263ffffffff1660e01b815260040161190c9190613797565b600060405180830381865afa158015611929573d6000803e3d6000fd5b505050506040513d6000823e3d601f19601f820116820180604052508101906119529190615007565b91509150915091565b606061196682612107565b61196f57600080fd5b600060d36000848152602001908152602001600020549050600061199284612ad1565b905060008151036119b6576040518060200160405280600081525092505050611a02565b806119c083612c28565b6119dc60d4600088815260200190815260200160002054612c28565b6040516020016119ee93929190615153565b604051602081830303815290604052925050505b919050565b611a0f612173565b73ffffffffffffffffffffffffffffffffffffffff16611a2d611362565b73ffffffffffffffffffffffffffffffffffffffff1614611a83576040517f08c379a0000000000000000000000000000000000000000000000000000000008152600401611a7a906144d8565b60405180910390fd5b611aad857f3469e32e00000000000000000000000000000000000000000000000000000000612d88565b611ab657600080fd5b611abf85612dad565b60d160006101000a81548173ffffffffffffffffffffffffffffffffffffffff021916908373ffffffffffffffffffffffffffffffffffffffff16021790555060d160009054906101000a900473ffffffffffffffffffffffffffffffffffffffff1673ffffffffffffffffffffffffffffffffffffffff1663da2f1a7333868686866040518663ffffffff1660e01b8152600401611b629594939291906155d6565b600060405180830381600087803b158015611b7c57600080fd5b505af1158015611b90573d6000803e3d6000fd5b50505050600160d860016101000a81548160ff0219169083151502179055505050505050565b611bbe612173565b73ffffffffffffffffffffffffffffffffffffffff16611bdc611362565b73ffffffffffffffffffffffffffffffffffffffff1614611c32576040517f08c379a0000000000000000000000000000000000000000000000000000000008152600401611c29906144d8565b60405180910390fd5b828260d560008481526020019081526020016000209190611c54929190613312565b50505050565b6000606a60008473ffffffffffffffffffffffffffffffffffffffff1673ffffffffffffffffffffffffffffffffffffffff16815260200190815260200160002060008373ffffffffffffffffffffffffffffffffffffffff1673ffffffffffffffffffffffffffffffffffffffff16815260200190815260200160002060009054906101000a900460ff16905092915050565b611cf6612173565b73ffffffffffffffffffffffffffffffffffffffff16611d14611362565b73ffffffffffffffffffffffffffffffffffffffff1614611d6a576040517f08c379a0000000000000000000000000000000000000000000000000000000008152600401611d61906144d8565b60405180910390fd5b600073ffffffffffffffffffffffffffffffffffffffff168173ffffffffffffffffffffffffffffffffffffffff1603611dd9576040517f08c379a0000000000000000000000000000000000000000000000000000000008152600401611dd0906156a4565b60405180910390fd5b611de2816125d4565b50565b60d860009054906101000a900460ff1615611dff57600080fd5b611e07611362565b73ffffffffffffffffffffffffffffffffffffffff163373ffffffffffffffffffffffffffffffffffffffff1614611e6a5760c9600501544211611e4a57600080fd5b60c96004015482829050611e5e919061496c565b3414611e6957600080fd5b5b60005b82829050811015611f67576000838383818110611e8d57611e8c614e11565b5b905060200201359050600060d26000838152602001908152602001600020905060c9600301600183611ebf9190614ddd565b81548110611ed057611ecf614e11565b5b9060005260206000200154611ee482612718565b10611eee57600080fd5b611ef781612726565b611f0160d7612726565b6000611f0d60d7612718565b9050611f19338261273c565b8260d3600083815260200190815260200160002081905550611f3a82612718565b60d46000838152602001908152602001600020819055505050508080611f5f906156c4565b915050611e6d565b5060d860019054906101000a900460ff161561200e5760d160009054906101000a900473ffffffffffffffffffffffffffffffffffffffff1673ffffffffffffffffffffffffffffffffffffffff1663296e96013484846040518463ffffffff1660e01b8152600401611fdb929190615768565b6000604051808303818588803b158015611ff457600080fd5b505af1158015612008573d6000803e3d6000fd5b50505050505b5050565b600080823b905060008111915050919050565b60007f80ac58cd000000000000000000000000000000000000000000000000000000007bffffffffffffffffffffffffffffffffffffffffffffffffffffffff1916827bffffffffffffffffffffffffffffffffffffffffffffffffffffffff191614806120f057507f5b5e139f000000000000000000000000000000000000000000000000000000007bffffffffffffffffffffffffffffffffffffffffffffffffffffffff1916827bffffffffffffffffffffffffffffffffffffffffffffffffffffffff1916145b8061210057506120ff82612e81565b5b9050919050565b60008073ffffffffffffffffffffffffffffffffffffffff166067600084815260200190815260200160002060009054906101000a900473ffffffffffffffffffffffffffffffffffffffff1673ffffffffffffffffffffffffffffffffffffffff1614159050919050565b600033905090565b816069600083815260200190815260200160002060006101000a81548173ffffffffffffffffffffffffffffffffffffffff021916908373ffffffffffffffffffffffffffffffffffffffff160217905550808273ffffffffffffffffffffffffffffffffffffffff166121ee8361115a565b73ffffffffffffffffffffffffffffffffffffffff167f8c5be1e5ebec7d5bd14f71427d1e84f3dd0314c0f7b2291e5b200ac8c7c3b92560405160405180910390a45050565b600061223f82612107565b61227e576040517f08c379a0000000000000000000000000000000000000000000000000000000008152600401612275906157fe565b60405180910390fd5b60006122898361115a565b90508073ffffffffffffffffffffffffffffffffffffffff168473ffffffffffffffffffffffffffffffffffffffff1614806122f857508373ffffffffffffffffffffffffffffffffffffffff166122e084610917565b73ffffffffffffffffffffffffffffffffffffffff16145b8061230957506123088185611c5a565b5b91505092915050565b8273ffffffffffffffffffffffffffffffffffffffff166123328261115a565b73ffffffffffffffffffffffffffffffffffffffff1614612388576040517f08c379a000000000000000000000000000000000000000000000000000000000815260040161237f90615890565b60405180910390fd5b600073ffffffffffffffffffffffffffffffffffffffff168273ffffffffffffffffffffffffffffffffffffffff16036123f7576040517f08c379a00000000000000000000000000000000000000000000000000000000081526004016123ee90615922565b60405180910390fd5b612402838383612eeb565b61240d60008261217b565b6001606860008573ffffffffffffffffffffffffffffffffffffffff1673ffffffffffffffffffffffffffffffffffffffff168152602001908152602001600020600082825461245d9190614ddd565b925050819055506001606860008473ffffffffffffffffffffffffffffffffffffffff1673ffffffffffffffffffffffffffffffffffffffff16815260200190815260200160002060008282546124b49190615942565b92505081905550816067600083815260200190815260200160002060006101000a81548173ffffffffffffffffffffffffffffffffffffffff021916908373ffffffffffffffffffffffffffffffffffffffff160217905550808273ffffffffffffffffffffffffffffffffffffffff168473ffffffffffffffffffffffffffffffffffffffff167fddf252ad1be2c89b69c2b068fc378daa952ba7f163c4a11628f55a4df523b3ef60405160405180910390a4505050565b60008060005b848490508110156125b85784848281811061259157612590614e11565b5b90506020020135826125a39190615942565b915080806125b0906156c4565b915050612573565b508484849050826125c99190614ddd565b109150509392505050565b6000609760009054906101000a900473ffffffffffffffffffffffffffffffffffffffff16905081609760006101000a81548173ffffffffffffffffffffffffffffffffffffffff021916908373ffffffffffffffffffffffffffffffffffffffff1602179055508173ffffffffffffffffffffffffffffffffffffffff168173ffffffffffffffffffffffffffffffffffffffff167f8be0079c531659141344cd1fd0a4f28419497f9722a3daafe3b4186f6b6457e060405160405180910390a35050565b60006126a530612012565b15905090565b600060019054906101000a900460ff166126fa576040517f08c379a00000000000000000000000000000000000000000000000000000000081526004016126f190615a0a565b60405180910390fd5b612702612ef0565b61270a612f41565b6127148282612f92565b5050565b600081600001549050919050565b6001816000016000828254019250508190555050565b600073ffffffffffffffffffffffffffffffffffffffff168273ffffffffffffffffffffffffffffffffffffffff16036127ab576040517f08c379a00000000000000000000000000000000000000000000000000000000081526004016127a290615a76565b60405180910390fd5b6127b481612107565b156127f4576040517f08c379a00000000000000000000000000000000000000000000000000000000081526004016127eb90615ae2565b60405180910390fd5b61280060008383612eeb565b6001606860008473ffffffffffffffffffffffffffffffffffffffff1673ffffffffffffffffffffffffffffffffffffffff16815260200190815260200160002060008282546128509190615942565b92505081905550816067600083815260200190815260200160002060006101000a81548173ffffffffffffffffffffffffffffffffffffffff021916908373ffffffffffffffffffffffffffffffffffffffff160217905550808273ffffffffffffffffffffffffffffffffffffffff16600073ffffffffffffffffffffffffffffffffffffffff167fddf252ad1be2c89b69c2b068fc378daa952ba7f163c4a11628f55a4df523b3ef60405160405180910390a45050565b8173ffffffffffffffffffffffffffffffffffffffff168373ffffffffffffffffffffffffffffffffffffffff1603612977576040517f08c379a000000000000000000000000000000000000000000000000000000000815260040161296e90615b4e565b60405180910390fd5b80606a60008573ffffffffffffffffffffffffffffffffffffffff1673ffffffffffffffffffffffffffffffffffffffff16815260200190815260200160002060008473ffffffffffffffffffffffffffffffffffffffff1673ffffffffffffffffffffffffffffffffffffffff16815260200190815260200160002060006101000a81548160ff0219169083151502179055508173ffffffffffffffffffffffffffffffffffffffff168373ffffffffffffffffffffffffffffffffffffffff167f17307eab39ab6107e8899845ad3d59bd9653f200f220920489ca2b5937696c3183604051612a689190613534565b60405180910390a3505050565b612a80848484612312565b612a8c84848484613013565b612acb576040517f08c379a0000000000000000000000000000000000000000000000000000000008152600401612ac290615be0565b60405180910390fd5b50505050565b6060600060d5600084815260200190815260200160002090506000818054612af890614213565b905003612b955760c96006018054612b0f90614213565b80601f0160208091040260200160405190810160405280929190818152602001828054612b3b90614213565b8015612b885780601f10612b5d57610100808354040283529160200191612b88565b820191906000526020600020905b815481529060010190602001808311612b6b57829003601f168201915b5050505050915050612c23565b808054612ba190614213565b80601f0160208091040260200160405190810160405280929190818152602001828054612bcd90614213565b8015612c1a5780601f10612bef57610100808354040283529160200191612c1a565b820191906000526020600020905b815481529060010190602001808311612bfd57829003601f168201915b50505050509150505b919050565b606060008203612c6f576040518060400160405280600181526020017f30000000000000000000000000000000000000000000000000000000000000008152509050612d83565b600082905060005b60008214612ca1578080612c8a906156c4565b915050600a82612c9a9190615c2f565b9150612c77565b60008167ffffffffffffffff811115612cbd57612cbc613c48565b5b6040519080825280601f01601f191660200182016040528015612cef5781602001600182028036833780820191505090505b5090505b60008514612d7c57600182612d089190614ddd565b9150600a85612d179190615c60565b6030612d239190615942565b60f81b818381518110612d3957612d38614e11565b5b60200101907effffffffffffffffffffffffffffffffffffffffffffffffffffffffffffff1916908160001a905350600a85612d759190615c2f565b9450612cf3565b8093505050505b919050565b6000612d938361319a565b8015612da55750612da483836131e7565b5b905092915050565b60006040517f3d602d80600a3d3981f3363d3d373d3d3d363d7300000000000000000000000081528260601b60148201527f5af43d82803e903d91602b57fd5bf3000000000000000000000000000000000060288201526037816000f0915050600073ffffffffffffffffffffffffffffffffffffffff168173ffffffffffffffffffffffffffffffffffffffff1603612e7c576040517f08c379a0000000000000000000000000000000000000000000000000000000008152600401612e7390615cdd565b60405180910390fd5b919050565b60007f01ffc9a7000000000000000000000000000000000000000000000000000000007bffffffffffffffffffffffffffffffffffffffffffffffffffffffff1916827bffffffffffffffffffffffffffffffffffffffffffffffffffffffff1916149050919050565b505050565b600060019054906101000a900460ff16612f3f576040517f08c379a0000000000000000000000000000000000000000000000000000000008152600401612f3690615a0a565b60405180910390fd5b565b600060019054906101000a900460ff16612f90576040517f08c379a0000000000000000000000000000000000000000000000000000000008152600401612f8790615a0a565b60405180910390fd5b565b600060019054906101000a900460ff16612fe1576040517f08c379a0000000000000000000000000000000000000000000000000000000008152600401612fd890615a0a565b60405180910390fd5b8160659080519060200190612ff79291906133dd565b50806066908051906020019061300e9291906133dd565b505050565b60006130348473ffffffffffffffffffffffffffffffffffffffff16612012565b1561318d578373ffffffffffffffffffffffffffffffffffffffff1663150b7a0261305d612173565b8786866040518563ffffffff1660e01b815260040161307f9493929190615d52565b6020604051808303816000875af19250505080156130bb57506040513d601f19601f820116820180604052508101906130b89190615db3565b60015b61313d573d80600081146130eb576040519150601f19603f3d011682016040523d82523d6000602084013e6130f0565b606091505b506000815103613135576040517f08c379a000000000000000000000000000000000000000000000000000000000815260040161312c90615be0565b60405180910390fd5b805181602001fd5b63150b7a0260e01b7bffffffffffffffffffffffffffffffffffffffffffffffffffffffff1916817bffffffffffffffffffffffffffffffffffffffffffffffffffffffff191614915050613192565b600190505b949350505050565b60006131c6827f01ffc9a7000000000000000000000000000000000000000000000000000000006131e7565b80156131e057506131de8263ffffffff60e01b6131e7565b155b9050919050565b6000806301ffc9a760e01b836040516024016132039190615def565b604051602081830303815290604052907bffffffffffffffffffffffffffffffffffffffffffffffffffffffff19166020820180517bffffffffffffffffffffffffffffffffffffffffffffffffffffffff838183161783525050505090506000808573ffffffffffffffffffffffffffffffffffffffff166175308460405161328d9190615e3b565b6000604051808303818686fa925050503d80600081146132c9576040519150601f19603f3d011682016040523d82523d6000602084013e6132ce565b606091505b50915091506020815110156132e9576000935050505061330c565b8180156133065750808060200190518101906133059190615e67565b5b93505050505b92915050565b82805461331e90614213565b90600052602060002090601f0160209004810192826133405760008555613387565b82601f1061335957803560ff1916838001178555613387565b82800160010185558215613387579182015b8281111561338657823582559160200191906001019061336b565b5b5090506133949190613463565b5090565b60405180610100016040528060608152602001606081526020016000815260200160608152602001600081526020016000815260200160608152602001600081525090565b8280546133e990614213565b90600052602060002090601f01602090048101928261340b5760008555613452565b82601f1061342457805160ff1916838001178555613452565b82800160010185558215613452579182015b82811115613451578251825591602001919060010190613436565b5b50905061345f9190613463565b5090565b5b8082111561347c576000816000905550600101613464565b5090565b6000604051905090565b600080fd5b600080fd5b60007fffffffff0000000000000000000000000000000000000000000000000000000082169050919050565b6134c981613494565b81146134d457600080fd5b50565b6000813590506134e6816134c0565b92915050565b6000602082840312156135025761350161348a565b5b6000613510848285016134d7565b91505092915050565b60008115159050919050565b61352e81613519565b82525050565b60006020820190506135496000830184613525565b92915050565b600081519050919050565b600082825260208201905092915050565b60005b8381101561358957808201518184015260208101905061356e565b83811115613598576000848401525b50505050565b6000601f19601f8301169050919050565b60006135ba8261354f565b6135c4818561355a565b93506135d481856020860161356b565b6135dd8161359e565b840191505092915050565b6000602082019050818103600083015261360281846135af565b905092915050565b6000819050919050565b61361d8161360a565b811461362857600080fd5b50565b60008135905061363a81613614565b92915050565b6000602082840312156136565761365561348a565b5b60006136648482850161362b565b91505092915050565b600073ffffffffffffffffffffffffffffffffffffffff82169050919050565b60006136988261366d565b9050919050565b6136a88161368d565b82525050565b60006020820190506136c3600083018461369f565b92915050565b6136d28161368d565b81146136dd57600080fd5b50565b6000813590506136ef816136c9565b92915050565b6000806040838503121561370c5761370b61348a565b5b600061371a858286016136e0565b925050602061372b8582860161362b565b9150509250929050565b60008060006060848603121561374e5761374d61348a565b5b600061375c868287016136e0565b935050602061376d868287016136e0565b925050604061377e8682870161362b565b9150509250925092565b6137918161360a565b82525050565b60006020820190506137ac6000830184613788565b92915050565b600080fd5b600061010082840312156137ce576137cd6137b2565b5b81905092915050565b6000602082840312156137ed576137ec61348a565b5b600082013567ffffffffffffffff81111561380b5761380a61348f565b5b613817848285016137b7565b91505092915050565b600080fd5b600080fd5b600080fd5b60008083601f84011261384557613844613820565b5b8235905067ffffffffffffffff81111561386257613861613825565b5b60208301915083600182028301111561387e5761387d61382a565b5b9250929050565b6000806020838503121561389c5761389b61348a565b5b600083013567ffffffffffffffff8111156138ba576138b961348f565b5b6138c68582860161382f565b92509250509250929050565b600082825260208201905092915050565b60006138ee8261354f565b6138f881856138d2565b935061390881856020860161356b565b6139118161359e565b840191505092915050565b6139258161360a565b82525050565b600081519050919050565b600082825260208201905092915050565b6000819050602082019050919050565b6000613963838361391c565b60208301905092915050565b6000602082019050919050565b60006139878261392b565b6139918185613936565b935061399c83613947565b8060005b838110156139cd5781516139b48882613957565b97506139bf8361396f565b9250506001810190506139a0565b5085935050505092915050565b60006101008301600083015184820360008601526139f882826138e3565b91505060208301518482036020860152613a1282826138e3565b9150506040830151613a27604086018261391c565b5060608301518482036060860152613a3f828261397c565b9150506080830151613a54608086018261391c565b5060a0830151613a6760a086018261391c565b5060c083015184820360c0860152613a7f82826138e3565b91505060e0830151613a9460e086018261391c565b508091505092915050565b60006020820190508181036000830152613ab981846139da565b905092915050565b600060208284031215613ad757613ad661348a565b5b6000613ae5848285016136e0565b91505092915050565b600080600060608486031215613b0757613b0661348a565b5b6000613b15868287016136e0565b935050602084013567ffffffffffffffff811115613b3657613b3561348f565b5b613b42868287016137b7565b9250506040613b538682870161362b565b9150509250925092565b6000819050919050565b6000613b82613b7d613b788461366d565b613b5d565b61366d565b9050919050565b6000613b9482613b67565b9050919050565b6000613ba682613b89565b9050919050565b613bb681613b9b565b82525050565b6000602082019050613bd16000830184613bad565b92915050565b613be081613519565b8114613beb57600080fd5b50565b600081359050613bfd81613bd7565b92915050565b60008060408385031215613c1a57613c1961348a565b5b6000613c28858286016136e0565b9250506020613c3985828601613bee565b9150509250929050565b600080fd5b7f4e487b7100000000000000000000000000000000000000000000000000000000600052604160045260246000fd5b613c808261359e565b810181811067ffffffffffffffff82111715613c9f57613c9e613c48565b5b80604052505050565b6000613cb2613480565b9050613cbe8282613c77565b919050565b600067ffffffffffffffff821115613cde57613cdd613c48565b5b613ce78261359e565b9050602081019050919050565b82818337600083830152505050565b6000613d16613d1184613cc3565b613ca8565b905082815260208101848484011115613d3257613d31613c43565b5b613d3d848285613cf4565b509392505050565b600082601f830112613d5a57613d59613820565b5b8135613d6a848260208601613d03565b91505092915050565b60008060008060808587031215613d8d57613d8c61348a565b5b6000613d9b878288016136e0565b9450506020613dac878288016136e0565b9350506040613dbd8782880161362b565b925050606085013567ffffffffffffffff811115613dde57613ddd61348f565b5b613dea87828801613d45565b91505092959194509250565b600081519050919050565b600082825260208201905092915050565b6000819050602082019050919050565b6000613e2d8261366d565b9050919050565b613e3d81613e22565b82525050565b6000613e4f8383613e34565b60208301905092915050565b6000602082019050919050565b6000613e7382613df6565b613e7d8185613e01565b9350613e8883613e12565b8060005b83811015613eb9578151613ea08882613e43565b9750613eab83613e5b565b925050600181019050613e8c565b5085935050505092915050565b600082825260208201905092915050565b6000613ee28261392b565b613eec8185613ec6565b9350613ef783613947565b8060005b83811015613f28578151613f0f8882613957565b9750613f1a8361396f565b925050600181019050613efb565b5085935050505092915050565b60006040820190508181036000830152613f4f8185613e68565b90508181036020830152613f638184613ed7565b90509392505050565b60008083601f840112613f8257613f81613820565b5b8235905067ffffffffffffffff811115613f9f57613f9e613825565b5b602083019150836020820283011115613fbb57613fba61382a565b5b9250929050565b600060408284031215613fd857613fd76137b2565b5b81905092915050565b600080600080600060808688031215613ffd57613ffc61348a565b5b600061400b888289016136e0565b955050602086013567ffffffffffffffff81111561402c5761402b61348f565b5b61403888828901613f6c565b9450945050604086013567ffffffffffffffff81111561405b5761405a61348f565b5b61406788828901613fc2565b925050606086013567ffffffffffffffff8111156140885761408761348f565b5b61409488828901613fc2565b9150509295509295909350565b6000806000604084860312156140ba576140b961348a565b5b600084013567ffffffffffffffff8111156140d8576140d761348f565b5b6140e48682870161382f565b935093505060206140f78682870161362b565b9150509250925092565b600080604083850312156141185761411761348a565b5b6000614126858286016136e0565b9250506020614137858286016136e0565b9150509250929050565b60008083601f84011261415757614156613820565b5b8235905067ffffffffffffffff81111561417457614173613825565b5b6020830191508360208202830111156141905761418f61382a565b5b9250929050565b600080602083850312156141ae576141ad61348a565b5b600083013567ffffffffffffffff8111156141cc576141cb61348f565b5b6141d885828601614141565b92509250509250929050565b7f4e487b7100000000000000000000000000000000000000000000000000000000600052602260045260246000fd5b6000600282049050600182168061422b57607f821691505b60208210810361423e5761423d6141e4565b5b50919050565b7f4552433732313a20617070726f76656420717565727920666f72206e6f6e657860008201527f697374656e7420746f6b656e0000000000000000000000000000000000000000602082015250565b60006142a0602c8361355a565b91506142ab82614244565b604082019050919050565b600060208201905081810360008301526142cf81614293565b9050919050565b7f4552433732313a20617070726f76616c20746f2063757272656e74206f776e6560008201527f7200000000000000000000000000000000000000000000000000000000000000602082015250565b600061433260218361355a565b915061433d826142d6565b604082019050919050565b6000602082019050818103600083015261436181614325565b9050919050565b7f4552433732313a20617070726f76652063616c6c6572206973206e6f74206f7760008201527f6e6572206e6f7220617070726f76656420666f7220616c6c0000000000000000602082015250565b60006143c460388361355a565b91506143cf82614368565b604082019050919050565b600060208201905081810360008301526143f3816143b7565b9050919050565b7f4552433732313a207472616e736665722063616c6c6572206973206e6f74206f60008201527f776e6572206e6f7220617070726f766564000000000000000000000000000000602082015250565b600061445660318361355a565b9150614461826143fa565b604082019050919050565b6000602082019050818103600083015261448581614449565b9050919050565b7f4f776e61626c653a2063616c6c6572206973206e6f7420746865206f776e6572600082015250565b60006144c260208361355a565b91506144cd8261448c565b602082019050919050565b600060208201905081810360008301526144f1816144b5565b9050919050565b600081905092915050565b50565b60006145136000836144f8565b915061451e82614503565b600082019050919050565b600061453482614506565b9150819050919050565b600080fd5b600080fd5b600080fd5b6000808335600160200384360303811261456a5761456961453e565b5b80840192508235915067ffffffffffffffff82111561458c5761458b614543565b5b6020830192506020820236038313156145a8576145a7614548565b5b509250929050565b600080833560016020038436030381126145cd576145cc61453e565b5b80840192508235915067ffffffffffffffff8211156145ef576145ee614543565b5b60208301925060018202360383131561460b5761460a614548565b5b509250929050565b600082905092915050565b60008190508160005260206000209050919050565b60006020601f8301049050919050565b600082821b905092915050565b6000600883026146807fffffffffffffffffffffffffffffffffffffffffffffffffffffffffffffffff82614643565b61468a8683614643565b95508019841693508086168417925050509392505050565b60006146bd6146b86146b38461360a565b613b5d565b61360a565b9050919050565b6000819050919050565b6146d7836146a2565b6146eb6146e3826146c4565b848454614650565b825550505050565b600090565b6147006146f3565b61470b8184846146ce565b505050565b5b8181101561472f576147246000826146f8565b600181019050614711565b5050565b601f821115614774576147458161461e565b61474e84614633565b8101602085101561475d578190505b61477161476985614633565b830182614710565b50505b505050565b600082821c905092915050565b600061479760001984600802614779565b1980831691505092915050565b60006147b08383614786565b9150826002028217905092915050565b6147ca8383614613565b67ffffffffffffffff8111156147e3576147e2613c48565b5b6147ed8254614213565b6147f8828285614733565b6000601f8311600181146148275760008415614815578287013590505b61481f85826147a4565b865550614887565b601f1984166148358661461e565b60005b8281101561485d57848901358255600182019150602085019450602081019050614838565b8683101561487a5784890135614876601f891682614786565b8355505b6001600288020188555050505b50505050505050565b61489b8383836147c0565b505050565b600081356148ad81613614565b80915050919050565b60008160001b9050919050565b60007fffffffffffffffffffffffffffffffffffffffffffffffffffffffffffffffff6148ef846148b6565b9350801983169250808416831791505092915050565b61490e826146a2565b61492161491a826146c4565b83546148c3565b8255505050565b6000819050919050565b600081549050919050565b7f4e487b7100000000000000000000000000000000000000000000000000000000600052601160045260246000fd5b60006149778261360a565b91506149828361360a565b9250817fffffffffffffffffffffffffffffffffffffffffffffffffffffffffffffffff04831182151516156149bb576149ba61493d565b5b828202905092915050565b60008190506001806001038301049050919050565b60008190508160005260206000209050919050565b5b81811015614a0f57614a046000826146f8565b6001810190506149f1565b5050565b81831015614a4c57614a24826149c6565b614a2d846149c6565b614a36836149db565b818101838201614a4681836149f0565b50505050505b505050565b68010000000000000000821115614a6b57614a6a613c48565b5b614a7481614932565b828255614a82838284614a13565b505050565b600082905092915050565b614a9c8383614a87565b614aa68183614a51565b614aaf83614928565b614ab8836149db565b6000805b84811015614af35783614ace816148a0565b9050614adb8184866146ce565b60208501945060018401935050600181019050614abc565b5050505050505050565b614b08838383614a92565b505050565b6000810160008301614b1f81856145b0565b614b2a818386614890565b505050506001810160208301614b4081856145b0565b614b4b818386614890565b50505050600281016040830180614b61816148a0565b9050614b6d8184614905565b5050506003810160608301614b82818561454d565b614b8d818386614afd565b50505050600481016080830180614ba3816148a0565b9050614baf8184614905565b5050506005810160a0830180614bc4816148a0565b9050614bd08184614905565b5050506006810160c08301614be581856145b0565b614bf0818386614890565b505050506007810160e0830180614c06816148a0565b9050614c128184614905565b5050505050565b614c238282614b0d565b5050565b7f4552433732313a206f776e657220717565727920666f72206e6f6e657869737460008201527f656e7420746f6b656e0000000000000000000000000000000000000000000000602082015250565b6000614c8360298361355a565b9150614c8e82614c27565b604082019050919050565b60006020820190508181036000830152614cb281614c76565b9050919050565b7f4552433732313a2062616c616e636520717565727920666f7220746865207a6560008201527f726f206164647265737300000000000000000000000000000000000000000000602082015250565b6000614d15602a8361355a565b9150614d2082614cb9565b604082019050919050565b60006020820190508181036000830152614d4481614d08565b9050919050565b7f496e697469616c697a61626c653a20636f6e747261637420697320616c72656160008201527f647920696e697469616c697a6564000000000000000000000000000000000000602082015250565b6000614da7602e8361355a565b9150614db282614d4b565b604082019050919050565b60006020820190508181036000830152614dd681614d9a565b9050919050565b6000614de88261360a565b9150614df38361360a565b925082821015614e0657614e0561493d565b5b828203905092915050565b7f4e487b7100000000000000000000000000000000000000000000000000000000600052603260045260246000fd5b600067ffffffffffffffff821115614e5b57614e5a613c48565b5b602082029050602081019050919050565b614e7581613e22565b8114614e8057600080fd5b50565b600081519050614e9281614e6c565b92915050565b6000614eab614ea684614e40565b613ca8565b90508083825260208201905060208402830185811115614ece57614ecd61382a565b5b835b81811015614ef75780614ee38882614e83565b845260208401935050602081019050614ed0565b5050509392505050565b600082601f830112614f1657614f15613820565b5b8151614f26848260208601614e98565b91505092915050565b600067ffffffffffffffff821115614f4a57614f49613c48565b5b602082029050602081019050919050565b600081519050614f6a81613614565b92915050565b6000614f83614f7e84614f2f565b613ca8565b90508083825260208201905060208402830185811115614fa657614fa561382a565b5b835b81811015614fcf5780614fbb8882614f5b565b845260208401935050602081019050614fa8565b5050509392505050565b600082601f830112614fee57614fed613820565b5b8151614ffe848260208601614f70565b91505092915050565b6000806040838503121561501e5761501d61348a565b5b600083015167ffffffffffffffff81111561503c5761503b61348f565b5b61504885828601614f01565b925050602083015167ffffffffffffffff8111156150695761506861348f565b5b61507585828601614fd9565b9150509250929050565b600081905092915050565b60006150958261354f565b61509f818561507f565b93506150af81856020860161356b565b80840191505092915050565b7f2d00000000000000000000000000000000000000000000000000000000000000600082015250565b60006150f160018361507f565b91506150fc826150bb565b600182019050919050565b7f2e6a736f6e000000000000000000000000000000000000000000000000000000600082015250565b600061513d60058361507f565b915061514882615107565b600582019050919050565b600061515f828661508a565b915061516b828561508a565b9150615176826150e4565b9150615182828461508a565b915061518d82615130565b9150819050949350505050565b600082825260208201905092915050565b6000819050919050565b60006151c4602084018461362b565b905092915050565b60006151db6020840184613bee565b905092915050565b6151ec81613519565b82525050565b600080fd5b600082356001604003833603038112615213576152126151f2565b5b82810191505092915050565b600080fd5b600080fd5b60008083356001602003843603038112615246576152456151f2565b5b83810192508235915060208301925067ffffffffffffffff82111561526e5761526d61521f565b5b60208202360384131561528457615283615224565b5b509250929050565b600082825260208201905092915050565b6000819050919050565b6000813590506152b681614e6c565b92915050565b60006152cb60208401846152a7565b905092915050565b6000602082019050919050565b60006152ec838561528c565b93506152f78261529d565b8060005b858110156153305761530d82846152bc565b6153178882613e43565b9750615322836152d3565b9250506001810190506152fb565b5085925050509392505050565b6000808335600160200384360303811261535a576153596151f2565b5b83810192508235915060208301925067ffffffffffffffff8211156153825761538161521f565b5b60208202360384131561539857615397615224565b5b509250929050565b600080fd5b60006153b18385613936565b93507f07ffffffffffffffffffffffffffffffffffffffffffffffffffffffffffffff8311156153e4576153e36153a0565b5b6020830292506153f5838584613cf4565b82840190509392505050565b6000604083016154146000840184615229565b85830360008701526154278382846152e0565b92505050615438602084018461533d565b858303602087015261544b8382846153a5565b925050508091505092915050565b60006060830161546c60008401846151b5565b615479600086018261391c565b5061548760208401846151cc565b61549460208601826151e3565b506154a260408401846151f7565b84820360408601526154b48282615401565b9150508091505092915050565b60006154cd8383615459565b905092915050565b6000823560016060038336030381126154f1576154f06151f2565b5b82810191505092915050565b6000602082019050919050565b6000615516838561519a565b935083602084028501615528846151ab565b8060005b8781101561556c57848403895261554382846154d5565b61554d85826154c1565b9450615558836154fd565b925060208a0199505060018101905061552c565b50829750879450505050509392505050565b6000604083016155916000840184615229565b85830360008701526155a48382846152e0565b925050506155b5602084018461533d565b85830360208701526155c88382846153a5565b925050508091505092915050565b60006080820190506155eb600083018861369f565b81810360208301526155fe81868861550a565b90508181036040830152615612818561557e565b90508181036060830152615626818461557e565b90509695505050505050565b7f4f776e61626c653a206e6577206f776e657220697320746865207a65726f206160008201527f6464726573730000000000000000000000000000000000000000000000000000602082015250565b600061568e60268361355a565b915061569982615632565b604082019050919050565b600060208201905081810360008301526156bd81615681565b9050919050565b60006156cf8261360a565b91507fffffffffffffffffffffffffffffffffffffffffffffffffffffffffffffffff82036157015761570061493d565b5b600182019050919050565b60006157188385613ec6565b93507f07ffffffffffffffffffffffffffffffffffffffffffffffffffffffffffffff83111561574b5761574a6153a0565b5b60208302925061575c838584613cf4565b82840190509392505050565b6000602082019050818103600083015261578381848661570c565b90509392505050565b7f4552433732313a206f70657261746f7220717565727920666f72206e6f6e657860008201527f697374656e7420746f6b656e0000000000000000000000000000000000000000602082015250565b60006157e8602c8361355a565b91506157f38261578c565b604082019050919050565b60006020820190508181036000830152615817816157db565b9050919050565b7f4552433732313a207472616e73666572206f6620746f6b656e2074686174206960008201527f73206e6f74206f776e0000000000000000000000000000000000000000000000602082015250565b600061587a60298361355a565b91506158858261581e565b604082019050919050565b600060208201905081810360008301526158a98161586d565b9050919050565b7f4552433732313a207472616e7366657220746f20746865207a65726f2061646460008201527f7265737300000000000000000000000000000000000000000000000000000000602082015250565b600061590c60248361355a565b9150615917826158b0565b604082019050919050565b6000602082019050818103600083015261593b816158ff565b9050919050565b600061594d8261360a565b91506159588361360a565b9250827fffffffffffffffffffffffffffffffffffffffffffffffffffffffffffffffff0382111561598d5761598c61493d565b5b828201905092915050565b7f496e697469616c697a61626c653a20636f6e7472616374206973206e6f74206960008201527f6e697469616c697a696e67000000000000000000000000000000000000000000602082015250565b60006159f4602b8361355a565b91506159ff82615998565b604082019050919050565b60006020820190508181036000830152615a23816159e7565b9050919050565b7f4552433732313a206d696e7420746f20746865207a65726f2061646472657373600082015250565b6000615a6060208361355a565b9150615a6b82615a2a565b602082019050919050565b60006020820190508181036000830152615a8f81615a53565b9050919050565b7f4552433732313a20746f6b656e20616c7265616479206d696e74656400000000600082015250565b6000615acc601c8361355a565b9150615ad782615a96565b602082019050919050565b60006020820190508181036000830152615afb81615abf565b9050919050565b7f4552433732313a20617070726f766520746f2063616c6c657200000000000000600082015250565b6000615b3860198361355a565b9150615b4382615b02565b602082019050919050565b60006020820190508181036000830152615b6781615b2b565b9050919050565b7f4552433732313a207472616e7366657220746f206e6f6e20455243373231526560008201527f63656976657220696d706c656d656e7465720000000000000000000000000000602082015250565b6000615bca60328361355a565b9150615bd582615b6e565b604082019050919050565b60006020820190508181036000830152615bf981615bbd565b9050919050565b7f4e487b7100000000000000000000000000000000000000000000000000000000600052601260045260246000fd5b6000615c3a8261360a565b9150615c458361360a565b925082615c5557615c54615c00565b5b828204905092915050565b6000615c6b8261360a565b9150615c768361360a565b925082615c8657615c85615c00565b5b828206905092915050565b7f455243313136373a20637265617465206661696c656400000000000000000000600082015250565b6000615cc760168361355a565b9150615cd282615c91565b602082019050919050565b60006020820190508181036000830152615cf681615cba565b9050919050565b600081519050919050565b600082825260208201905092915050565b6000615d2482615cfd565b615d2e8185615d08565b9350615d3e81856020860161356b565b615d478161359e565b840191505092915050565b6000608082019050615d67600083018761369f565b615d74602083018661369f565b615d816040830185613788565b8181036060830152615d938184615d19565b905095945050505050565b600081519050615dad816134c0565b92915050565b600060208284031215615dc957615dc861348a565b5b6000615dd784828501615d9e565b91505092915050565b615de981613494565b82525050565b6000602082019050615e046000830184615de0565b92915050565b6000615e1582615cfd565b615e1f81856144f8565b9350615e2f81856020860161356b565b80840191505092915050565b6000615e478284615e0a565b915081905092915050565b600081519050615e6181613bd7565b92915050565b600060208284031215615e7d57615e7c61348a565b5b6000615e8b84828501615e52565b9150509291505056fea26469706673582212209cadb4ab078524c12e05cf7d3dea91ffa176a89c09860d7033a1a0e6904efc7464736f6c634300080d0033",
  "immutableReferences": {},
  "source": "// SPDX-License-Identifier: MIT\npragma solidity ^0.8.0;\nimport \"@openzeppelin/contracts-upgradeable/token/ERC721/ERC721Upgradeable.sol\";\nimport \"@openzeppelin/contracts-upgradeable/access/OwnableUpgradeable.sol\";\nimport \"@openzeppelin/contracts/utils/introspection/ERC165Checker.sol\";\nimport \"@openzeppelin/contracts/utils/introspection/ERC165.sol\";\nimport \"@openzeppelin/contracts/utils/Counters.sol\";\nimport \"@openzeppelin/contracts/utils/Strings.sol\";\nimport \"@openzeppelin/contracts/proxy/Clones.sol\";\nimport \"@manifoldxyz/royalty-registry-solidity/contracts/specs/IManifold.sol\";\nimport \"./MintSplitSharedLib.sol\";\nimport \"./RevenueSplitter.sol\";\nimport \"./IMintSplitERC721.sol\";\n\n/// @author mintsplit.io\n\n/// @title MintSplit ERC721 Smart Contract\ncontract MintSplitERC721 is ERC165, ERC721Upgradeable, OwnableUpgradeable, IManifold, IMintSplitERC721 {\n    using Counters for Counters.Counter;\n    using Strings for uint;\n\n    MintSplitSharedLib.ProjectParams private projectParams;\n    RevenueSplitter public revenueSplitter;\n    mapping (uint => Counters.Counter) public supplies; // content id => supply count\n    mapping (uint => uint) public tokenContent; // token id => content id\n    mapping (uint => uint) public tokenEdition; // token id => edition #\n    mapping (uint => string) public contentUriOverrides;\n    uint public tokenLimit;\n    Counters.Counter private tokens;\n    bool public paused;\n    bool private hasSplitter;\n\n    /**\n    @dev Automatically mark the implementation\n    contract as initialized when it is deployed\n    */\n    constructor() initializer {}\n\n    /**\n    Initialize a new project\n    @dev Initialize a new ERC721 clone\n    @param owner the address that initialized the ERC721 clone\n    @param params the project settings configured by the user\n    @param maxLimit the max token count for this contract\n    */\n    function initialize(\n        address owner,\n        MintSplitSharedLib.ProjectParams calldata params,\n        uint maxLimit\n    ) initializer public {\n        require(_checkSum(maxLimit, params.editions));\n        __ERC721_init(params.projectName, params.symbol);\n        _transferOwnership(owner);\n        projectParams = params;\n        tokenLimit = maxLimit;\n    }\n\n    /**\n    Get the base URI for a specific content id\n    @param contentId the content for which to get the URI\n    */\n    function _baseURI(uint contentId) internal view virtual returns (string memory) {\n        string storage overrideURI = contentUriOverrides[contentId];\n        if (bytes(overrideURI).length == 0) return projectParams.baseURI;\n        return overrideURI;\n    }\n\n    /**\n    Check that the sum of an array of numbers is less than the provided limit\n    @param limit the limit to check the sum against\n    @param numbers the array of numbers to sum\n    */\n    function _checkSum(uint limit, uint[] calldata numbers) internal pure returns (bool) {\n        uint sum;\n        for (uint i = 0; i < numbers.length; i++) {\n            sum += numbers[i];\n        }\n        return (sum - numbers.length) < limit;\n    }\n\n    /**\n    @dev See {IERC165-supportsInterface}.\n    */\n    function supportsInterface(bytes4 interfaceId) public view virtual override(ERC165, IERC165, ERC721Upgradeable) returns (bool) {\n        return interfaceId == type(IMintSplitERC721).interfaceId || super.supportsInterface(interfaceId);\n    }\n\n    /**\n    @dev See {IMintSplitERC721-mint}\n    */\n    function mint(uint cid) external payable {\n        require(!paused);\n        if (msg.sender != owner()) {\n            require(block.timestamp > projectParams.releaseTime);\n            require(msg.value == projectParams.mintPrice);\n        }\n        Counters.Counter storage supply = supplies[cid];\n        require(supply.current() < projectParams.editions[cid-1]);\n        supply.increment();\n        tokens.increment();\n        uint tid = tokens.current();\n        _mint(msg.sender, tid);\n        tokenContent[tid] = cid;\n        tokenEdition[tid] = supply.current();\n        if (hasSplitter) {\n            revenueSplitter.receiveMint{value: msg.value}(cid);\n        }\n    }\n\n    /**\n    @dev See {IMintSplitERC721-mintBatch}\n    */\n    function mintBatch(uint[] calldata contentIds) external payable {\n        require(!paused);\n        if (msg.sender != owner()) {\n            require(block.timestamp > projectParams.releaseTime);\n            require(msg.value == (contentIds.length * projectParams.mintPrice));\n        }\n        for (uint i = 0; i < contentIds.length; i++) {\n            uint cid = contentIds[i];\n            Counters.Counter storage supply = supplies[cid];\n            require(supply.current() < projectParams.editions[cid-1]);\n            supply.increment();\n            tokens.increment();\n            uint tid = tokens.current();\n            _mint(msg.sender, tid);\n            tokenContent[tid] = cid;\n            tokenEdition[tid] = supply.current();\n        }\n        if (hasSplitter) {\n            revenueSplitter.receiveMintBatch{value: msg.value}(contentIds);\n        }\n    }\n\n    /**\n    @dev Get royalites of a token.\n    @return recipients_ addresses of the split recipients\n    @return bps basis points of split recipients\n    */\n    function getRoyalties(uint tokenId) external view returns(address payable[] memory recipients_, uint256[] memory bps) {\n        require(_exists(tokenId));\n        require(hasSplitter);\n        return revenueSplitter.getRoyaltySplits(tokenContent[tokenId]);\n    }\n\n    /**\n    Get the URI for the token\n    @param tokenId the token id for which to get the URI\n    */\n    function tokenURI(uint tokenId) public view virtual override returns (string memory) {\n        require(_exists(tokenId));\n        uint contentId = tokenContent[tokenId];\n        string memory baseUri = _baseURI(tokenId);\n        if (bytes(baseUri).length == 0) return \"\";\n        return string(abi.encodePacked(baseUri, contentId.toString(), \"-\", tokenEdition[tokenId].toString(), \".json\"));\n    }\n\n    /**\n    @dev See {IMintSplitERC721-getParams}\n    */\n    function getParams() external view returns (MintSplitSharedLib.ProjectParams memory params) {\n        return projectParams;\n    }\n\n    /**\n    @dev See {IMintSplitERC721-addRevenueSplitter}\n    */\n    function addRevenueSplitter(\n        address implementation,\n        MintSplitSharedLib.PaymentSplitConfig[] calldata configs,\n        MintSplitSharedLib.PaymentSplit calldata defaultMint,\n        MintSplitSharedLib.PaymentSplit calldata defaultRoyalty\n    ) external onlyOwner {\n        require(ERC165Checker.supportsInterface(implementation, type(IRevenueSplitter).interfaceId));\n        revenueSplitter = RevenueSplitter(Clones.clone(implementation));\n        revenueSplitter.initialize(msg.sender, configs, defaultMint, defaultRoyalty);\n        hasSplitter = true;\n    }\n\n    /// Toggle paused state\n    function togglePaused() external onlyOwner {\n        paused = !paused;\n    }\n\n    /**\n    @dev See {IMintSplitERC721-setBaseURI}\n    */\n    function setBaseURI(string calldata uri) external onlyOwner {\n        projectParams.baseURI = uri;\n    }\n\n    /**\n    @dev See {IMintSplitERC721-setContentURI}\n    */\n    function setContentURI(string calldata uri, uint contentId) external onlyOwner {\n        contentUriOverrides[contentId] = uri;\n    }\n\n    /**\n    @dev See {IMintSplitERC721-setParams}\n    */\n    function setParams(MintSplitSharedLib.ProjectParams calldata newParams) external onlyOwner {\n        require(_checkSum(tokenLimit, newParams.editions));\n        projectParams = newParams;\n    }\n\n    /// Withdraw contract funds\n    function withdraw() external onlyOwner {\n        (bool success, ) = payable(msg.sender).call{\n            value: address(this).balance\n        }(\"\");\n        require(success);\n    }\n}",
  "sourcePath": "/Users/justinfsl/Dev/misc/mintsplit/solidity/contracts/MintSplitERC721.sol",
  "compiler": {
    "name": "solc",
    "version": "0.8.13+commit.abaa5c0e.Emscripten.clang"
  },
  "schemaVersion": "3.3.4",
  "updatedAt": "2022-03-29T16:58:01.967Z",
  "networkType": "ethereum",
  "devdoc": {
    "kind": "dev",
    "methods": {
      "addRevenueSplitter(address,(uint256,bool,(address[],uint256[]))[],(address[],uint256[]),(address[],uint256[]))": {
        "details": "See {IMintSplitERC721-addRevenueSplitter}"
      },
      "approve(address,uint256)": {
        "details": "See {IERC721-approve}."
      },
      "balanceOf(address)": {
        "details": "See {IERC721-balanceOf}."
      },
      "constructor": {
        "details": "Automatically mark the implementation contract as initialized when it is deployed"
      },
      "getApproved(uint256)": {
        "details": "See {IERC721-getApproved}."
      },
      "getParams()": {
        "details": "See {IMintSplitERC721-getParams}"
      },
      "getRoyalties(uint256)": {
        "details": "Get royalites of a token.",
        "returns": {
          "bps": "basis points of split recipients",
          "recipients_": "addresses of the split recipients"
        }
      },
      "initialize(address,(string,string,uint256,uint256[],uint256,uint256,string,uint256),uint256)": {
        "details": "Initialize a new ERC721 clone",
        "params": {
          "maxLimit": "the max token count for this contract",
          "owner": "the address that initialized the ERC721 clone",
          "params": "the project settings configured by the user"
        }
      },
      "isApprovedForAll(address,address)": {
        "details": "See {IERC721-isApprovedForAll}."
      },
      "mint(uint256)": {
        "details": "See {IMintSplitERC721-mint}"
      },
      "mintBatch(uint256[])": {
        "details": "See {IMintSplitERC721-mintBatch}"
      },
      "name()": {
        "details": "See {IERC721Metadata-name}."
      },
      "owner()": {
        "details": "Returns the address of the current owner."
      },
      "ownerOf(uint256)": {
        "details": "See {IERC721-ownerOf}."
      },
      "renounceOwnership()": {
        "details": "Leaves the contract without owner. It will not be possible to call `onlyOwner` functions anymore. Can only be called by the current owner. NOTE: Renouncing ownership will leave the contract without an owner, thereby removing any functionality that is only available to the owner."
      },
      "safeTransferFrom(address,address,uint256)": {
        "details": "See {IERC721-safeTransferFrom}."
      },
      "safeTransferFrom(address,address,uint256,bytes)": {
        "details": "See {IERC721-safeTransferFrom}."
      },
      "setApprovalForAll(address,bool)": {
        "details": "See {IERC721-setApprovalForAll}."
      },
      "setBaseURI(string)": {
        "details": "See {IMintSplitERC721-setBaseURI}"
      },
      "setContentURI(string,uint256)": {
        "details": "See {IMintSplitERC721-setContentURI}"
      },
      "setParams((string,string,uint256,uint256[],uint256,uint256,string,uint256))": {
        "details": "See {IMintSplitERC721-setParams}"
      },
      "supportsInterface(bytes4)": {
        "details": "See {IERC165-supportsInterface}."
      },
      "symbol()": {
        "details": "See {IERC721Metadata-symbol}."
      },
      "tokenURI(uint256)": {
        "params": {
          "tokenId": "the token id for which to get the URI"
        }
      },
      "transferFrom(address,address,uint256)": {
        "details": "See {IERC721-transferFrom}."
      },
      "transferOwnership(address)": {
        "details": "Transfers ownership of the contract to a new account (`newOwner`). Can only be called by the current owner."
      }
    },
    "title": "MintSplit ERC721 Smart Contract",
    "version": 1
  },
  "userdoc": {
    "kind": "user",
    "methods": {
      "initialize(address,(string,string,uint256,uint256[],uint256,uint256,string,uint256),uint256)": {
        "notice": "Initialize a new project"
      },
      "togglePaused()": {
        "notice": "Toggle paused state"
      },
      "tokenURI(uint256)": {
        "notice": "Get the URI for the token"
      },
      "withdraw()": {
        "notice": "Withdraw contract funds"
      }
    },
    "version": 1
  }
}