{
  "contractName": "MintSplitFactory",
  "abi": [
    {
      "inputs": [
        {
          "internalType": "address",
          "name": "_ERC721Implementation",
          "type": "address"
        },
        {
          "internalType": "address",
          "name": "_revenueSplitterImplementation",
          "type": "address"
        },
        {
          "components": [
            {
              "internalType": "uint256",
              "name": "fee",
              "type": "uint256"
            },
            {
              "internalType": "uint256",
              "name": "limit",
              "type": "uint256"
            }
          ],
          "internalType": "struct MintSplitSharedLib.Package",
          "name": "_package",
          "type": "tuple"
        }
      ],
      "stateMutability": "nonpayable",
      "type": "constructor"
    },
    {
      "anonymous": false,
      "inputs": [
        {
          "indexed": true,
          "internalType": "address",
          "name": "previousOwner",
          "type": "address"
        },
        {
          "indexed": true,
          "internalType": "address",
          "name": "newOwner",
          "type": "address"
        }
      ],
      "name": "OwnershipTransferred",
      "type": "event"
    },
    {
      "anonymous": false,
      "inputs": [
        {
          "indexed": true,
          "internalType": "address",
          "name": "project",
          "type": "address"
        },
        {
          "indexed": true,
          "internalType": "address",
          "name": "owner",
          "type": "address"
        }
      ],
      "name": "ProjectCreated",
      "type": "event"
    },
    {
      "anonymous": false,
      "inputs": [
        {
          "indexed": true,
          "internalType": "address",
          "name": "project",
          "type": "address"
        },
        {
          "indexed": true,
          "internalType": "address",
          "name": "owner",
          "type": "address"
        }
      ],
      "name": "ProjectCreatedFree",
      "type": "event"
    },
    {
      "inputs": [],
      "name": "ERC721Implementation",
      "outputs": [
        {
          "internalType": "address",
          "name": "",
          "type": "address"
        }
      ],
      "stateMutability": "view",
      "type": "function",
      "constant": true
    },
    {
      "inputs": [],
      "name": "owner",
      "outputs": [
        {
          "internalType": "address",
          "name": "",
          "type": "address"
        }
      ],
      "stateMutability": "view",
      "type": "function",
      "constant": true
    },
    {
      "inputs": [
        {
          "internalType": "uint256",
          "name": "",
          "type": "uint256"
        }
      ],
      "name": "packages",
      "outputs": [
        {
          "internalType": "uint256",
          "name": "fee",
          "type": "uint256"
        },
        {
          "internalType": "uint256",
          "name": "limit",
          "type": "uint256"
        }
      ],
      "stateMutability": "view",
      "type": "function",
      "constant": true
    },
    {
      "inputs": [],
      "name": "paused",
      "outputs": [
        {
          "internalType": "bool",
          "name": "",
          "type": "bool"
        }
      ],
      "stateMutability": "view",
      "type": "function",
      "constant": true
    },
    {
      "inputs": [],
      "name": "renounceOwnership",
      "outputs": [],
      "stateMutability": "nonpayable",
      "type": "function"
    },
    {
      "inputs": [],
      "name": "revenueSplitterImplementation",
      "outputs": [
        {
          "internalType": "address",
          "name": "",
          "type": "address"
        }
      ],
      "stateMutability": "view",
      "type": "function",
      "constant": true
    },
    {
      "inputs": [
        {
          "internalType": "address",
          "name": "newOwner",
          "type": "address"
        }
      ],
      "name": "transferOwnership",
      "outputs": [],
      "stateMutability": "nonpayable",
      "type": "function"
    },
    {
      "inputs": [
        {
          "internalType": "address",
          "name": "",
          "type": "address"
        }
      ],
      "name": "waiveFee",
      "outputs": [
        {
          "internalType": "bool",
          "name": "",
          "type": "bool"
        }
      ],
      "stateMutability": "view",
      "type": "function",
      "constant": true
    },
    {
      "inputs": [
        {
          "components": [
            {
              "internalType": "string",
              "name": "projectName",
              "type": "string"
            },
            {
              "internalType": "string",
              "name": "symbol",
              "type": "string"
            },
            {
              "internalType": "uint256",
              "name": "contentCount",
              "type": "uint256"
            },
            {
              "internalType": "uint256[]",
              "name": "editions",
              "type": "uint256[]"
            },
            {
              "internalType": "uint256",
              "name": "mintPrice",
              "type": "uint256"
            },
            {
              "internalType": "uint256",
              "name": "releaseTime",
              "type": "uint256"
            },
            {
              "internalType": "string",
              "name": "baseURI",
              "type": "string"
            },
            {
              "internalType": "uint256",
              "name": "package",
              "type": "uint256"
            }
          ],
          "internalType": "struct MintSplitSharedLib.ProjectParams",
          "name": "params",
          "type": "tuple"
        }
      ],
      "name": "createProject",
      "outputs": [],
      "stateMutability": "payable",
      "type": "function",
      "payable": true
    },
    {
      "inputs": [
        {
          "components": [
            {
              "internalType": "string",
              "name": "projectName",
              "type": "string"
            },
            {
              "internalType": "string",
              "name": "symbol",
              "type": "string"
            },
            {
              "internalType": "uint256",
              "name": "contentCount",
              "type": "uint256"
            },
            {
              "internalType": "uint256[]",
              "name": "editions",
              "type": "uint256[]"
            },
            {
              "internalType": "uint256",
              "name": "mintPrice",
              "type": "uint256"
            },
            {
              "internalType": "uint256",
              "name": "releaseTime",
              "type": "uint256"
            },
            {
              "internalType": "string",
              "name": "baseURI",
              "type": "string"
            },
            {
              "internalType": "uint256",
              "name": "package",
              "type": "uint256"
            }
          ],
          "internalType": "struct MintSplitSharedLib.ProjectParams",
          "name": "params",
          "type": "tuple"
        }
      ],
      "name": "createProjectFree",
      "outputs": [],
      "stateMutability": "payable",
      "type": "function",
      "payable": true
    },
    {
      "inputs": [],
      "name": "getPackages",
      "outputs": [
        {
          "components": [
            {
              "internalType": "uint256",
              "name": "fee",
              "type": "uint256"
            },
            {
              "internalType": "uint256",
              "name": "limit",
              "type": "uint256"
            }
          ],
          "internalType": "struct MintSplitSharedLib.Package[]",
          "name": "p",
          "type": "tuple[]"
        }
      ],
      "stateMutability": "view",
      "type": "function",
      "constant": true
    },
    {
      "inputs": [],
      "name": "togglePaused",
      "outputs": [],
      "stateMutability": "nonpayable",
      "type": "function"
    },
    {
      "inputs": [
        {
          "components": [
            {
              "internalType": "uint256",
              "name": "fee",
              "type": "uint256"
            },
            {
              "internalType": "uint256",
              "name": "limit",
              "type": "uint256"
            }
          ],
          "internalType": "struct MintSplitSharedLib.Package",
          "name": "newPackage",
          "type": "tuple"
        },
        {
          "internalType": "uint256",
          "name": "index",
          "type": "uint256"
        }
      ],
      "name": "setPackage",
      "outputs": [],
      "stateMutability": "nonpayable",
      "type": "function"
    },
    {
      "inputs": [
        {
          "components": [
            {
              "internalType": "uint256",
              "name": "fee",
              "type": "uint256"
            },
            {
              "internalType": "uint256",
              "name": "limit",
              "type": "uint256"
            }
          ],
          "internalType": "struct MintSplitSharedLib.Package",
          "name": "newPackage",
          "type": "tuple"
        }
      ],
      "name": "addPackage",
      "outputs": [],
      "stateMutability": "nonpayable",
      "type": "function"
    },
    {
      "inputs": [
        {
          "internalType": "address",
          "name": "addr",
          "type": "address"
        }
      ],
      "name": "addWaivedFee",
      "outputs": [],
      "stateMutability": "nonpayable",
      "type": "function"
    },
    {
      "inputs": [],
      "name": "withdraw",
      "outputs": [],
      "stateMutability": "nonpayable",
      "type": "function"
    }
  ],
  "bytecode": "0x60c06040523480156200001157600080fd5b506040516200235b3803806200235b8339818101604052810190620000379190620005c4565b620000576200004b6200018c60201b60201c565b6200019460201b60201c565b6200008e837f2d3d182e000000000000000000000000000000000000000000000000000000006200025860201b62000d581760201c565b6200009857600080fd5b620000cf827f3469e32e000000000000000000000000000000000000000000000000000000006200025860201b62000d581760201c565b620000d957600080fd5b8273ffffffffffffffffffffffffffffffffffffffff1660808173ffffffffffffffffffffffffffffffffffffffff16815250508173ffffffffffffffffffffffffffffffffffffffff1660a08173ffffffffffffffffffffffffffffffffffffffff168152505060018190806001815401808255809150506001900390600052602060002090600202016000909190919091506000820151816000015560208201518160010155505050505062000785565b600033905090565b60008060009054906101000a900473ffffffffffffffffffffffffffffffffffffffff169050816000806101000a81548173ffffffffffffffffffffffffffffffffffffffff021916908373ffffffffffffffffffffffffffffffffffffffff1602179055508173ffffffffffffffffffffffffffffffffffffffff168173ffffffffffffffffffffffffffffffffffffffff167f8be0079c531659141344cd1fd0a4f28419497f9722a3daafe3b4186f6b6457e060405160405180910390a35050565b60006200026b836200028e60201b60201c565b8015620002865750620002858383620002ec60201b60201c565b5b905092915050565b6000620002c2827f01ffc9a700000000000000000000000000000000000000000000000000000000620002ec60201b60201c565b8015620002e55750620002e38263ffffffff60e01b620002ec60201b60201c565b155b9050919050565b6000806301ffc9a760e01b836040516024016200030a91906200065d565b604051602081830303815290604052907bffffffffffffffffffffffffffffffffffffffffffffffffffffffff19166020820180517bffffffffffffffffffffffffffffffffffffffffffffffffffffffff838183161783525050505090506000808573ffffffffffffffffffffffffffffffffffffffff1661753084604051620003969190620006fd565b6000604051808303818686fa925050503d8060008114620003d4576040519150601f19603f3d011682016040523d82523d6000602084013e620003d9565b606091505b5091509150602081511015620003f657600093505050506200041c565b8180156200041657508080602001905181019062000415919062000753565b5b93505050505b92915050565b6000604051905090565b600080fd5b600073ffffffffffffffffffffffffffffffffffffffff82169050919050565b60006200045e8262000431565b9050919050565b620004708162000451565b81146200047c57600080fd5b50565b600081519050620004908162000465565b92915050565b600080fd5b6000601f19601f8301169050919050565b7f4e487b7100000000000000000000000000000000000000000000000000000000600052604160045260246000fd5b620004e6826200049b565b810181811067ffffffffffffffff82111715620005085762000507620004ac565b5b80604052505050565b60006200051d62000422565b90506200052b8282620004db565b919050565b6000819050919050565b620005458162000530565b81146200055157600080fd5b50565b60008151905062000565816200053a565b92915050565b60006040828403121562000584576200058362000496565b5b62000590604062000511565b90506000620005a28482850162000554565b6000830152506020620005b88482850162000554565b60208301525092915050565b600080600060808486031215620005e057620005df6200042c565b5b6000620005f0868287016200047f565b935050602062000603868287016200047f565b925050604062000616868287016200056b565b9150509250925092565b60007fffffffff0000000000000000000000000000000000000000000000000000000082169050919050565b620006578162000620565b82525050565b60006020820190506200067460008301846200064c565b92915050565b600081519050919050565b600081905092915050565b60005b83811015620006b057808201518184015260208101905062000693565b83811115620006c0576000848401525b50505050565b6000620006d3826200067a565b620006df818562000685565b9350620006f181856020860162000690565b80840191505092915050565b60006200070b8284620006c6565b915081905092915050565b60008115159050919050565b6200072d8162000716565b81146200073957600080fd5b50565b6000815190506200074d8162000722565b92915050565b6000602082840312156200076c576200076b6200042c565b5b60006200077c848285016200073c565b91505092915050565b60805160a051611ba2620007b9600039600061094801526000818161036d0152818161084e0152610ab70152611ba26000f3fe6080604052600436106100f35760003560e01c80639511e8371161008a578063d007e76211610059578063d007e762146102c0578063eec83c88146102fd578063f2aa582614610319578063f2fde38b14610342576100f3565b80639511e83714610212578063a55c3bb01461023b578063b8a2169014610257578063c216212a14610282576100f3565b80635c975abb116100c65780635c975abb1461017c57806370c29c48146101a7578063715018a6146101d05780638da5cb5b146101e7576100f3565b806334820242146100f857806336566f06146101235780633ccfd60b1461013a5780635c05a89f14610151575b600080fd5b34801561010457600080fd5b5061010d61036b565b60405161011a91906110d6565b60405180910390f35b34801561012f57600080fd5b5061013861038f565b005b34801561014657600080fd5b5061014f610437565b005b34801561015d57600080fd5b5061016661052c565b60405161017391906111e8565b60405180910390f35b34801561018857600080fd5b5061019161059f565b60405161019e9190611225565b60405180910390f35b3480156101b357600080fd5b506101ce60048036038101906101c99190611276565b6105b2565b005b3480156101dc57600080fd5b506101e5610689565b005b3480156101f357600080fd5b506101fc610711565b60405161020991906110d6565b60405180910390f35b34801561021e57600080fd5b50610239600480360381019061023491906112c7565b61073a565b005b61025560048036038101906102509190611314565b6107f3565b005b34801561026357600080fd5b5061026c610946565b60405161027991906110d6565b60405180910390f35b34801561028e57600080fd5b506102a960048036038101906102a49190611389565b61096a565b6040516102b79291906113c5565b60405180910390f35b3480156102cc57600080fd5b506102e760048036038101906102e29190611276565b61099e565b6040516102f49190611225565b60405180910390f35b61031760048036038101906103129190611314565b6109be565b005b34801561032557600080fd5b50610340600480360381019061033b91906113ee565b610baf565b005b34801561034e57600080fd5b5061036960048036038101906103649190611276565b610c61565b005b7f000000000000000000000000000000000000000000000000000000000000000081565b610397610d7d565b73ffffffffffffffffffffffffffffffffffffffff166103b5610711565b73ffffffffffffffffffffffffffffffffffffffff161461040b576040517f08c379a00000000000000000000000000000000000000000000000000000000081526004016104029061148b565b60405180910390fd5b600060149054906101000a900460ff1615600060146101000a81548160ff021916908315150217905550565b61043f610d7d565b73ffffffffffffffffffffffffffffffffffffffff1661045d610711565b73ffffffffffffffffffffffffffffffffffffffff16146104b3576040517f08c379a00000000000000000000000000000000000000000000000000000000081526004016104aa9061148b565b60405180910390fd5b60003373ffffffffffffffffffffffffffffffffffffffff16476040516104d9906114dc565b60006040518083038185875af1925050503d8060008114610516576040519150601f19603f3d011682016040523d82523d6000602084013e61051b565b606091505b505090508061052957600080fd5b50565b60606001805480602002602001604051908101604052809291908181526020016000905b8282101561059657838290600052602060002090600202016040518060400160405290816000820154815260200160018201548152505081526020019060010190610550565b50505050905090565b600060149054906101000a900460ff1681565b6105ba610d7d565b73ffffffffffffffffffffffffffffffffffffffff166105d8610711565b73ffffffffffffffffffffffffffffffffffffffff161461062e576040517f08c379a00000000000000000000000000000000000000000000000000000000081526004016106259061148b565b60405180910390fd5b6001600260008373ffffffffffffffffffffffffffffffffffffffff1673ffffffffffffffffffffffffffffffffffffffff16815260200190815260200160002060006101000a81548160ff02191690831515021790555050565b610691610d7d565b73ffffffffffffffffffffffffffffffffffffffff166106af610711565b73ffffffffffffffffffffffffffffffffffffffff1614610705576040517f08c379a00000000000000000000000000000000000000000000000000000000081526004016106fc9061148b565b60405180910390fd5b61070f6000610d85565b565b60008060009054906101000a900473ffffffffffffffffffffffffffffffffffffffff16905090565b610742610d7d565b73ffffffffffffffffffffffffffffffffffffffff16610760610711565b73ffffffffffffffffffffffffffffffffffffffff16146107b6576040517f08c379a00000000000000000000000000000000000000000000000000000000081526004016107ad9061148b565b60405180910390fd5b600181908060018154018082558091505060019003906000526020600020906002020160009091909190915081816107ee91906115f5565b505050565b600060149054906101000a900460ff161561080d57600080fd5b600060018260e001358154811061082757610826611603565b5b906000526020600020906002020190508060000154341461084757600080fd5b60006108727f0000000000000000000000000000000000000000000000000000000000000000610e49565b90508073ffffffffffffffffffffffffffffffffffffffff166394b57a1d338585600101546040518463ffffffff1660e01b81526004016108b5939291906118fb565b600060405180830381600087803b1580156108cf57600080fd5b505af11580156108e3573d6000803e3d6000fd5b505050503373ffffffffffffffffffffffffffffffffffffffff168173ffffffffffffffffffffffffffffffffffffffff167f8cb1f5e0b7508307e592a641586f535256dba226b02388100691c6133f65e22e60405160405180910390a3505050565b7f000000000000000000000000000000000000000000000000000000000000000081565b6001818154811061097a57600080fd5b90600052602060002090600202016000915090508060000154908060010154905082565b60026020528060005260406000206000915054906101000a900460ff1681565b600060149054906101000a900460ff16156109d857600080fd5b600260003373ffffffffffffffffffffffffffffffffffffffff1673ffffffffffffffffffffffffffffffffffffffff16815260200190815260200160002060009054906101000a900460ff16610a2e57600080fd5b6000600260003373ffffffffffffffffffffffffffffffffffffffff1673ffffffffffffffffffffffffffffffffffffffff16815260200190815260200160002060006101000a81548160ff021916908315150217905550600060018260e0013581548110610aa057610a9f611603565b5b906000526020600020906002020190506000610adb7f0000000000000000000000000000000000000000000000000000000000000000610e49565b90508073ffffffffffffffffffffffffffffffffffffffff166394b57a1d338585600101546040518463ffffffff1660e01b8152600401610b1e939291906118fb565b600060405180830381600087803b158015610b3857600080fd5b505af1158015610b4c573d6000803e3d6000fd5b505050503373ffffffffffffffffffffffffffffffffffffffff168173ffffffffffffffffffffffffffffffffffffffff167fe78a7b7506d1598c163003952827694efb0e6e07e685f54094f9cae12348812a60405160405180910390a3505050565b610bb7610d7d565b73ffffffffffffffffffffffffffffffffffffffff16610bd5610711565b73ffffffffffffffffffffffffffffffffffffffff1614610c2b576040517f08c379a0000000000000000000000000000000000000000000000000000000008152600401610c229061148b565b60405180910390fd5b8160018281548110610c4057610c3f611603565b5b90600052602060002090600202018181610c5a91906115f5565b9050505050565b610c69610d7d565b73ffffffffffffffffffffffffffffffffffffffff16610c87610711565b73ffffffffffffffffffffffffffffffffffffffff1614610cdd576040517f08c379a0000000000000000000000000000000000000000000000000000000008152600401610cd49061148b565b60405180910390fd5b600073ffffffffffffffffffffffffffffffffffffffff168173ffffffffffffffffffffffffffffffffffffffff1603610d4c576040517f08c379a0000000000000000000000000000000000000000000000000000000008152600401610d43906119ab565b60405180910390fd5b610d5581610d85565b50565b6000610d6383610f1d565b8015610d755750610d748383610f6a565b5b905092915050565b600033905090565b60008060009054906101000a900473ffffffffffffffffffffffffffffffffffffffff169050816000806101000a81548173ffffffffffffffffffffffffffffffffffffffff021916908373ffffffffffffffffffffffffffffffffffffffff1602179055508173ffffffffffffffffffffffffffffffffffffffff168173ffffffffffffffffffffffffffffffffffffffff167f8be0079c531659141344cd1fd0a4f28419497f9722a3daafe3b4186f6b6457e060405160405180910390a35050565b60006040517f3d602d80600a3d3981f3363d3d373d3d3d363d7300000000000000000000000081528260601b60148201527f5af43d82803e903d91602b57fd5bf3000000000000000000000000000000000060288201526037816000f0915050600073ffffffffffffffffffffffffffffffffffffffff168173ffffffffffffffffffffffffffffffffffffffff1603610f18576040517f08c379a0000000000000000000000000000000000000000000000000000000008152600401610f0f90611a17565b60405180910390fd5b919050565b6000610f49827f01ffc9a700000000000000000000000000000000000000000000000000000000610f6a565b8015610f635750610f618263ffffffff60e01b610f6a565b155b9050919050565b6000806301ffc9a760e01b83604051602401610f869190611a72565b604051602081830303815290604052907bffffffffffffffffffffffffffffffffffffffffffffffffffffffff19166020820180517bffffffffffffffffffffffffffffffffffffffffffffffffffffffff838183161783525050505090506000808573ffffffffffffffffffffffffffffffffffffffff16617530846040516110109190611afc565b6000604051808303818686fa925050503d806000811461104c576040519150601f19603f3d011682016040523d82523d6000602084013e611051565b606091505b509150915060208151101561106c576000935050505061108f565b8180156110895750808060200190518101906110889190611b3f565b5b93505050505b92915050565b600073ffffffffffffffffffffffffffffffffffffffff82169050919050565b60006110c082611095565b9050919050565b6110d0816110b5565b82525050565b60006020820190506110eb60008301846110c7565b92915050565b600081519050919050565b600082825260208201905092915050565b6000819050602082019050919050565b6000819050919050565b6111308161111d565b82525050565b60408201600082015161114c6000850182611127565b50602082015161115f6020850182611127565b50505050565b60006111718383611136565b60408301905092915050565b6000602082019050919050565b6000611195826110f1565b61119f81856110fc565b93506111aa8361110d565b8060005b838110156111db5781516111c28882611165565b97506111cd8361117d565b9250506001810190506111ae565b5085935050505092915050565b60006020820190508181036000830152611202818461118a565b905092915050565b60008115159050919050565b61121f8161120a565b82525050565b600060208201905061123a6000830184611216565b92915050565b600080fd5b600080fd5b611253816110b5565b811461125e57600080fd5b50565b6000813590506112708161124a565b92915050565b60006020828403121561128c5761128b611240565b5b600061129a84828501611261565b91505092915050565b600080fd5b6000604082840312156112be576112bd6112a3565b5b81905092915050565b6000604082840312156112dd576112dc611240565b5b60006112eb848285016112a8565b91505092915050565b6000610100828403121561130b5761130a6112a3565b5b81905092915050565b60006020828403121561132a57611329611240565b5b600082013567ffffffffffffffff81111561134857611347611245565b5b611354848285016112f4565b91505092915050565b6113668161111d565b811461137157600080fd5b50565b6000813590506113838161135d565b92915050565b60006020828403121561139f5761139e611240565b5b60006113ad84828501611374565b91505092915050565b6113bf8161111d565b82525050565b60006040820190506113da60008301856113b6565b6113e760208301846113b6565b9392505050565b6000806060838503121561140557611404611240565b5b6000611413858286016112a8565b925050604061142485828601611374565b9150509250929050565b600082825260208201905092915050565b7f4f776e61626c653a2063616c6c6572206973206e6f7420746865206f776e6572600082015250565b600061147560208361142e565b91506114808261143f565b602082019050919050565b600060208201905081810360008301526114a481611468565b9050919050565b600081905092915050565b50565b60006114c66000836114ab565b91506114d1826114b6565b600082019050919050565b60006114e7826114b9565b9150819050919050565b600081356114fe8161135d565b80915050919050565b60008160001b9050919050565b60007fffffffffffffffffffffffffffffffffffffffffffffffffffffffffffffffff61154084611507565b9350801983169250808416831791505092915050565b6000819050919050565b600061157b6115766115718461111d565b611556565b61111d565b9050919050565b6000819050919050565b61159582611560565b6115a86115a182611582565b8354611514565b8255505050565b6000810160008301806115c1816114f1565b90506115cd818461158c565b5050506001810160208301806115e2816114f1565b90506115ee818461158c565b5050505050565b6115ff82826115af565b5050565b7f4e487b7100000000000000000000000000000000000000000000000000000000600052603260045260246000fd5b600080fd5b600080fd5b600080fd5b6000808335600160200384360303811261165e5761165d61163c565b5b83810192508235915060208301925067ffffffffffffffff82111561168657611685611632565b5b60018202360384131561169c5761169b611637565b5b509250929050565b600082825260208201905092915050565b82818337600083830152505050565b6000601f19601f8301169050919050565b60006116e183856116a4565b93506116ee8385846116b5565b6116f7836116c4565b840190509392505050565b60006117116020840184611374565b905092915050565b600080833560016020038436030381126117365761173561163c565b5b83810192508235915060208301925067ffffffffffffffff82111561175e5761175d611632565b5b60208202360384131561177457611773611637565b5b509250929050565b600082825260208201905092915050565b600080fd5b600061179e838561177c565b93507f07ffffffffffffffffffffffffffffffffffffffffffffffffffffffffffffff8311156117d1576117d061178d565b5b6020830292506117e28385846116b5565b82840190509392505050565b600061010083016118026000840184611641565b85830360008701526118158382846116d5565b925050506118266020840184611641565b85830360208701526118398382846116d5565b9250505061184a6040840184611702565b6118576040860182611127565b506118656060840184611719565b8583036060870152611878838284611792565b925050506118896080840184611702565b6118966080860182611127565b506118a460a0840184611702565b6118b160a0860182611127565b506118bf60c0840184611641565b85830360c08701526118d28382846116d5565b925050506118e360e0840184611702565b6118f060e0860182611127565b508091505092915050565b600060608201905061191060008301866110c7565b818103602083015261192281856117ee565b905061193160408301846113b6565b949350505050565b7f4f776e61626c653a206e6577206f776e657220697320746865207a65726f206160008201527f6464726573730000000000000000000000000000000000000000000000000000602082015250565b600061199560268361142e565b91506119a082611939565b604082019050919050565b600060208201905081810360008301526119c481611988565b9050919050565b7f455243313136373a20637265617465206661696c656400000000000000000000600082015250565b6000611a0160168361142e565b9150611a0c826119cb565b602082019050919050565b60006020820190508181036000830152611a30816119f4565b9050919050565b60007fffffffff0000000000000000000000000000000000000000000000000000000082169050919050565b611a6c81611a37565b82525050565b6000602082019050611a876000830184611a63565b92915050565b600081519050919050565b60005b83811015611ab6578082015181840152602081019050611a9b565b83811115611ac5576000848401525b50505050565b6000611ad682611a8d565b611ae081856114ab565b9350611af0818560208601611a98565b80840191505092915050565b6000611b088284611acb565b915081905092915050565b611b1c8161120a565b8114611b2757600080fd5b50565b600081519050611b3981611b13565b92915050565b600060208284031215611b5557611b54611240565b5b6000611b6384828501611b2a565b9150509291505056fea264697066735822122043058e7bf9de06a848e49517a3a79ee86317966e6e1fd4284a6b525e3c9b4e3764736f6c634300080d0033",
  "immutableReferences": {
    "3430": [
      {
        "length": 32,
        "start": 877
      },
      {
        "length": 32,
        "start": 2126
      },
      {
        "length": 32,
        "start": 2743
      }
    ],
    "3432": [
      {
        "length": 32,
        "start": 2376
      }
    ]
  },
  "source": "// SPDX-License-Identifier: MIT\npragma solidity ^0.8.0;\nimport \"@openzeppelin/contracts/access/Ownable.sol\";\nimport \"@openzeppelin/contracts/proxy/Clones.sol\";\nimport \"@openzeppelin/contracts/utils/introspection/ERC165Checker.sol\";\nimport \"./MintSplitSharedLib.sol\";\nimport \"./MintSplitERC721.sol\";\nimport \"./IMintSplitERC721.sol\";\nimport \"./RevenueSplitter.sol\";\nimport \"./IRevenueSplitter.sol\";\n\n/// @author mintsplit.io\n\n/// @title MintSplit Factory Smart Contract\ncontract MintSplitFactory is Ownable {\n    address public immutable ERC721Implementation;\n    address public immutable revenueSplitterImplementation;\n    bool public paused;\n    MintSplitSharedLib.Package[] public packages;\n    mapping(address => bool) public waiveFee;\n\n    event ProjectCreated(address indexed project, address indexed owner);\n    event ProjectCreatedFree(address indexed project, address indexed owner);\n\n    /**\n    @dev construct a MintSplit Factory contract\n    @param _ERC721Implementation address of a deployed MintSplit ERC721 smart contract\n    @param _revenueSplitterImplementation address of a deployed MintSplit Revenue Splitter smart contract\n    @param _package the default fee/limit package\n    */\n    constructor(\n        address _ERC721Implementation,\n        address _revenueSplitterImplementation,\n        MintSplitSharedLib.Package memory _package\n    ) {\n        require(ERC165Checker.supportsInterface(_ERC721Implementation, type(IMintSplitERC721).interfaceId));\n        require(ERC165Checker.supportsInterface(_revenueSplitterImplementation, type(IRevenueSplitter).interfaceId));\n        ERC721Implementation = _ERC721Implementation;\n        revenueSplitterImplementation = _revenueSplitterImplementation;\n        packages.push(_package);\n    }\n\n    /**\n    Create a new MintSplit NFT project\n    @dev Creates a clone ERC721 contract\n    @param params the parameters for the NFT project\n    */\n    function createProject(\n        MintSplitSharedLib.ProjectParams calldata params\n    ) external payable {\n        require(!paused);\n        MintSplitSharedLib.Package storage p = packages[params.package];\n        require(msg.value == p.fee);\n        MintSplitERC721 newProject = MintSplitERC721(Clones.clone(ERC721Implementation));\n        newProject.initialize(msg.sender, params, p.limit);\n        emit ProjectCreated(address(newProject), msg.sender);\n    }\n\n    /**\n    Create a new MintSplit NFT project for free - requires waived fee\n    @dev Creates a clone ERC721 contract\n    @param params the parameters for the NFT project\n    */\n    function createProjectFree(\n        MintSplitSharedLib.ProjectParams calldata params\n    ) external payable {\n        require(!paused);\n        require(waiveFee[msg.sender]);\n        waiveFee[msg.sender] = false;\n        MintSplitSharedLib.Package storage p = packages[params.package];\n        MintSplitERC721 newProject = MintSplitERC721(Clones.clone(ERC721Implementation));\n        newProject.initialize(msg.sender, params, p.limit);\n        emit ProjectCreatedFree(address(newProject), msg.sender);\n    }\n\n    /**\n    Get packages\n    @return p Packages\n    */\n    function getPackages() external view returns (MintSplitSharedLib.Package[] memory p) {\n        return packages;\n    }\n\n    /// Toggle paused state\n    function togglePaused() external onlyOwner {\n        paused = !paused;\n    }\n\n    /**\n    Update an existing package\n    @param newPackage the new package data\n    @param index the index of the existing package to be replaced\n    */\n    function setPackage(MintSplitSharedLib.Package calldata newPackage, uint index) external onlyOwner {\n        packages[index] = newPackage;\n    }\n    \n    /**\n    Add a new package\n    @param newPackage the new package data\n    */\n    function addPackage(MintSplitSharedLib.Package calldata newPackage) external onlyOwner {\n        packages.push(newPackage);\n    }\n\n    /**\n    Waive the deployment fee for an address\n    @param addr the address to waive deployment fee\n    */\n    function addWaivedFee(address addr) external onlyOwner {\n        waiveFee[addr] = true;\n    }\n\n    /// Withdraw contract funds\n    function withdraw() external onlyOwner {\n        (bool success, ) = payable(msg.sender).call{\n            value: address(this).balance\n        }(\"\");\n        require(success);\n    }\n}",
  "sourcePath": "/Users/justinfsl/Dev/misc/mintsplit/solidity/contracts/MintSplitFactory.sol",
  "compiler": {
    "name": "solc",
    "version": "0.8.13+commit.abaa5c0e.Emscripten.clang"
  },
  "schemaVersion": "3.3.4",
  "updatedAt": "2022-03-29T16:58:02.009Z",
  "networkType": "ethereum",
  "devdoc": {
    "kind": "dev",
    "methods": {
      "addPackage((uint256,uint256))": {
        "params": {
          "newPackage": "the new package data"
        }
      },
      "addWaivedFee(address)": {
        "params": {
          "addr": "the address to waive deployment fee"
        }
      },
      "constructor": {
        "details": "construct a MintSplit Factory contract",
        "params": {
          "_ERC721Implementation": "address of a deployed MintSplit ERC721 smart contract",
          "_package": "the default fee/limit package",
          "_revenueSplitterImplementation": "address of a deployed MintSplit Revenue Splitter smart contract"
        }
      },
      "createProject((string,string,uint256,uint256[],uint256,uint256,string,uint256))": {
        "details": "Creates a clone ERC721 contract",
        "params": {
          "params": "the parameters for the NFT project"
        }
      },
      "createProjectFree((string,string,uint256,uint256[],uint256,uint256,string,uint256))": {
        "details": "Creates a clone ERC721 contract",
        "params": {
          "params": "the parameters for the NFT project"
        }
      },
      "getPackages()": {
        "returns": {
          "p": "Packages"
        }
      },
      "owner()": {
        "details": "Returns the address of the current owner."
      },
      "renounceOwnership()": {
        "details": "Leaves the contract without owner. It will not be possible to call `onlyOwner` functions anymore. Can only be called by the current owner. NOTE: Renouncing ownership will leave the contract without an owner, thereby removing any functionality that is only available to the owner."
      },
      "setPackage((uint256,uint256),uint256)": {
        "params": {
          "index": "the index of the existing package to be replaced",
          "newPackage": "the new package data"
        }
      },
      "transferOwnership(address)": {
        "details": "Transfers ownership of the contract to a new account (`newOwner`). Can only be called by the current owner."
      }
    },
    "title": "MintSplit Factory Smart Contract",
    "version": 1
  },
  "userdoc": {
    "kind": "user",
    "methods": {
      "addPackage((uint256,uint256))": {
        "notice": "Add a new package"
      },
      "addWaivedFee(address)": {
        "notice": "Waive the deployment fee for an address"
      },
      "createProject((string,string,uint256,uint256[],uint256,uint256,string,uint256))": {
        "notice": "Create a new MintSplit NFT project"
      },
      "createProjectFree((string,string,uint256,uint256[],uint256,uint256,string,uint256))": {
        "notice": "Create a new MintSplit NFT project for free - requires waived fee"
      },
      "getPackages()": {
        "notice": "Get packages"
      },
      "setPackage((uint256,uint256),uint256)": {
        "notice": "Update an existing package"
      },
      "togglePaused()": {
        "notice": "Toggle paused state"
      },
      "withdraw()": {
        "notice": "Withdraw contract funds"
      }
    },
    "version": 1
  }
}