{
  "contractName": "MintSplitFactoryV1",
  "abi": [
    {
      "inputs": [
        {
          "internalType": "address",
          "name": "_erc721Implementation",
          "type": "address"
        },
        {
          "internalType": "address",
          "name": "_revenueSplitterImplementation",
          "type": "address"
        },
        {
          "internalType": "uint256",
          "name": "fee",
          "type": "uint256"
        },
        {
          "internalType": "uint256",
          "name": "limit",
          "type": "uint256"
        }
      ],
      "stateMutability": "nonpayable",
      "type": "constructor"
    },
    {
      "anonymous": false,
      "inputs": [
        {
          "indexed": true,
          "internalType": "address",
          "name": "previousOwner",
          "type": "address"
        },
        {
          "indexed": true,
          "internalType": "address",
          "name": "newOwner",
          "type": "address"
        }
      ],
      "name": "OwnershipTransferred",
      "type": "event"
    },
    {
      "anonymous": false,
      "inputs": [
        {
          "indexed": true,
          "internalType": "address",
          "name": "project",
          "type": "address"
        },
        {
          "indexed": true,
          "internalType": "address",
          "name": "payment",
          "type": "address"
        },
        {
          "indexed": true,
          "internalType": "address",
          "name": "owner",
          "type": "address"
        }
      ],
      "name": "ProjectCreated",
      "type": "event"
    },
    {
      "inputs": [],
      "name": "erc721Implementation",
      "outputs": [
        {
          "internalType": "address",
          "name": "",
          "type": "address"
        }
      ],
      "stateMutability": "view",
      "type": "function",
      "constant": true
    },
    {
      "inputs": [],
      "name": "isPaused",
      "outputs": [
        {
          "internalType": "bool",
          "name": "",
          "type": "bool"
        }
      ],
      "stateMutability": "view",
      "type": "function",
      "constant": true
    },
    {
      "inputs": [],
      "name": "owner",
      "outputs": [
        {
          "internalType": "address",
          "name": "",
          "type": "address"
        }
      ],
      "stateMutability": "view",
      "type": "function",
      "constant": true
    },
    {
      "inputs": [
        {
          "internalType": "uint256",
          "name": "",
          "type": "uint256"
        },
        {
          "internalType": "uint256",
          "name": "",
          "type": "uint256"
        }
      ],
      "name": "packages",
      "outputs": [
        {
          "internalType": "uint256",
          "name": "",
          "type": "uint256"
        }
      ],
      "stateMutability": "view",
      "type": "function",
      "constant": true
    },
    {
      "inputs": [
        {
          "internalType": "uint256",
          "name": "",
          "type": "uint256"
        }
      ],
      "name": "projects",
      "outputs": [
        {
          "internalType": "address",
          "name": "",
          "type": "address"
        }
      ],
      "stateMutability": "view",
      "type": "function",
      "constant": true
    },
    {
      "inputs": [],
      "name": "renounceOwnership",
      "outputs": [],
      "stateMutability": "nonpayable",
      "type": "function"
    },
    {
      "inputs": [],
      "name": "revenueSplitterImplementation",
      "outputs": [
        {
          "internalType": "address",
          "name": "",
          "type": "address"
        }
      ],
      "stateMutability": "view",
      "type": "function",
      "constant": true
    },
    {
      "inputs": [
        {
          "internalType": "address",
          "name": "newOwner",
          "type": "address"
        }
      ],
      "name": "transferOwnership",
      "outputs": [],
      "stateMutability": "nonpayable",
      "type": "function"
    },
    {
      "inputs": [
        {
          "internalType": "address",
          "name": "",
          "type": "address"
        },
        {
          "internalType": "uint256",
          "name": "",
          "type": "uint256"
        }
      ],
      "name": "userProjects",
      "outputs": [
        {
          "internalType": "address",
          "name": "",
          "type": "address"
        }
      ],
      "stateMutability": "view",
      "type": "function",
      "constant": true
    },
    {
      "inputs": [
        {
          "components": [
            {
              "internalType": "string",
              "name": "projectName",
              "type": "string"
            },
            {
              "internalType": "string",
              "name": "symbol",
              "type": "string"
            },
            {
              "internalType": "uint256",
              "name": "contentCount",
              "type": "uint256"
            },
            {
              "internalType": "uint256[]",
              "name": "supplyLimits",
              "type": "uint256[]"
            },
            {
              "internalType": "uint256",
              "name": "mintPrice",
              "type": "uint256"
            },
            {
              "internalType": "uint256",
              "name": "mintLimit",
              "type": "uint256"
            },
            {
              "internalType": "uint256",
              "name": "releaseTime",
              "type": "uint256"
            },
            {
              "internalType": "string",
              "name": "baseURI",
              "type": "string"
            },
            {
              "internalType": "uint256",
              "name": "package",
              "type": "uint256"
            }
          ],
          "internalType": "struct MintSplitSharedLibV1.ProjectParams",
          "name": "_params",
          "type": "tuple"
        },
        {
          "components": [
            {
              "internalType": "uint256",
              "name": "contentId",
              "type": "uint256"
            },
            {
              "internalType": "bool",
              "name": "isMint",
              "type": "bool"
            },
            {
              "components": [
                {
                  "internalType": "address payable[]",
                  "name": "recipients",
                  "type": "address[]"
                },
                {
                  "internalType": "uint256[]",
                  "name": "bps",
                  "type": "uint256[]"
                }
              ],
              "internalType": "struct MintSplitSharedLibV1.PaymentSplit",
              "name": "split",
              "type": "tuple"
            }
          ],
          "internalType": "struct MintSplitSharedLibV1.PaymentSplitConfig[]",
          "name": "_splitConfigs",
          "type": "tuple[]"
        }
      ],
      "name": "createProject",
      "outputs": [],
      "stateMutability": "payable",
      "type": "function",
      "payable": true
    },
    {
      "inputs": [],
      "name": "getProjects",
      "outputs": [
        {
          "internalType": "address[]",
          "name": "",
          "type": "address[]"
        }
      ],
      "stateMutability": "view",
      "type": "function",
      "constant": true
    },
    {
      "inputs": [
        {
          "internalType": "address",
          "name": "user",
          "type": "address"
        }
      ],
      "name": "getUserProjects",
      "outputs": [
        {
          "internalType": "address[]",
          "name": "",
          "type": "address[]"
        }
      ],
      "stateMutability": "view",
      "type": "function",
      "constant": true
    },
    {
      "inputs": [],
      "name": "getPackages",
      "outputs": [
        {
          "internalType": "uint256[2][]",
          "name": "",
          "type": "uint256[2][]"
        }
      ],
      "stateMutability": "view",
      "type": "function",
      "constant": true
    },
    {
      "inputs": [
        {
          "internalType": "bool",
          "name": "_isPaused",
          "type": "bool"
        }
      ],
      "name": "setIsPaused",
      "outputs": [],
      "stateMutability": "nonpayable",
      "type": "function"
    },
    {
      "inputs": [],
      "name": "withdraw",
      "outputs": [],
      "stateMutability": "payable",
      "type": "function",
      "payable": true
    },
    {
      "inputs": [
        {
          "internalType": "uint256[2][]",
          "name": "_newPackages",
          "type": "uint256[2][]"
        }
      ],
      "name": "setPackages",
      "outputs": [],
      "stateMutability": "nonpayable",
      "type": "function"
    }
  ],
  "bytecode": "0x60c060405260008060146101000a81548160ff0219169083151502179055503480156200002b57600080fd5b50604051620023b7380380620023b7833981810160405281019062000051919062000389565b62000071620000656200011960201b60201c565b6200012160201b60201c565b8373ffffffffffffffffffffffffffffffffffffffff1660808173ffffffffffffffffffffffffffffffffffffffff16815250508273ffffffffffffffffffffffffffffffffffffffff1660a08173ffffffffffffffffffffffffffffffffffffffff1681525050604051806020016040528060405180604001604052808481526020018581525081525060029060016200010e929190620001e5565b5050505050620003fb565b600033905090565b60008060009054906101000a900473ffffffffffffffffffffffffffffffffffffffff169050816000806101000a81548173ffffffffffffffffffffffffffffffffffffffff021916908373ffffffffffffffffffffffffffffffffffffffff1602179055508173ffffffffffffffffffffffffffffffffffffffff168173ffffffffffffffffffffffffffffffffffffffff167f8be0079c531659141344cd1fd0a4f28419497f9722a3daafe3b4186f6b6457e060405160405180910390a35050565b82805482825590600052602060002090600202810192821562000237579160200282015b828111156200023657825182906002620002259291906200024a565b509160200191906002019062000209565b5b5090506200024691906200028f565b5090565b82600281019282156200027c579160200282015b828111156200027b5782518255916020019190600101906200025e565b5b5090506200028b9190620002b7565b5090565b5b80821115620002b35760008181620002a99190620002d6565b5060020162000290565b5090565b5b80821115620002d2576000816000905550600101620002b8565b5090565b506000815560010160009055565b600080fd5b600073ffffffffffffffffffffffffffffffffffffffff82169050919050565b60006200031682620002e9565b9050919050565b620003288162000309565b81146200033457600080fd5b50565b60008151905062000348816200031d565b92915050565b6000819050919050565b62000363816200034e565b81146200036f57600080fd5b50565b600081519050620003838162000358565b92915050565b60008060008060808587031215620003a657620003a5620002e4565b5b6000620003b68782880162000337565b9450506020620003c98782880162000337565b9350506040620003dc8782880162000372565b9250506060620003ef8782880162000372565b91505092959194509250565b60805160a051611f886200042f600039600081816107cd0152610b140152600081816105c30152610ae70152611f886000f3fe6080604052600436106100f35760003560e01c80638da5cb5b1161008a578063e32e723c11610059578063e32e723c146102e7578063f0503ac014610324578063f2fde38b14610361578063f65267181461038a576100f3565b80638da5cb5b1461023b578063b187bd2614610266578063b8a2169014610291578063dcc60128146102bc576100f3565b80634a80a319116100c65780634a80a319146101a55780635c05a89f146101d0578063715018a6146101fb5780637b5b3a2114610212576100f3565b8063107046bd146100f8578063240976bf146101355780632fa9c0071461015e5780633ccfd60b1461019b575b600080fd5b34801561010457600080fd5b5061011f600480360381019061011a9190611086565b6103a6565b60405161012c91906110f4565b60405180910390f35b34801561014157600080fd5b5061015c60048036038101906101579190611147565b6103e5565b005b34801561016a57600080fd5b50610185600480360381019061018091906111a0565b61047e565b60405161019291906110f4565b60405180910390f35b6101a36104cc565b005b3480156101b157600080fd5b506101ba6105c1565b6040516101c791906110f4565b60405180910390f35b3480156101dc57600080fd5b506101e56105e5565b6040516101f2919061133a565b60405180910390f35b34801561020757600080fd5b50610210610675565b005b34801561021e57600080fd5b50610239600480360381019061023491906113c1565b6106fd565b005b34801561024757600080fd5b5061025061078f565b60405161025d91906110f4565b60405180910390f35b34801561027257600080fd5b5061027b6107b8565b604051610288919061141d565b60405180910390f35b34801561029d57600080fd5b506102a66107cb565b6040516102b391906110f4565b60405180910390f35b3480156102c857600080fd5b506102d16107ef565b6040516102de91906114f6565b60405180910390f35b3480156102f357600080fd5b5061030e60048036038101906103099190611518565b61087d565b60405161031b91906114f6565b60405180910390f35b34801561033057600080fd5b5061034b60048036038101906103469190611545565b61094a565b6040516103589190611594565b60405180910390f35b34801561036d57600080fd5b5061038860048036038101906103839190611518565b610982565b005b6103a4600480360381019061039f919061162a565b610a7a565b005b600181815481106103b657600080fd5b906000526020600020016000915054906101000a900473ffffffffffffffffffffffffffffffffffffffff1681565b6103ed610db9565b73ffffffffffffffffffffffffffffffffffffffff1661040b61078f565b73ffffffffffffffffffffffffffffffffffffffff1614610461576040517f08c379a000000000000000000000000000000000000000000000000000000000815260040161045890611703565b60405180910390fd5b80600060146101000a81548160ff02191690831515021790555050565b6003602052816000526040600020818154811061049a57600080fd5b906000526020600020016000915091509054906101000a900473ffffffffffffffffffffffffffffffffffffffff1681565b6104d4610db9565b73ffffffffffffffffffffffffffffffffffffffff166104f261078f565b73ffffffffffffffffffffffffffffffffffffffff1614610548576040517f08c379a000000000000000000000000000000000000000000000000000000000815260040161053f90611703565b60405180910390fd5b60003373ffffffffffffffffffffffffffffffffffffffff164760405161056e90611754565b60006040518083038185875af1925050503d80600081146105ab576040519150601f19603f3d011682016040523d82523d6000602084013e6105b0565b606091505b50509050806105be57600080fd5b50565b7f000000000000000000000000000000000000000000000000000000000000000081565b60606002805480602002602001604051908101604052809291908181526020016000905b8282101561066c5783829060005260206000209060020201600280602002604051908101604052809291908260028015610658576020028201915b815481526020019060010190808311610644575b505050505081526020019060010190610609565b50505050905090565b61067d610db9565b73ffffffffffffffffffffffffffffffffffffffff1661069b61078f565b73ffffffffffffffffffffffffffffffffffffffff16146106f1576040517f08c379a00000000000000000000000000000000000000000000000000000000081526004016106e890611703565b60405180910390fd5b6106fb6000610dc1565b565b610705610db9565b73ffffffffffffffffffffffffffffffffffffffff1661072361078f565b73ffffffffffffffffffffffffffffffffffffffff1614610779576040517f08c379a000000000000000000000000000000000000000000000000000000000815260040161077090611703565b60405180910390fd5b81816002919061078a929190610f5a565b505050565b60008060009054906101000a900473ffffffffffffffffffffffffffffffffffffffff16905090565b600060149054906101000a900460ff1681565b7f000000000000000000000000000000000000000000000000000000000000000081565b6060600180548060200260200160405190810160405280929190818152602001828054801561087357602002820191906000526020600020905b8160009054906101000a900473ffffffffffffffffffffffffffffffffffffffff1673ffffffffffffffffffffffffffffffffffffffff1681526020019060010190808311610829575b5050505050905090565b6060600360008373ffffffffffffffffffffffffffffffffffffffff1673ffffffffffffffffffffffffffffffffffffffff16815260200190815260200160002080548060200260200160405190810160405280929190818152602001828054801561093e57602002820191906000526020600020905b8160009054906101000a900473ffffffffffffffffffffffffffffffffffffffff1673ffffffffffffffffffffffffffffffffffffffff16815260200190600101908083116108f4575b50505050509050919050565b6002828154811061095a57600080fd5b9060005260206000209060020201816002811061097657600080fd5b01600091509150505481565b61098a610db9565b73ffffffffffffffffffffffffffffffffffffffff166109a861078f565b73ffffffffffffffffffffffffffffffffffffffff16146109fe576040517f08c379a00000000000000000000000000000000000000000000000000000000081526004016109f590611703565b60405180910390fd5b600073ffffffffffffffffffffffffffffffffffffffff168173ffffffffffffffffffffffffffffffffffffffff161415610a6e576040517f08c379a0000000000000000000000000000000000000000000000000000000008152600401610a65906117db565b60405180910390fd5b610a7781610dc1565b50565b600060149054906101000a900460ff1615610a9457600080fd5b6000600284610100013581548110610aaf57610aae6117fb565b5b9060005260206000209060020201905080600160028110610ad357610ad26117fb565b5b01543414610ae057600080fd5b6000610b0b7f0000000000000000000000000000000000000000000000000000000000000000610e85565b90506000610b387f0000000000000000000000000000000000000000000000000000000000000000610e85565b9050600082905060008290508373ffffffffffffffffffffffffffffffffffffffff16632324839d33838b89600060028110610b7757610b766117fb565b5b01546040518563ffffffff1660e01b8152600401610b989493929190611b10565b600060405180830381600087803b158015610bb257600080fd5b505af1158015610bc6573d6000803e3d6000fd5b505050508273ffffffffffffffffffffffffffffffffffffffff16637191134833848a8a6040518563ffffffff1660e01b8152600401610c099493929190611ea6565b600060405180830381600087803b158015610c2357600080fd5b505af1158015610c37573d6000803e3d6000fd5b505050506001829080600181540180825580915050600190039060005260206000200160009091909190916101000a81548173ffffffffffffffffffffffffffffffffffffffff021916908373ffffffffffffffffffffffffffffffffffffffff160217905550600360003373ffffffffffffffffffffffffffffffffffffffff1673ffffffffffffffffffffffffffffffffffffffff168152602001908152602001600020829080600181540180825580915050600190039060005260206000200160009091909190916101000a81548173ffffffffffffffffffffffffffffffffffffffff021916908373ffffffffffffffffffffffffffffffffffffffff1602179055503373ffffffffffffffffffffffffffffffffffffffff168173ffffffffffffffffffffffffffffffffffffffff168373ffffffffffffffffffffffffffffffffffffffff167f68ab451e4d0424687d94df06023bdd9ae86be1fecd2504ce2c8b8dfcc37ab70a60405160405180910390a45050505050505050565b600033905090565b60008060009054906101000a900473ffffffffffffffffffffffffffffffffffffffff169050816000806101000a81548173ffffffffffffffffffffffffffffffffffffffff021916908373ffffffffffffffffffffffffffffffffffffffff1602179055508173ffffffffffffffffffffffffffffffffffffffff168173ffffffffffffffffffffffffffffffffffffffff167f8be0079c531659141344cd1fd0a4f28419497f9722a3daafe3b4186f6b6457e060405160405180910390a35050565b60006040517f3d602d80600a3d3981f3363d3d373d3d3d363d7300000000000000000000000081528260601b60148201527f5af43d82803e903d91602b57fd5bf3000000000000000000000000000000000060288201526037816000f0915050600073ffffffffffffffffffffffffffffffffffffffff168173ffffffffffffffffffffffffffffffffffffffff161415610f55576040517f08c379a0000000000000000000000000000000000000000000000000000000008152600401610f4c90611f32565b60405180910390fd5b919050565b828054828255906000526020600020906002028101928215610fa6579160400282015b82811115610fa5578282906002610f95929190610fb7565b5091604001919060020190610f7d565b5b509050610fb39190610ff7565b5090565b8260028101928215610fe6579160200282015b82811115610fe5578235825591602001919060010190610fca565b5b509050610ff3919061101b565b5090565b5b80821115611017576000818161100e9190611038565b50600201610ff8565b5090565b5b8082111561103457600081600090555060010161101c565b5090565b506000815560010160009055565b600080fd5b600080fd5b6000819050919050565b61106381611050565b811461106e57600080fd5b50565b6000813590506110808161105a565b92915050565b60006020828403121561109c5761109b611046565b5b60006110aa84828501611071565b91505092915050565b600073ffffffffffffffffffffffffffffffffffffffff82169050919050565b60006110de826110b3565b9050919050565b6110ee816110d3565b82525050565b600060208201905061110960008301846110e5565b92915050565b60008115159050919050565b6111248161110f565b811461112f57600080fd5b50565b6000813590506111418161111b565b92915050565b60006020828403121561115d5761115c611046565b5b600061116b84828501611132565b91505092915050565b61117d816110d3565b811461118857600080fd5b50565b60008135905061119a81611174565b92915050565b600080604083850312156111b7576111b6611046565b5b60006111c58582860161118b565b92505060206111d685828601611071565b9150509250929050565b600081519050919050565b600082825260208201905092915050565b6000819050602082019050919050565b600060029050919050565b600081905092915050565b6000819050919050565b61123581611050565b82525050565b6000611247838361122c565b60208301905092915050565b6000602082019050919050565b6112698161120c565b6112738184611217565b925061127e82611222565b8060005b838110156112af578151611296878261123b565b96506112a183611253565b925050600181019050611282565b505050505050565b60006112c38383611260565b60408301905092915050565b6000602082019050919050565b60006112e7826111e0565b6112f181856111eb565b93506112fc836111fc565b8060005b8381101561132d57815161131488826112b7565b975061131f836112cf565b925050600181019050611300565b5085935050505092915050565b6000602082019050818103600083015261135481846112dc565b905092915050565b600080fd5b600080fd5b600080fd5b60008083601f8401126113815761138061135c565b5b8235905067ffffffffffffffff81111561139e5761139d611361565b5b6020830191508360408202830111156113ba576113b9611366565b5b9250929050565b600080602083850312156113d8576113d7611046565b5b600083013567ffffffffffffffff8111156113f6576113f561104b565b5b6114028582860161136b565b92509250509250929050565b6114178161110f565b82525050565b6000602082019050611432600083018461140e565b92915050565b600081519050919050565b600082825260208201905092915050565b6000819050602082019050919050565b61146d816110d3565b82525050565b600061147f8383611464565b60208301905092915050565b6000602082019050919050565b60006114a382611438565b6114ad8185611443565b93506114b883611454565b8060005b838110156114e95781516114d08882611473565b97506114db8361148b565b9250506001810190506114bc565b5085935050505092915050565b600060208201905081810360008301526115108184611498565b905092915050565b60006020828403121561152e5761152d611046565b5b600061153c8482850161118b565b91505092915050565b6000806040838503121561155c5761155b611046565b5b600061156a85828601611071565b925050602061157b85828601611071565b9150509250929050565b61158e81611050565b82525050565b60006020820190506115a96000830184611585565b92915050565b600080fd5b600061012082840312156115cb576115ca6115af565b5b81905092915050565b60008083601f8401126115ea576115e961135c565b5b8235905067ffffffffffffffff81111561160757611606611361565b5b60208301915083602082028301111561162357611622611366565b5b9250929050565b60008060006040848603121561164357611642611046565b5b600084013567ffffffffffffffff8111156116615761166061104b565b5b61166d868287016115b4565b935050602084013567ffffffffffffffff81111561168e5761168d61104b565b5b61169a868287016115d4565b92509250509250925092565b600082825260208201905092915050565b7f4f776e61626c653a2063616c6c6572206973206e6f7420746865206f776e6572600082015250565b60006116ed6020836116a6565b91506116f8826116b7565b602082019050919050565b6000602082019050818103600083015261171c816116e0565b9050919050565b600081905092915050565b50565b600061173e600083611723565b91506117498261172e565b600082019050919050565b600061175f82611731565b9150819050919050565b7f4f776e61626c653a206e6577206f776e657220697320746865207a65726f206160008201527f6464726573730000000000000000000000000000000000000000000000000000602082015250565b60006117c56026836116a6565b91506117d082611769565b604082019050919050565b600060208201905081810360008301526117f4816117b8565b9050919050565b7f4e487b7100000000000000000000000000000000000000000000000000000000600052603260045260246000fd5b600080fd5b600080fd5b600080fd5b6000808335600160200384360303811261185657611855611834565b5b83810192508235915060208301925067ffffffffffffffff82111561187e5761187d61182a565b5b6001820236038413156118945761189361182f565b5b509250929050565b600082825260208201905092915050565b82818337600083830152505050565b6000601f19601f8301169050919050565b60006118d9838561189c565b93506118e68385846118ad565b6118ef836118bc565b840190509392505050565b60006119096020840184611071565b905092915050565b6000808335600160200384360303811261192e5761192d611834565b5b83810192508235915060208301925067ffffffffffffffff8211156119565761195561182a565b5b60208202360384131561196c5761196b61182f565b5b509250929050565b600082825260208201905092915050565b600080fd5b60006119968385611974565b93507f07ffffffffffffffffffffffffffffffffffffffffffffffffffffffffffffff8311156119c9576119c8611985565b5b6020830292506119da8385846118ad565b82840190509392505050565b600061012083016119fa6000840184611839565b8583036000870152611a0d8382846118cd565b92505050611a1e6020840184611839565b8583036020870152611a318382846118cd565b92505050611a4260408401846118fa565b611a4f604086018261122c565b50611a5d6060840184611911565b8583036060870152611a7083828461198a565b92505050611a8160808401846118fa565b611a8e608086018261122c565b50611a9c60a08401846118fa565b611aa960a086018261122c565b50611ab760c08401846118fa565b611ac460c086018261122c565b50611ad260e0840184611839565b85830360e0870152611ae58382846118cd565b92505050611af76101008401846118fa565b611b0561010086018261122c565b508091505092915050565b6000608082019050611b2560008301876110e5565b611b3260208301866110e5565b8181036040830152611b4481856119e6565b9050611b536060830184611585565b95945050505050565b600082825260208201905092915050565b6000819050919050565b6000611b866020840184611132565b905092915050565b611b978161110f565b82525050565b600082356001604003833603038112611bb957611bb8611834565b5b82810191505092915050565b60008083356001602003843603038112611be257611be1611834565b5b83810192508235915060208301925067ffffffffffffffff821115611c0a57611c0961182a565b5b602082023603841315611c2057611c1f61182f565b5b509250929050565b600082825260208201905092915050565b6000819050919050565b6000611c4e826110b3565b9050919050565b611c5e81611c43565b82525050565b6000611c708383611c55565b60208301905092915050565b611c8581611c43565b8114611c9057600080fd5b50565b600081359050611ca281611c7c565b92915050565b6000611cb76020840184611c93565b905092915050565b6000602082019050919050565b6000611cd88385611c28565b9350611ce382611c39565b8060005b85811015611d1c57611cf98284611ca8565b611d038882611c64565b9750611d0e83611cbf565b925050600181019050611ce7565b5085925050509392505050565b600060408301611d3c6000840184611bc5565b8583036000870152611d4f838284611ccc565b92505050611d606020840184611911565b8583036020870152611d7383828461198a565b925050508091505092915050565b600060608301611d9460008401846118fa565b611da1600086018261122c565b50611daf6020840184611b77565b611dbc6020860182611b8e565b50611dca6040840184611b9d565b8482036040860152611ddc8282611d29565b9150508091505092915050565b6000611df58383611d81565b905092915050565b600082356001606003833603038112611e1957611e18611834565b5b82810191505092915050565b6000602082019050919050565b6000611e3e8385611b5c565b935083602084028501611e5084611b6d565b8060005b87811015611e94578484038952611e6b8284611dfd565b611e758582611de9565b9450611e8083611e25565b925060208a01995050600181019050611e54565b50829750879450505050509392505050565b6000606082019050611ebb60008301876110e5565b611ec860208301866110e5565b8181036040830152611edb818486611e32565b905095945050505050565b7f455243313136373a20637265617465206661696c656400000000000000000000600082015250565b6000611f1c6016836116a6565b9150611f2782611ee6565b602082019050919050565b60006020820190508181036000830152611f4b81611f0f565b905091905056fea264697066735822122026eba9cad002a91b947ad27e3b16a9bfd3359ba2e5ee39355b1e6759cb5711a664736f6c634300080c0033",
  "immutableReferences": {
    "3365": [
      {
        "length": 32,
        "start": 1475
      },
      {
        "length": 32,
        "start": 2791
      }
    ],
    "3367": [
      {
        "length": 32,
        "start": 1997
      },
      {
        "length": 32,
        "start": 2836
      }
    ]
  },
  "source": "// contracts/MintSplitFactoryV1.sol\n// SPDX-License-Identifier: MIT\npragma solidity ^0.8.0;\n\nimport \"@openzeppelin/contracts/access/Ownable.sol\";\nimport \"@openzeppelin/contracts/proxy/Clones.sol\";\nimport \"./MintSplitSharedLibV1.sol\";\nimport \"./MintSplitERC721.sol\";\nimport \"./RevenueSplitter.sol\";\n\ncontract MintSplitFactoryV1 is Ownable {\n    address public immutable erc721Implementation;\n    address public immutable revenueSplitterImplementation;\n    bool public isPaused = false;\n\n    address[] public projects;\n    uint[2][] public packages; // [limit, fee]\n    mapping(address => address[]) public userProjects;\n\n    event ProjectCreated(address indexed project, address indexed payment, address indexed owner);\n\n    constructor(address _erc721Implementation, address _revenueSplitterImplementation, uint fee, uint limit) {\n        erc721Implementation = _erc721Implementation;\n        revenueSplitterImplementation = _revenueSplitterImplementation;\n        packages = [\n            [limit, fee]\n        ];\n    }\n\n    // External\n    function createProject(\n        MintSplitSharedLibV1.ProjectParams calldata _params,\n        MintSplitSharedLibV1.PaymentSplitConfig[] calldata _splitConfigs\n    )\n        external\n        payable\n    {\n        require(!isPaused);\n        \n        uint[2] storage package = packages[_params.package];\n        require(msg.value == package[1]);\n\n        MintSplitERC721 newProject = MintSplitERC721(Clones.clone(erc721Implementation));\n        RevenueSplitter newRevenueSplitter = RevenueSplitter(Clones.clone(revenueSplitterImplementation));\n        \n        address newProjectAddr = address(newProject);\n        address newRevenueSplitterAddr = address(newRevenueSplitter);\n        \n        newProject.initialize(msg.sender, newRevenueSplitterAddr, _params, package[0]);\n        newRevenueSplitter.initialize(msg.sender, newProjectAddr, _splitConfigs);\n\n        projects.push(newProjectAddr);\n        userProjects[msg.sender].push(newProjectAddr);\n        \n        emit ProjectCreated(newProjectAddr, newRevenueSplitterAddr, msg.sender);\n    }\n\n    function getProjects() external view returns (address[] memory) {\n        return projects;\n    }\n\n    function getUserProjects(address user) external view returns (address[] memory) {\n        return userProjects[user];\n    }\n\n    function getPackages() external view returns (uint[2][] memory) {\n        return packages;\n    }\n\n    // Owner\n    function setIsPaused(bool _isPaused) public onlyOwner {\n        isPaused = _isPaused;\n    }\n\n    function withdraw() public payable onlyOwner {\n        (bool success, ) = payable(msg.sender).call{\n            value: address(this).balance\n        }(\"\");\n        require(success);\n    }\n\n    function setPackages(uint[2][] calldata _newPackages) public onlyOwner {\n        packages = _newPackages;\n    }\n}",
  "sourcePath": "/Users/justinfsl/Dev/misc/mintsplit/solidity/contracts/MintSplitFactoryV1.sol",
  "compiler": {
    "name": "solc",
    "version": "0.8.12+commit.f00d7308.Emscripten.clang"
  },
  "schemaVersion": "3.4.4",
  "updatedAt": "2022-03-08T21:55:38.123Z",
  "networkType": "ethereum",
  "devdoc": {
    "kind": "dev",
    "methods": {
      "owner()": {
        "details": "Returns the address of the current owner."
      },
      "renounceOwnership()": {
        "details": "Leaves the contract without owner. It will not be possible to call `onlyOwner` functions anymore. Can only be called by the current owner. NOTE: Renouncing ownership will leave the contract without an owner, thereby removing any functionality that is only available to the owner."
      },
      "transferOwnership(address)": {
        "details": "Transfers ownership of the contract to a new account (`newOwner`). Can only be called by the current owner."
      }
    },
    "version": 1
  },
  "userdoc": {
    "kind": "user",
    "methods": {},
    "version": 1
  }
}