{
  "contractName": "MintSplitFactoryV1",
  "abi": [
    {
      "inputs": [
        {
          "internalType": "address",
          "name": "_erc721Implementation",
          "type": "address"
        },
        {
          "internalType": "address",
          "name": "_revenueSplitterImplementation",
          "type": "address"
        },
        {
          "internalType": "uint256",
          "name": "_deploymentFee",
          "type": "uint256"
        }
      ],
      "stateMutability": "nonpayable",
      "type": "constructor"
    },
    {
      "anonymous": false,
      "inputs": [
        {
          "indexed": true,
          "internalType": "address",
          "name": "previousOwner",
          "type": "address"
        },
        {
          "indexed": true,
          "internalType": "address",
          "name": "newOwner",
          "type": "address"
        }
      ],
      "name": "OwnershipTransferred",
      "type": "event"
    },
    {
      "anonymous": false,
      "inputs": [
        {
          "indexed": true,
          "internalType": "address",
          "name": "project",
          "type": "address"
        },
        {
          "indexed": true,
          "internalType": "address",
          "name": "payment",
          "type": "address"
        },
        {
          "indexed": true,
          "internalType": "address",
          "name": "owner",
          "type": "address"
        }
      ],
      "name": "ProjectCreated",
      "type": "event"
    },
    {
      "inputs": [],
      "name": "deploymentFee",
      "outputs": [
        {
          "internalType": "uint256",
          "name": "",
          "type": "uint256"
        }
      ],
      "stateMutability": "view",
      "type": "function",
      "constant": true
    },
    {
      "inputs": [],
      "name": "erc721Implementation",
      "outputs": [
        {
          "internalType": "address",
          "name": "",
          "type": "address"
        }
      ],
      "stateMutability": "view",
      "type": "function",
      "constant": true
    },
    {
      "inputs": [],
      "name": "isPaused",
      "outputs": [
        {
          "internalType": "bool",
          "name": "",
          "type": "bool"
        }
      ],
      "stateMutability": "view",
      "type": "function",
      "constant": true
    },
    {
      "inputs": [],
      "name": "owner",
      "outputs": [
        {
          "internalType": "address",
          "name": "",
          "type": "address"
        }
      ],
      "stateMutability": "view",
      "type": "function",
      "constant": true
    },
    {
      "inputs": [
        {
          "internalType": "uint256",
          "name": "",
          "type": "uint256"
        }
      ],
      "name": "projects",
      "outputs": [
        {
          "internalType": "address",
          "name": "",
          "type": "address"
        }
      ],
      "stateMutability": "view",
      "type": "function",
      "constant": true
    },
    {
      "inputs": [],
      "name": "renounceOwnership",
      "outputs": [],
      "stateMutability": "nonpayable",
      "type": "function"
    },
    {
      "inputs": [],
      "name": "revenueSplitterImplementation",
      "outputs": [
        {
          "internalType": "address",
          "name": "",
          "type": "address"
        }
      ],
      "stateMutability": "view",
      "type": "function",
      "constant": true
    },
    {
      "inputs": [
        {
          "internalType": "address",
          "name": "newOwner",
          "type": "address"
        }
      ],
      "name": "transferOwnership",
      "outputs": [],
      "stateMutability": "nonpayable",
      "type": "function"
    },
    {
      "inputs": [
        {
          "internalType": "address",
          "name": "",
          "type": "address"
        },
        {
          "internalType": "uint256",
          "name": "",
          "type": "uint256"
        }
      ],
      "name": "userProjects",
      "outputs": [
        {
          "internalType": "address",
          "name": "",
          "type": "address"
        }
      ],
      "stateMutability": "view",
      "type": "function",
      "constant": true
    },
    {
      "inputs": [
        {
          "components": [
            {
              "internalType": "string",
              "name": "projectName",
              "type": "string"
            },
            {
              "internalType": "string",
              "name": "symbol",
              "type": "string"
            },
            {
              "internalType": "uint256",
              "name": "contentCount",
              "type": "uint256"
            },
            {
              "internalType": "uint256[]",
              "name": "supplyLimits",
              "type": "uint256[]"
            },
            {
              "internalType": "uint256",
              "name": "mintPrice",
              "type": "uint256"
            },
            {
              "internalType": "uint256",
              "name": "mintLimit",
              "type": "uint256"
            },
            {
              "internalType": "uint256",
              "name": "releaseTime",
              "type": "uint256"
            },
            {
              "internalType": "string",
              "name": "baseURI",
              "type": "string"
            }
          ],
          "internalType": "struct MintSplitSharedLibV1.ProjectParams",
          "name": "_params",
          "type": "tuple"
        },
        {
          "components": [
            {
              "internalType": "uint256",
              "name": "contentId",
              "type": "uint256"
            },
            {
              "internalType": "bool",
              "name": "isMint",
              "type": "bool"
            },
            {
              "components": [
                {
                  "internalType": "address payable[]",
                  "name": "recipients",
                  "type": "address[]"
                },
                {
                  "internalType": "uint256[]",
                  "name": "bps",
                  "type": "uint256[]"
                }
              ],
              "internalType": "struct MintSplitSharedLibV1.PaymentSplit",
              "name": "split",
              "type": "tuple"
            }
          ],
          "internalType": "struct MintSplitSharedLibV1.PaymentSplitConfig[]",
          "name": "_splitConfigs",
          "type": "tuple[]"
        }
      ],
      "name": "createProject",
      "outputs": [],
      "stateMutability": "payable",
      "type": "function",
      "payable": true
    },
    {
      "inputs": [],
      "name": "getProjects",
      "outputs": [
        {
          "internalType": "address[]",
          "name": "",
          "type": "address[]"
        }
      ],
      "stateMutability": "view",
      "type": "function",
      "constant": true
    },
    {
      "inputs": [
        {
          "internalType": "address",
          "name": "user",
          "type": "address"
        }
      ],
      "name": "getUserProjects",
      "outputs": [
        {
          "internalType": "address[]",
          "name": "",
          "type": "address[]"
        }
      ],
      "stateMutability": "view",
      "type": "function",
      "constant": true
    },
    {
      "inputs": [
        {
          "internalType": "bool",
          "name": "_isPaused",
          "type": "bool"
        }
      ],
      "name": "setIsPaused",
      "outputs": [],
      "stateMutability": "nonpayable",
      "type": "function"
    },
    {
      "inputs": [
        {
          "internalType": "uint256",
          "name": "_newDeploymentFee",
          "type": "uint256"
        }
      ],
      "name": "setDeploymentFee",
      "outputs": [],
      "stateMutability": "nonpayable",
      "type": "function"
    },
    {
      "inputs": [],
      "name": "withdraw",
      "outputs": [],
      "stateMutability": "payable",
      "type": "function",
      "payable": true
    }
  ],
  "bytecode": "0x60c06040526000600260006101000a81548160ff0219169083151502179055503480156200002c57600080fd5b5060405162001d7138038062001d7183398181016040528101906200005291906200025b565b6200007262000066620000ea60201b60201c565b620000f260201b60201c565b8273ffffffffffffffffffffffffffffffffffffffff1660808173ffffffffffffffffffffffffffffffffffffffff16815250508173ffffffffffffffffffffffffffffffffffffffff1660a08173ffffffffffffffffffffffffffffffffffffffff168152505080600181905550505050620002b7565b600033905090565b60008060009054906101000a900473ffffffffffffffffffffffffffffffffffffffff169050816000806101000a81548173ffffffffffffffffffffffffffffffffffffffff021916908373ffffffffffffffffffffffffffffffffffffffff1602179055508173ffffffffffffffffffffffffffffffffffffffff168173ffffffffffffffffffffffffffffffffffffffff167f8be0079c531659141344cd1fd0a4f28419497f9722a3daafe3b4186f6b6457e060405160405180910390a35050565b600080fd5b600073ffffffffffffffffffffffffffffffffffffffff82169050919050565b6000620001e882620001bb565b9050919050565b620001fa81620001db565b81146200020657600080fd5b50565b6000815190506200021a81620001ef565b92915050565b6000819050919050565b620002358162000220565b81146200024157600080fd5b50565b60008151905062000255816200022a565b92915050565b600080600060608486031215620002775762000276620001b6565b5b6000620002878682870162000209565b93505060206200029a8682870162000209565b9250506040620002ad8682870162000244565b9150509250925092565b60805160a051611a86620002eb600039600081816106aa015261094c01526000818161057b015261067d0152611a866000f3fe6080604052600436106100e85760003560e01c806393ab83e61161008a578063dcc6012811610059578063dcc60128146102a2578063e32e723c146102cd578063f2cff57f1461030a578063f2fde38b14610335576100e8565b806393ab83e614610207578063b187bd2614610223578063b8a216901461024e578063d002462b14610279576100e8565b80633ccfd60b116100c65780633ccfd60b146101905780634a80a3191461019a578063715018a6146101c55780638da5cb5b146101dc576100e8565b8063107046bd146100ed578063240976bf1461012a5780632fa9c00714610153575b600080fd5b3480156100f957600080fd5b50610114600480360381019061010f9190610e2e565b61035e565b6040516101219190610e9c565b60405180910390f35b34801561013657600080fd5b50610151600480360381019061014c9190610eef565b61039d565b005b34801561015f57600080fd5b5061017a60048036038101906101759190610f48565b610436565b6040516101879190610e9c565b60405180910390f35b610198610484565b005b3480156101a657600080fd5b506101af610579565b6040516101bc9190610e9c565b60405180910390f35b3480156101d157600080fd5b506101da61059d565b005b3480156101e857600080fd5b506101f1610625565b6040516101fe9190610e9c565b60405180910390f35b610221600480360381019061021c9190611012565b61064e565b005b34801561022f57600080fd5b50610238610937565b604051610245919061109d565b60405180910390f35b34801561025a57600080fd5b5061026361094a565b6040516102709190610e9c565b60405180910390f35b34801561028557600080fd5b506102a0600480360381019061029b9190610e2e565b61096e565b005b3480156102ae57600080fd5b506102b76109f4565b6040516102c49190611176565b60405180910390f35b3480156102d957600080fd5b506102f460048036038101906102ef9190611198565b610a82565b6040516103019190611176565b60405180910390f35b34801561031657600080fd5b5061031f610b4f565b60405161032c91906111d4565b60405180910390f35b34801561034157600080fd5b5061035c60048036038101906103579190611198565b610b55565b005b6003818154811061036e57600080fd5b906000526020600020016000915054906101000a900473ffffffffffffffffffffffffffffffffffffffff1681565b6103a5610c4d565b73ffffffffffffffffffffffffffffffffffffffff166103c3610625565b73ffffffffffffffffffffffffffffffffffffffff1614610419576040517f08c379a00000000000000000000000000000000000000000000000000000000081526004016104109061124c565b60405180910390fd5b80600260006101000a81548160ff02191690831515021790555050565b6004602052816000526040600020818154811061045257600080fd5b906000526020600020016000915091509054906101000a900473ffffffffffffffffffffffffffffffffffffffff1681565b61048c610c4d565b73ffffffffffffffffffffffffffffffffffffffff166104aa610625565b73ffffffffffffffffffffffffffffffffffffffff1614610500576040517f08c379a00000000000000000000000000000000000000000000000000000000081526004016104f79061124c565b60405180910390fd5b60003373ffffffffffffffffffffffffffffffffffffffff16476040516105269061129d565b60006040518083038185875af1925050503d8060008114610563576040519150601f19603f3d011682016040523d82523d6000602084013e610568565b606091505b505090508061057657600080fd5b50565b7f000000000000000000000000000000000000000000000000000000000000000081565b6105a5610c4d565b73ffffffffffffffffffffffffffffffffffffffff166105c3610625565b73ffffffffffffffffffffffffffffffffffffffff1614610619576040517f08c379a00000000000000000000000000000000000000000000000000000000081526004016106109061124c565b60405180910390fd5b6106236000610c55565b565b60008060009054906101000a900473ffffffffffffffffffffffffffffffffffffffff16905090565b600260009054906101000a900460ff161561066857600080fd5b600154341461067657600080fd5b60006106a17f0000000000000000000000000000000000000000000000000000000000000000610d19565b905060006106ce7f0000000000000000000000000000000000000000000000000000000000000000610d19565b9050600082905060008290508373ffffffffffffffffffffffffffffffffffffffff1663c91435bc33838a6040518463ffffffff1660e01b81526004016107179392919061158a565b600060405180830381600087803b15801561073157600080fd5b505af1158015610745573d6000803e3d6000fd5b505050508273ffffffffffffffffffffffffffffffffffffffff166371911348338489896040518563ffffffff1660e01b81526004016107889493929190611912565b600060405180830381600087803b1580156107a257600080fd5b505af11580156107b6573d6000803e3d6000fd5b505050506003829080600181540180825580915050600190039060005260206000200160009091909190916101000a81548173ffffffffffffffffffffffffffffffffffffffff021916908373ffffffffffffffffffffffffffffffffffffffff160217905550600460003373ffffffffffffffffffffffffffffffffffffffff1673ffffffffffffffffffffffffffffffffffffffff168152602001908152602001600020829080600181540180825580915050600190039060005260206000200160009091909190916101000a81548173ffffffffffffffffffffffffffffffffffffffff021916908373ffffffffffffffffffffffffffffffffffffffff1602179055503373ffffffffffffffffffffffffffffffffffffffff168173ffffffffffffffffffffffffffffffffffffffff168373ffffffffffffffffffffffffffffffffffffffff167f68ab451e4d0424687d94df06023bdd9ae86be1fecd2504ce2c8b8dfcc37ab70a60405160405180910390a450505050505050565b600260009054906101000a900460ff1681565b7f000000000000000000000000000000000000000000000000000000000000000081565b610976610c4d565b73ffffffffffffffffffffffffffffffffffffffff16610994610625565b73ffffffffffffffffffffffffffffffffffffffff16146109ea576040517f08c379a00000000000000000000000000000000000000000000000000000000081526004016109e19061124c565b60405180910390fd5b8060018190555050565b60606003805480602002602001604051908101604052809291908181526020018280548015610a7857602002820191906000526020600020905b8160009054906101000a900473ffffffffffffffffffffffffffffffffffffffff1673ffffffffffffffffffffffffffffffffffffffff1681526020019060010190808311610a2e575b5050505050905090565b6060600460008373ffffffffffffffffffffffffffffffffffffffff1673ffffffffffffffffffffffffffffffffffffffff168152602001908152602001600020805480602002602001604051908101604052809291908181526020018280548015610b4357602002820191906000526020600020905b8160009054906101000a900473ffffffffffffffffffffffffffffffffffffffff1673ffffffffffffffffffffffffffffffffffffffff1681526020019060010190808311610af9575b50505050509050919050565b60015481565b610b5d610c4d565b73ffffffffffffffffffffffffffffffffffffffff16610b7b610625565b73ffffffffffffffffffffffffffffffffffffffff1614610bd1576040517f08c379a0000000000000000000000000000000000000000000000000000000008152600401610bc89061124c565b60405180910390fd5b600073ffffffffffffffffffffffffffffffffffffffff168173ffffffffffffffffffffffffffffffffffffffff161415610c41576040517f08c379a0000000000000000000000000000000000000000000000000000000008152600401610c38906119c4565b60405180910390fd5b610c4a81610c55565b50565b600033905090565b60008060009054906101000a900473ffffffffffffffffffffffffffffffffffffffff169050816000806101000a81548173ffffffffffffffffffffffffffffffffffffffff021916908373ffffffffffffffffffffffffffffffffffffffff1602179055508173ffffffffffffffffffffffffffffffffffffffff168173ffffffffffffffffffffffffffffffffffffffff167f8be0079c531659141344cd1fd0a4f28419497f9722a3daafe3b4186f6b6457e060405160405180910390a35050565b60006040517f3d602d80600a3d3981f3363d3d373d3d3d363d7300000000000000000000000081528260601b60148201527f5af43d82803e903d91602b57fd5bf3000000000000000000000000000000000060288201526037816000f0915050600073ffffffffffffffffffffffffffffffffffffffff168173ffffffffffffffffffffffffffffffffffffffff161415610de9576040517f08c379a0000000000000000000000000000000000000000000000000000000008152600401610de090611a30565b60405180910390fd5b919050565b600080fd5b600080fd5b6000819050919050565b610e0b81610df8565b8114610e1657600080fd5b50565b600081359050610e2881610e02565b92915050565b600060208284031215610e4457610e43610dee565b5b6000610e5284828501610e19565b91505092915050565b600073ffffffffffffffffffffffffffffffffffffffff82169050919050565b6000610e8682610e5b565b9050919050565b610e9681610e7b565b82525050565b6000602082019050610eb16000830184610e8d565b92915050565b60008115159050919050565b610ecc81610eb7565b8114610ed757600080fd5b50565b600081359050610ee981610ec3565b92915050565b600060208284031215610f0557610f04610dee565b5b6000610f1384828501610eda565b91505092915050565b610f2581610e7b565b8114610f3057600080fd5b50565b600081359050610f4281610f1c565b92915050565b60008060408385031215610f5f57610f5e610dee565b5b6000610f6d85828601610f33565b9250506020610f7e85828601610e19565b9150509250929050565b600080fd5b60006101008284031215610fa457610fa3610f88565b5b81905092915050565b600080fd5b600080fd5b600080fd5b60008083601f840112610fd257610fd1610fad565b5b8235905067ffffffffffffffff811115610fef57610fee610fb2565b5b60208301915083602082028301111561100b5761100a610fb7565b5b9250929050565b60008060006040848603121561102b5761102a610dee565b5b600084013567ffffffffffffffff81111561104957611048610df3565b5b61105586828701610f8d565b935050602084013567ffffffffffffffff81111561107657611075610df3565b5b61108286828701610fbc565b92509250509250925092565b61109781610eb7565b82525050565b60006020820190506110b2600083018461108e565b92915050565b600081519050919050565b600082825260208201905092915050565b6000819050602082019050919050565b6110ed81610e7b565b82525050565b60006110ff83836110e4565b60208301905092915050565b6000602082019050919050565b6000611123826110b8565b61112d81856110c3565b9350611138836110d4565b8060005b8381101561116957815161115088826110f3565b975061115b8361110b565b92505060018101905061113c565b5085935050505092915050565b600060208201905081810360008301526111908184611118565b905092915050565b6000602082840312156111ae576111ad610dee565b5b60006111bc84828501610f33565b91505092915050565b6111ce81610df8565b82525050565b60006020820190506111e960008301846111c5565b92915050565b600082825260208201905092915050565b7f4f776e61626c653a2063616c6c6572206973206e6f7420746865206f776e6572600082015250565b60006112366020836111ef565b915061124182611200565b602082019050919050565b6000602082019050818103600083015261126581611229565b9050919050565b600081905092915050565b50565b600061128760008361126c565b915061129282611277565b600082019050919050565b60006112a88261127a565b9150819050919050565b600080fd5b600080fd5b600080fd5b600080833560016020038436030381126112de576112dd6112bc565b5b83810192508235915060208301925067ffffffffffffffff821115611306576113056112b2565b5b60018202360384131561131c5761131b6112b7565b5b509250929050565b600082825260208201905092915050565b82818337600083830152505050565b6000601f19601f8301169050919050565b60006113618385611324565b935061136e838584611335565b61137783611344565b840190509392505050565b60006113916020840184610e19565b905092915050565b6113a281610df8565b82525050565b600080833560016020038436030381126113c5576113c46112bc565b5b83810192508235915060208301925067ffffffffffffffff8211156113ed576113ec6112b2565b5b602082023603841315611403576114026112b7565b5b509250929050565b600082825260208201905092915050565b600080fd5b600061142d838561140b565b93507f07ffffffffffffffffffffffffffffffffffffffffffffffffffffffffffffff8311156114605761145f61141c565b5b602083029250611471838584611335565b82840190509392505050565b6000610100830161149160008401846112c1565b85830360008701526114a4838284611355565b925050506114b560208401846112c1565b85830360208701526114c8838284611355565b925050506114d96040840184611382565b6114e66040860182611399565b506114f460608401846113a8565b8583036060870152611507838284611421565b925050506115186080840184611382565b6115256080860182611399565b5061153360a0840184611382565b61154060a0860182611399565b5061154e60c0840184611382565b61155b60c0860182611399565b5061156960e08401846112c1565b85830360e087015261157c838284611355565b925050508091505092915050565b600060608201905061159f6000830186610e8d565b6115ac6020830185610e8d565b81810360408301526115be818461147d565b9050949350505050565b600082825260208201905092915050565b6000819050919050565b60006115f26020840184610eda565b905092915050565b61160381610eb7565b82525050565b600082356001604003833603038112611625576116246112bc565b5b82810191505092915050565b6000808335600160200384360303811261164e5761164d6112bc565b5b83810192508235915060208301925067ffffffffffffffff821115611676576116756112b2565b5b60208202360384131561168c5761168b6112b7565b5b509250929050565b600082825260208201905092915050565b6000819050919050565b60006116ba82610e5b565b9050919050565b6116ca816116af565b82525050565b60006116dc83836116c1565b60208301905092915050565b6116f1816116af565b81146116fc57600080fd5b50565b60008135905061170e816116e8565b92915050565b600061172360208401846116ff565b905092915050565b6000602082019050919050565b60006117448385611694565b935061174f826116a5565b8060005b85811015611788576117658284611714565b61176f88826116d0565b975061177a8361172b565b925050600181019050611753565b5085925050509392505050565b6000604083016117a86000840184611631565b85830360008701526117bb838284611738565b925050506117cc60208401846113a8565b85830360208701526117df838284611421565b925050508091505092915050565b6000606083016118006000840184611382565b61180d6000860182611399565b5061181b60208401846115e3565b61182860208601826115fa565b506118366040840184611609565b84820360408601526118488282611795565b9150508091505092915050565b600061186183836117ed565b905092915050565b600082356001606003833603038112611885576118846112bc565b5b82810191505092915050565b6000602082019050919050565b60006118aa83856115c8565b9350836020840285016118bc846115d9565b8060005b878110156119005784840389526118d78284611869565b6118e18582611855565b94506118ec83611891565b925060208a019950506001810190506118c0565b50829750879450505050509392505050565b60006060820190506119276000830187610e8d565b6119346020830186610e8d565b818103604083015261194781848661189e565b905095945050505050565b7f4f776e61626c653a206e6577206f776e657220697320746865207a65726f206160008201527f6464726573730000000000000000000000000000000000000000000000000000602082015250565b60006119ae6026836111ef565b91506119b982611952565b604082019050919050565b600060208201905081810360008301526119dd816119a1565b9050919050565b7f455243313136373a20637265617465206661696c656400000000000000000000600082015250565b6000611a1a6016836111ef565b9150611a25826119e4565b602082019050919050565b60006020820190508181036000830152611a4981611a0d565b905091905056fea264697066735822122036f2921e3b0de553491e50c1685e840c00798247f2555efe2771dcce4f6541ed64736f6c634300080c0033",
  "immutableReferences": {
    "3347": [
      {
        "length": 32,
        "start": 1403
      },
      {
        "length": 32,
        "start": 1661
      }
    ],
    "3349": [
      {
        "length": 32,
        "start": 1706
      },
      {
        "length": 32,
        "start": 2380
      }
    ]
  },
  "source": "// contracts/MintSplitFactoryV1.sol\n// SPDX-License-Identifier: MIT\npragma solidity ^0.8.0;\n\nimport \"@openzeppelin/contracts/access/Ownable.sol\";\nimport \"@openzeppelin/contracts/proxy/Clones.sol\";\nimport \"./MintSplitSharedLibV1.sol\";\nimport \"./MintSplitERC721.sol\";\nimport \"./RevenueSplitter.sol\";\n\ncontract MintSplitFactoryV1 is Ownable {\n    address public immutable erc721Implementation;\n    address public immutable revenueSplitterImplementation;\n    uint public deploymentFee;\n    bool public isPaused = false;\n\n    address[] public projects;\n    mapping(address => address[]) public userProjects;\n\n    event ProjectCreated(address indexed project, address indexed payment, address indexed owner);\n\n    constructor(address _erc721Implementation, address _revenueSplitterImplementation, uint _deploymentFee) {\n        erc721Implementation = _erc721Implementation;\n        revenueSplitterImplementation = _revenueSplitterImplementation;\n        deploymentFee = _deploymentFee;\n    }\n\n    // External\n    function createProject(\n        MintSplitSharedLibV1.ProjectParams calldata _params,\n        MintSplitSharedLibV1.PaymentSplitConfig[] calldata _splitConfigs\n    )\n        external\n        payable\n    {\n        require(!isPaused);\n        require(msg.value == deploymentFee);\n        MintSplitERC721 newProject = MintSplitERC721(Clones.clone(erc721Implementation));\n        RevenueSplitter newRevenueSplitter = RevenueSplitter(Clones.clone(revenueSplitterImplementation));\n        \n        address newProjectAddr = address(newProject);\n        address newRevenueSplitterAddr = address(newRevenueSplitter);\n        \n        newProject.initialize(msg.sender, newRevenueSplitterAddr, _params);\n        newRevenueSplitter.initialize(msg.sender, newProjectAddr, _splitConfigs);\n\n        projects.push(newProjectAddr);\n        userProjects[msg.sender].push(newProjectAddr);\n        \n        emit ProjectCreated(newProjectAddr, newRevenueSplitterAddr, msg.sender);\n    }\n\n    function getProjects() external view returns (address[] memory) {\n        return projects;\n    }\n\n    function getUserProjects(address user) external view returns (address[] memory) {\n        return userProjects[user];\n    }\n\n    // Owner\n    function setIsPaused(bool _isPaused) public onlyOwner {\n        isPaused = _isPaused;\n    }\n\n    function setDeploymentFee(uint _newDeploymentFee) public onlyOwner {\n        deploymentFee = _newDeploymentFee;\n    }\n\n    function withdraw() public payable onlyOwner {\n        (bool success, ) = payable(msg.sender).call{\n            value: address(this).balance\n        }(\"\");\n        require(success);\n    }\n}",
  "sourcePath": "/Users/justinfsl/Dev/misc/mintsplit/solidity/contracts/MintSplitFactoryV1.sol",
  "compiler": {
    "name": "solc",
    "version": "0.8.12+commit.f00d7308.Emscripten.clang"
  },
  "schemaVersion": "3.3.4",
  "updatedAt": "2022-03-03T18:38:31.136Z",
  "networkType": "ethereum",
  "devdoc": {
    "kind": "dev",
    "methods": {
      "owner()": {
        "details": "Returns the address of the current owner."
      },
      "renounceOwnership()": {
        "details": "Leaves the contract without owner. It will not be possible to call `onlyOwner` functions anymore. Can only be called by the current owner. NOTE: Renouncing ownership will leave the contract without an owner, thereby removing any functionality that is only available to the owner."
      },
      "transferOwnership(address)": {
        "details": "Transfers ownership of the contract to a new account (`newOwner`). Can only be called by the current owner."
      }
    },
    "version": 1
  },
  "userdoc": {
    "kind": "user",
    "methods": {},
    "version": 1
  }
}