{
  "contractName": "MintSplitERC721",
  "abi": [
    {
      "inputs": [],
      "stateMutability": "nonpayable",
      "type": "constructor"
    },
    {
      "anonymous": false,
      "inputs": [
        {
          "indexed": true,
          "internalType": "address",
          "name": "owner",
          "type": "address"
        },
        {
          "indexed": true,
          "internalType": "address",
          "name": "approved",
          "type": "address"
        },
        {
          "indexed": true,
          "internalType": "uint256",
          "name": "tokenId",
          "type": "uint256"
        }
      ],
      "name": "Approval",
      "type": "event"
    },
    {
      "anonymous": false,
      "inputs": [
        {
          "indexed": true,
          "internalType": "address",
          "name": "owner",
          "type": "address"
        },
        {
          "indexed": true,
          "internalType": "address",
          "name": "operator",
          "type": "address"
        },
        {
          "indexed": false,
          "internalType": "bool",
          "name": "approved",
          "type": "bool"
        }
      ],
      "name": "ApprovalForAll",
      "type": "event"
    },
    {
      "anonymous": false,
      "inputs": [
        {
          "indexed": true,
          "internalType": "address",
          "name": "previousOwner",
          "type": "address"
        },
        {
          "indexed": true,
          "internalType": "address",
          "name": "newOwner",
          "type": "address"
        }
      ],
      "name": "OwnershipTransferred",
      "type": "event"
    },
    {
      "anonymous": false,
      "inputs": [
        {
          "indexed": true,
          "internalType": "address",
          "name": "from",
          "type": "address"
        },
        {
          "indexed": true,
          "internalType": "address",
          "name": "to",
          "type": "address"
        },
        {
          "indexed": true,
          "internalType": "uint256",
          "name": "tokenId",
          "type": "uint256"
        }
      ],
      "name": "Transfer",
      "type": "event"
    },
    {
      "inputs": [
        {
          "internalType": "address",
          "name": "to",
          "type": "address"
        },
        {
          "internalType": "uint256",
          "name": "tokenId",
          "type": "uint256"
        }
      ],
      "name": "approve",
      "outputs": [],
      "stateMutability": "nonpayable",
      "type": "function"
    },
    {
      "inputs": [
        {
          "internalType": "address",
          "name": "",
          "type": "address"
        }
      ],
      "name": "balance",
      "outputs": [
        {
          "internalType": "uint256",
          "name": "",
          "type": "uint256"
        }
      ],
      "stateMutability": "view",
      "type": "function",
      "constant": true
    },
    {
      "inputs": [
        {
          "internalType": "address",
          "name": "owner",
          "type": "address"
        }
      ],
      "name": "balanceOf",
      "outputs": [
        {
          "internalType": "uint256",
          "name": "",
          "type": "uint256"
        }
      ],
      "stateMutability": "view",
      "type": "function",
      "constant": true
    },
    {
      "inputs": [
        {
          "internalType": "uint256",
          "name": "",
          "type": "uint256"
        }
      ],
      "name": "contentSupply",
      "outputs": [
        {
          "internalType": "uint256",
          "name": "_value",
          "type": "uint256"
        }
      ],
      "stateMutability": "view",
      "type": "function",
      "constant": true
    },
    {
      "inputs": [
        {
          "internalType": "uint256",
          "name": "",
          "type": "uint256"
        }
      ],
      "name": "contentURI",
      "outputs": [
        {
          "internalType": "string",
          "name": "",
          "type": "string"
        }
      ],
      "stateMutability": "view",
      "type": "function",
      "constant": true
    },
    {
      "inputs": [
        {
          "internalType": "uint256",
          "name": "",
          "type": "uint256"
        }
      ],
      "name": "editions",
      "outputs": [
        {
          "internalType": "uint256",
          "name": "",
          "type": "uint256"
        }
      ],
      "stateMutability": "view",
      "type": "function",
      "constant": true
    },
    {
      "inputs": [
        {
          "internalType": "uint256",
          "name": "tokenId",
          "type": "uint256"
        }
      ],
      "name": "getApproved",
      "outputs": [
        {
          "internalType": "address",
          "name": "",
          "type": "address"
        }
      ],
      "stateMutability": "view",
      "type": "function",
      "constant": true
    },
    {
      "inputs": [
        {
          "internalType": "address",
          "name": "owner",
          "type": "address"
        },
        {
          "internalType": "address",
          "name": "operator",
          "type": "address"
        }
      ],
      "name": "isApprovedForAll",
      "outputs": [
        {
          "internalType": "bool",
          "name": "",
          "type": "bool"
        }
      ],
      "stateMutability": "view",
      "type": "function",
      "constant": true
    },
    {
      "inputs": [],
      "name": "isPaused",
      "outputs": [
        {
          "internalType": "bool",
          "name": "",
          "type": "bool"
        }
      ],
      "stateMutability": "view",
      "type": "function",
      "constant": true
    },
    {
      "inputs": [],
      "name": "name",
      "outputs": [
        {
          "internalType": "string",
          "name": "",
          "type": "string"
        }
      ],
      "stateMutability": "view",
      "type": "function",
      "constant": true
    },
    {
      "inputs": [],
      "name": "owner",
      "outputs": [
        {
          "internalType": "address",
          "name": "",
          "type": "address"
        }
      ],
      "stateMutability": "view",
      "type": "function",
      "constant": true
    },
    {
      "inputs": [
        {
          "internalType": "uint256",
          "name": "tokenId",
          "type": "uint256"
        }
      ],
      "name": "ownerOf",
      "outputs": [
        {
          "internalType": "address",
          "name": "",
          "type": "address"
        }
      ],
      "stateMutability": "view",
      "type": "function",
      "constant": true
    },
    {
      "inputs": [],
      "name": "renounceOwnership",
      "outputs": [],
      "stateMutability": "nonpayable",
      "type": "function"
    },
    {
      "inputs": [
        {
          "internalType": "address",
          "name": "from",
          "type": "address"
        },
        {
          "internalType": "address",
          "name": "to",
          "type": "address"
        },
        {
          "internalType": "uint256",
          "name": "tokenId",
          "type": "uint256"
        }
      ],
      "name": "safeTransferFrom",
      "outputs": [],
      "stateMutability": "nonpayable",
      "type": "function"
    },
    {
      "inputs": [
        {
          "internalType": "address",
          "name": "from",
          "type": "address"
        },
        {
          "internalType": "address",
          "name": "to",
          "type": "address"
        },
        {
          "internalType": "uint256",
          "name": "tokenId",
          "type": "uint256"
        },
        {
          "internalType": "bytes",
          "name": "_data",
          "type": "bytes"
        }
      ],
      "name": "safeTransferFrom",
      "outputs": [],
      "stateMutability": "nonpayable",
      "type": "function"
    },
    {
      "inputs": [
        {
          "internalType": "address",
          "name": "operator",
          "type": "address"
        },
        {
          "internalType": "bool",
          "name": "approved",
          "type": "bool"
        }
      ],
      "name": "setApprovalForAll",
      "outputs": [],
      "stateMutability": "nonpayable",
      "type": "function"
    },
    {
      "inputs": [],
      "name": "symbol",
      "outputs": [
        {
          "internalType": "string",
          "name": "",
          "type": "string"
        }
      ],
      "stateMutability": "view",
      "type": "function",
      "constant": true
    },
    {
      "inputs": [
        {
          "internalType": "uint256",
          "name": "",
          "type": "uint256"
        }
      ],
      "name": "tokenContent",
      "outputs": [
        {
          "internalType": "uint256",
          "name": "",
          "type": "uint256"
        }
      ],
      "stateMutability": "view",
      "type": "function",
      "constant": true
    },
    {
      "inputs": [
        {
          "internalType": "uint256",
          "name": "",
          "type": "uint256"
        }
      ],
      "name": "tokenEdition",
      "outputs": [
        {
          "internalType": "uint256",
          "name": "",
          "type": "uint256"
        }
      ],
      "stateMutability": "view",
      "type": "function",
      "constant": true
    },
    {
      "inputs": [],
      "name": "tokens",
      "outputs": [
        {
          "internalType": "uint256",
          "name": "_value",
          "type": "uint256"
        }
      ],
      "stateMutability": "view",
      "type": "function",
      "constant": true
    },
    {
      "inputs": [],
      "name": "totalBalance",
      "outputs": [
        {
          "internalType": "uint256",
          "name": "",
          "type": "uint256"
        }
      ],
      "stateMutability": "view",
      "type": "function",
      "constant": true
    },
    {
      "inputs": [
        {
          "internalType": "address",
          "name": "from",
          "type": "address"
        },
        {
          "internalType": "address",
          "name": "to",
          "type": "address"
        },
        {
          "internalType": "uint256",
          "name": "tokenId",
          "type": "uint256"
        }
      ],
      "name": "transferFrom",
      "outputs": [],
      "stateMutability": "nonpayable",
      "type": "function"
    },
    {
      "inputs": [
        {
          "internalType": "address",
          "name": "newOwner",
          "type": "address"
        }
      ],
      "name": "transferOwnership",
      "outputs": [],
      "stateMutability": "nonpayable",
      "type": "function"
    },
    {
      "inputs": [
        {
          "internalType": "address",
          "name": "_owner",
          "type": "address"
        },
        {
          "internalType": "address",
          "name": "_factory",
          "type": "address"
        },
        {
          "components": [
            {
              "internalType": "string",
              "name": "name",
              "type": "string"
            },
            {
              "internalType": "string",
              "name": "symbol",
              "type": "string"
            },
            {
              "internalType": "string",
              "name": "baseURI",
              "type": "string"
            },
            {
              "internalType": "uint256",
              "name": "mintPrice",
              "type": "uint256"
            },
            {
              "internalType": "uint256",
              "name": "releaseTime",
              "type": "uint256"
            }
          ],
          "internalType": "struct MintSplit.Params",
          "name": "_params",
          "type": "tuple"
        },
        {
          "internalType": "uint256[]",
          "name": "_editions",
          "type": "uint256[]"
        }
      ],
      "name": "initialize",
      "outputs": [],
      "stateMutability": "nonpayable",
      "type": "function"
    },
    {
      "inputs": [
        {
          "internalType": "bytes4",
          "name": "interfaceId",
          "type": "bytes4"
        }
      ],
      "name": "supportsInterface",
      "outputs": [
        {
          "internalType": "bool",
          "name": "",
          "type": "bool"
        }
      ],
      "stateMutability": "view",
      "type": "function",
      "constant": true
    },
    {
      "inputs": [
        {
          "internalType": "uint256[]",
          "name": "contentIds",
          "type": "uint256[]"
        }
      ],
      "name": "mint",
      "outputs": [],
      "stateMutability": "payable",
      "type": "function",
      "payable": true
    },
    {
      "inputs": [
        {
          "internalType": "address payable",
          "name": "account",
          "type": "address"
        }
      ],
      "name": "release",
      "outputs": [],
      "stateMutability": "nonpayable",
      "type": "function"
    },
    {
      "inputs": [
        {
          "internalType": "uint256",
          "name": "tokenId",
          "type": "uint256"
        }
      ],
      "name": "tokenURI",
      "outputs": [
        {
          "internalType": "string",
          "name": "",
          "type": "string"
        }
      ],
      "stateMutability": "view",
      "type": "function",
      "constant": true
    },
    {
      "inputs": [
        {
          "internalType": "uint256",
          "name": "tokenId",
          "type": "uint256"
        }
      ],
      "name": "getRoyalties",
      "outputs": [
        {
          "internalType": "address payable[]",
          "name": "recipients_",
          "type": "address[]"
        },
        {
          "internalType": "uint256[]",
          "name": "bps",
          "type": "uint256[]"
        }
      ],
      "stateMutability": "view",
      "type": "function",
      "constant": true
    },
    {
      "inputs": [],
      "name": "getEditions",
      "outputs": [
        {
          "internalType": "uint256[]",
          "name": "",
          "type": "uint256[]"
        }
      ],
      "stateMutability": "view",
      "type": "function",
      "constant": true
    },
    {
      "inputs": [],
      "name": "getParams",
      "outputs": [
        {
          "components": [
            {
              "internalType": "string",
              "name": "name",
              "type": "string"
            },
            {
              "internalType": "string",
              "name": "symbol",
              "type": "string"
            },
            {
              "internalType": "string",
              "name": "baseURI",
              "type": "string"
            },
            {
              "internalType": "uint256",
              "name": "mintPrice",
              "type": "uint256"
            },
            {
              "internalType": "uint256",
              "name": "releaseTime",
              "type": "uint256"
            }
          ],
          "internalType": "struct MintSplit.Params",
          "name": "",
          "type": "tuple"
        }
      ],
      "stateMutability": "view",
      "type": "function",
      "constant": true
    },
    {
      "inputs": [
        {
          "internalType": "uint256",
          "name": "cid",
          "type": "uint256"
        },
        {
          "internalType": "bool",
          "name": "isMint",
          "type": "bool"
        }
      ],
      "name": "getContentSplits",
      "outputs": [
        {
          "components": [
            {
              "internalType": "address payable[]",
              "name": "recipients",
              "type": "address[]"
            },
            {
              "internalType": "uint256[]",
              "name": "bps",
              "type": "uint256[]"
            }
          ],
          "internalType": "struct MintSplit.PaymentSplit",
          "name": "split",
          "type": "tuple"
        }
      ],
      "stateMutability": "view",
      "type": "function",
      "constant": true
    },
    {
      "inputs": [
        {
          "components": [
            {
              "internalType": "uint256",
              "name": "id",
              "type": "uint256"
            },
            {
              "internalType": "uint256",
              "name": "editions",
              "type": "uint256"
            },
            {
              "internalType": "string",
              "name": "uri",
              "type": "string"
            }
          ],
          "internalType": "struct MintSplit.Content",
          "name": "content",
          "type": "tuple"
        }
      ],
      "name": "addContent",
      "outputs": [],
      "stateMutability": "nonpayable",
      "type": "function"
    },
    {
      "inputs": [
        {
          "components": [
            {
              "internalType": "uint256",
              "name": "id",
              "type": "uint256"
            },
            {
              "internalType": "uint256",
              "name": "editions",
              "type": "uint256"
            },
            {
              "internalType": "string",
              "name": "uri",
              "type": "string"
            }
          ],
          "internalType": "struct MintSplit.Content",
          "name": "content",
          "type": "tuple"
        }
      ],
      "name": "setContent",
      "outputs": [],
      "stateMutability": "nonpayable",
      "type": "function"
    },
    {
      "inputs": [
        {
          "components": [
            {
              "internalType": "uint256",
              "name": "contentId",
              "type": "uint256"
            },
            {
              "internalType": "bool",
              "name": "isMint",
              "type": "bool"
            },
            {
              "components": [
                {
                  "internalType": "address payable[]",
                  "name": "recipients",
                  "type": "address[]"
                },
                {
                  "internalType": "uint256[]",
                  "name": "bps",
                  "type": "uint256[]"
                }
              ],
              "internalType": "struct MintSplit.PaymentSplit",
              "name": "split",
              "type": "tuple"
            }
          ],
          "internalType": "struct MintSplit.PaymentSplitConfig",
          "name": "config",
          "type": "tuple"
        }
      ],
      "name": "setSplit",
      "outputs": [],
      "stateMutability": "nonpayable",
      "type": "function"
    },
    {
      "inputs": [],
      "name": "togglePaused",
      "outputs": [],
      "stateMutability": "nonpayable",
      "type": "function"
    },
    {
      "inputs": [
        {
          "components": [
            {
              "internalType": "string",
              "name": "name",
              "type": "string"
            },
            {
              "internalType": "string",
              "name": "symbol",
              "type": "string"
            },
            {
              "internalType": "string",
              "name": "baseURI",
              "type": "string"
            },
            {
              "internalType": "uint256",
              "name": "mintPrice",
              "type": "uint256"
            },
            {
              "internalType": "uint256",
              "name": "releaseTime",
              "type": "uint256"
            }
          ],
          "internalType": "struct MintSplit.Params",
          "name": "newParams",
          "type": "tuple"
        }
      ],
      "name": "setParams",
      "outputs": [],
      "stateMutability": "nonpayable",
      "type": "function"
    },
    {
      "inputs": [],
      "name": "withdraw",
      "outputs": [],
      "stateMutability": "nonpayable",
      "type": "function"
    }
  ],
  "bytecode": "0x60806040523480156200001157600080fd5b50600060019054906101000a900460ff166200003c5760008054906101000a900460ff16156200004d565b6200004c6200010960201b60201c565b5b6200008f576040517f08c379a00000000000000000000000000000000000000000000000000000000081526004016200008690620001c1565b60405180910390fd5b60008060019054906101000a900460ff161590508015620000e0576001600060016101000a81548160ff02191690831515021790555060016000806101000a81548160ff0219169083151502179055505b8015620001025760008060016101000a81548160ff0219169083151502179055505b50620001e3565b600062000121306200012760201b6200234f1760201c565b15905090565b600080823b905060008111915050919050565b600082825260208201905092915050565b7f496e697469616c697a61626c653a20636f6e747261637420697320616c72656160008201527f647920696e697469616c697a6564000000000000000000000000000000000000602082015250565b6000620001a9602e836200013a565b9150620001b6826200014b565b604082019050919050565b60006020820190508181036000830152620001dc816200019a565b9050919050565b615bc680620001f36000396000f3fe6080604052600436106102255760003560e01c8063755ca5bc11610123578063bb3bafd6116100ab578063e3d670d71161006f578063e3d670d71461083e578063e985e9c51461087b578063f2fde38b146108b8578063f8e93ef9146108e1578063fdacfbec146108fd57610225565b8063bb3bafd614610746578063bf4c3eda14610784578063c51f9ab9146107ad578063c87b56dd146107d6578063df6efc6c1461081357610225565b80639d63848a116100f25780639d63848a14610673578063a22cb4651461069e578063ad7a672f146106c7578063b187bd26146106f2578063b88d4fde1461071d57610225565b8063755ca5bc146105b757806385e4ae00146105f45780638da5cb5b1461061d57806395d89b411461064857610225565b806336566f06116101b15780635e615a6b116101755780635e615a6b146104be5780636352211e146104e95780636e667c351461052657806370a0823114610563578063715018a6146105a057610225565b806336566f06146103ed5780633969a1a5146104045780633ccfd60b1461044157806342842e0e146104585780634bb3ba1d1461048157610225565b8063095ea7b3116101f8578063095ea7b31461030c57806319165587146103355780631974b8921461035e57806323b872dd14610387578063279c806e146103b057610225565b806301ffc9a71461022a57806306f9eec41461026757806306fdde03146102a4578063081812fc146102cf575b600080fd5b34801561023657600080fd5b50610251600480360381019061024c9190613674565b610926565b60405161025e91906136bc565b60405180910390f35b34801561027357600080fd5b5061028e6004803603810190610289919061370d565b6109a0565b60405161029b9190613749565b60405180910390f35b3480156102b057600080fd5b506102b96109bf565b6040516102c691906137fd565b60405180910390f35b3480156102db57600080fd5b506102f660048036038101906102f1919061370d565b610a51565b6040516103039190613860565b60405180910390f35b34801561031857600080fd5b50610333600480360381019061032e91906138a7565b610ad6565b005b34801561034157600080fd5b5061035c60048036038101906103579190613925565b610bed565b005b34801561036a57600080fd5b5061038560048036038101906103809190613976565b610d1b565b005b34801561039357600080fd5b506103ae60048036038101906103a991906139bf565b610de3565b005b3480156103bc57600080fd5b506103d760048036038101906103d2919061370d565b610e43565b6040516103e49190613749565b60405180910390f35b3480156103f957600080fd5b50610402610e67565b005b34801561041057600080fd5b5061042b6004803603810190610426919061370d565b610f0f565b6040516104389190613749565b60405180910390f35b34801561044d57600080fd5b50610456610f28565b005b34801561046457600080fd5b5061047f600480360381019061047a91906139bf565b61102a565b005b34801561048d57600080fd5b506104a860048036038101906104a39190613a3e565b61104a565b6040516104b59190613c3e565b60405180910390f35b3480156104ca57600080fd5b506104d361117e565b6040516104e09190613d2e565b60405180910390f35b3480156104f557600080fd5b50610510600480360381019061050b919061370d565b611362565b60405161051d9190613860565b60405180910390f35b34801561053257600080fd5b5061054d6004803603810190610548919061370d565b611413565b60405161055a91906137fd565b60405180910390f35b34801561056f57600080fd5b5061058a60048036038101906105859190613d50565b6114b4565b6040516105979190613749565b60405180910390f35b3480156105ac57600080fd5b506105b561156b565b005b3480156105c357600080fd5b506105de60048036038101906105d9919061370d565b6115f3565b6040516105eb9190613749565b60405180910390f35b34801561060057600080fd5b5061061b60048036038101906106169190613976565b61160c565b005b34801561062957600080fd5b506106326116df565b60405161063f9190613860565b60405180910390f35b34801561065457600080fd5b5061065d611709565b60405161066a91906137fd565b60405180910390f35b34801561067f57600080fd5b5061068861179b565b6040516106959190613749565b60405180910390f35b3480156106aa57600080fd5b506106c560048036038101906106c09190613d7d565b6117a8565b005b3480156106d357600080fd5b506106dc6117be565b6040516106e99190613749565b60405180910390f35b3480156106fe57600080fd5b506107076117c4565b60405161071491906136bc565b60405180910390f35b34801561072957600080fd5b50610744600480360381019061073f9190613ef2565b6117d7565b005b34801561075257600080fd5b5061076d6004803603810190610768919061370d565b611839565b60405161077b929190614053565b60405180910390f35b34801561079057600080fd5b506107ab60048036038101906107a691906140a9565b611966565b005b3480156107b957600080fd5b506107d460048036038101906107cf9190614171565b611b02565b005b3480156107e257600080fd5b506107fd60048036038101906107f8919061370d565b611d07565b60405161080a91906137fd565b60405180910390f35b34801561081f57600080fd5b50610828611e4b565b6040516108359190614215565b60405180910390f35b34801561084a57600080fd5b5061086560048036038101906108609190613d50565b611ea3565b6040516108729190613749565b60405180910390f35b34801561088757600080fd5b506108a2600480360381019061089d9190614237565b611ebc565b6040516108af91906136bc565b60405180910390f35b3480156108c457600080fd5b506108df60048036038101906108da9190613d50565b611f50565b005b6108fb60048036038101906108f69190614277565b612047565b005b34801561090957600080fd5b50610924600480360381019061091f91906142c4565b6122be565b005b60007fbb3bafd6000000000000000000000000000000000000000000000000000000007bffffffffffffffffffffffffffffffffffffffffffffffffffffffff1916827bffffffffffffffffffffffffffffffffffffffffffffffffffffffff19161480610999575061099882612362565b5b9050919050565b6101066020528060005260406000206000915090508060000154905081565b6060606580546109ce9061433c565b80601f01602080910402602001604051908101604052809291908181526020018280546109fa9061433c565b8015610a475780601f10610a1c57610100808354040283529160200191610a47565b820191906000526020600020905b815481529060010190602001808311610a2a57829003601f168201915b5050505050905090565b6000610a5c82612444565b610a9b576040517f08c379a0000000000000000000000000000000000000000000000000000000008152600401610a92906143df565b60405180910390fd5b6069600083815260200190815260200160002060009054906101000a900473ffffffffffffffffffffffffffffffffffffffff169050919050565b6000610ae182611362565b90508073ffffffffffffffffffffffffffffffffffffffff168373ffffffffffffffffffffffffffffffffffffffff1603610b51576040517f08c379a0000000000000000000000000000000000000000000000000000000008152600401610b4890614471565b60405180910390fd5b8073ffffffffffffffffffffffffffffffffffffffff16610b706124b0565b73ffffffffffffffffffffffffffffffffffffffff161480610b9f5750610b9e81610b996124b0565b611ebc565b5b610bde576040517f08c379a0000000000000000000000000000000000000000000000000000000008152600401610bd590614503565b60405180910390fd5b610be883836124b8565b505050565b600260c95403610c32576040517f08c379a0000000000000000000000000000000000000000000000000000000008152600401610c299061456f565b60405180910390fd5b600260c98190555060fe60009054906101000a900460ff1615610c5457600080fd5b600061010960008373ffffffffffffffffffffffffffffffffffffffff1673ffffffffffffffffffffffffffffffffffffffff16815260200190815260200160002054905060008111610ca657600080fd5b600061010960008473ffffffffffffffffffffffffffffffffffffffff1673ffffffffffffffffffffffffffffffffffffffff168152602001908152602001600020819055508060fd6000828254610cfe91906145be565b92505081905550610d0f8282612571565b50600160c98190555050565b610d236124b0565b73ffffffffffffffffffffffffffffffffffffffff1660fc60009054906101000a900473ffffffffffffffffffffffffffffffffffffffff1673ffffffffffffffffffffffffffffffffffffffff1614610d7c57600080fd5b60fb81602001359080600181540180825580915050600190039060005260206000200160009091909190915055808060400190610db99190614601565b610105600060fb8054905081526020019081526020016000209190610ddf929190613449565b5050565b610df4610dee6124b0565b82612665565b610e33576040517f08c379a0000000000000000000000000000000000000000000000000000000008152600401610e2a906146d6565b60405180910390fd5b610e3e838383612743565b505050565b60fb8181548110610e5357600080fd5b906000526020600020016000915090505481565b610e6f6124b0565b73ffffffffffffffffffffffffffffffffffffffff16610e8d6116df565b73ffffffffffffffffffffffffffffffffffffffff1614610ee3576040517f08c379a0000000000000000000000000000000000000000000000000000000008152600401610eda90614742565b60405180910390fd5b60fe60009054906101000a900460ff161560fe60006101000a81548160ff021916908315150217905550565b6101076020528060005260406000206000915090505481565b610f306124b0565b73ffffffffffffffffffffffffffffffffffffffff16610f4e6116df565b73ffffffffffffffffffffffffffffffffffffffff1614610fa4576040517f08c379a0000000000000000000000000000000000000000000000000000000008152600401610f9b90614742565b60405180910390fd5b60003373ffffffffffffffffffffffffffffffffffffffff1660fd5447610fcb91906145be565b604051610fd790614793565b60006040518083038185875af1925050503d8060008114611014576040519150601f19603f3d011682016040523d82523d6000602084013e611019565b606091505b505090508061102757600080fd5b50565b611045838383604051806020016040528060008152506117d7565b505050565b6110526134cf565b816110705761010c6000848152602001908152602001600020611085565b61010b60008481526020019081526020016000205b6040518060400160405290816000820180548060200260200160405190810160405280929190818152602001828054801561111557602002820191906000526020600020905b8160009054906101000a900473ffffffffffffffffffffffffffffffffffffffff1673ffffffffffffffffffffffffffffffffffffffff16815260200190600101908083116110cb575b505050505081526020016001820180548060200260200160405190810160405280929190818152602001828054801561116d57602002820191906000526020600020905b815481526020019060010190808311611159575b505050505081525050905092915050565b6111866134e9565b60ff6040518060a00160405290816000820180546111a39061433c565b80601f01602080910402602001604051908101604052809291908181526020018280546111cf9061433c565b801561121c5780601f106111f15761010080835404028352916020019161121c565b820191906000526020600020905b8154815290600101906020018083116111ff57829003601f168201915b505050505081526020016001820180546112359061433c565b80601f01602080910402602001604051908101604052809291908181526020018280546112619061433c565b80156112ae5780601f10611283576101008083540402835291602001916112ae565b820191906000526020600020905b81548152906001019060200180831161129157829003601f168201915b505050505081526020016002820180546112c79061433c565b80601f01602080910402602001604051908101604052809291908181526020018280546112f39061433c565b80156113405780601f1061131557610100808354040283529160200191611340565b820191906000526020600020905b81548152906001019060200180831161132357829003601f168201915b5050505050815260200160038201548152602001600482015481525050905090565b6000806067600084815260200190815260200160002060009054906101000a900473ffffffffffffffffffffffffffffffffffffffff169050600073ffffffffffffffffffffffffffffffffffffffff168173ffffffffffffffffffffffffffffffffffffffff160361140a576040517f08c379a00000000000000000000000000000000000000000000000000000000081526004016114019061481a565b60405180910390fd5b80915050919050565b61010560205280600052604060002060009150905080546114339061433c565b80601f016020809104026020016040519081016040528092919081815260200182805461145f9061433c565b80156114ac5780601f10611481576101008083540402835291602001916114ac565b820191906000526020600020905b81548152906001019060200180831161148f57829003601f168201915b505050505081565b60008073ffffffffffffffffffffffffffffffffffffffff168273ffffffffffffffffffffffffffffffffffffffff1603611524576040517f08c379a000000000000000000000000000000000000000000000000000000000815260040161151b906148ac565b60405180910390fd5b606860008373ffffffffffffffffffffffffffffffffffffffff1673ffffffffffffffffffffffffffffffffffffffff168152602001908152602001600020549050919050565b6115736124b0565b73ffffffffffffffffffffffffffffffffffffffff166115916116df565b73ffffffffffffffffffffffffffffffffffffffff16146115e7576040517f08c379a00000000000000000000000000000000000000000000000000000000081526004016115de90614742565b60405180910390fd5b6115f1600061299e565b565b6101086020528060005260406000206000915090505481565b6116146124b0565b73ffffffffffffffffffffffffffffffffffffffff1660fc60009054906101000a900473ffffffffffffffffffffffffffffffffffffffff1673ffffffffffffffffffffffffffffffffffffffff161461166d57600080fd5b600081600001359050816020013560fb60018361168a91906145be565b8154811061169b5761169a6148cc565b5b90600052602060002001819055508180604001906116b99190614601565b610105600084815260200190815260200160002091906116da929190613449565b505050565b6000609760009054906101000a900473ffffffffffffffffffffffffffffffffffffffff16905090565b6060606680546117189061433c565b80601f01602080910402602001604051908101604052809291908181526020018280546117449061433c565b80156117915780601f1061176657610100808354040283529160200191611791565b820191906000526020600020905b81548152906001019060200180831161177457829003601f168201915b5050505050905090565b6101048060000154905081565b6117ba6117b36124b0565b8383612a64565b5050565b60fd5481565b60fe60009054906101000a900460ff1681565b6117e86117e26124b0565b83612665565b611827576040517f08c379a000000000000000000000000000000000000000000000000000000000815260040161181e906146d6565b60405180910390fd5b61183384848484612bd0565b50505050565b60608061184583612444565b61184e57600080fd5b600061010c60006101076000878152602001908152602001600020548152602001908152602001600020905080600001816001018180548060200260200160405190810160405280929190818152602001828054801561190357602002820191906000526020600020905b8160009054906101000a900473ffffffffffffffffffffffffffffffffffffffff1673ffffffffffffffffffffffffffffffffffffffff16815260200190600101908083116118b9575b505050505091508080548060200260200160405190810160405280929190818152602001828054801561195557602002820191906000526020600020905b815481526020019060010190808311611941575b505050505090509250925050915091565b61196e6124b0565b73ffffffffffffffffffffffffffffffffffffffff1661198c6116df565b73ffffffffffffffffffffffffffffffffffffffff16146119e2576040517f08c379a00000000000000000000000000000000000000000000000000000000081526004016119d990614742565b60405180910390fd5b368180604001906119f391906148fb565b90506006818060000190611a079190614923565b905010611a1357600080fd5b808060200190611a239190614986565b9050818060000190611a359190614923565b905014611a4157600080fd5b60008260000135905060008111611a5757600080fd5b826020016020810190611a6a91906149e9565b15611ad8576000828060000190611a819190614923565b90501161010a600083815260200190815260200160002060006101000a81548160ff0219169083151502179055508161010b60008381526020019081526020016000208181611ad09190614f39565b905050611afd565b8161010c60008381526020019081526020016000208181611af99190614f39565b9050505b505050565b600060019054906101000a900460ff16611b2a5760008054906101000a900460ff1615611b33565b611b32612c2c565b5b611b72576040517f08c379a0000000000000000000000000000000000000000000000000000000008152600401611b6990614fb9565b60405180910390fd5b60008060019054906101000a900460ff161590508015611bc2576001600060016101000a81548160ff02191690831515021790555060016000806101000a81548160ff0219169083151502179055505b611c70848060000190611bd59190614601565b8080601f016020809104026020016040519081016040528093929190818152602001838380828437600081840152601f19601f82011690508083019250505050505050858060200190611c289190614601565b8080601f016020809104026020016040519081016040528093929190818152602001838380828437600081840152601f19601f82011690508083019250505050505050612c3d565b611c798661299e565b8460fc60006101000a81548173ffffffffffffffffffffffffffffffffffffffff021916908373ffffffffffffffffffffffffffffffffffffffff1602179055508360ff8181611cc991906152a7565b905050828260fb9190611cdd929190613518565b508015611cff5760008060016101000a81548160ff0219169083151502179055505b505050505050565b6060611d1282612444565b611d1b57600080fd5b60006101076000848152602001908152602001600020549050600061010560008381526020019081526020016000209050600080828054611d5b9061433c565b905014611d685781611d6e565b60ff6002015b8054611d799061433c565b80601f0160208091040260200160405190810160405280929190818152602001828054611da59061433c565b8015611df25780601f10611dc757610100808354040283529160200191611df2565b820191906000526020600020905b815481529060010190602001808311611dd557829003601f168201915b5050505050905080611e0384612caa565b611e20610108600089815260200190815260200160002054612caa565b604051602001611e3293929190615389565b6040516020818303038152906040529350505050919050565b606060fb805480602002602001604051908101604052809291908181526020018280548015611e9957602002820191906000526020600020905b815481526020019060010190808311611e85575b5050505050905090565b6101096020528060005260406000206000915090505481565b6000606a60008473ffffffffffffffffffffffffffffffffffffffff1673ffffffffffffffffffffffffffffffffffffffff16815260200190815260200160002060008373ffffffffffffffffffffffffffffffffffffffff1673ffffffffffffffffffffffffffffffffffffffff16815260200190815260200160002060009054906101000a900460ff16905092915050565b611f586124b0565b73ffffffffffffffffffffffffffffffffffffffff16611f766116df565b73ffffffffffffffffffffffffffffffffffffffff1614611fcc576040517f08c379a0000000000000000000000000000000000000000000000000000000008152600401611fc390614742565b60405180910390fd5b600073ffffffffffffffffffffffffffffffffffffffff168173ffffffffffffffffffffffffffffffffffffffff160361203b576040517f08c379a000000000000000000000000000000000000000000000000000000000815260040161203290615442565b60405180910390fd5b6120448161299e565b50565b600260c9540361208c576040517f08c379a00000000000000000000000000000000000000000000000000000000081526004016120839061456f565b60405180910390fd5b600260c98190555060fe60009054906101000a900460ff16156120ae57600080fd5b6120b66116df565b73ffffffffffffffffffffffffffffffffffffffff163373ffffffffffffffffffffffffffffffffffffffff161461211957348282905060ff600301546120fd9190614a2b565b1461210757600080fd5b60ff60040154421161211857600080fd5b5b60005b828290508110156122b157600083838381811061213c5761213b6148cc565b5b9050602002013590506000811161215257600080fd5b60fb8054905081111561216457600080fd5b600061010660008381526020019081526020016000209050600061218782612e0a565b905060fb60018461219891906145be565b815481106121a9576121a86148cc565b5b906000526020600020015481106121bf57600080fd5b6121c882612e18565b6121d3610104612e18565b60006121e0610104612e0a565b9050836101076000838152602001908152602001600020819055506001826122089190615462565b61010860008381526020019081526020016000208190555061222a3382612e2e565b6122326116df565b73ffffffffffffffffffffffffffffffffffffffff163373ffffffffffffffffffffffffffffffffffffffff161415801561228b575061010a600085815260200190815260200160002060009054906101000a900460ff165b1561229a5761229984612ffb565b5b5050505080806122a9906154b8565b91505061211c565b50600160c9819055505050565b6122c66124b0565b73ffffffffffffffffffffffffffffffffffffffff166122e46116df565b73ffffffffffffffffffffffffffffffffffffffff161461233a576040517f08c379a000000000000000000000000000000000000000000000000000000000815260040161233190614742565b60405180910390fd5b8060ff818161234991906152a7565b90505050565b600080823b905060008111915050919050565b60007f80ac58cd000000000000000000000000000000000000000000000000000000007bffffffffffffffffffffffffffffffffffffffffffffffffffffffff1916827bffffffffffffffffffffffffffffffffffffffffffffffffffffffff1916148061242d57507f5b5e139f000000000000000000000000000000000000000000000000000000007bffffffffffffffffffffffffffffffffffffffffffffffffffffffff1916827bffffffffffffffffffffffffffffffffffffffffffffffffffffffff1916145b8061243d575061243c82613130565b5b9050919050565b60008073ffffffffffffffffffffffffffffffffffffffff166067600084815260200190815260200160002060009054906101000a900473ffffffffffffffffffffffffffffffffffffffff1673ffffffffffffffffffffffffffffffffffffffff1614159050919050565b600033905090565b816069600083815260200190815260200160002060006101000a81548173ffffffffffffffffffffffffffffffffffffffff021916908373ffffffffffffffffffffffffffffffffffffffff160217905550808273ffffffffffffffffffffffffffffffffffffffff1661252b83611362565b73ffffffffffffffffffffffffffffffffffffffff167f8c5be1e5ebec7d5bd14f71427d1e84f3dd0314c0f7b2291e5b200ac8c7c3b92560405160405180910390a45050565b804710156125b4576040517f08c379a00000000000000000000000000000000000000000000000000000000081526004016125ab9061554c565b60405180910390fd5b60008273ffffffffffffffffffffffffffffffffffffffff16826040516125da90614793565b60006040518083038185875af1925050503d8060008114612617576040519150601f19603f3d011682016040523d82523d6000602084013e61261c565b606091505b5050905080612660576040517f08c379a0000000000000000000000000000000000000000000000000000000008152600401612657906155de565b60405180910390fd5b505050565b600061267082612444565b6126af576040517f08c379a00000000000000000000000000000000000000000000000000000000081526004016126a690615670565b60405180910390fd5b60006126ba83611362565b90508073ffffffffffffffffffffffffffffffffffffffff168473ffffffffffffffffffffffffffffffffffffffff16148061272957508373ffffffffffffffffffffffffffffffffffffffff1661271184610a51565b73ffffffffffffffffffffffffffffffffffffffff16145b8061273a57506127398185611ebc565b5b91505092915050565b8273ffffffffffffffffffffffffffffffffffffffff1661276382611362565b73ffffffffffffffffffffffffffffffffffffffff16146127b9576040517f08c379a00000000000000000000000000000000000000000000000000000000081526004016127b090615702565b60405180910390fd5b600073ffffffffffffffffffffffffffffffffffffffff168273ffffffffffffffffffffffffffffffffffffffff1603612828576040517f08c379a000000000000000000000000000000000000000000000000000000000815260040161281f90615794565b60405180910390fd5b61283383838361319a565b61283e6000826124b8565b6001606860008573ffffffffffffffffffffffffffffffffffffffff1673ffffffffffffffffffffffffffffffffffffffff168152602001908152602001600020600082825461288e91906145be565b925050819055506001606860008473ffffffffffffffffffffffffffffffffffffffff1673ffffffffffffffffffffffffffffffffffffffff16815260200190815260200160002060008282546128e59190615462565b92505081905550816067600083815260200190815260200160002060006101000a81548173ffffffffffffffffffffffffffffffffffffffff021916908373ffffffffffffffffffffffffffffffffffffffff160217905550808273ffffffffffffffffffffffffffffffffffffffff168473ffffffffffffffffffffffffffffffffffffffff167fddf252ad1be2c89b69c2b068fc378daa952ba7f163c4a11628f55a4df523b3ef60405160405180910390a4505050565b6000609760009054906101000a900473ffffffffffffffffffffffffffffffffffffffff16905081609760006101000a81548173ffffffffffffffffffffffffffffffffffffffff021916908373ffffffffffffffffffffffffffffffffffffffff1602179055508173ffffffffffffffffffffffffffffffffffffffff168173ffffffffffffffffffffffffffffffffffffffff167f8be0079c531659141344cd1fd0a4f28419497f9722a3daafe3b4186f6b6457e060405160405180910390a35050565b8173ffffffffffffffffffffffffffffffffffffffff168373ffffffffffffffffffffffffffffffffffffffff1603612ad2576040517f08c379a0000000000000000000000000000000000000000000000000000000008152600401612ac990615800565b60405180910390fd5b80606a60008573ffffffffffffffffffffffffffffffffffffffff1673ffffffffffffffffffffffffffffffffffffffff16815260200190815260200160002060008473ffffffffffffffffffffffffffffffffffffffff1673ffffffffffffffffffffffffffffffffffffffff16815260200190815260200160002060006101000a81548160ff0219169083151502179055508173ffffffffffffffffffffffffffffffffffffffff168373ffffffffffffffffffffffffffffffffffffffff167f17307eab39ab6107e8899845ad3d59bd9653f200f220920489ca2b5937696c3183604051612bc391906136bc565b60405180910390a3505050565b612bdb848484612743565b612be78484848461319f565b612c26576040517f08c379a0000000000000000000000000000000000000000000000000000000008152600401612c1d90615892565b60405180910390fd5b50505050565b6000612c373061234f565b15905090565b600060019054906101000a900460ff16612c8c576040517f08c379a0000000000000000000000000000000000000000000000000000000008152600401612c8390615924565b60405180910390fd5b612c94613326565b612c9c613377565b612ca682826133c8565b5050565b606060008203612cf1576040518060400160405280600181526020017f30000000000000000000000000000000000000000000000000000000000000008152509050612e05565b600082905060005b60008214612d23578080612d0c906154b8565b915050600a82612d1c9190615973565b9150612cf9565b60008167ffffffffffffffff811115612d3f57612d3e613dc7565b5b6040519080825280601f01601f191660200182016040528015612d715781602001600182028036833780820191505090505b5090505b60008514612dfe57600182612d8a91906145be565b9150600a85612d9991906159a4565b6030612da59190615462565b60f81b818381518110612dbb57612dba6148cc565b5b60200101907effffffffffffffffffffffffffffffffffffffffffffffffffffffffffffff1916908160001a905350600a85612df79190615973565b9450612d75565b8093505050505b919050565b600081600001549050919050565b6001816000016000828254019250508190555050565b600073ffffffffffffffffffffffffffffffffffffffff168273ffffffffffffffffffffffffffffffffffffffff1603612e9d576040517f08c379a0000000000000000000000000000000000000000000000000000000008152600401612e9490615a21565b60405180910390fd5b612ea681612444565b15612ee6576040517f08c379a0000000000000000000000000000000000000000000000000000000008152600401612edd90615a8d565b60405180910390fd5b612ef26000838361319a565b6001606860008473ffffffffffffffffffffffffffffffffffffffff1673ffffffffffffffffffffffffffffffffffffffff1681526020019081526020016000206000828254612f429190615462565b92505081905550816067600083815260200190815260200160002060006101000a81548173ffffffffffffffffffffffffffffffffffffffff021916908373ffffffffffffffffffffffffffffffffffffffff160217905550808273ffffffffffffffffffffffffffffffffffffffff16600073ffffffffffffffffffffffffffffffffffffffff167fddf252ad1be2c89b69c2b068fc378daa952ba7f163c4a11628f55a4df523b3ef60405160405180910390a45050565b600061010b6000838152602001908152602001600020905060005b816000018054905081101561312b5760006127108360010183815481106130405761303f6148cc565b5b906000526020600020015460ff6003015461305b9190614a2b565b6130659190615973565b90508060fd60008282546130799190615462565b9250508190555080610109600085600001858154811061309c5761309b6148cc565b5b9060005260206000200160009054906101000a900473ffffffffffffffffffffffffffffffffffffffff1673ffffffffffffffffffffffffffffffffffffffff1673ffffffffffffffffffffffffffffffffffffffff16815260200190815260200160002060008282546131109190615462565b92505081905550508080613123906154b8565b915050613016565b505050565b60007f01ffc9a7000000000000000000000000000000000000000000000000000000007bffffffffffffffffffffffffffffffffffffffffffffffffffffffff1916827bffffffffffffffffffffffffffffffffffffffffffffffffffffffff1916149050919050565b505050565b60006131c08473ffffffffffffffffffffffffffffffffffffffff1661234f565b15613319578373ffffffffffffffffffffffffffffffffffffffff1663150b7a026131e96124b0565b8786866040518563ffffffff1660e01b815260040161320b9493929190615b02565b6020604051808303816000875af192505050801561324757506040513d601f19601f820116820180604052508101906132449190615b63565b60015b6132c9573d8060008114613277576040519150601f19603f3d011682016040523d82523d6000602084013e61327c565b606091505b5060008151036132c1576040517f08c379a00000000000000000000000000000000000000000000000000000000081526004016132b890615892565b60405180910390fd5b805181602001fd5b63150b7a0260e01b7bffffffffffffffffffffffffffffffffffffffffffffffffffffffff1916817bffffffffffffffffffffffffffffffffffffffffffffffffffffffff19161491505061331e565b600190505b949350505050565b600060019054906101000a900460ff16613375576040517f08c379a000000000000000000000000000000000000000000000000000000000815260040161336c90615924565b60405180910390fd5b565b600060019054906101000a900460ff166133c6576040517f08c379a00000000000000000000000000000000000000000000000000000000081526004016133bd90615924565b60405180910390fd5b565b600060019054906101000a900460ff16613417576040517f08c379a000000000000000000000000000000000000000000000000000000000815260040161340e90615924565b60405180910390fd5b816065908051906020019061342d929190613565565b508060669080519060200190613444929190613565565b505050565b8280546134559061433c565b90600052602060002090601f01602090048101928261347757600085556134be565b82601f1061349057803560ff19168380011785556134be565b828001600101855582156134be579182015b828111156134bd5782358255916020019190600101906134a2565b5b5090506134cb91906135eb565b5090565b604051806040016040528060608152602001606081525090565b6040518060a0016040528060608152602001606081526020016060815260200160008152602001600081525090565b828054828255906000526020600020908101928215613554579160200282015b82811115613553578235825591602001919060010190613538565b5b50905061356191906135eb565b5090565b8280546135719061433c565b90600052602060002090601f01602090048101928261359357600085556135da565b82601f106135ac57805160ff19168380011785556135da565b828001600101855582156135da579182015b828111156135d95782518255916020019190600101906135be565b5b5090506135e791906135eb565b5090565b5b808211156136045760008160009055506001016135ec565b5090565b6000604051905090565b600080fd5b600080fd5b60007fffffffff0000000000000000000000000000000000000000000000000000000082169050919050565b6136518161361c565b811461365c57600080fd5b50565b60008135905061366e81613648565b92915050565b60006020828403121561368a57613689613612565b5b60006136988482850161365f565b91505092915050565b60008115159050919050565b6136b6816136a1565b82525050565b60006020820190506136d160008301846136ad565b92915050565b6000819050919050565b6136ea816136d7565b81146136f557600080fd5b50565b600081359050613707816136e1565b92915050565b60006020828403121561372357613722613612565b5b6000613731848285016136f8565b91505092915050565b613743816136d7565b82525050565b600060208201905061375e600083018461373a565b92915050565b600081519050919050565b600082825260208201905092915050565b60005b8381101561379e578082015181840152602081019050613783565b838111156137ad576000848401525b50505050565b6000601f19601f8301169050919050565b60006137cf82613764565b6137d9818561376f565b93506137e9818560208601613780565b6137f2816137b3565b840191505092915050565b6000602082019050818103600083015261381781846137c4565b905092915050565b600073ffffffffffffffffffffffffffffffffffffffff82169050919050565b600061384a8261381f565b9050919050565b61385a8161383f565b82525050565b60006020820190506138756000830184613851565b92915050565b6138848161383f565b811461388f57600080fd5b50565b6000813590506138a18161387b565b92915050565b600080604083850312156138be576138bd613612565b5b60006138cc85828601613892565b92505060206138dd858286016136f8565b9150509250929050565b60006138f28261381f565b9050919050565b613902816138e7565b811461390d57600080fd5b50565b60008135905061391f816138f9565b92915050565b60006020828403121561393b5761393a613612565b5b600061394984828501613910565b91505092915050565b600080fd5b60006060828403121561396d5761396c613952565b5b81905092915050565b60006020828403121561398c5761398b613612565b5b600082013567ffffffffffffffff8111156139aa576139a9613617565b5b6139b684828501613957565b91505092915050565b6000806000606084860312156139d8576139d7613612565b5b60006139e686828701613892565b93505060206139f786828701613892565b9250506040613a08868287016136f8565b9150509250925092565b613a1b816136a1565b8114613a2657600080fd5b50565b600081359050613a3881613a12565b92915050565b60008060408385031215613a5557613a54613612565b5b6000613a63858286016136f8565b9250506020613a7485828601613a29565b9150509250929050565b600081519050919050565b600082825260208201905092915050565b6000819050602082019050919050565b613ab3816138e7565b82525050565b6000613ac58383613aaa565b60208301905092915050565b6000602082019050919050565b6000613ae982613a7e565b613af38185613a89565b9350613afe83613a9a565b8060005b83811015613b2f578151613b168882613ab9565b9750613b2183613ad1565b925050600181019050613b02565b5085935050505092915050565b600081519050919050565b600082825260208201905092915050565b6000819050602082019050919050565b613b71816136d7565b82525050565b6000613b838383613b68565b60208301905092915050565b6000602082019050919050565b6000613ba782613b3c565b613bb18185613b47565b9350613bbc83613b58565b8060005b83811015613bed578151613bd48882613b77565b9750613bdf83613b8f565b925050600181019050613bc0565b5085935050505092915050565b60006040830160008301518482036000860152613c178282613ade565b91505060208301518482036020860152613c318282613b9c565b9150508091505092915050565b60006020820190508181036000830152613c588184613bfa565b905092915050565b600082825260208201905092915050565b6000613c7c82613764565b613c868185613c60565b9350613c96818560208601613780565b613c9f816137b3565b840191505092915050565b600060a0830160008301518482036000860152613cc78282613c71565b91505060208301518482036020860152613ce18282613c71565b91505060408301518482036040860152613cfb8282613c71565b9150506060830151613d106060860182613b68565b506080830151613d236080860182613b68565b508091505092915050565b60006020820190508181036000830152613d488184613caa565b905092915050565b600060208284031215613d6657613d65613612565b5b6000613d7484828501613892565b91505092915050565b60008060408385031215613d9457613d93613612565b5b6000613da285828601613892565b9250506020613db385828601613a29565b9150509250929050565b600080fd5b600080fd5b7f4e487b7100000000000000000000000000000000000000000000000000000000600052604160045260246000fd5b613dff826137b3565b810181811067ffffffffffffffff82111715613e1e57613e1d613dc7565b5b80604052505050565b6000613e31613608565b9050613e3d8282613df6565b919050565b600067ffffffffffffffff821115613e5d57613e5c613dc7565b5b613e66826137b3565b9050602081019050919050565b82818337600083830152505050565b6000613e95613e9084613e42565b613e27565b905082815260208101848484011115613eb157613eb0613dc2565b5b613ebc848285613e73565b509392505050565b600082601f830112613ed957613ed8613dbd565b5b8135613ee9848260208601613e82565b91505092915050565b60008060008060808587031215613f0c57613f0b613612565b5b6000613f1a87828801613892565b9450506020613f2b87828801613892565b9350506040613f3c878288016136f8565b925050606085013567ffffffffffffffff811115613f5d57613f5c613617565b5b613f6987828801613ec4565b91505092959194509250565b600082825260208201905092915050565b6000613f9182613a7e565b613f9b8185613f75565b9350613fa683613a9a565b8060005b83811015613fd7578151613fbe8882613ab9565b9750613fc983613ad1565b925050600181019050613faa565b5085935050505092915050565b600082825260208201905092915050565b600061400082613b3c565b61400a8185613fe4565b935061401583613b58565b8060005b8381101561404657815161402d8882613b77565b975061403883613b8f565b925050600181019050614019565b5085935050505092915050565b6000604082019050818103600083015261406d8185613f86565b905081810360208301526140818184613ff5565b90509392505050565b6000606082840312156140a05761409f613952565b5b81905092915050565b6000602082840312156140bf576140be613612565b5b600082013567ffffffffffffffff8111156140dd576140dc613617565b5b6140e98482850161408a565b91505092915050565b600060a0828403121561410857614107613952565b5b81905092915050565b600080fd5b600080fd5b60008083601f84011261413157614130613dbd565b5b8235905067ffffffffffffffff81111561414e5761414d614111565b5b60208301915083602082028301111561416a57614169614116565b5b9250929050565b60008060008060006080868803121561418d5761418c613612565b5b600061419b88828901613892565b95505060206141ac88828901613892565b945050604086013567ffffffffffffffff8111156141cd576141cc613617565b5b6141d9888289016140f2565b935050606086013567ffffffffffffffff8111156141fa576141f9613617565b5b6142068882890161411b565b92509250509295509295909350565b6000602082019050818103600083015261422f8184613ff5565b905092915050565b6000806040838503121561424e5761424d613612565b5b600061425c85828601613892565b925050602061426d85828601613892565b9150509250929050565b6000806020838503121561428e5761428d613612565b5b600083013567ffffffffffffffff8111156142ac576142ab613617565b5b6142b88582860161411b565b92509250509250929050565b6000602082840312156142da576142d9613612565b5b600082013567ffffffffffffffff8111156142f8576142f7613617565b5b614304848285016140f2565b91505092915050565b7f4e487b7100000000000000000000000000000000000000000000000000000000600052602260045260246000fd5b6000600282049050600182168061435457607f821691505b6020821081036143675761436661430d565b5b50919050565b7f4552433732313a20617070726f76656420717565727920666f72206e6f6e657860008201527f697374656e7420746f6b656e0000000000000000000000000000000000000000602082015250565b60006143c9602c8361376f565b91506143d48261436d565b604082019050919050565b600060208201905081810360008301526143f8816143bc565b9050919050565b7f4552433732313a20617070726f76616c20746f2063757272656e74206f776e6560008201527f7200000000000000000000000000000000000000000000000000000000000000602082015250565b600061445b60218361376f565b9150614466826143ff565b604082019050919050565b6000602082019050818103600083015261448a8161444e565b9050919050565b7f4552433732313a20617070726f76652063616c6c6572206973206e6f74206f7760008201527f6e6572206e6f7220617070726f76656420666f7220616c6c0000000000000000602082015250565b60006144ed60388361376f565b91506144f882614491565b604082019050919050565b6000602082019050818103600083015261451c816144e0565b9050919050565b7f5265656e7472616e637947756172643a207265656e7472616e742063616c6c00600082015250565b6000614559601f8361376f565b915061456482614523565b602082019050919050565b600060208201905081810360008301526145888161454c565b9050919050565b7f4e487b7100000000000000000000000000000000000000000000000000000000600052601160045260246000fd5b60006145c9826136d7565b91506145d4836136d7565b9250828210156145e7576145e661458f565b5b828203905092915050565b600080fd5b600080fd5b600080fd5b6000808335600160200384360303811261461e5761461d6145f2565b5b80840192508235915067ffffffffffffffff8211156146405761463f6145f7565b5b60208301925060018202360383131561465c5761465b6145fc565b5b509250929050565b7f4552433732313a207472616e736665722063616c6c6572206973206e6f74206f60008201527f776e6572206e6f7220617070726f766564000000000000000000000000000000602082015250565b60006146c060318361376f565b91506146cb82614664565b604082019050919050565b600060208201905081810360008301526146ef816146b3565b9050919050565b7f4f776e61626c653a2063616c6c6572206973206e6f7420746865206f776e6572600082015250565b600061472c60208361376f565b9150614737826146f6565b602082019050919050565b6000602082019050818103600083015261475b8161471f565b9050919050565b600081905092915050565b50565b600061477d600083614762565b91506147888261476d565b600082019050919050565b600061479e82614770565b9150819050919050565b7f4552433732313a206f776e657220717565727920666f72206e6f6e657869737460008201527f656e7420746f6b656e0000000000000000000000000000000000000000000000602082015250565b600061480460298361376f565b915061480f826147a8565b604082019050919050565b60006020820190508181036000830152614833816147f7565b9050919050565b7f4552433732313a2062616c616e636520717565727920666f7220746865207a6560008201527f726f206164647265737300000000000000000000000000000000000000000000602082015250565b6000614896602a8361376f565b91506148a18261483a565b604082019050919050565b600060208201905081810360008301526148c581614889565b9050919050565b7f4e487b7100000000000000000000000000000000000000000000000000000000600052603260045260246000fd5b600082356001604003833603038112614917576149166145f2565b5b80830191505092915050565b600080833560016020038436030381126149405761493f6145f2565b5b80840192508235915067ffffffffffffffff821115614962576149616145f7565b5b60208301925060208202360383131561497e5761497d6145fc565b5b509250929050565b600080833560016020038436030381126149a3576149a26145f2565b5b80840192508235915067ffffffffffffffff8211156149c5576149c46145f7565b5b6020830192506020820236038313156149e1576149e06145fc565b5b509250929050565b6000602082840312156149ff576149fe613612565b5b6000614a0d84828501613a29565b91505092915050565b6000819050919050565b600081549050919050565b6000614a36826136d7565b9150614a41836136d7565b9250817fffffffffffffffffffffffffffffffffffffffffffffffffffffffffffffffff0483118215151615614a7a57614a7961458f565b5b828202905092915050565b60008190506001806001038301049050919050565b60008190508160005260206000209050919050565b600082821b905092915050565b600060088302614aec7fffffffffffffffffffffffffffffffffffffffffffffffffffffffffffffffff82614aaf565b614af68683614aaf565b95508019841693508086168417925050509392505050565b6000819050919050565b6000614b33614b2e614b29846136d7565b614b0e565b6136d7565b9050919050565b6000819050919050565b614b4d83614b18565b614b61614b5982614b3a565b848454614abc565b825550505050565b600090565b614b76614b69565b614b81818484614b44565b505050565b5b81811015614ba557614b9a600082614b6e565b600181019050614b87565b5050565b600082821c905092915050565b81831015614bef57614bc782614a85565b614bd084614a85565b614bd983614a9a565b818101838201614be98183614b86565b50505050505b505050565b68010000000000000000821115614c0e57614c0d613dc7565b5b614c1781614a20565b828255614c25838284614bb6565b505050565b600082905092915050565b60008135614c42816138f9565b80915050919050565b600060088302614c6f73ffffffffffffffffffffffffffffffffffffffff82614aaf565b614c798683614aaf565b95508019841693508086168417925050509392505050565b6000614cac614ca7614ca28461381f565b614b0e565b61381f565b9050919050565b6000614cbe82614c91565b9050919050565b6000614cd082614cb3565b9050919050565b6000819050919050565b614cea83614cc5565b614cfe614cf682614cd7565b848454614c4b565b825550505050565b614d108383614c2a565b614d1a8183614bf4565b614d2383614a16565b614d2c83614a9a565b6000805b84811015614d675783614d4281614c35565b9050614d4f818486614ce1565b60208501945060018401935050600181019050614d30565b5050505050505050565b614d7c838383614d06565b505050565b6000819050919050565b600081549050919050565b60008190506001806001038301049050919050565b60008190508160005260206000209050919050565b5b81811015614ddf57614dd4600082614b6e565b600181019050614dc1565b5050565b81831015614e1c57614df482614d96565b614dfd84614d96565b614e0683614dab565b818101838201614e168183614dc0565b50505050505b505050565b68010000000000000000821115614e3b57614e3a613dc7565b5b614e4481614d8b565b828255614e52838284614de3565b505050565b600082905092915050565b60008135614e6f816136e1565b80915050919050565b614e828383614e57565b614e8c8183614e21565b614e9583614d81565b614e9e83614dab565b6000805b84811015614ed95783614eb481614e62565b9050614ec1818486614b44565b60208501945060018401935050600181019050614ea2565b5050505050505050565b614eee838383614e78565b505050565b6000810160008301614f058185614923565b614f10818386614d71565b505050506001810160208301614f268185614986565b614f31818386614ee3565b505050505050565b614f438282614ef3565b5050565b7f496e697469616c697a61626c653a20636f6e747261637420697320616c72656160008201527f647920696e697469616c697a6564000000000000000000000000000000000000602082015250565b6000614fa3602e8361376f565b9150614fae82614f47565b604082019050919050565b60006020820190508181036000830152614fd281614f96565b9050919050565b600082905092915050565b60008190508160005260206000209050919050565b60006020601f8301049050919050565b5b818110156150285761501d600082614b6e565b60018101905061500a565b5050565b601f82111561506d5761503e81614fe4565b61504784614ff9565b81016020851015615056578190505b61506a61506285614ff9565b830182615009565b50505b505050565b600061508360001984600802614ba9565b1980831691505092915050565b600061509c8383615072565b9150826002028217905092915050565b6150b68383614fd9565b67ffffffffffffffff8111156150cf576150ce613dc7565b5b6150d9825461433c565b6150e482828561502c565b6000601f8311600181146151135760008415615101578287013590505b61510b8582615090565b865550615173565b601f19841661512186614fe4565b60005b8281101561514957848901358255600182019150602085019450602081019050615124565b868310156151665784890135615162601f891682615072565b8355505b6001600288020188555050505b50505050505050565b6151878383836150ac565b505050565b60008160001b9050919050565b60007fffffffffffffffffffffffffffffffffffffffffffffffffffffffffffffffff6151c58461518c565b9350801983169250808416831791505092915050565b6151e482614b18565b6151f76151f082614b3a565b8354615199565b8255505050565b60008101600083016152108185614601565b61521b81838661517c565b5050505060018101602083016152318185614601565b61523c81838661517c565b5050505060028101604083016152528185614601565b61525d81838661517c565b5050505060038101606083018061527381614e62565b905061527f81846151db565b50505060048101608083018061529481614e62565b90506152a081846151db565b5050505050565b6152b182826151fe565b5050565b600081905092915050565b60006152cb82613764565b6152d581856152b5565b93506152e5818560208601613780565b80840191505092915050565b7f2d00000000000000000000000000000000000000000000000000000000000000600082015250565b60006153276001836152b5565b9150615332826152f1565b600182019050919050565b7f2e6a736f6e000000000000000000000000000000000000000000000000000000600082015250565b60006153736005836152b5565b915061537e8261533d565b600582019050919050565b600061539582866152c0565b91506153a182856152c0565b91506153ac8261531a565b91506153b882846152c0565b91506153c382615366565b9150819050949350505050565b7f4f776e61626c653a206e6577206f776e657220697320746865207a65726f206160008201527f6464726573730000000000000000000000000000000000000000000000000000602082015250565b600061542c60268361376f565b9150615437826153d0565b604082019050919050565b6000602082019050818103600083015261545b8161541f565b9050919050565b600061546d826136d7565b9150615478836136d7565b9250827fffffffffffffffffffffffffffffffffffffffffffffffffffffffffffffffff038211156154ad576154ac61458f565b5b828201905092915050565b60006154c3826136d7565b91507fffffffffffffffffffffffffffffffffffffffffffffffffffffffffffffffff82036154f5576154f461458f565b5b600182019050919050565b7f416464726573733a20696e73756666696369656e742062616c616e6365000000600082015250565b6000615536601d8361376f565b915061554182615500565b602082019050919050565b6000602082019050818103600083015261556581615529565b9050919050565b7f416464726573733a20756e61626c6520746f2073656e642076616c75652c207260008201527f6563697069656e74206d61792068617665207265766572746564000000000000602082015250565b60006155c8603a8361376f565b91506155d38261556c565b604082019050919050565b600060208201905081810360008301526155f7816155bb565b9050919050565b7f4552433732313a206f70657261746f7220717565727920666f72206e6f6e657860008201527f697374656e7420746f6b656e0000000000000000000000000000000000000000602082015250565b600061565a602c8361376f565b9150615665826155fe565b604082019050919050565b600060208201905081810360008301526156898161564d565b9050919050565b7f4552433732313a207472616e73666572206f6620746f6b656e2074686174206960008201527f73206e6f74206f776e0000000000000000000000000000000000000000000000602082015250565b60006156ec60298361376f565b91506156f782615690565b604082019050919050565b6000602082019050818103600083015261571b816156df565b9050919050565b7f4552433732313a207472616e7366657220746f20746865207a65726f2061646460008201527f7265737300000000000000000000000000000000000000000000000000000000602082015250565b600061577e60248361376f565b915061578982615722565b604082019050919050565b600060208201905081810360008301526157ad81615771565b9050919050565b7f4552433732313a20617070726f766520746f2063616c6c657200000000000000600082015250565b60006157ea60198361376f565b91506157f5826157b4565b602082019050919050565b60006020820190508181036000830152615819816157dd565b9050919050565b7f4552433732313a207472616e7366657220746f206e6f6e20455243373231526560008201527f63656976657220696d706c656d656e7465720000000000000000000000000000602082015250565b600061587c60328361376f565b915061588782615820565b604082019050919050565b600060208201905081810360008301526158ab8161586f565b9050919050565b7f496e697469616c697a61626c653a20636f6e7472616374206973206e6f74206960008201527f6e697469616c697a696e67000000000000000000000000000000000000000000602082015250565b600061590e602b8361376f565b9150615919826158b2565b604082019050919050565b6000602082019050818103600083015261593d81615901565b9050919050565b7f4e487b7100000000000000000000000000000000000000000000000000000000600052601260045260246000fd5b600061597e826136d7565b9150615989836136d7565b92508261599957615998615944565b5b828204905092915050565b60006159af826136d7565b91506159ba836136d7565b9250826159ca576159c9615944565b5b828206905092915050565b7f4552433732313a206d696e7420746f20746865207a65726f2061646472657373600082015250565b6000615a0b60208361376f565b9150615a16826159d5565b602082019050919050565b60006020820190508181036000830152615a3a816159fe565b9050919050565b7f4552433732313a20746f6b656e20616c7265616479206d696e74656400000000600082015250565b6000615a77601c8361376f565b9150615a8282615a41565b602082019050919050565b60006020820190508181036000830152615aa681615a6a565b9050919050565b600081519050919050565b600082825260208201905092915050565b6000615ad482615aad565b615ade8185615ab8565b9350615aee818560208601613780565b615af7816137b3565b840191505092915050565b6000608082019050615b176000830187613851565b615b246020830186613851565b615b31604083018561373a565b8181036060830152615b438184615ac9565b905095945050505050565b600081519050615b5d81613648565b92915050565b600060208284031215615b7957615b78613612565b5b6000615b8784828501615b4e565b9150509291505056fea2646970667358221220a0948b4d253260ddb1e0f9f992cc2e12e7490c2c72865935c99988c92201756464736f6c634300080d0033",
  "immutableReferences": {},
  "source": "// SPDX-License-Identifier: MIT\npragma solidity ^0.8.0;\nimport \"@openzeppelin/contracts-upgradeable/token/ERC721/ERC721Upgradeable.sol\";\nimport \"@openzeppelin/contracts-upgradeable/access/OwnableUpgradeable.sol\";\nimport \"@openzeppelin/contracts-upgradeable/utils/AddressUpgradeable.sol\";\nimport \"@openzeppelin/contracts-upgradeable/security/ReentrancyGuardUpgradeable.sol\";\nimport \"@openzeppelin/contracts/utils/introspection/ERC165Checker.sol\";\nimport \"@openzeppelin/contracts/utils/introspection/ERC165.sol\";\nimport \"@openzeppelin/contracts/utils/Counters.sol\";\nimport \"@openzeppelin/contracts/utils/Strings.sol\";\nimport \"@openzeppelin/contracts/proxy/Clones.sol\";\nimport \"@manifoldxyz/royalty-registry-solidity/contracts/specs/IManifold.sol\";\nimport \"./MintSplit.sol\";\nimport \"./MintSplitFactory.sol\";\n\n/// @author mintsplit.io\n\n/// @title MintSplit ERC721 Smart Contract\ncontract MintSplitERC721 is ERC721Upgradeable, OwnableUpgradeable, ReentrancyGuardUpgradeable, IManifold {\n    using Counters for Counters.Counter;\n    using Strings for uint;\n\n    uint256[] public editions;\n    address factory;\n    uint256 public totalBalance;\n    bool public isPaused;\n    MintSplit.Params private params;\n    Counters.Counter public tokens;\n\n    mapping (uint => string) public contentURI;\n    mapping (uint256 => Counters.Counter) public contentSupply;\n    mapping (uint256 => uint256) public tokenContent;\n    mapping (uint256 => uint256) public tokenEdition;\n    mapping (address => uint256) public balance;\n    mapping (uint256 => bool) mintSplitOverride;\n    mapping (uint256 => MintSplit.PaymentSplit) mintSplits;\n    mapping (uint256 => MintSplit.PaymentSplit) royaltySplits;\n\n    modifier onlyFactory() {\n        require(factory == _msgSender());\n        _;\n    }\n\n    /**\n    @dev Automatically mark the implementation\n    contract as initialized when it is deployed\n    */\n    constructor() initializer {}\n\n    /**\n    Initialize a new project\n    @dev Initialize a new ERC721 clone\n    @param _owner the address that initialized the ERC721 clone\n    @param _factory the address of the MintSplitFactory that initialized the ERC721 clone\n    @param _params the project settings configured by the user\n    @param _editions the editions of the initial content\n    */\n    function initialize(address _owner, address _factory, MintSplit.Params calldata _params, uint256[] calldata _editions) initializer public {\n        __ERC721_init(_params.name, _params.symbol);\n        _transferOwnership(_owner);\n        factory = _factory;\n        params = _params;\n        editions = _editions;\n    }\n\n    function supportsInterface(bytes4 interfaceId) public view virtual override(ERC721Upgradeable) returns (bool) {\n        return\n            interfaceId == type(IManifold).interfaceId ||\n            super.supportsInterface(interfaceId);\n    }\n\n    /**\n    Mint NFTs\n    @param contentIds an array of content ids to be minted\n    */\n    function mint(uint256[] calldata contentIds) external payable nonReentrant {\n        require(!isPaused);\n        if (msg.sender != owner()) {\n            require(params.mintPrice * contentIds.length == msg.value);\n            require(block.timestamp > params.releaseTime);\n        }\n        for(uint256 i; i < contentIds.length; i++) {\n            uint cid = contentIds[i];\n            require(cid > 0);\n            require(cid <= editions.length);\n            Counters.Counter storage supply = contentSupply[cid];\n            uint256 currentSupply = supply.current();\n            require(currentSupply < editions[cid-1]);\n            supply.increment();\n            tokens.increment();\n            uint tid = tokens.current();\n            tokenContent[tid] = cid;\n            tokenEdition[tid] = currentSupply+1;\n            _mint(msg.sender, tid);\n            if (msg.sender != owner() && mintSplitOverride[cid]) _updateBalance(cid);\n        }\n    }\n\n    /**\n    Release funds to the user\n    @param account the account whom to release funds\n    */\n    function release(address payable account) external nonReentrant {\n        require(!isPaused);\n        uint payment = balance[account];\n        require(payment > 0);\n        balance[account] = 0;\n        totalBalance -= payment;\n        AddressUpgradeable.sendValue(account, payment);\n    }\n\n    /**\n    Get the URI for the token\n    @param tokenId the token id for which to get the URI\n    */\n    function tokenURI(uint tokenId) public view virtual override returns (string memory) {\n        require(_exists(tokenId));\n        uint cid = tokenContent[tokenId];\n        string storage cURI = contentURI[cid];\n        string memory uri = (bytes(cURI).length == 0) ? params.baseURI : cURI;\n        return string(abi.encodePacked(uri, cid.toString(), \"-\", tokenEdition[tokenId].toString(), \".json\"));\n    }\n\n    /**\n    @dev Get royalites of a token.\n    @return recipients_ addresses of the split recipients\n    @return bps basis points of split recipients\n    */\n    function getRoyalties(uint tokenId) external view returns(address payable[] memory recipients_, uint256[] memory bps) {\n        require(_exists(tokenId));\n        MintSplit.PaymentSplit storage results = royaltySplits[tokenContent[tokenId]];\n        return (results.recipients, results.bps);\n    }\n\n    /**\n    Get editions\n    @return editions the list of content editions\n    */\n    function getEditions() external view returns(uint[] memory) {\n        return editions;\n    }\n    \n    /**\n    Get project params\n    @return params the active params for this contract\n    */\n    function getParams() external view returns(MintSplit.Params memory) {\n        return params;\n    }\n    \n    /**\n    Get splits for a specific content\n    @param cid the id for the content to retrieve splits\n    @param isMint flag for determining split type\n    @return split the splits for this content\n    */\n    function getContentSplits(uint256 cid, bool isMint) external view returns(MintSplit.PaymentSplit memory split) {\n        return isMint ? mintSplits[cid] : royaltySplits[cid];\n    }\n\n    /**\n    Add content\n    @dev only the factory can use this function\n    @param content the data for adding content\n    */\n    function addContent(MintSplit.Content calldata content) external onlyFactory {\n        editions.push(content.editions);\n        contentURI[editions.length] = content.uri;\n    }\n    \n    /**\n    Update content\n    @dev only the factory can use this function\n    @param content the data for updating content\n    */\n    function setContent(MintSplit.Content calldata content) external onlyFactory {\n        uint256 cid = content.id;\n        editions[cid-1] = content.editions;\n        contentURI[cid] = content.uri;\n    }\n\n    /**\n    Set split\n    @param config the data for configuring the content split\n    */\n    function setSplit(MintSplit.PaymentSplitConfig calldata config) external onlyOwner {\n        MintSplit.PaymentSplit calldata split = config.split;\n        require(split.recipients.length < 6);\n        require(split.recipients.length == split.bps.length);\n        uint cid = config.contentId;\n        require(cid > 0);\n        if (config.isMint) {\n            mintSplitOverride[cid] = (split.recipients.length > 0);\n            mintSplits[cid] = split;\n        } else {\n            royaltySplits[cid] = split;\n        }\n    }\n\n    /// Toggle paused state\n    function togglePaused() external onlyOwner {\n        isPaused = !isPaused;\n    }\n\n    /**\n    Update project params\n    @param newParams the data for updating project params\n    */\n    function setParams(MintSplit.Params calldata newParams) external onlyOwner {\n        params = newParams;\n    }\n\n    /// Withdraw contract funds\n    function withdraw() external onlyOwner {\n        (bool success, ) = payable(msg.sender).call{\n            value: (address(this).balance - totalBalance)\n        }(\"\");\n        require(success);\n    }\n\n    /**\n    Update balance\n    @param cid the id of content for which to update the contract balance\n    */\n    function _updateBalance(uint256 cid) internal {\n        MintSplit.PaymentSplit storage split = mintSplits[cid];\n        for(uint256 i; i < split.recipients.length; i++) {\n            uint share = (params.mintPrice*split.bps[i])/10000;\n            totalBalance += share;\n            balance[split.recipients[i]] += share;\n        }\n    }\n}",
  "sourcePath": "/Users/justinfsl/Dev/misc/mintsplit/solidity/contracts/MintSplitERC721.sol",
  "compiler": {
    "name": "solc",
    "version": "0.8.13+commit.abaa5c0e.Emscripten.clang"
  },
  "schemaVersion": "3.3.4",
  "updatedAt": "2022-05-13T11:27:03.661Z",
  "networkType": "ethereum",
  "devdoc": {
    "kind": "dev",
    "methods": {
      "addContent((uint256,uint256,string))": {
        "details": "only the factory can use this function",
        "params": {
          "content": "the data for adding content"
        }
      },
      "approve(address,uint256)": {
        "details": "See {IERC721-approve}."
      },
      "balanceOf(address)": {
        "details": "See {IERC721-balanceOf}."
      },
      "constructor": {
        "details": "Automatically mark the implementation contract as initialized when it is deployed"
      },
      "getApproved(uint256)": {
        "details": "See {IERC721-getApproved}."
      },
      "getContentSplits(uint256,bool)": {
        "params": {
          "cid": "the id for the content to retrieve splits",
          "isMint": "flag for determining split type"
        },
        "returns": {
          "split": "the splits for this content"
        }
      },
      "getEditions()": {
        "returns": {
          "_0": "editions the list of content editions"
        }
      },
      "getParams()": {
        "returns": {
          "_0": "params the active params for this contract"
        }
      },
      "getRoyalties(uint256)": {
        "details": "Get royalites of a token.",
        "returns": {
          "bps": "basis points of split recipients",
          "recipients_": "addresses of the split recipients"
        }
      },
      "initialize(address,address,(string,string,string,uint256,uint256),uint256[])": {
        "details": "Initialize a new ERC721 clone",
        "params": {
          "_editions": "the editions of the initial content",
          "_factory": "the address of the MintSplitFactory that initialized the ERC721 clone",
          "_owner": "the address that initialized the ERC721 clone",
          "_params": "the project settings configured by the user"
        }
      },
      "isApprovedForAll(address,address)": {
        "details": "See {IERC721-isApprovedForAll}."
      },
      "mint(uint256[])": {
        "params": {
          "contentIds": "an array of content ids to be minted"
        }
      },
      "name()": {
        "details": "See {IERC721Metadata-name}."
      },
      "owner()": {
        "details": "Returns the address of the current owner."
      },
      "ownerOf(uint256)": {
        "details": "See {IERC721-ownerOf}."
      },
      "release(address)": {
        "params": {
          "account": "the account whom to release funds"
        }
      },
      "renounceOwnership()": {
        "details": "Leaves the contract without owner. It will not be possible to call `onlyOwner` functions anymore. Can only be called by the current owner. NOTE: Renouncing ownership will leave the contract without an owner, thereby removing any functionality that is only available to the owner."
      },
      "safeTransferFrom(address,address,uint256)": {
        "details": "See {IERC721-safeTransferFrom}."
      },
      "safeTransferFrom(address,address,uint256,bytes)": {
        "details": "See {IERC721-safeTransferFrom}."
      },
      "setApprovalForAll(address,bool)": {
        "details": "See {IERC721-setApprovalForAll}."
      },
      "setContent((uint256,uint256,string))": {
        "details": "only the factory can use this function",
        "params": {
          "content": "the data for updating content"
        }
      },
      "setParams((string,string,string,uint256,uint256))": {
        "params": {
          "newParams": "the data for updating project params"
        }
      },
      "setSplit((uint256,bool,(address[],uint256[])))": {
        "params": {
          "config": "the data for configuring the content split"
        }
      },
      "supportsInterface(bytes4)": {
        "details": "See {IERC165-supportsInterface}."
      },
      "symbol()": {
        "details": "See {IERC721Metadata-symbol}."
      },
      "tokenURI(uint256)": {
        "params": {
          "tokenId": "the token id for which to get the URI"
        }
      },
      "transferFrom(address,address,uint256)": {
        "details": "See {IERC721-transferFrom}."
      },
      "transferOwnership(address)": {
        "details": "Transfers ownership of the contract to a new account (`newOwner`). Can only be called by the current owner."
      }
    },
    "title": "MintSplit ERC721 Smart Contract",
    "version": 1
  },
  "userdoc": {
    "kind": "user",
    "methods": {
      "addContent((uint256,uint256,string))": {
        "notice": "Add content"
      },
      "getContentSplits(uint256,bool)": {
        "notice": "Get splits for a specific content"
      },
      "getEditions()": {
        "notice": "Get editions"
      },
      "getParams()": {
        "notice": "Get project params"
      },
      "initialize(address,address,(string,string,string,uint256,uint256),uint256[])": {
        "notice": "Initialize a new project"
      },
      "mint(uint256[])": {
        "notice": "Mint NFTs"
      },
      "release(address)": {
        "notice": "Release funds to the user"
      },
      "setContent((uint256,uint256,string))": {
        "notice": "Update content"
      },
      "setParams((string,string,string,uint256,uint256))": {
        "notice": "Update project params"
      },
      "setSplit((uint256,bool,(address[],uint256[])))": {
        "notice": "Set split"
      },
      "togglePaused()": {
        "notice": "Toggle paused state"
      },
      "tokenURI(uint256)": {
        "notice": "Get the URI for the token"
      },
      "withdraw()": {
        "notice": "Withdraw contract funds"
      }
    },
    "version": 1
  }
}