{
  "contractName": "MintSplitFactory",
  "abi": [
    {
      "inputs": [
        {
          "internalType": "address",
          "name": "_erc721",
          "type": "address"
        }
      ],
      "stateMutability": "nonpayable",
      "type": "constructor"
    },
    {
      "anonymous": false,
      "inputs": [
        {
          "indexed": true,
          "internalType": "address",
          "name": "previousOwner",
          "type": "address"
        },
        {
          "indexed": true,
          "internalType": "address",
          "name": "newOwner",
          "type": "address"
        }
      ],
      "name": "OwnershipTransferred",
      "type": "event"
    },
    {
      "anonymous": false,
      "inputs": [
        {
          "indexed": true,
          "internalType": "address",
          "name": "project",
          "type": "address"
        },
        {
          "indexed": true,
          "internalType": "address",
          "name": "owner",
          "type": "address"
        }
      ],
      "name": "ProjectCreated",
      "type": "event"
    },
    {
      "inputs": [],
      "name": "baseTokenFee",
      "outputs": [
        {
          "internalType": "uint256",
          "name": "",
          "type": "uint256"
        }
      ],
      "stateMutability": "view",
      "type": "function",
      "constant": true
    },
    {
      "inputs": [],
      "name": "erc721",
      "outputs": [
        {
          "internalType": "address",
          "name": "",
          "type": "address"
        }
      ],
      "stateMutability": "view",
      "type": "function",
      "constant": true
    },
    {
      "inputs": [],
      "name": "owner",
      "outputs": [
        {
          "internalType": "address",
          "name": "",
          "type": "address"
        }
      ],
      "stateMutability": "view",
      "type": "function",
      "constant": true
    },
    {
      "inputs": [],
      "name": "paused",
      "outputs": [
        {
          "internalType": "bool",
          "name": "",
          "type": "bool"
        }
      ],
      "stateMutability": "view",
      "type": "function",
      "constant": true
    },
    {
      "inputs": [],
      "name": "renounceOwnership",
      "outputs": [],
      "stateMutability": "nonpayable",
      "type": "function"
    },
    {
      "inputs": [
        {
          "internalType": "address",
          "name": "newOwner",
          "type": "address"
        }
      ],
      "name": "transferOwnership",
      "outputs": [],
      "stateMutability": "nonpayable",
      "type": "function"
    },
    {
      "inputs": [
        {
          "components": [
            {
              "internalType": "string",
              "name": "name",
              "type": "string"
            },
            {
              "internalType": "string",
              "name": "symbol",
              "type": "string"
            },
            {
              "internalType": "string",
              "name": "baseURI",
              "type": "string"
            },
            {
              "internalType": "uint256",
              "name": "mintPrice",
              "type": "uint256"
            },
            {
              "internalType": "uint256",
              "name": "releaseTime",
              "type": "uint256"
            }
          ],
          "internalType": "struct MintSplit.Params",
          "name": "params",
          "type": "tuple"
        },
        {
          "internalType": "uint256[]",
          "name": "editions",
          "type": "uint256[]"
        }
      ],
      "name": "createProject",
      "outputs": [],
      "stateMutability": "payable",
      "type": "function",
      "payable": true
    },
    {
      "inputs": [
        {
          "internalType": "address",
          "name": "existingProject",
          "type": "address"
        },
        {
          "components": [
            {
              "internalType": "uint256",
              "name": "id",
              "type": "uint256"
            },
            {
              "internalType": "uint256",
              "name": "editions",
              "type": "uint256"
            },
            {
              "internalType": "string",
              "name": "uri",
              "type": "string"
            }
          ],
          "internalType": "struct MintSplit.Content",
          "name": "content",
          "type": "tuple"
        }
      ],
      "name": "addContent",
      "outputs": [],
      "stateMutability": "payable",
      "type": "function",
      "payable": true
    },
    {
      "inputs": [
        {
          "internalType": "address",
          "name": "existingProject",
          "type": "address"
        },
        {
          "components": [
            {
              "internalType": "uint256",
              "name": "id",
              "type": "uint256"
            },
            {
              "internalType": "uint256",
              "name": "editions",
              "type": "uint256"
            },
            {
              "internalType": "string",
              "name": "uri",
              "type": "string"
            }
          ],
          "internalType": "struct MintSplit.Content",
          "name": "content",
          "type": "tuple"
        }
      ],
      "name": "setContent",
      "outputs": [],
      "stateMutability": "payable",
      "type": "function",
      "payable": true
    },
    {
      "inputs": [
        {
          "internalType": "uint256",
          "name": "qty",
          "type": "uint256"
        }
      ],
      "name": "tokenFee",
      "outputs": [
        {
          "internalType": "uint256",
          "name": "",
          "type": "uint256"
        }
      ],
      "stateMutability": "view",
      "type": "function",
      "constant": true
    },
    {
      "inputs": [],
      "name": "togglePaused",
      "outputs": [],
      "stateMutability": "nonpayable",
      "type": "function"
    },
    {
      "inputs": [
        {
          "internalType": "uint256",
          "name": "newBaseTokenFee",
          "type": "uint256"
        }
      ],
      "name": "setBaseTokenFee",
      "outputs": [],
      "stateMutability": "nonpayable",
      "type": "function"
    },
    {
      "inputs": [
        {
          "internalType": "uint256",
          "name": "newDivider",
          "type": "uint256"
        }
      ],
      "name": "setDivider",
      "outputs": [],
      "stateMutability": "nonpayable",
      "type": "function"
    },
    {
      "inputs": [
        {
          "internalType": "uint256",
          "name": "newDiscount",
          "type": "uint256"
        }
      ],
      "name": "setDiscount",
      "outputs": [],
      "stateMutability": "nonpayable",
      "type": "function"
    },
    {
      "inputs": [],
      "name": "withdraw",
      "outputs": [],
      "stateMutability": "nonpayable",
      "type": "function"
    }
  ],
  "bytecode": "0x60a06040523480156200001157600080fd5b5060405162001c0038038062001c008339818101604052810190620000379190620001ee565b620000576200004b620000b860201b60201c565b620000c060201b60201c565b8073ffffffffffffffffffffffffffffffffffffffff1660808173ffffffffffffffffffffffffffffffffffffffff1681525050660360051c8960006001819055506103e86002819055506706f05b59d3b200006003819055505062000220565b600033905090565b60008060009054906101000a900473ffffffffffffffffffffffffffffffffffffffff169050816000806101000a81548173ffffffffffffffffffffffffffffffffffffffff021916908373ffffffffffffffffffffffffffffffffffffffff1602179055508173ffffffffffffffffffffffffffffffffffffffff168173ffffffffffffffffffffffffffffffffffffffff167f8be0079c531659141344cd1fd0a4f28419497f9722a3daafe3b4186f6b6457e060405160405180910390a35050565b600080fd5b600073ffffffffffffffffffffffffffffffffffffffff82169050919050565b6000620001b68262000189565b9050919050565b620001c881620001a9565b8114620001d457600080fd5b50565b600081519050620001e881620001bd565b92915050565b60006020828403121562000207576200020662000184565b5b60006200021784828501620001d7565b91505092915050565b6080516119bd62000243600039600081816106570152610a8c01526119bd6000f3fe6080604052600436106100e85760003560e01c8063660a30bb1161008a578063bca6ce6411610059578063bca6ce641461027a578063d6eaa902146102a5578063dabd2719146102c1578063f2fde38b146102ea576100e8565b8063660a30bb146101e4578063715018a61461020f578063893fe0be146102265780638da5cb5b1461024f576100e8565b806323624a10116100c657806323624a101461014e57806336566f061461018b5780633ccfd60b146101a25780635c975abb146101b9576100e8565b8063175cde5d146100ed578063181ea35d1461010957806323354f1f14610132575b600080fd5b61010760048036038101906101029190610fe7565b610313565b005b34801561011557600080fd5b50610130600480360381019061012b9190611079565b610593565b005b61014c6004803603810190610147919061112a565b610619565b005b34801561015a57600080fd5b5061017560048036038101906101709190611079565b610750565b60405161018291906111b5565b60405180910390f35b34801561019757600080fd5b506101a061079d565b005b3480156101ae57600080fd5b506101b7610845565b005b3480156101c557600080fd5b506101ce61093a565b6040516101db91906111eb565b60405180910390f35b3480156101f057600080fd5b506101f961094d565b60405161020691906111b5565b60405180910390f35b34801561021b57600080fd5b50610224610953565b005b34801561023257600080fd5b5061024d60048036038101906102489190611079565b6109db565b005b34801561025b57600080fd5b50610264610a61565b6040516102719190611215565b60405180910390f35b34801561028657600080fd5b5061028f610a8a565b60405161029c9190611215565b60405180910390f35b6102bf60048036038101906102ba9190610fe7565b610aae565b005b3480156102cd57600080fd5b506102e860048036038101906102e39190611079565b610be8565b005b3480156102f657600080fd5b50610311600480360381019061030c9190611230565b610c6e565b005b600081600001351161032457600080fd5b6000829050610331610d65565b73ffffffffffffffffffffffffffffffffffffffff168173ffffffffffffffffffffffffffffffffffffffff16638da5cb5b6040518163ffffffff1660e01b8152600401602060405180830381865afa158015610392573d6000803e3d6000fd5b505050506040513d601f19601f820116820180604052508101906103b69190611272565b73ffffffffffffffffffffffffffffffffffffffff16146103d657600080fd5b8073ffffffffffffffffffffffffffffffffffffffff166306f9eec483600001356040518263ffffffff1660e01b815260040161041391906111b5565b602060405180830381865afa158015610430573d6000803e3d6000fd5b505050506040513d601f19601f8201168201806040525081019061045491906112b4565b8260200135101561046457600080fd5b60008173ffffffffffffffffffffffffffffffffffffffff1663279c806e600185600001356104939190611310565b6040518263ffffffff1660e01b81526004016104af91906111b5565b602060405180830381865afa1580156104cc573d6000803e3d6000fd5b505050506040513d601f19601f820116820180604052508101906104f091906112b4565b90508083602001351115610522576105168184602001356105119190611310565b610750565b341461052157600080fd5b5b8173ffffffffffffffffffffffffffffffffffffffff166385e4ae00846040518263ffffffff1660e01b815260040161055b91906114a4565b600060405180830381600087803b15801561057557600080fd5b505af1158015610589573d6000803e3d6000fd5b5050505050505050565b61059b610d65565b73ffffffffffffffffffffffffffffffffffffffff166105b9610a61565b73ffffffffffffffffffffffffffffffffffffffff161461060f576040517f08c379a000000000000000000000000000000000000000000000000000000000815260040161060690611523565b60405180910390fd5b8060018190555050565b600460009054906101000a900460ff161561063357600080fd5b6106456106408383610d6d565b610750565b341461065057600080fd5b600061067b7f0000000000000000000000000000000000000000000000000000000000000000610dc3565b90508073ffffffffffffffffffffffffffffffffffffffff1663c51f9ab933308787876040518663ffffffff1660e01b81526004016106be959493929190611667565b600060405180830381600087803b1580156106d857600080fd5b505af11580156106ec573d6000803e3d6000fd5b505050503373ffffffffffffffffffffffffffffffffffffffff168173ffffffffffffffffffffffffffffffffffffffff167f8cb1f5e0b7508307e592a641586f535256dba226b02388100691c6133f65e22e60405160405180910390a350505050565b60008082036107625760009050610798565b6003546002548361077391906116eb565b61077d919061171c565b6001548361078b919061171c565b6107959190611310565b90505b919050565b6107a5610d65565b73ffffffffffffffffffffffffffffffffffffffff166107c3610a61565b73ffffffffffffffffffffffffffffffffffffffff1614610819576040517f08c379a000000000000000000000000000000000000000000000000000000000815260040161081090611523565b60405180910390fd5b600460009054906101000a900460ff1615600460006101000a81548160ff021916908315150217905550565b61084d610d65565b73ffffffffffffffffffffffffffffffffffffffff1661086b610a61565b73ffffffffffffffffffffffffffffffffffffffff16146108c1576040517f08c379a00000000000000000000000000000000000000000000000000000000081526004016108b890611523565b60405180910390fd5b60003373ffffffffffffffffffffffffffffffffffffffff16476040516108e7906117a7565b60006040518083038185875af1925050503d8060008114610924576040519150601f19603f3d011682016040523d82523d6000602084013e610929565b606091505b505090508061093757600080fd5b50565b600460009054906101000a900460ff1681565b60015481565b61095b610d65565b73ffffffffffffffffffffffffffffffffffffffff16610979610a61565b73ffffffffffffffffffffffffffffffffffffffff16146109cf576040517f08c379a00000000000000000000000000000000000000000000000000000000081526004016109c690611523565b60405180910390fd5b6109d96000610e97565b565b6109e3610d65565b73ffffffffffffffffffffffffffffffffffffffff16610a01610a61565b73ffffffffffffffffffffffffffffffffffffffff1614610a57576040517f08c379a0000000000000000000000000000000000000000000000000000000008152600401610a4e90611523565b60405180910390fd5b8060028190555050565b60008060009054906101000a900473ffffffffffffffffffffffffffffffffffffffff16905090565b7f000000000000000000000000000000000000000000000000000000000000000081565b6000829050610abb610d65565b73ffffffffffffffffffffffffffffffffffffffff168173ffffffffffffffffffffffffffffffffffffffff16638da5cb5b6040518163ffffffff1660e01b8152600401602060405180830381865afa158015610b1c573d6000803e3d6000fd5b505050506040513d601f19601f82011682018060405250810190610b409190611272565b73ffffffffffffffffffffffffffffffffffffffff1614610b6057600080fd5b610b6d8260200135610750565b3414610b7857600080fd5b8073ffffffffffffffffffffffffffffffffffffffff16631974b892836040518263ffffffff1660e01b8152600401610bb191906114a4565b600060405180830381600087803b158015610bcb57600080fd5b505af1158015610bdf573d6000803e3d6000fd5b50505050505050565b610bf0610d65565b73ffffffffffffffffffffffffffffffffffffffff16610c0e610a61565b73ffffffffffffffffffffffffffffffffffffffff1614610c64576040517f08c379a0000000000000000000000000000000000000000000000000000000008152600401610c5b90611523565b60405180910390fd5b8060038190555050565b610c76610d65565b73ffffffffffffffffffffffffffffffffffffffff16610c94610a61565b73ffffffffffffffffffffffffffffffffffffffff1614610cea576040517f08c379a0000000000000000000000000000000000000000000000000000000008152600401610ce190611523565b60405180910390fd5b600073ffffffffffffffffffffffffffffffffffffffff168173ffffffffffffffffffffffffffffffffffffffff1603610d59576040517f08c379a0000000000000000000000000000000000000000000000000000000008152600401610d509061182e565b60405180910390fd5b610d6281610e97565b50565b600033905090565b60008060005b84849050811015610db857848482818110610d9157610d9061184e565b5b9050602002013582610da3919061187d565b91508080610db0906118d3565b915050610d73565b508091505092915050565b60006040517f3d602d80600a3d3981f3363d3d373d3d3d363d7300000000000000000000000081528260601b60148201527f5af43d82803e903d91602b57fd5bf3000000000000000000000000000000000060288201526037816000f0915050600073ffffffffffffffffffffffffffffffffffffffff168173ffffffffffffffffffffffffffffffffffffffff1603610e92576040517f08c379a0000000000000000000000000000000000000000000000000000000008152600401610e8990611967565b60405180910390fd5b919050565b60008060009054906101000a900473ffffffffffffffffffffffffffffffffffffffff169050816000806101000a81548173ffffffffffffffffffffffffffffffffffffffff021916908373ffffffffffffffffffffffffffffffffffffffff1602179055508173ffffffffffffffffffffffffffffffffffffffff168173ffffffffffffffffffffffffffffffffffffffff167f8be0079c531659141344cd1fd0a4f28419497f9722a3daafe3b4186f6b6457e060405160405180910390a35050565b600080fd5b600080fd5b600073ffffffffffffffffffffffffffffffffffffffff82169050919050565b6000610f9082610f65565b9050919050565b610fa081610f85565b8114610fab57600080fd5b50565b600081359050610fbd81610f97565b92915050565b600080fd5b600060608284031215610fde57610fdd610fc3565b5b81905092915050565b60008060408385031215610ffe57610ffd610f5b565b5b600061100c85828601610fae565b925050602083013567ffffffffffffffff81111561102d5761102c610f60565b5b61103985828601610fc8565b9150509250929050565b6000819050919050565b61105681611043565b811461106157600080fd5b50565b6000813590506110738161104d565b92915050565b60006020828403121561108f5761108e610f5b565b5b600061109d84828501611064565b91505092915050565b600060a082840312156110bc576110bb610fc3565b5b81905092915050565b600080fd5b600080fd5b600080fd5b60008083601f8401126110ea576110e96110c5565b5b8235905067ffffffffffffffff811115611107576111066110ca565b5b602083019150836020820283011115611123576111226110cf565b5b9250929050565b60008060006040848603121561114357611142610f5b565b5b600084013567ffffffffffffffff81111561116157611160610f60565b5b61116d868287016110a6565b935050602084013567ffffffffffffffff81111561118e5761118d610f60565b5b61119a868287016110d4565b92509250509250925092565b6111af81611043565b82525050565b60006020820190506111ca60008301846111a6565b92915050565b60008115159050919050565b6111e5816111d0565b82525050565b600060208201905061120060008301846111dc565b92915050565b61120f81610f85565b82525050565b600060208201905061122a6000830184611206565b92915050565b60006020828403121561124657611245610f5b565b5b600061125484828501610fae565b91505092915050565b60008151905061126c81610f97565b92915050565b60006020828403121561128857611287610f5b565b5b60006112968482850161125d565b91505092915050565b6000815190506112ae8161104d565b92915050565b6000602082840312156112ca576112c9610f5b565b5b60006112d88482850161129f565b91505092915050565b7f4e487b7100000000000000000000000000000000000000000000000000000000600052601160045260246000fd5b600061131b82611043565b915061132683611043565b925082821015611339576113386112e1565b5b828203905092915050565b60006113536020840184611064565b905092915050565b61136481611043565b82525050565b600080fd5b600080fd5b600080fd5b6000808335600160200384360303811261139657611395611374565b5b83810192508235915060208301925067ffffffffffffffff8211156113be576113bd61136a565b5b6001820236038413156113d4576113d361136f565b5b509250929050565b600082825260208201905092915050565b82818337600083830152505050565b6000601f19601f8301169050919050565b600061141983856113dc565b93506114268385846113ed565b61142f836113fc565b840190509392505050565b60006060830161144d6000840184611344565b61145a600086018261135b565b506114686020840184611344565b611475602086018261135b565b506114836040840184611379565b858303604087015261149683828461140d565b925050508091505092915050565b600060208201905081810360008301526114be818461143a565b905092915050565b600082825260208201905092915050565b7f4f776e61626c653a2063616c6c6572206973206e6f7420746865206f776e6572600082015250565b600061150d6020836114c6565b9150611518826114d7565b602082019050919050565b6000602082019050818103600083015261153c81611500565b9050919050565b600060a083016115566000840184611379565b858303600087015261156983828461140d565b9250505061157a6020840184611379565b858303602087015261158d83828461140d565b9250505061159e6040840184611379565b85830360408701526115b183828461140d565b925050506115c26060840184611344565b6115cf606086018261135b565b506115dd6080840184611344565b6115ea608086018261135b565b508091505092915050565b600082825260208201905092915050565b600080fd5b600061161783856115f5565b93507f07ffffffffffffffffffffffffffffffffffffffffffffffffffffffffffffff83111561164a57611649611606565b5b60208302925061165b8385846113ed565b82840190509392505050565b600060808201905061167c6000830188611206565b6116896020830187611206565b818103604083015261169b8186611543565b905081810360608301526116b081848661160b565b90509695505050505050565b7f4e487b7100000000000000000000000000000000000000000000000000000000600052601260045260246000fd5b60006116f682611043565b915061170183611043565b925082611711576117106116bc565b5b828204905092915050565b600061172782611043565b915061173283611043565b9250817fffffffffffffffffffffffffffffffffffffffffffffffffffffffffffffffff048311821515161561176b5761176a6112e1565b5b828202905092915050565b600081905092915050565b50565b6000611791600083611776565b915061179c82611781565b600082019050919050565b60006117b282611784565b9150819050919050565b7f4f776e61626c653a206e6577206f776e657220697320746865207a65726f206160008201527f6464726573730000000000000000000000000000000000000000000000000000602082015250565b60006118186026836114c6565b9150611823826117bc565b604082019050919050565b600060208201905081810360008301526118478161180b565b9050919050565b7f4e487b7100000000000000000000000000000000000000000000000000000000600052603260045260246000fd5b600061188882611043565b915061189383611043565b9250827fffffffffffffffffffffffffffffffffffffffffffffffffffffffffffffffff038211156118c8576118c76112e1565b5b828201905092915050565b60006118de82611043565b91507fffffffffffffffffffffffffffffffffffffffffffffffffffffffffffffffff82036119105761190f6112e1565b5b600182019050919050565b7f455243313136373a20637265617465206661696c656400000000000000000000600082015250565b60006119516016836114c6565b915061195c8261191b565b602082019050919050565b6000602082019050818103600083015261198081611944565b905091905056fea264697066735822122082fed85dc15b43a4d972aa33dfc86d3ed05615fe1c7a4c5170992f2fe669133964736f6c634300080d0033",
  "immutableReferences": {
    "3385": [
      {
        "length": 32,
        "start": 1623
      },
      {
        "length": 32,
        "start": 2700
      }
    ]
  },
  "source": "// SPDX-License-Identifier: MIT\npragma solidity ^0.8.0;\nimport \"@openzeppelin/contracts/access/Ownable.sol\";\nimport \"@openzeppelin/contracts/proxy/Clones.sol\";\nimport \"./MintSplit.sol\";\nimport \"./MintSplitERC721.sol\";\n\n/// @author mintsplit.io\n\n/// @title MintSplit Factory Smart Contract\ncontract MintSplitFactory is Ownable {\n    event ProjectCreated(address indexed project, address indexed owner);\n\n    address public immutable erc721;\n    uint public baseTokenFee;\n    uint divider;\n    uint discount;\n    bool public paused;\n\n     /**\n    Construct a MintSplit factory\n    @param _erc721 address of a deployed MintSplitERC721 smart contract implementation\n    */\n    constructor (address _erc721) {\n        erc721 = _erc721;\n        baseTokenFee = 950000000000000; // 0.00095 eth\n        divider = 1000;\n        discount = 500000000000000000; // 0.5 ether\n    }\n\n    /**\n    Create a new MintSplit project\n    @dev clone a MintSplit ERC721 smart contract implementation\n    @param params the parameters for the ERC721 contract\n    @param editions the editions for each piece of content\n    */\n    function createProject(\n        MintSplit.Params calldata params,\n        uint256[] calldata editions\n    ) external payable {\n        require(!paused);\n        require(msg.value == tokenFee(_sumArray(editions)));\n        MintSplitERC721 newProject = MintSplitERC721(Clones.clone(erc721));\n        newProject.initialize(msg.sender, address(this), params, editions);\n        emit ProjectCreated(address(newProject), msg.sender);\n    }\n\n    /**\n    Add content to the MintSplit project\n    @param existingProject the address of an existing MintSplit ERC721 clone\n    @param content the content data to be added\n    */\n    function addContent(address existingProject, MintSplit.Content calldata content) external payable {\n        MintSplitERC721 project = MintSplitERC721(existingProject);\n        require(project.owner() == _msgSender());\n        require(msg.value == tokenFee(content.editions));\n        project.addContent(content);\n    }\n    \n    /**\n    Update content on the MintSplit project\n    @param existingProject the address of an existing MintSplit ERC721 clone\n    @param content the content data for updating\n    */\n    function setContent(address existingProject, MintSplit.Content calldata content) external payable {\n        require(content.id > 0);\n        MintSplitERC721 project = MintSplitERC721(existingProject);\n        require(project.owner() == _msgSender());\n        require(content.editions >= project.contentSupply(content.id));   \n        uint256 current = project.editions(content.id-1);\n        if (content.editions > current) require(msg.value == tokenFee(content.editions - current));\n        project.setContent(content);\n    }\n\n    /**\n    Calculates the fee for creating tokens\n    @param qty the quantity of tokens to be created\n    @return fee the fee for creating the tokens\n    */\n    function tokenFee(uint256 qty) public view returns (uint256) {\n        if (qty == 0) return 0;\n        return (qty * baseTokenFee) - ((qty / divider) * discount);\n    }\n\n    /// Toggle paused state\n    function togglePaused() external onlyOwner {\n        paused = !paused;\n    }\n\n    /**\n    Set new base token fee\n    @param newBaseTokenFee the new base token fee to be multiplied by the quantity\n    */\n    function setBaseTokenFee(uint newBaseTokenFee) external onlyOwner {\n        baseTokenFee = newBaseTokenFee;\n    }\n\n    /**\n    Set new divider\n    @param newDivider the new divider used to determine the tier per token qty\n    */\n    function setDivider(uint newDivider) external onlyOwner {\n        divider = newDivider;\n    }\n\n    /**\n    Set new discount\n    @param newDiscount the new discount value to be multiplied by tier\n    */\n    function setDiscount(uint newDiscount) external onlyOwner {\n        discount = newDiscount;\n    }\n\n    /// Withdraw contract funds\n    function withdraw() external onlyOwner {\n        (bool success, ) = payable(msg.sender).call{\n            value: address(this).balance\n        }(\"\");\n        require(success);\n    }\n\n    /**\n    Sum an array of numbers\n    @return result the sum of the numbers in the array\n    */\n    function _sumArray(uint256[] calldata arr) internal pure returns (uint256) {\n        uint256 sum;\n        for (uint256 i; i < arr.length; i++) {\n            sum += arr[i];\n        }\n        return sum;\n    }\n}",
  "sourcePath": "/Users/justinfsl/Dev/misc/mintsplit/solidity/contracts/MintSplitFactory.sol",
  "compiler": {
    "name": "solc",
    "version": "0.8.13+commit.abaa5c0e.Emscripten.clang"
  },
  "schemaVersion": "3.3.4",
  "updatedAt": "2022-05-13T11:27:03.684Z",
  "networkType": "ethereum",
  "devdoc": {
    "kind": "dev",
    "methods": {
      "addContent(address,(uint256,uint256,string))": {
        "params": {
          "content": "the content data to be added",
          "existingProject": "the address of an existing MintSplit ERC721 clone"
        }
      },
      "constructor": {
        "params": {
          "_erc721": "address of a deployed MintSplitERC721 smart contract implementation"
        }
      },
      "createProject((string,string,string,uint256,uint256),uint256[])": {
        "details": "clone a MintSplit ERC721 smart contract implementation",
        "params": {
          "editions": "the editions for each piece of content",
          "params": "the parameters for the ERC721 contract"
        }
      },
      "owner()": {
        "details": "Returns the address of the current owner."
      },
      "renounceOwnership()": {
        "details": "Leaves the contract without owner. It will not be possible to call `onlyOwner` functions anymore. Can only be called by the current owner. NOTE: Renouncing ownership will leave the contract without an owner, thereby removing any functionality that is only available to the owner."
      },
      "setBaseTokenFee(uint256)": {
        "params": {
          "newBaseTokenFee": "the new base token fee to be multiplied by the quantity"
        }
      },
      "setContent(address,(uint256,uint256,string))": {
        "params": {
          "content": "the content data for updating",
          "existingProject": "the address of an existing MintSplit ERC721 clone"
        }
      },
      "setDiscount(uint256)": {
        "params": {
          "newDiscount": "the new discount value to be multiplied by tier"
        }
      },
      "setDivider(uint256)": {
        "params": {
          "newDivider": "the new divider used to determine the tier per token qty"
        }
      },
      "tokenFee(uint256)": {
        "params": {
          "qty": "the quantity of tokens to be created"
        },
        "returns": {
          "_0": "fee the fee for creating the tokens"
        }
      },
      "transferOwnership(address)": {
        "details": "Transfers ownership of the contract to a new account (`newOwner`). Can only be called by the current owner."
      }
    },
    "title": "MintSplit Factory Smart Contract",
    "version": 1
  },
  "userdoc": {
    "kind": "user",
    "methods": {
      "addContent(address,(uint256,uint256,string))": {
        "notice": "Add content to the MintSplit project"
      },
      "constructor": {
        "notice": "Construct a MintSplit factory"
      },
      "createProject((string,string,string,uint256,uint256),uint256[])": {
        "notice": "Create a new MintSplit project"
      },
      "setBaseTokenFee(uint256)": {
        "notice": "Set new base token fee"
      },
      "setContent(address,(uint256,uint256,string))": {
        "notice": "Update content on the MintSplit project"
      },
      "setDiscount(uint256)": {
        "notice": "Set new discount"
      },
      "setDivider(uint256)": {
        "notice": "Set new divider"
      },
      "togglePaused()": {
        "notice": "Toggle paused state"
      },
      "tokenFee(uint256)": {
        "notice": "Calculates the fee for creating tokens"
      },
      "withdraw()": {
        "notice": "Withdraw contract funds"
      }
    },
    "version": 1
  }
}