{
  "contractName": "MintSplitERC721",
  "abi": [
    {
      "inputs": [],
      "stateMutability": "nonpayable",
      "type": "constructor"
    },
    {
      "anonymous": false,
      "inputs": [
        {
          "indexed": true,
          "internalType": "address",
          "name": "owner",
          "type": "address"
        },
        {
          "indexed": true,
          "internalType": "address",
          "name": "approved",
          "type": "address"
        },
        {
          "indexed": true,
          "internalType": "uint256",
          "name": "tokenId",
          "type": "uint256"
        }
      ],
      "name": "Approval",
      "type": "event"
    },
    {
      "anonymous": false,
      "inputs": [
        {
          "indexed": true,
          "internalType": "address",
          "name": "owner",
          "type": "address"
        },
        {
          "indexed": true,
          "internalType": "address",
          "name": "operator",
          "type": "address"
        },
        {
          "indexed": false,
          "internalType": "bool",
          "name": "approved",
          "type": "bool"
        }
      ],
      "name": "ApprovalForAll",
      "type": "event"
    },
    {
      "anonymous": false,
      "inputs": [
        {
          "indexed": true,
          "internalType": "address",
          "name": "previousOwner",
          "type": "address"
        },
        {
          "indexed": true,
          "internalType": "address",
          "name": "newOwner",
          "type": "address"
        }
      ],
      "name": "OwnershipTransferred",
      "type": "event"
    },
    {
      "anonymous": false,
      "inputs": [
        {
          "indexed": true,
          "internalType": "address",
          "name": "from",
          "type": "address"
        },
        {
          "indexed": true,
          "internalType": "address",
          "name": "to",
          "type": "address"
        },
        {
          "indexed": true,
          "internalType": "uint256",
          "name": "tokenId",
          "type": "uint256"
        }
      ],
      "name": "Transfer",
      "type": "event"
    },
    {
      "inputs": [],
      "name": "allowMintingAfter",
      "outputs": [
        {
          "internalType": "uint256",
          "name": "",
          "type": "uint256"
        }
      ],
      "stateMutability": "view",
      "type": "function",
      "constant": true
    },
    {
      "inputs": [
        {
          "internalType": "address",
          "name": "to",
          "type": "address"
        },
        {
          "internalType": "uint256",
          "name": "tokenId",
          "type": "uint256"
        }
      ],
      "name": "approve",
      "outputs": [],
      "stateMutability": "nonpayable",
      "type": "function"
    },
    {
      "inputs": [
        {
          "internalType": "address",
          "name": "owner",
          "type": "address"
        }
      ],
      "name": "balanceOf",
      "outputs": [
        {
          "internalType": "uint256",
          "name": "",
          "type": "uint256"
        }
      ],
      "stateMutability": "view",
      "type": "function",
      "constant": true
    },
    {
      "inputs": [],
      "name": "contentCount",
      "outputs": [
        {
          "internalType": "uint256",
          "name": "",
          "type": "uint256"
        }
      ],
      "stateMutability": "view",
      "type": "function",
      "constant": true
    },
    {
      "inputs": [
        {
          "internalType": "uint256",
          "name": "",
          "type": "uint256"
        }
      ],
      "name": "contentSupplies",
      "outputs": [
        {
          "internalType": "uint256",
          "name": "_value",
          "type": "uint256"
        }
      ],
      "stateMutability": "view",
      "type": "function",
      "constant": true
    },
    {
      "inputs": [
        {
          "internalType": "uint256",
          "name": "",
          "type": "uint256"
        }
      ],
      "name": "contentUriOverrides",
      "outputs": [
        {
          "internalType": "string",
          "name": "",
          "type": "string"
        }
      ],
      "stateMutability": "view",
      "type": "function",
      "constant": true
    },
    {
      "inputs": [
        {
          "internalType": "uint256",
          "name": "tokenId",
          "type": "uint256"
        }
      ],
      "name": "getApproved",
      "outputs": [
        {
          "internalType": "address",
          "name": "",
          "type": "address"
        }
      ],
      "stateMutability": "view",
      "type": "function",
      "constant": true
    },
    {
      "inputs": [
        {
          "internalType": "address",
          "name": "owner",
          "type": "address"
        },
        {
          "internalType": "address",
          "name": "operator",
          "type": "address"
        }
      ],
      "name": "isApprovedForAll",
      "outputs": [
        {
          "internalType": "bool",
          "name": "",
          "type": "bool"
        }
      ],
      "stateMutability": "view",
      "type": "function",
      "constant": true
    },
    {
      "inputs": [],
      "name": "isPaused",
      "outputs": [
        {
          "internalType": "bool",
          "name": "",
          "type": "bool"
        }
      ],
      "stateMutability": "view",
      "type": "function",
      "constant": true
    },
    {
      "inputs": [],
      "name": "mintLimit",
      "outputs": [
        {
          "internalType": "uint256",
          "name": "",
          "type": "uint256"
        }
      ],
      "stateMutability": "view",
      "type": "function",
      "constant": true
    },
    {
      "inputs": [],
      "name": "mintPrice",
      "outputs": [
        {
          "internalType": "uint256",
          "name": "",
          "type": "uint256"
        }
      ],
      "stateMutability": "view",
      "type": "function",
      "constant": true
    },
    {
      "inputs": [],
      "name": "name",
      "outputs": [
        {
          "internalType": "string",
          "name": "",
          "type": "string"
        }
      ],
      "stateMutability": "view",
      "type": "function",
      "constant": true
    },
    {
      "inputs": [],
      "name": "owner",
      "outputs": [
        {
          "internalType": "address",
          "name": "",
          "type": "address"
        }
      ],
      "stateMutability": "view",
      "type": "function",
      "constant": true
    },
    {
      "inputs": [
        {
          "internalType": "uint256",
          "name": "tokenId",
          "type": "uint256"
        }
      ],
      "name": "ownerOf",
      "outputs": [
        {
          "internalType": "address",
          "name": "",
          "type": "address"
        }
      ],
      "stateMutability": "view",
      "type": "function",
      "constant": true
    },
    {
      "inputs": [],
      "name": "renounceOwnership",
      "outputs": [],
      "stateMutability": "nonpayable",
      "type": "function"
    },
    {
      "inputs": [],
      "name": "revenueSplitter",
      "outputs": [
        {
          "internalType": "contract RevenueSplitter",
          "name": "",
          "type": "address"
        }
      ],
      "stateMutability": "view",
      "type": "function",
      "constant": true
    },
    {
      "inputs": [
        {
          "internalType": "address",
          "name": "from",
          "type": "address"
        },
        {
          "internalType": "address",
          "name": "to",
          "type": "address"
        },
        {
          "internalType": "uint256",
          "name": "tokenId",
          "type": "uint256"
        }
      ],
      "name": "safeTransferFrom",
      "outputs": [],
      "stateMutability": "nonpayable",
      "type": "function"
    },
    {
      "inputs": [
        {
          "internalType": "address",
          "name": "from",
          "type": "address"
        },
        {
          "internalType": "address",
          "name": "to",
          "type": "address"
        },
        {
          "internalType": "uint256",
          "name": "tokenId",
          "type": "uint256"
        },
        {
          "internalType": "bytes",
          "name": "_data",
          "type": "bytes"
        }
      ],
      "name": "safeTransferFrom",
      "outputs": [],
      "stateMutability": "nonpayable",
      "type": "function"
    },
    {
      "inputs": [
        {
          "internalType": "address",
          "name": "operator",
          "type": "address"
        },
        {
          "internalType": "bool",
          "name": "approved",
          "type": "bool"
        }
      ],
      "name": "setApprovalForAll",
      "outputs": [],
      "stateMutability": "nonpayable",
      "type": "function"
    },
    {
      "inputs": [
        {
          "internalType": "uint256",
          "name": "",
          "type": "uint256"
        }
      ],
      "name": "supplyLimits",
      "outputs": [
        {
          "internalType": "uint256",
          "name": "",
          "type": "uint256"
        }
      ],
      "stateMutability": "view",
      "type": "function",
      "constant": true
    },
    {
      "inputs": [
        {
          "internalType": "bytes4",
          "name": "interfaceId",
          "type": "bytes4"
        }
      ],
      "name": "supportsInterface",
      "outputs": [
        {
          "internalType": "bool",
          "name": "",
          "type": "bool"
        }
      ],
      "stateMutability": "view",
      "type": "function",
      "constant": true
    },
    {
      "inputs": [],
      "name": "symbol",
      "outputs": [
        {
          "internalType": "string",
          "name": "",
          "type": "string"
        }
      ],
      "stateMutability": "view",
      "type": "function",
      "constant": true
    },
    {
      "inputs": [],
      "name": "timeDeployed",
      "outputs": [
        {
          "internalType": "uint256",
          "name": "",
          "type": "uint256"
        }
      ],
      "stateMutability": "view",
      "type": "function",
      "constant": true
    },
    {
      "inputs": [
        {
          "internalType": "uint256",
          "name": "index",
          "type": "uint256"
        }
      ],
      "name": "tokenByIndex",
      "outputs": [
        {
          "internalType": "uint256",
          "name": "",
          "type": "uint256"
        }
      ],
      "stateMutability": "view",
      "type": "function",
      "constant": true
    },
    {
      "inputs": [
        {
          "internalType": "address",
          "name": "owner",
          "type": "address"
        },
        {
          "internalType": "uint256",
          "name": "index",
          "type": "uint256"
        }
      ],
      "name": "tokenOfOwnerByIndex",
      "outputs": [
        {
          "internalType": "uint256",
          "name": "",
          "type": "uint256"
        }
      ],
      "stateMutability": "view",
      "type": "function",
      "constant": true
    },
    {
      "inputs": [],
      "name": "totalSupply",
      "outputs": [
        {
          "internalType": "uint256",
          "name": "",
          "type": "uint256"
        }
      ],
      "stateMutability": "view",
      "type": "function",
      "constant": true
    },
    {
      "inputs": [
        {
          "internalType": "address",
          "name": "from",
          "type": "address"
        },
        {
          "internalType": "address",
          "name": "to",
          "type": "address"
        },
        {
          "internalType": "uint256",
          "name": "tokenId",
          "type": "uint256"
        }
      ],
      "name": "transferFrom",
      "outputs": [],
      "stateMutability": "nonpayable",
      "type": "function"
    },
    {
      "inputs": [
        {
          "internalType": "address",
          "name": "newOwner",
          "type": "address"
        }
      ],
      "name": "transferOwnership",
      "outputs": [],
      "stateMutability": "nonpayable",
      "type": "function"
    },
    {
      "inputs": [
        {
          "internalType": "address",
          "name": "_owner",
          "type": "address"
        },
        {
          "internalType": "address",
          "name": "_revenueSplitter",
          "type": "address"
        },
        {
          "components": [
            {
              "internalType": "string",
              "name": "projectName",
              "type": "string"
            },
            {
              "internalType": "string",
              "name": "symbol",
              "type": "string"
            },
            {
              "internalType": "uint256",
              "name": "contentCount",
              "type": "uint256"
            },
            {
              "internalType": "uint256[]",
              "name": "supplyLimits",
              "type": "uint256[]"
            },
            {
              "internalType": "uint256",
              "name": "mintPrice",
              "type": "uint256"
            },
            {
              "internalType": "uint256",
              "name": "mintLimit",
              "type": "uint256"
            },
            {
              "internalType": "uint256",
              "name": "releaseTime",
              "type": "uint256"
            },
            {
              "internalType": "string",
              "name": "baseURI",
              "type": "string"
            }
          ],
          "internalType": "struct MintSplitSharedLibV1.ProjectParams",
          "name": "_params",
          "type": "tuple"
        }
      ],
      "name": "initialize",
      "outputs": [],
      "stateMutability": "nonpayable",
      "type": "function"
    },
    {
      "inputs": [
        {
          "internalType": "uint256[]",
          "name": "contentIds",
          "type": "uint256[]"
        }
      ],
      "name": "mint",
      "outputs": [],
      "stateMutability": "payable",
      "type": "function",
      "payable": true
    },
    {
      "inputs": [
        {
          "internalType": "uint256",
          "name": "tokenId",
          "type": "uint256"
        }
      ],
      "name": "getRoyalties",
      "outputs": [
        {
          "internalType": "address payable[]",
          "name": "",
          "type": "address[]"
        },
        {
          "internalType": "uint256[]",
          "name": "",
          "type": "uint256[]"
        }
      ],
      "stateMutability": "view",
      "type": "function",
      "constant": true
    },
    {
      "inputs": [],
      "name": "getSecondsUntilMinting",
      "outputs": [
        {
          "internalType": "uint256",
          "name": "",
          "type": "uint256"
        }
      ],
      "stateMutability": "view",
      "type": "function",
      "constant": true
    },
    {
      "inputs": [
        {
          "internalType": "uint256",
          "name": "tokenId",
          "type": "uint256"
        }
      ],
      "name": "tokenURI",
      "outputs": [
        {
          "internalType": "string",
          "name": "",
          "type": "string"
        }
      ],
      "stateMutability": "view",
      "type": "function",
      "constant": true
    },
    {
      "inputs": [
        {
          "internalType": "uint256",
          "name": "tokenId",
          "type": "uint256"
        }
      ],
      "name": "tokenSubject",
      "outputs": [
        {
          "internalType": "uint256[2]",
          "name": "",
          "type": "uint256[2]"
        }
      ],
      "stateMutability": "view",
      "type": "function",
      "constant": true
    },
    {
      "inputs": [
        {
          "internalType": "bool",
          "name": "_state",
          "type": "bool"
        }
      ],
      "name": "setIsPaused",
      "outputs": [],
      "stateMutability": "nonpayable",
      "type": "function"
    },
    {
      "inputs": [
        {
          "internalType": "uint256[]",
          "name": "newSupplyLimits",
          "type": "uint256[]"
        }
      ],
      "name": "addContent",
      "outputs": [],
      "stateMutability": "nonpayable",
      "type": "function"
    },
    {
      "inputs": [
        {
          "internalType": "string",
          "name": "newBaseURI",
          "type": "string"
        }
      ],
      "name": "setBaseURI",
      "outputs": [],
      "stateMutability": "nonpayable",
      "type": "function"
    },
    {
      "inputs": [
        {
          "internalType": "string",
          "name": "newURI",
          "type": "string"
        },
        {
          "internalType": "uint256",
          "name": "contentId",
          "type": "uint256"
        }
      ],
      "name": "setContentURI",
      "outputs": [],
      "stateMutability": "nonpayable",
      "type": "function"
    }
  ],
  "bytecode": "0x6080604052600061013155600061013460146101000a81548160ff0219169083151502179055503480156200003357600080fd5b50600060019054906101000a900460ff166200005e5760008054906101000a900460ff16156200006f565b6200006e6200012b60201b60201c565b5b620000b1576040517f08c379a0000000000000000000000000000000000000000000000000000000008152600401620000a890620001e3565b60405180910390fd5b60008060019054906101000a900460ff16159050801562000102576001600060016101000a81548160ff02191690831515021790555060016000806101000a81548160ff0219169083151502179055505b8015620001245760008060016101000a81548160ff0219169083151502179055505b5062000205565b600062000143306200014960201b62001e901760201c565b15905090565b600080823b905060008111915050919050565b600082825260208201905092915050565b7f496e697469616c697a61626c653a20636f6e747261637420697320616c72656160008201527f647920696e697469616c697a6564000000000000000000000000000000000000602082015250565b6000620001cb602e836200015c565b9150620001d8826200016d565b604082019050919050565b60006020820190508181036000830152620001fe81620001bc565b9050919050565b61535c80620002156000396000f3fe6080604052600436106102255760003560e01c80639354f17511610123578063c87b56dd116100ab578063e5015d9e1161006f578063e5015d9e14610856578063e985e9c51461087f578063f2fde38b146108bc578063f3788283146108e5578063f8e93ef91461092257610225565b8063c87b56dd1461075f578063c91435bc1461079c578063cc459696146107c5578063cf8faa3d146107f0578063e2a559941461082d57610225565b8063a22cb465116100f2578063a22cb46514610679578063a75052cb146106a2578063b187bd26146106cd578063b88d4fde146106f8578063bb3bafd61461072157610225565b80639354f175146105bb57806395d89b41146105f8578063996517cf146106235780639d2b86f61461064e57610225565b80632f745c59116101b15780636817c76c116101755780636817c76c146104e657806370a0823114610511578063715018a61461054e578063872bdcdb146105655780638da5cb5b1461059057610225565b80632f745c59146103dd57806342842e0e1461041a5780634f6ccce71461044357806355f804b3146104805780636352211e146104a957610225565b806318160ddd116101f857806318160ddd146102f857806319188c351461032357806323b872dd1461034e578063240976bf146103775780632dbefd0b146103a057610225565b806301ffc9a71461022a57806306fdde0314610267578063081812fc14610292578063095ea7b3146102cf575b600080fd5b34801561023657600080fd5b50610251600480360381019061024c9190613527565b61093e565b60405161025e919061356f565b60405180910390f35b34801561027357600080fd5b5061027c6109b8565b6040516102899190613623565b60405180910390f35b34801561029e57600080fd5b506102b960048036038101906102b4919061367b565b610a4a565b6040516102c691906136e9565b60405180910390f35b3480156102db57600080fd5b506102f660048036038101906102f19190613730565b610acf565b005b34801561030457600080fd5b5061030d610be7565b60405161031a919061377f565b60405180910390f35b34801561032f57600080fd5b50610338610bf4565b604051610345919061377f565b60405180910390f35b34801561035a57600080fd5b506103756004803603810190610370919061379a565b610bfb565b005b34801561038357600080fd5b5061039e60048036038101906103999190613819565b610c5b565b005b3480156103ac57600080fd5b506103c760048036038101906103c2919061367b565b610cf5565b6040516103d49190613623565b60405180910390f35b3480156103e957600080fd5b5061040460048036038101906103ff9190613730565b610d96565b604051610411919061377f565b60405180910390f35b34801561042657600080fd5b50610441600480360381019061043c919061379a565b610e3b565b005b34801561044f57600080fd5b5061046a6004803603810190610465919061367b565b610e5b565b604051610477919061377f565b60405180910390f35b34801561048c57600080fd5b506104a760048036038101906104a291906138ab565b610ecc565b005b3480156104b557600080fd5b506104d060048036038101906104cb919061367b565b610f5f565b6040516104dd91906136e9565b60405180910390f35b3480156104f257600080fd5b506104fb611011565b604051610508919061377f565b60405180910390f35b34801561051d57600080fd5b50610538600480360381019061053391906138f8565b611018565b604051610545919061377f565b60405180910390f35b34801561055a57600080fd5b506105636110d0565b005b34801561057157600080fd5b5061057a611158565b604051610587919061377f565b60405180910390f35b34801561059c57600080fd5b506105a561115f565b6040516105b291906136e9565b60405180910390f35b3480156105c757600080fd5b506105e260048036038101906105dd919061367b565b611189565b6040516105ef919061377f565b60405180910390f35b34801561060457600080fd5b5061060d6111ae565b60405161061a9190613623565b60405180910390f35b34801561062f57600080fd5b50610638611240565b604051610645919061377f565b60405180910390f35b34801561065a57600080fd5b50610663611247565b6040516106709190613984565b60405180910390f35b34801561068557600080fd5b506106a0600480360381019061069b919061399f565b61126e565b005b3480156106ae57600080fd5b506106b7611284565b6040516106c4919061377f565b60405180910390f35b3480156106d957600080fd5b506106e26112cb565b6040516106ef919061356f565b60405180910390f35b34801561070457600080fd5b5061071f600480360381019061071a9190613b0f565b6112df565b005b34801561072d57600080fd5b506107486004803603810190610743919061367b565b611341565b604051610756929190613d20565b60405180910390f35b34801561076b57600080fd5b506107866004803603810190610781919061367b565b61141d565b6040516107939190613623565b60405180910390f35b3480156107a857600080fd5b506107c360048036038101906107be9190613d7c565b6114ef565b005b3480156107d157600080fd5b506107da611782565b6040516107e7919061377f565b60405180910390f35b3480156107fc57600080fd5b506108176004803603810190610812919061367b565b611789565b604051610824919061377f565b60405180910390f35b34801561083957600080fd5b50610854600480360381019061084f9190613e41565b6117a8565b005b34801561086257600080fd5b5061087d60048036038101906108789190613e8e565b6118ba565b005b34801561088b57600080fd5b506108a660048036038101906108a19190613eee565b61197b565b6040516108b3919061356f565b60405180910390f35b3480156108c857600080fd5b506108e360048036038101906108de91906138f8565b611a0f565b005b3480156108f157600080fd5b5061090c6004803603810190610907919061367b565b611b07565b6040516109199190613fb2565b60405180910390f35b61093c60048036038101906109379190613e41565b611bae565b005b60007f780e9d63000000000000000000000000000000000000000000000000000000007bffffffffffffffffffffffffffffffffffffffffffffffffffffffff1916827bffffffffffffffffffffffffffffffffffffffffffffffffffffffff191614806109b157506109b082611ea3565b5b9050919050565b6060606580546109c790613ffc565b80601f01602080910402602001604051908101604052809291908181526020018280546109f390613ffc565b8015610a405780601f10610a1557610100808354040283529160200191610a40565b820191906000526020600020905b815481529060010190602001808311610a2357829003601f168201915b5050505050905090565b6000610a5582611f85565b610a94576040517f08c379a0000000000000000000000000000000000000000000000000000000008152600401610a8b906140a0565b60405180910390fd5b6069600083815260200190815260200160002060009054906101000a900473ffffffffffffffffffffffffffffffffffffffff169050919050565b6000610ada82610f5f565b90508073ffffffffffffffffffffffffffffffffffffffff168373ffffffffffffffffffffffffffffffffffffffff161415610b4b576040517f08c379a0000000000000000000000000000000000000000000000000000000008152600401610b4290614132565b60405180910390fd5b8073ffffffffffffffffffffffffffffffffffffffff16610b6a611ff1565b73ffffffffffffffffffffffffffffffffffffffff161480610b995750610b9881610b93611ff1565b61197b565b5b610bd8576040517f08c379a0000000000000000000000000000000000000000000000000000000008152600401610bcf906141c4565b60405180910390fd5b610be28383611ff9565b505050565b6000609980549050905090565b6101325481565b610c0c610c06611ff1565b826120b2565b610c4b576040517f08c379a0000000000000000000000000000000000000000000000000000000008152600401610c4290614256565b60405180910390fd5b610c56838383612190565b505050565b610c63611ff1565b73ffffffffffffffffffffffffffffffffffffffff16610c8161115f565b73ffffffffffffffffffffffffffffffffffffffff1614610cd7576040517f08c379a0000000000000000000000000000000000000000000000000000000008152600401610cce906142c2565b60405180910390fd5b8061013460146101000a81548160ff02191690831515021790555050565b6101386020528060005260406000206000915090508054610d1590613ffc565b80601f0160208091040260200160405190810160405280929190818152602001828054610d4190613ffc565b8015610d8e5780601f10610d6357610100808354040283529160200191610d8e565b820191906000526020600020905b815481529060010190602001808311610d7157829003601f168201915b505050505081565b6000610da183611018565b8210610de2576040517f08c379a0000000000000000000000000000000000000000000000000000000008152600401610dd990614354565b60405180910390fd5b609760008473ffffffffffffffffffffffffffffffffffffffff1673ffffffffffffffffffffffffffffffffffffffff168152602001908152602001600020600083815260200190815260200160002054905092915050565b610e56838383604051806020016040528060008152506112df565b505050565b6000610e65610be7565b8210610ea6576040517f08c379a0000000000000000000000000000000000000000000000000000000008152600401610e9d906143e6565b60405180910390fd5b60998281548110610eba57610eb9614406565b5b90600052602060002001549050919050565b610ed4611ff1565b73ffffffffffffffffffffffffffffffffffffffff16610ef261115f565b73ffffffffffffffffffffffffffffffffffffffff1614610f48576040517f08c379a0000000000000000000000000000000000000000000000000000000008152600401610f3f906142c2565b60405180910390fd5b81816101339190610f5a9291906132e3565b505050565b6000806067600084815260200190815260200160002060009054906101000a900473ffffffffffffffffffffffffffffffffffffffff169050600073ffffffffffffffffffffffffffffffffffffffff168173ffffffffffffffffffffffffffffffffffffffff161415611008576040517f08c379a0000000000000000000000000000000000000000000000000000000008152600401610fff906144a7565b60405180910390fd5b80915050919050565b61012f5481565b60008073ffffffffffffffffffffffffffffffffffffffff168273ffffffffffffffffffffffffffffffffffffffff161415611089576040517f08c379a000000000000000000000000000000000000000000000000000000000815260040161108090614539565b60405180910390fd5b606860008373ffffffffffffffffffffffffffffffffffffffff1673ffffffffffffffffffffffffffffffffffffffff168152602001908152602001600020549050919050565b6110d8611ff1565b73ffffffffffffffffffffffffffffffffffffffff166110f661115f565b73ffffffffffffffffffffffffffffffffffffffff161461114c576040517f08c379a0000000000000000000000000000000000000000000000000000000008152600401611143906142c2565b60405180910390fd5b61115660006123ec565b565b6101315481565b600060c960009054906101000a900473ffffffffffffffffffffffffffffffffffffffff16905090565b61012e818154811061119a57600080fd5b906000526020600020016000915090505481565b6060606680546111bd90613ffc565b80601f01602080910402602001604051908101604052809291908181526020018280546111e990613ffc565b80156112365780601f1061120b57610100808354040283529160200191611236565b820191906000526020600020905b81548152906001019060200180831161121957829003601f168201915b5050505050905090565b6101305481565b61013460009054906101000a900473ffffffffffffffffffffffffffffffffffffffff1681565b611280611279611ff1565b83836124b2565b5050565b600061013154610132546112989190614588565b4210156112c3574261013154610132546112b29190614588565b6112bc91906145de565b90506112c8565b600090505b90565b61013460149054906101000a900460ff1681565b6112f06112ea611ff1565b836120b2565b61132f576040517f08c379a000000000000000000000000000000000000000000000000000000000815260040161132690614256565b60405180910390fd5b61133b8484848461261f565b50505050565b60608060006101376000858152602001908152602001600020905061013460009054906101000a900473ffffffffffffffffffffffffffffffffffffffff1673ffffffffffffffffffffffffffffffffffffffff1663fb3bc76e826000600281106113af576113ae614406565b5b01546040518263ffffffff1660e01b81526004016113cd919061377f565b600060405180830381865afa1580156113ea573d6000803e3d6000fd5b505050506040513d6000823e3d601f19601f8201168201806040525081019061141391906147d9565b9250925050915091565b606061142882611f85565b61143157600080fd5b600061143c83611b07565b905060006114618260006002811061145757611456614406565b5b602002015161267b565b9050600081511161148157604051806020016040528060008152506114e6565b806114a38360006002811061149957611498614406565b5b60200201516127de565b6114c4846001600281106114ba576114b9614406565b5b60200201516127de565b6040516020016114d693929190614925565b6040516020818303038152906040525b92505050919050565b600060019054906101000a900460ff166115175760008054906101000a900460ff1615611520565b61151f61293f565b5b61155f576040517f08c379a0000000000000000000000000000000000000000000000000000000008152600401611556906149de565b60405180910390fd5b60008060019054906101000a900460ff1615905080156115af576001600060016101000a81548160ff02191690831515021790555060016000806101000a81548160ff0219169083151502179055505b81604001358280606001906115c49190614a0d565b9050146115d057600080fd5b61167e8280600001906115e39190614a70565b8080601f016020809104026020016040519081016040528093929190818152602001838380828437600081840152601f19601f820116905080830192505050505050508380602001906116369190614a70565b8080601f016020809104026020016040519081016040528093929190818152602001838380828437600081840152601f19601f82011690508083019250505050505050612950565b611687846123ec565b8261013460006101000a81548173ffffffffffffffffffffffffffffffffffffffff021916908373ffffffffffffffffffffffffffffffffffffffff160217905550816040013561012d819055508180606001906116e59190614a0d565b61012e91906116f5929190613369565b50816080013561012f819055508160a0013561013081905550818060e0019061171e9190614a70565b610133919061172e9291906132e3565b50428260c00135111561175357428260c0013561174b91906145de565b610131819055505b4261013281905550801561177c5760008060016101000a81548160ff0219169083151502179055505b50505050565b61012d5481565b6101366020528060005260406000206000915090508060000154905081565b6117b0611ff1565b73ffffffffffffffffffffffffffffffffffffffff166117ce61115f565b73ffffffffffffffffffffffffffffffffffffffff1614611824576040517f08c379a000000000000000000000000000000000000000000000000000000000815260040161181b906142c2565b60405180910390fd5b6000828290501161183457600080fd5b8181905061012d600082825461184a9190614588565b9250508190555060005b828290508110156118b55761012e83838381811061187557611874614406565b5b90506020020135908060018154018082558091505060019003906000526020600020016000909190919091505580806118ad90614ad3565b915050611854565b505050565b6118c2611ff1565b73ffffffffffffffffffffffffffffffffffffffff166118e061115f565b73ffffffffffffffffffffffffffffffffffffffff1614611936576040517f08c379a000000000000000000000000000000000000000000000000000000000815260040161192d906142c2565b60405180910390fd5b600081118015611949575061012d548111155b61195257600080fd5b8282610138600084815260200190815260200160002091906119759291906132e3565b50505050565b6000606a60008473ffffffffffffffffffffffffffffffffffffffff1673ffffffffffffffffffffffffffffffffffffffff16815260200190815260200160002060008373ffffffffffffffffffffffffffffffffffffffff1673ffffffffffffffffffffffffffffffffffffffff16815260200190815260200160002060009054906101000a900460ff16905092915050565b611a17611ff1565b73ffffffffffffffffffffffffffffffffffffffff16611a3561115f565b73ffffffffffffffffffffffffffffffffffffffff1614611a8b576040517f08c379a0000000000000000000000000000000000000000000000000000000008152600401611a82906142c2565b60405180910390fd5b600073ffffffffffffffffffffffffffffffffffffffff168173ffffffffffffffffffffffffffffffffffffffff161415611afb576040517f08c379a0000000000000000000000000000000000000000000000000000000008152600401611af290614b8e565b60405180910390fd5b611b04816123ec565b50565b611b0f6133b6565b611b1882611f85565b611b57576040517f08c379a0000000000000000000000000000000000000000000000000000000008152600401611b4e90614bfa565b60405180910390fd5b6101376000838152602001908152602001600020600280602002604051908101604052809291908260028015611ba2576020028201915b815481526020019060010190808311611b8e575b50505050509050919050565b600260fb541415611bf4576040517f08c379a0000000000000000000000000000000000000000000000000000000008152600401611beb90614c66565b60405180910390fd5b600260fb8190555061013460149054906101000a900460ff1615611c1757600080fd5b6101315461013254611c299190614588565b421015611c3557600080fd5b60008282905011611c4557600080fd5b6101305482829050611c5633611018565b611c609190614588565b1115611c6b57600080fd5b611c7361115f565b73ffffffffffffffffffffffffffffffffffffffff163373ffffffffffffffffffffffffffffffffffffffff1614611cc35761012f5482829050611cb79190614c86565b3414611cc257600080fd5b5b61013460009054906101000a900473ffffffffffffffffffffffffffffffffffffffff1673ffffffffffffffffffffffffffffffffffffffff1663a84f8f763484846040518463ffffffff1660e01b8152600401611d22929190614d41565b6000604051808303818588803b158015611d3b57600080fd5b505af1158015611d4f573d6000803e3d6000fd5b505050505060005b82829050811015611e83576000838383818110611d7757611d76614406565b5b905060200201359050600081118015611d93575061012d548111155b611d9c57600080fd5b60006101366000838152602001908152602001600020905061012e600183611dc491906145de565b81548110611dd557611dd4614406565b5b90600052602060002001546001611deb836129bd565b611df59190614588565b1115611e0057600080fd5b611e09816129cb565b611e146101356129cb565b6000611e216101356129bd565b9050611e2d33826129e1565b6040518060400160405280848152602001611e47846129bd565b8152506101376000838152602001908152602001600020906002611e6c9291906133d8565b505050508080611e7b90614ad3565b915050611d57565b50600160fb819055505050565b600080823b905060008111915050919050565b60007f80ac58cd000000000000000000000000000000000000000000000000000000007bffffffffffffffffffffffffffffffffffffffffffffffffffffffff1916827bffffffffffffffffffffffffffffffffffffffffffffffffffffffff19161480611f6e57507f5b5e139f000000000000000000000000000000000000000000000000000000007bffffffffffffffffffffffffffffffffffffffffffffffffffffffff1916827bffffffffffffffffffffffffffffffffffffffffffffffffffffffff1916145b80611f7e5750611f7d82612baf565b5b9050919050565b60008073ffffffffffffffffffffffffffffffffffffffff166067600084815260200190815260200160002060009054906101000a900473ffffffffffffffffffffffffffffffffffffffff1673ffffffffffffffffffffffffffffffffffffffff1614159050919050565b600033905090565b816069600083815260200190815260200160002060006101000a81548173ffffffffffffffffffffffffffffffffffffffff021916908373ffffffffffffffffffffffffffffffffffffffff160217905550808273ffffffffffffffffffffffffffffffffffffffff1661206c83610f5f565b73ffffffffffffffffffffffffffffffffffffffff167f8c5be1e5ebec7d5bd14f71427d1e84f3dd0314c0f7b2291e5b200ac8c7c3b92560405160405180910390a45050565b60006120bd82611f85565b6120fc576040517f08c379a00000000000000000000000000000000000000000000000000000000081526004016120f390614dd7565b60405180910390fd5b600061210783610f5f565b90508073ffffffffffffffffffffffffffffffffffffffff168473ffffffffffffffffffffffffffffffffffffffff16148061217657508373ffffffffffffffffffffffffffffffffffffffff1661215e84610a4a565b73ffffffffffffffffffffffffffffffffffffffff16145b806121875750612186818561197b565b5b91505092915050565b8273ffffffffffffffffffffffffffffffffffffffff166121b082610f5f565b73ffffffffffffffffffffffffffffffffffffffff1614612206576040517f08c379a00000000000000000000000000000000000000000000000000000000081526004016121fd90614e69565b60405180910390fd5b600073ffffffffffffffffffffffffffffffffffffffff168273ffffffffffffffffffffffffffffffffffffffff161415612276576040517f08c379a000000000000000000000000000000000000000000000000000000000815260040161226d90614efb565b60405180910390fd5b612281838383612c19565b61228c600082611ff9565b6001606860008573ffffffffffffffffffffffffffffffffffffffff1673ffffffffffffffffffffffffffffffffffffffff16815260200190815260200160002060008282546122dc91906145de565b925050819055506001606860008473ffffffffffffffffffffffffffffffffffffffff1673ffffffffffffffffffffffffffffffffffffffff16815260200190815260200160002060008282546123339190614588565b92505081905550816067600083815260200190815260200160002060006101000a81548173ffffffffffffffffffffffffffffffffffffffff021916908373ffffffffffffffffffffffffffffffffffffffff160217905550808273ffffffffffffffffffffffffffffffffffffffff168473ffffffffffffffffffffffffffffffffffffffff167fddf252ad1be2c89b69c2b068fc378daa952ba7f163c4a11628f55a4df523b3ef60405160405180910390a4505050565b600060c960009054906101000a900473ffffffffffffffffffffffffffffffffffffffff1690508160c960006101000a81548173ffffffffffffffffffffffffffffffffffffffff021916908373ffffffffffffffffffffffffffffffffffffffff1602179055508173ffffffffffffffffffffffffffffffffffffffff168173ffffffffffffffffffffffffffffffffffffffff167f8be0079c531659141344cd1fd0a4f28419497f9722a3daafe3b4186f6b6457e060405160405180910390a35050565b8173ffffffffffffffffffffffffffffffffffffffff168373ffffffffffffffffffffffffffffffffffffffff161415612521576040517f08c379a000000000000000000000000000000000000000000000000000000000815260040161251890614f67565b60405180910390fd5b80606a60008573ffffffffffffffffffffffffffffffffffffffff1673ffffffffffffffffffffffffffffffffffffffff16815260200190815260200160002060008473ffffffffffffffffffffffffffffffffffffffff1673ffffffffffffffffffffffffffffffffffffffff16815260200190815260200160002060006101000a81548160ff0219169083151502179055508173ffffffffffffffffffffffffffffffffffffffff168373ffffffffffffffffffffffffffffffffffffffff167f17307eab39ab6107e8899845ad3d59bd9653f200f220920489ca2b5937696c3183604051612612919061356f565b60405180910390a3505050565b61262a848484612190565b61263684848484612d2d565b612675576040517f08c379a000000000000000000000000000000000000000000000000000000000815260040161266c90614ff9565b60405180910390fd5b50505050565b606060006101386000848152602001908152602001600020805461269e90613ffc565b905014156127395761013380546126b490613ffc565b80601f01602080910402602001604051908101604052809291908181526020018280546126e090613ffc565b801561272d5780601f106127025761010080835404028352916020019161272d565b820191906000526020600020905b81548152906001019060200180831161271057829003601f168201915b505050505090506127d9565b6101386000838152602001908152602001600020805461275890613ffc565b80601f016020809104026020016040519081016040528092919081815260200182805461278490613ffc565b80156127d15780601f106127a6576101008083540402835291602001916127d1565b820191906000526020600020905b8154815290600101906020018083116127b457829003601f168201915b505050505090505b919050565b60606000821415612826576040518060400160405280600181526020017f3000000000000000000000000000000000000000000000000000000000000000815250905061293a565b600082905060005b6000821461285857808061284190614ad3565b915050600a826128519190615048565b915061282e565b60008167ffffffffffffffff811115612874576128736139e4565b5b6040519080825280601f01601f1916602001820160405280156128a65781602001600182028036833780820191505090505b5090505b60008514612933576001826128bf91906145de565b9150600a856128ce9190615079565b60306128da9190614588565b60f81b8183815181106128f0576128ef614406565b5b60200101907effffffffffffffffffffffffffffffffffffffffffffffffffffffffffffff1916908160001a905350600a8561292c9190615048565b94506128aa565b8093505050505b919050565b600061294a30611e90565b15905090565b600060019054906101000a900460ff1661299f576040517f08c379a00000000000000000000000000000000000000000000000000000000081526004016129969061511c565b60405180910390fd5b6129a7612eb5565b6129af612f06565b6129b98282612f57565b5050565b600081600001549050919050565b6001816000016000828254019250508190555050565b600073ffffffffffffffffffffffffffffffffffffffff168273ffffffffffffffffffffffffffffffffffffffff161415612a51576040517f08c379a0000000000000000000000000000000000000000000000000000000008152600401612a4890615188565b60405180910390fd5b612a5a81611f85565b15612a9a576040517f08c379a0000000000000000000000000000000000000000000000000000000008152600401612a91906151f4565b60405180910390fd5b612aa660008383612c19565b6001606860008473ffffffffffffffffffffffffffffffffffffffff1673ffffffffffffffffffffffffffffffffffffffff1681526020019081526020016000206000828254612af69190614588565b92505081905550816067600083815260200190815260200160002060006101000a81548173ffffffffffffffffffffffffffffffffffffffff021916908373ffffffffffffffffffffffffffffffffffffffff160217905550808273ffffffffffffffffffffffffffffffffffffffff16600073ffffffffffffffffffffffffffffffffffffffff167fddf252ad1be2c89b69c2b068fc378daa952ba7f163c4a11628f55a4df523b3ef60405160405180910390a45050565b60007f01ffc9a7000000000000000000000000000000000000000000000000000000007bffffffffffffffffffffffffffffffffffffffffffffffffffffffff1916827bffffffffffffffffffffffffffffffffffffffffffffffffffffffff1916149050919050565b612c24838383612fd8565b600073ffffffffffffffffffffffffffffffffffffffff168373ffffffffffffffffffffffffffffffffffffffff161415612c6757612c6281612fdd565b612ca6565b8173ffffffffffffffffffffffffffffffffffffffff168373ffffffffffffffffffffffffffffffffffffffff1614612ca557612ca48382613026565b5b5b600073ffffffffffffffffffffffffffffffffffffffff168273ffffffffffffffffffffffffffffffffffffffff161415612ce957612ce481613193565b612d28565b8273ffffffffffffffffffffffffffffffffffffffff168273ffffffffffffffffffffffffffffffffffffffff1614612d2757612d268282613264565b5b5b505050565b6000612d4e8473ffffffffffffffffffffffffffffffffffffffff16611e90565b15612ea8578373ffffffffffffffffffffffffffffffffffffffff1663150b7a02612d77611ff1565b8786866040518563ffffffff1660e01b8152600401612d999493929190615269565b6020604051808303816000875af1925050508015612dd557506040513d601f19601f82011682018060405250810190612dd291906152ca565b60015b612e58573d8060008114612e05576040519150601f19603f3d011682016040523d82523d6000602084013e612e0a565b606091505b50600081511415612e50576040517f08c379a0000000000000000000000000000000000000000000000000000000008152600401612e4790614ff9565b60405180910390fd5b805181602001fd5b63150b7a0260e01b7bffffffffffffffffffffffffffffffffffffffffffffffffffffffff1916817bffffffffffffffffffffffffffffffffffffffffffffffffffffffff191614915050612ead565b600190505b949350505050565b600060019054906101000a900460ff16612f04576040517f08c379a0000000000000000000000000000000000000000000000000000000008152600401612efb9061511c565b60405180910390fd5b565b600060019054906101000a900460ff16612f55576040517f08c379a0000000000000000000000000000000000000000000000000000000008152600401612f4c9061511c565b60405180910390fd5b565b600060019054906101000a900460ff16612fa6576040517f08c379a0000000000000000000000000000000000000000000000000000000008152600401612f9d9061511c565b60405180910390fd5b8160659080519060200190612fbc929190613418565b508060669080519060200190612fd3929190613418565b505050565b505050565b609980549050609a600083815260200190815260200160002081905550609981908060018154018082558091505060019003906000526020600020016000909190919091505550565b6000600161303384611018565b61303d91906145de565b9050600060986000848152602001908152602001600020549050818114613122576000609760008673ffffffffffffffffffffffffffffffffffffffff1673ffffffffffffffffffffffffffffffffffffffff168152602001908152602001600020600084815260200190815260200160002054905080609760008773ffffffffffffffffffffffffffffffffffffffff1673ffffffffffffffffffffffffffffffffffffffff168152602001908152602001600020600084815260200190815260200160002081905550816098600083815260200190815260200160002081905550505b6098600084815260200190815260200160002060009055609760008573ffffffffffffffffffffffffffffffffffffffff1673ffffffffffffffffffffffffffffffffffffffff16815260200190815260200160002060008381526020019081526020016000206000905550505050565b600060016099805490506131a791906145de565b90506000609a60008481526020019081526020016000205490506000609983815481106131d7576131d6614406565b5b9060005260206000200154905080609983815481106131f9576131f8614406565b5b906000526020600020018190555081609a600083815260200190815260200160002081905550609a6000858152602001908152602001600020600090556099805480613248576132476152f7565b5b6001900381819060005260206000200160009055905550505050565b600061326f83611018565b905081609760008573ffffffffffffffffffffffffffffffffffffffff1673ffffffffffffffffffffffffffffffffffffffff168152602001908152602001600020600083815260200190815260200160002081905550806098600084815260200190815260200160002081905550505050565b8280546132ef90613ffc565b90600052602060002090601f0160209004810192826133115760008555613358565b82601f1061332a57803560ff1916838001178555613358565b82800160010185558215613358579182015b8281111561335757823582559160200191906001019061333c565b5b509050613365919061349e565b5090565b8280548282559060005260206000209081019282156133a5579160200282015b828111156133a4578235825591602001919060010190613389565b5b5090506133b2919061349e565b5090565b6040518060400160405280600290602082028036833780820191505090505090565b8260028101928215613407579160200282015b828111156134065782518255916020019190600101906133eb565b5b509050613414919061349e565b5090565b82805461342490613ffc565b90600052602060002090601f016020900481019282613446576000855561348d565b82601f1061345f57805160ff191683800117855561348d565b8280016001018555821561348d579182015b8281111561348c578251825591602001919060010190613471565b5b50905061349a919061349e565b5090565b5b808211156134b757600081600090555060010161349f565b5090565b6000604051905090565b600080fd5b600080fd5b60007fffffffff0000000000000000000000000000000000000000000000000000000082169050919050565b613504816134cf565b811461350f57600080fd5b50565b600081359050613521816134fb565b92915050565b60006020828403121561353d5761353c6134c5565b5b600061354b84828501613512565b91505092915050565b60008115159050919050565b61356981613554565b82525050565b60006020820190506135846000830184613560565b92915050565b600081519050919050565b600082825260208201905092915050565b60005b838110156135c45780820151818401526020810190506135a9565b838111156135d3576000848401525b50505050565b6000601f19601f8301169050919050565b60006135f58261358a565b6135ff8185613595565b935061360f8185602086016135a6565b613618816135d9565b840191505092915050565b6000602082019050818103600083015261363d81846135ea565b905092915050565b6000819050919050565b61365881613645565b811461366357600080fd5b50565b6000813590506136758161364f565b92915050565b600060208284031215613691576136906134c5565b5b600061369f84828501613666565b91505092915050565b600073ffffffffffffffffffffffffffffffffffffffff82169050919050565b60006136d3826136a8565b9050919050565b6136e3816136c8565b82525050565b60006020820190506136fe60008301846136da565b92915050565b61370d816136c8565b811461371857600080fd5b50565b60008135905061372a81613704565b92915050565b60008060408385031215613747576137466134c5565b5b60006137558582860161371b565b925050602061376685828601613666565b9150509250929050565b61377981613645565b82525050565b60006020820190506137946000830184613770565b92915050565b6000806000606084860312156137b3576137b26134c5565b5b60006137c18682870161371b565b93505060206137d28682870161371b565b92505060406137e386828701613666565b9150509250925092565b6137f681613554565b811461380157600080fd5b50565b600081359050613813816137ed565b92915050565b60006020828403121561382f5761382e6134c5565b5b600061383d84828501613804565b91505092915050565b600080fd5b600080fd5b600080fd5b60008083601f84011261386b5761386a613846565b5b8235905067ffffffffffffffff8111156138885761388761384b565b5b6020830191508360018202830111156138a4576138a3613850565b5b9250929050565b600080602083850312156138c2576138c16134c5565b5b600083013567ffffffffffffffff8111156138e0576138df6134ca565b5b6138ec85828601613855565b92509250509250929050565b60006020828403121561390e5761390d6134c5565b5b600061391c8482850161371b565b91505092915050565b6000819050919050565b600061394a613945613940846136a8565b613925565b6136a8565b9050919050565b600061395c8261392f565b9050919050565b600061396e82613951565b9050919050565b61397e81613963565b82525050565b60006020820190506139996000830184613975565b92915050565b600080604083850312156139b6576139b56134c5565b5b60006139c48582860161371b565b92505060206139d585828601613804565b9150509250929050565b600080fd5b7f4e487b7100000000000000000000000000000000000000000000000000000000600052604160045260246000fd5b613a1c826135d9565b810181811067ffffffffffffffff82111715613a3b57613a3a6139e4565b5b80604052505050565b6000613a4e6134bb565b9050613a5a8282613a13565b919050565b600067ffffffffffffffff821115613a7a57613a796139e4565b5b613a83826135d9565b9050602081019050919050565b82818337600083830152505050565b6000613ab2613aad84613a5f565b613a44565b905082815260208101848484011115613ace57613acd6139df565b5b613ad9848285613a90565b509392505050565b600082601f830112613af657613af5613846565b5b8135613b06848260208601613a9f565b91505092915050565b60008060008060808587031215613b2957613b286134c5565b5b6000613b378782880161371b565b9450506020613b488782880161371b565b9350506040613b5987828801613666565b925050606085013567ffffffffffffffff811115613b7a57613b796134ca565b5b613b8687828801613ae1565b91505092959194509250565b600081519050919050565b600082825260208201905092915050565b6000819050602082019050919050565b6000613bc9826136a8565b9050919050565b613bd981613bbe565b82525050565b6000613beb8383613bd0565b60208301905092915050565b6000602082019050919050565b6000613c0f82613b92565b613c198185613b9d565b9350613c2483613bae565b8060005b83811015613c55578151613c3c8882613bdf565b9750613c4783613bf7565b925050600181019050613c28565b5085935050505092915050565b600081519050919050565b600082825260208201905092915050565b6000819050602082019050919050565b613c9781613645565b82525050565b6000613ca98383613c8e565b60208301905092915050565b6000602082019050919050565b6000613ccd82613c62565b613cd78185613c6d565b9350613ce283613c7e565b8060005b83811015613d13578151613cfa8882613c9d565b9750613d0583613cb5565b925050600181019050613ce6565b5085935050505092915050565b60006040820190508181036000830152613d3a8185613c04565b90508181036020830152613d4e8184613cc2565b90509392505050565b600080fd5b60006101008284031215613d7357613d72613d57565b5b81905092915050565b600080600060608486031215613d9557613d946134c5565b5b6000613da38682870161371b565b9350506020613db48682870161371b565b925050604084013567ffffffffffffffff811115613dd557613dd46134ca565b5b613de186828701613d5c565b9150509250925092565b60008083601f840112613e0157613e00613846565b5b8235905067ffffffffffffffff811115613e1e57613e1d61384b565b5b602083019150836020820283011115613e3a57613e39613850565b5b9250929050565b60008060208385031215613e5857613e576134c5565b5b600083013567ffffffffffffffff811115613e7657613e756134ca565b5b613e8285828601613deb565b92509250509250929050565b600080600060408486031215613ea757613ea66134c5565b5b600084013567ffffffffffffffff811115613ec557613ec46134ca565b5b613ed186828701613855565b93509350506020613ee486828701613666565b9150509250925092565b60008060408385031215613f0557613f046134c5565b5b6000613f138582860161371b565b9250506020613f248582860161371b565b9150509250929050565b600060029050919050565b600081905092915050565b6000819050919050565b6000602082019050919050565b613f6481613f2e565b613f6e8184613f39565b9250613f7982613f44565b8060005b83811015613faa578151613f918782613c9d565b9650613f9c83613f4e565b925050600181019050613f7d565b505050505050565b6000604082019050613fc76000830184613f5b565b92915050565b7f4e487b7100000000000000000000000000000000000000000000000000000000600052602260045260246000fd5b6000600282049050600182168061401457607f821691505b6020821081141561402857614027613fcd565b5b50919050565b7f4552433732313a20617070726f76656420717565727920666f72206e6f6e657860008201527f697374656e7420746f6b656e0000000000000000000000000000000000000000602082015250565b600061408a602c83613595565b91506140958261402e565b604082019050919050565b600060208201905081810360008301526140b98161407d565b9050919050565b7f4552433732313a20617070726f76616c20746f2063757272656e74206f776e6560008201527f7200000000000000000000000000000000000000000000000000000000000000602082015250565b600061411c602183613595565b9150614127826140c0565b604082019050919050565b6000602082019050818103600083015261414b8161410f565b9050919050565b7f4552433732313a20617070726f76652063616c6c6572206973206e6f74206f7760008201527f6e6572206e6f7220617070726f76656420666f7220616c6c0000000000000000602082015250565b60006141ae603883613595565b91506141b982614152565b604082019050919050565b600060208201905081810360008301526141dd816141a1565b9050919050565b7f4552433732313a207472616e736665722063616c6c6572206973206e6f74206f60008201527f776e6572206e6f7220617070726f766564000000000000000000000000000000602082015250565b6000614240603183613595565b915061424b826141e4565b604082019050919050565b6000602082019050818103600083015261426f81614233565b9050919050565b7f4f776e61626c653a2063616c6c6572206973206e6f7420746865206f776e6572600082015250565b60006142ac602083613595565b91506142b782614276565b602082019050919050565b600060208201905081810360008301526142db8161429f565b9050919050565b7f455243373231456e756d657261626c653a206f776e657220696e646578206f7560008201527f74206f6620626f756e6473000000000000000000000000000000000000000000602082015250565b600061433e602b83613595565b9150614349826142e2565b604082019050919050565b6000602082019050818103600083015261436d81614331565b9050919050565b7f455243373231456e756d657261626c653a20676c6f62616c20696e646578206f60008201527f7574206f6620626f756e64730000000000000000000000000000000000000000602082015250565b60006143d0602c83613595565b91506143db82614374565b604082019050919050565b600060208201905081810360008301526143ff816143c3565b9050919050565b7f4e487b7100000000000000000000000000000000000000000000000000000000600052603260045260246000fd5b7f4552433732313a206f776e657220717565727920666f72206e6f6e657869737460008201527f656e7420746f6b656e0000000000000000000000000000000000000000000000602082015250565b6000614491602983613595565b915061449c82614435565b604082019050919050565b600060208201905081810360008301526144c081614484565b9050919050565b7f4552433732313a2062616c616e636520717565727920666f7220746865207a6560008201527f726f206164647265737300000000000000000000000000000000000000000000602082015250565b6000614523602a83613595565b915061452e826144c7565b604082019050919050565b6000602082019050818103600083015261455281614516565b9050919050565b7f4e487b7100000000000000000000000000000000000000000000000000000000600052601160045260246000fd5b600061459382613645565b915061459e83613645565b9250827fffffffffffffffffffffffffffffffffffffffffffffffffffffffffffffffff038211156145d3576145d2614559565b5b828201905092915050565b60006145e982613645565b91506145f483613645565b92508282101561460757614606614559565b5b828203905092915050565b600067ffffffffffffffff82111561462d5761462c6139e4565b5b602082029050602081019050919050565b61464781613bbe565b811461465257600080fd5b50565b6000815190506146648161463e565b92915050565b600061467d61467884614612565b613a44565b905080838252602082019050602084028301858111156146a05761469f613850565b5b835b818110156146c957806146b58882614655565b8452602084019350506020810190506146a2565b5050509392505050565b600082601f8301126146e8576146e7613846565b5b81516146f884826020860161466a565b91505092915050565b600067ffffffffffffffff82111561471c5761471b6139e4565b5b602082029050602081019050919050565b60008151905061473c8161364f565b92915050565b600061475561475084614701565b613a44565b9050808382526020820190506020840283018581111561477857614777613850565b5b835b818110156147a1578061478d888261472d565b84526020840193505060208101905061477a565b5050509392505050565b600082601f8301126147c0576147bf613846565b5b81516147d0848260208601614742565b91505092915050565b600080604083850312156147f0576147ef6134c5565b5b600083015167ffffffffffffffff81111561480e5761480d6134ca565b5b61481a858286016146d3565b925050602083015167ffffffffffffffff81111561483b5761483a6134ca565b5b614847858286016147ab565b9150509250929050565b600081905092915050565b60006148678261358a565b6148718185614851565b93506148818185602086016135a6565b80840191505092915050565b7f2d00000000000000000000000000000000000000000000000000000000000000600082015250565b60006148c3600183614851565b91506148ce8261488d565b600182019050919050565b7f2e6a736f6e000000000000000000000000000000000000000000000000000000600082015250565b600061490f600583614851565b915061491a826148d9565b600582019050919050565b6000614931828661485c565b915061493d828561485c565b9150614948826148b6565b9150614954828461485c565b915061495f82614902565b9150819050949350505050565b7f496e697469616c697a61626c653a20636f6e747261637420697320616c72656160008201527f647920696e697469616c697a6564000000000000000000000000000000000000602082015250565b60006149c8602e83613595565b91506149d38261496c565b604082019050919050565b600060208201905081810360008301526149f7816149bb565b9050919050565b600080fd5b600080fd5b600080fd5b60008083356001602003843603038112614a2a57614a296149fe565b5b80840192508235915067ffffffffffffffff821115614a4c57614a4b614a03565b5b602083019250602082023603831315614a6857614a67614a08565b5b509250929050565b60008083356001602003843603038112614a8d57614a8c6149fe565b5b80840192508235915067ffffffffffffffff821115614aaf57614aae614a03565b5b602083019250600182023603831315614acb57614aca614a08565b5b509250929050565b6000614ade82613645565b91507fffffffffffffffffffffffffffffffffffffffffffffffffffffffffffffffff821415614b1157614b10614559565b5b600182019050919050565b7f4f776e61626c653a206e6577206f776e657220697320746865207a65726f206160008201527f6464726573730000000000000000000000000000000000000000000000000000602082015250565b6000614b78602683613595565b9150614b8382614b1c565b604082019050919050565b60006020820190508181036000830152614ba781614b6b565b9050919050565b7f746f6b656e20646f6573206e6f74206578697374000000000000000000000000600082015250565b6000614be4601483613595565b9150614bef82614bae565b602082019050919050565b60006020820190508181036000830152614c1381614bd7565b9050919050565b7f5265656e7472616e637947756172643a207265656e7472616e742063616c6c00600082015250565b6000614c50601f83613595565b9150614c5b82614c1a565b602082019050919050565b60006020820190508181036000830152614c7f81614c43565b9050919050565b6000614c9182613645565b9150614c9c83613645565b9250817fffffffffffffffffffffffffffffffffffffffffffffffffffffffffffffffff0483118215151615614cd557614cd4614559565b5b828202905092915050565b600080fd5b6000614cf18385613c6d565b93507f07ffffffffffffffffffffffffffffffffffffffffffffffffffffffffffffff831115614d2457614d23614ce0565b5b602083029250614d35838584613a90565b82840190509392505050565b60006020820190508181036000830152614d5c818486614ce5565b90509392505050565b7f4552433732313a206f70657261746f7220717565727920666f72206e6f6e657860008201527f697374656e7420746f6b656e0000000000000000000000000000000000000000602082015250565b6000614dc1602c83613595565b9150614dcc82614d65565b604082019050919050565b60006020820190508181036000830152614df081614db4565b9050919050565b7f4552433732313a207472616e73666572206f6620746f6b656e2074686174206960008201527f73206e6f74206f776e0000000000000000000000000000000000000000000000602082015250565b6000614e53602983613595565b9150614e5e82614df7565b604082019050919050565b60006020820190508181036000830152614e8281614e46565b9050919050565b7f4552433732313a207472616e7366657220746f20746865207a65726f2061646460008201527f7265737300000000000000000000000000000000000000000000000000000000602082015250565b6000614ee5602483613595565b9150614ef082614e89565b604082019050919050565b60006020820190508181036000830152614f1481614ed8565b9050919050565b7f4552433732313a20617070726f766520746f2063616c6c657200000000000000600082015250565b6000614f51601983613595565b9150614f5c82614f1b565b602082019050919050565b60006020820190508181036000830152614f8081614f44565b9050919050565b7f4552433732313a207472616e7366657220746f206e6f6e20455243373231526560008201527f63656976657220696d706c656d656e7465720000000000000000000000000000602082015250565b6000614fe3603283613595565b9150614fee82614f87565b604082019050919050565b6000602082019050818103600083015261501281614fd6565b9050919050565b7f4e487b7100000000000000000000000000000000000000000000000000000000600052601260045260246000fd5b600061505382613645565b915061505e83613645565b92508261506e5761506d615019565b5b828204905092915050565b600061508482613645565b915061508f83613645565b92508261509f5761509e615019565b5b828206905092915050565b7f496e697469616c697a61626c653a20636f6e7472616374206973206e6f74206960008201527f6e697469616c697a696e67000000000000000000000000000000000000000000602082015250565b6000615106602b83613595565b9150615111826150aa565b604082019050919050565b60006020820190508181036000830152615135816150f9565b9050919050565b7f4552433732313a206d696e7420746f20746865207a65726f2061646472657373600082015250565b6000615172602083613595565b915061517d8261513c565b602082019050919050565b600060208201905081810360008301526151a181615165565b9050919050565b7f4552433732313a20746f6b656e20616c7265616479206d696e74656400000000600082015250565b60006151de601c83613595565b91506151e9826151a8565b602082019050919050565b6000602082019050818103600083015261520d816151d1565b9050919050565b600081519050919050565b600082825260208201905092915050565b600061523b82615214565b615245818561521f565b93506152558185602086016135a6565b61525e816135d9565b840191505092915050565b600060808201905061527e60008301876136da565b61528b60208301866136da565b6152986040830185613770565b81810360608301526152aa8184615230565b905095945050505050565b6000815190506152c4816134fb565b92915050565b6000602082840312156152e0576152df6134c5565b5b60006152ee848285016152b5565b91505092915050565b7f4e487b7100000000000000000000000000000000000000000000000000000000600052603160045260246000fdfea2646970667358221220ab2321e3978fc098341f48da993680865514fabf06074d0bd6fdb3a8f8af9f1264736f6c634300080c0033",
  "immutableReferences": {},
  "source": "// contracts/MintSplitERC721.sol\n// SPDX-License-Identifier: MIT\npragma solidity ^0.8.0;\n\nimport \"@openzeppelin/contracts-upgradeable/token/ERC721/extensions/ERC721EnumerableUpgradeable.sol\";\nimport \"@openzeppelin/contracts-upgradeable/security/ReentrancyGuardUpgradeable.sol\";\nimport \"@openzeppelin/contracts-upgradeable/access/OwnableUpgradeable.sol\";\nimport \"@manifoldxyz/royalty-registry-solidity/contracts/specs/IManifold.sol\";\nimport \"@openzeppelin/contracts/utils/Strings.sol\";\nimport \"@openzeppelin/contracts/utils/Counters.sol\";\nimport \"./RevenueSplitter.sol\";\n\n// TODO: Consider using ERC721 fork to optimize gas\ncontract MintSplitERC721 is IManifold, ERC721EnumerableUpgradeable, OwnableUpgradeable, ReentrancyGuardUpgradeable {\n    using Counters for Counters.Counter;\n    using Strings for uint;\n\n    uint public contentCount;\n    uint[] public supplyLimits;\n    uint public mintPrice;\n    uint public mintLimit;\n    uint public allowMintingAfter = 0;\n    uint public timeDeployed;\n    string private baseURI;\n    RevenueSplitter public revenueSplitter;\n    bool public isPaused = false;\n\n    Counters.Counter private tokenIds;\n    mapping (uint => Counters.Counter) public contentSupplies;\n    mapping (uint => uint[2]) private tokenSubjects; // [content id, edition #]\n    mapping (uint => string) public contentUriOverrides;\n\n    constructor() initializer {}\n\n    function initialize(\n        address _owner,\n        address _revenueSplitter,\n        MintSplitSharedLibV1.ProjectParams calldata _params\n    ) initializer public {\n        require(_params.supplyLimits.length == _params.contentCount);\n\n        __ERC721_init(_params.projectName, _params.symbol);\n        _transferOwnership(_owner);\n        revenueSplitter = RevenueSplitter(_revenueSplitter);\n\n        contentCount = _params.contentCount;\n        supplyLimits = _params.supplyLimits;\n        mintPrice = _params.mintPrice;\n        mintLimit = _params.mintLimit;\n        baseURI = _params.baseURI;\n\n        if (_params.releaseTime > block.timestamp) {\n            allowMintingAfter = _params.releaseTime - block.timestamp;\n        }\n\n        timeDeployed = block.timestamp;\n    }\n\n    // Internal\n    function _baseURI(uint contentId) internal view virtual returns (string memory) {\n        if (bytes(contentUriOverrides[contentId]).length == 0) return baseURI;\n\n        return contentUriOverrides[contentId];\n    }\n\n    // External\n    function mint(uint[] calldata contentIds) external payable nonReentrant {\n        require(!isPaused);\n        require(block.timestamp >= timeDeployed + allowMintingAfter);\n        require(contentIds.length > 0);\n        require((balanceOf(msg.sender) + contentIds.length) <= mintLimit);\n\n        if (msg.sender != owner()) {\n            require(msg.value == (contentIds.length * mintPrice));\n        }\n\n        revenueSplitter.receiveMint{value: msg.value}(contentIds);\n\n        for (uint i = 0; i < contentIds.length; i++) {\n            uint contentId = contentIds[i];\n            require(contentId > 0 && contentId <= contentCount);\n\n            Counters.Counter storage contentSupply = contentSupplies[contentId];\n\n            // The supply limit for content id 1 is found at supplyLimits[0]\n            require((contentSupply.current() + 1) <= supplyLimits[contentId - 1]);\n\n            contentSupply.increment();\n            tokenIds.increment();\n\n            uint newTokenId = tokenIds.current();\n            _mint(msg.sender, newTokenId);\n            tokenSubjects[newTokenId] = [contentId, contentSupply.current()];\n        }\n    }\n\n    function getRoyalties(uint256 tokenId) external view returns (address payable[] memory, uint256[] memory) {\n        uint[2] storage subject = tokenSubjects[tokenId];\n        return revenueSplitter.getContentRoyalties(subject[0]);\n    }\n\n    function getSecondsUntilMinting() external view returns (uint256) {\n        if (block.timestamp < timeDeployed + allowMintingAfter) {\n            return (timeDeployed + allowMintingAfter) - block.timestamp;\n        } else {\n            return 0;\n        }\n    }\n\n    function tokenURI(uint256 tokenId)\n        public\n        view\n        virtual\n        override\n        returns (string memory)\n    {\n        require(_exists(tokenId));\n\n        uint[2] memory subject = tokenSubject(tokenId);\n        string memory currentBaseURI = _baseURI(subject[0]);\n        return\n            bytes(currentBaseURI).length > 0\n                ? string(\n                    abi.encodePacked(\n                        currentBaseURI,\n                        subject[0].toString(), // content id\n                        '-',\n                        subject[1].toString(), // edition #\n                        \".json\"\n                    )\n                )\n                : \"\";\n    }\n\n    // Public\n    function tokenSubject(uint tokenId) public view returns (uint[2] memory) {\n        require(_exists(tokenId), \"token does not exist\");\n\n        return tokenSubjects[tokenId];\n    }\n\n    // Only Owner\n    function setIsPaused(bool _state) public onlyOwner {\n        isPaused = _state;\n    }\n\n    function addContent(uint[] calldata newSupplyLimits) external onlyOwner {\n        require(newSupplyLimits.length > 0);\n        contentCount += newSupplyLimits.length;\n        for (uint i = 0; i < newSupplyLimits.length; i++) {\n            supplyLimits.push(newSupplyLimits[i]);\n        }\n    }\n\n    function setBaseURI(string calldata newBaseURI) public onlyOwner {\n        baseURI = newBaseURI;\n    }\n    \n    function setContentURI(string calldata newURI, uint contentId) public onlyOwner {\n        require(contentId > 0 && contentId <= contentCount);\n        contentUriOverrides[contentId] = newURI;\n    }\n}",
  "sourcePath": "/Users/justinfsl/Dev/misc/mintsplit/solidity/contracts/MintSplitERC721.sol",
  "compiler": {
    "name": "solc",
    "version": "0.8.12+commit.f00d7308.Emscripten.clang"
  },
  "schemaVersion": "3.4.4",
  "updatedAt": "2022-02-21T21:53:03.349Z",
  "networkType": "ethereum",
  "devdoc": {
    "kind": "dev",
    "methods": {
      "approve(address,uint256)": {
        "details": "See {IERC721-approve}."
      },
      "balanceOf(address)": {
        "details": "See {IERC721-balanceOf}."
      },
      "getApproved(uint256)": {
        "details": "See {IERC721-getApproved}."
      },
      "getRoyalties(uint256)": {
        "details": "Get royalites of a token.  Returns list of receivers and basisPoints  bytes4(keccak256('getRoyalties(uint256)')) == 0xbb3bafd6  => 0xbb3bafd6 = 0xbb3bafd6"
      },
      "isApprovedForAll(address,address)": {
        "details": "See {IERC721-isApprovedForAll}."
      },
      "name()": {
        "details": "See {IERC721Metadata-name}."
      },
      "owner()": {
        "details": "Returns the address of the current owner."
      },
      "ownerOf(uint256)": {
        "details": "See {IERC721-ownerOf}."
      },
      "renounceOwnership()": {
        "details": "Leaves the contract without owner. It will not be possible to call `onlyOwner` functions anymore. Can only be called by the current owner. NOTE: Renouncing ownership will leave the contract without an owner, thereby removing any functionality that is only available to the owner."
      },
      "safeTransferFrom(address,address,uint256)": {
        "details": "See {IERC721-safeTransferFrom}."
      },
      "safeTransferFrom(address,address,uint256,bytes)": {
        "details": "See {IERC721-safeTransferFrom}."
      },
      "setApprovalForAll(address,bool)": {
        "details": "See {IERC721-setApprovalForAll}."
      },
      "supportsInterface(bytes4)": {
        "details": "See {IERC165-supportsInterface}."
      },
      "symbol()": {
        "details": "See {IERC721Metadata-symbol}."
      },
      "tokenByIndex(uint256)": {
        "details": "See {IERC721Enumerable-tokenByIndex}."
      },
      "tokenOfOwnerByIndex(address,uint256)": {
        "details": "See {IERC721Enumerable-tokenOfOwnerByIndex}."
      },
      "tokenURI(uint256)": {
        "details": "See {IERC721Metadata-tokenURI}."
      },
      "totalSupply()": {
        "details": "See {IERC721Enumerable-totalSupply}."
      },
      "transferFrom(address,address,uint256)": {
        "details": "See {IERC721-transferFrom}."
      },
      "transferOwnership(address)": {
        "details": "Transfers ownership of the contract to a new account (`newOwner`). Can only be called by the current owner."
      }
    },
    "version": 1
  },
  "userdoc": {
    "kind": "user",
    "methods": {},
    "version": 1
  }
}