{
  "contractName": "MintSplitERC721",
  "abi": [
    {
      "inputs": [],
      "stateMutability": "nonpayable",
      "type": "constructor"
    },
    {
      "anonymous": false,
      "inputs": [
        {
          "indexed": true,
          "internalType": "address",
          "name": "owner",
          "type": "address"
        },
        {
          "indexed": true,
          "internalType": "address",
          "name": "approved",
          "type": "address"
        },
        {
          "indexed": true,
          "internalType": "uint256",
          "name": "tokenId",
          "type": "uint256"
        }
      ],
      "name": "Approval",
      "type": "event"
    },
    {
      "anonymous": false,
      "inputs": [
        {
          "indexed": true,
          "internalType": "address",
          "name": "owner",
          "type": "address"
        },
        {
          "indexed": true,
          "internalType": "address",
          "name": "operator",
          "type": "address"
        },
        {
          "indexed": false,
          "internalType": "bool",
          "name": "approved",
          "type": "bool"
        }
      ],
      "name": "ApprovalForAll",
      "type": "event"
    },
    {
      "anonymous": false,
      "inputs": [
        {
          "indexed": true,
          "internalType": "address",
          "name": "previousOwner",
          "type": "address"
        },
        {
          "indexed": true,
          "internalType": "address",
          "name": "newOwner",
          "type": "address"
        }
      ],
      "name": "OwnershipTransferred",
      "type": "event"
    },
    {
      "anonymous": false,
      "inputs": [
        {
          "indexed": true,
          "internalType": "address",
          "name": "from",
          "type": "address"
        },
        {
          "indexed": true,
          "internalType": "address",
          "name": "to",
          "type": "address"
        },
        {
          "indexed": true,
          "internalType": "uint256",
          "name": "tokenId",
          "type": "uint256"
        }
      ],
      "name": "Transfer",
      "type": "event"
    },
    {
      "inputs": [],
      "name": "allowMintingAfter",
      "outputs": [
        {
          "internalType": "uint256",
          "name": "",
          "type": "uint256"
        }
      ],
      "stateMutability": "view",
      "type": "function",
      "constant": true
    },
    {
      "inputs": [
        {
          "internalType": "address",
          "name": "to",
          "type": "address"
        },
        {
          "internalType": "uint256",
          "name": "tokenId",
          "type": "uint256"
        }
      ],
      "name": "approve",
      "outputs": [],
      "stateMutability": "nonpayable",
      "type": "function"
    },
    {
      "inputs": [
        {
          "internalType": "address",
          "name": "owner",
          "type": "address"
        }
      ],
      "name": "balanceOf",
      "outputs": [
        {
          "internalType": "uint256",
          "name": "",
          "type": "uint256"
        }
      ],
      "stateMutability": "view",
      "type": "function",
      "constant": true
    },
    {
      "inputs": [],
      "name": "baseURI",
      "outputs": [
        {
          "internalType": "string",
          "name": "",
          "type": "string"
        }
      ],
      "stateMutability": "view",
      "type": "function",
      "constant": true
    },
    {
      "inputs": [],
      "name": "contentCount",
      "outputs": [
        {
          "internalType": "uint256",
          "name": "",
          "type": "uint256"
        }
      ],
      "stateMutability": "view",
      "type": "function",
      "constant": true
    },
    {
      "inputs": [
        {
          "internalType": "uint256",
          "name": "",
          "type": "uint256"
        }
      ],
      "name": "contentSupplies",
      "outputs": [
        {
          "internalType": "uint256",
          "name": "_value",
          "type": "uint256"
        }
      ],
      "stateMutability": "view",
      "type": "function",
      "constant": true
    },
    {
      "inputs": [
        {
          "internalType": "uint256",
          "name": "",
          "type": "uint256"
        }
      ],
      "name": "contentUriOverrides",
      "outputs": [
        {
          "internalType": "string",
          "name": "",
          "type": "string"
        }
      ],
      "stateMutability": "view",
      "type": "function",
      "constant": true
    },
    {
      "inputs": [
        {
          "internalType": "uint256",
          "name": "tokenId",
          "type": "uint256"
        }
      ],
      "name": "getApproved",
      "outputs": [
        {
          "internalType": "address",
          "name": "",
          "type": "address"
        }
      ],
      "stateMutability": "view",
      "type": "function",
      "constant": true
    },
    {
      "inputs": [
        {
          "internalType": "address",
          "name": "owner",
          "type": "address"
        },
        {
          "internalType": "address",
          "name": "operator",
          "type": "address"
        }
      ],
      "name": "isApprovedForAll",
      "outputs": [
        {
          "internalType": "bool",
          "name": "",
          "type": "bool"
        }
      ],
      "stateMutability": "view",
      "type": "function",
      "constant": true
    },
    {
      "inputs": [],
      "name": "isPaused",
      "outputs": [
        {
          "internalType": "bool",
          "name": "",
          "type": "bool"
        }
      ],
      "stateMutability": "view",
      "type": "function",
      "constant": true
    },
    {
      "inputs": [],
      "name": "maxLimit",
      "outputs": [
        {
          "internalType": "uint256",
          "name": "",
          "type": "uint256"
        }
      ],
      "stateMutability": "view",
      "type": "function",
      "constant": true
    },
    {
      "inputs": [],
      "name": "mintLimit",
      "outputs": [
        {
          "internalType": "uint256",
          "name": "",
          "type": "uint256"
        }
      ],
      "stateMutability": "view",
      "type": "function",
      "constant": true
    },
    {
      "inputs": [],
      "name": "mintPrice",
      "outputs": [
        {
          "internalType": "uint256",
          "name": "",
          "type": "uint256"
        }
      ],
      "stateMutability": "view",
      "type": "function",
      "constant": true
    },
    {
      "inputs": [],
      "name": "name",
      "outputs": [
        {
          "internalType": "string",
          "name": "",
          "type": "string"
        }
      ],
      "stateMutability": "view",
      "type": "function",
      "constant": true
    },
    {
      "inputs": [],
      "name": "owner",
      "outputs": [
        {
          "internalType": "address",
          "name": "",
          "type": "address"
        }
      ],
      "stateMutability": "view",
      "type": "function",
      "constant": true
    },
    {
      "inputs": [
        {
          "internalType": "uint256",
          "name": "tokenId",
          "type": "uint256"
        }
      ],
      "name": "ownerOf",
      "outputs": [
        {
          "internalType": "address",
          "name": "",
          "type": "address"
        }
      ],
      "stateMutability": "view",
      "type": "function",
      "constant": true
    },
    {
      "inputs": [],
      "name": "renounceOwnership",
      "outputs": [],
      "stateMutability": "nonpayable",
      "type": "function"
    },
    {
      "inputs": [],
      "name": "revenueSplitter",
      "outputs": [
        {
          "internalType": "contract RevenueSplitter",
          "name": "",
          "type": "address"
        }
      ],
      "stateMutability": "view",
      "type": "function",
      "constant": true
    },
    {
      "inputs": [
        {
          "internalType": "address",
          "name": "from",
          "type": "address"
        },
        {
          "internalType": "address",
          "name": "to",
          "type": "address"
        },
        {
          "internalType": "uint256",
          "name": "tokenId",
          "type": "uint256"
        }
      ],
      "name": "safeTransferFrom",
      "outputs": [],
      "stateMutability": "nonpayable",
      "type": "function"
    },
    {
      "inputs": [
        {
          "internalType": "address",
          "name": "from",
          "type": "address"
        },
        {
          "internalType": "address",
          "name": "to",
          "type": "address"
        },
        {
          "internalType": "uint256",
          "name": "tokenId",
          "type": "uint256"
        },
        {
          "internalType": "bytes",
          "name": "_data",
          "type": "bytes"
        }
      ],
      "name": "safeTransferFrom",
      "outputs": [],
      "stateMutability": "nonpayable",
      "type": "function"
    },
    {
      "inputs": [
        {
          "internalType": "address",
          "name": "operator",
          "type": "address"
        },
        {
          "internalType": "bool",
          "name": "approved",
          "type": "bool"
        }
      ],
      "name": "setApprovalForAll",
      "outputs": [],
      "stateMutability": "nonpayable",
      "type": "function"
    },
    {
      "inputs": [
        {
          "internalType": "uint256",
          "name": "",
          "type": "uint256"
        }
      ],
      "name": "supplyLimits",
      "outputs": [
        {
          "internalType": "uint256",
          "name": "",
          "type": "uint256"
        }
      ],
      "stateMutability": "view",
      "type": "function",
      "constant": true
    },
    {
      "inputs": [
        {
          "internalType": "bytes4",
          "name": "interfaceId",
          "type": "bytes4"
        }
      ],
      "name": "supportsInterface",
      "outputs": [
        {
          "internalType": "bool",
          "name": "",
          "type": "bool"
        }
      ],
      "stateMutability": "view",
      "type": "function",
      "constant": true
    },
    {
      "inputs": [],
      "name": "symbol",
      "outputs": [
        {
          "internalType": "string",
          "name": "",
          "type": "string"
        }
      ],
      "stateMutability": "view",
      "type": "function",
      "constant": true
    },
    {
      "inputs": [],
      "name": "timeDeployed",
      "outputs": [
        {
          "internalType": "uint256",
          "name": "",
          "type": "uint256"
        }
      ],
      "stateMutability": "view",
      "type": "function",
      "constant": true
    },
    {
      "inputs": [
        {
          "internalType": "uint256",
          "name": "index",
          "type": "uint256"
        }
      ],
      "name": "tokenByIndex",
      "outputs": [
        {
          "internalType": "uint256",
          "name": "",
          "type": "uint256"
        }
      ],
      "stateMutability": "view",
      "type": "function",
      "constant": true
    },
    {
      "inputs": [
        {
          "internalType": "address",
          "name": "owner",
          "type": "address"
        },
        {
          "internalType": "uint256",
          "name": "index",
          "type": "uint256"
        }
      ],
      "name": "tokenOfOwnerByIndex",
      "outputs": [
        {
          "internalType": "uint256",
          "name": "",
          "type": "uint256"
        }
      ],
      "stateMutability": "view",
      "type": "function",
      "constant": true
    },
    {
      "inputs": [],
      "name": "totalSupply",
      "outputs": [
        {
          "internalType": "uint256",
          "name": "",
          "type": "uint256"
        }
      ],
      "stateMutability": "view",
      "type": "function",
      "constant": true
    },
    {
      "inputs": [
        {
          "internalType": "address",
          "name": "from",
          "type": "address"
        },
        {
          "internalType": "address",
          "name": "to",
          "type": "address"
        },
        {
          "internalType": "uint256",
          "name": "tokenId",
          "type": "uint256"
        }
      ],
      "name": "transferFrom",
      "outputs": [],
      "stateMutability": "nonpayable",
      "type": "function"
    },
    {
      "inputs": [
        {
          "internalType": "address",
          "name": "newOwner",
          "type": "address"
        }
      ],
      "name": "transferOwnership",
      "outputs": [],
      "stateMutability": "nonpayable",
      "type": "function"
    },
    {
      "inputs": [
        {
          "internalType": "address",
          "name": "_owner",
          "type": "address"
        },
        {
          "internalType": "address",
          "name": "_revenueSplitter",
          "type": "address"
        },
        {
          "components": [
            {
              "internalType": "string",
              "name": "projectName",
              "type": "string"
            },
            {
              "internalType": "string",
              "name": "symbol",
              "type": "string"
            },
            {
              "internalType": "uint256",
              "name": "contentCount",
              "type": "uint256"
            },
            {
              "internalType": "uint256[]",
              "name": "supplyLimits",
              "type": "uint256[]"
            },
            {
              "internalType": "uint256",
              "name": "mintPrice",
              "type": "uint256"
            },
            {
              "internalType": "uint256",
              "name": "mintLimit",
              "type": "uint256"
            },
            {
              "internalType": "uint256",
              "name": "releaseTime",
              "type": "uint256"
            },
            {
              "internalType": "string",
              "name": "baseURI",
              "type": "string"
            },
            {
              "internalType": "uint256",
              "name": "package",
              "type": "uint256"
            }
          ],
          "internalType": "struct MintSplitSharedLibV1.ProjectParams",
          "name": "_params",
          "type": "tuple"
        },
        {
          "internalType": "uint256",
          "name": "_maxLimit",
          "type": "uint256"
        }
      ],
      "name": "initialize",
      "outputs": [],
      "stateMutability": "nonpayable",
      "type": "function"
    },
    {
      "inputs": [
        {
          "internalType": "uint256[]",
          "name": "contentIds",
          "type": "uint256[]"
        }
      ],
      "name": "mint",
      "outputs": [],
      "stateMutability": "payable",
      "type": "function",
      "payable": true
    },
    {
      "inputs": [
        {
          "internalType": "uint256",
          "name": "tokenId",
          "type": "uint256"
        }
      ],
      "name": "getRoyalties",
      "outputs": [
        {
          "internalType": "address payable[]",
          "name": "",
          "type": "address[]"
        },
        {
          "internalType": "uint256[]",
          "name": "",
          "type": "uint256[]"
        }
      ],
      "stateMutability": "view",
      "type": "function",
      "constant": true
    },
    {
      "inputs": [],
      "name": "getSecondsUntilMinting",
      "outputs": [
        {
          "internalType": "uint256",
          "name": "",
          "type": "uint256"
        }
      ],
      "stateMutability": "view",
      "type": "function",
      "constant": true
    },
    {
      "inputs": [
        {
          "internalType": "uint256",
          "name": "tokenId",
          "type": "uint256"
        }
      ],
      "name": "tokenURI",
      "outputs": [
        {
          "internalType": "string",
          "name": "",
          "type": "string"
        }
      ],
      "stateMutability": "view",
      "type": "function",
      "constant": true
    },
    {
      "inputs": [
        {
          "internalType": "uint256",
          "name": "tokenId",
          "type": "uint256"
        }
      ],
      "name": "tokenSubject",
      "outputs": [
        {
          "internalType": "uint256[2]",
          "name": "",
          "type": "uint256[2]"
        }
      ],
      "stateMutability": "view",
      "type": "function",
      "constant": true
    },
    {
      "inputs": [],
      "name": "getSupplyLimits",
      "outputs": [
        {
          "internalType": "uint256[]",
          "name": "",
          "type": "uint256[]"
        }
      ],
      "stateMutability": "view",
      "type": "function",
      "constant": true
    },
    {
      "inputs": [
        {
          "internalType": "bool",
          "name": "_state",
          "type": "bool"
        }
      ],
      "name": "setIsPaused",
      "outputs": [],
      "stateMutability": "nonpayable",
      "type": "function"
    },
    {
      "inputs": [
        {
          "internalType": "uint256[]",
          "name": "newSupplyLimits",
          "type": "uint256[]"
        }
      ],
      "name": "addContent",
      "outputs": [],
      "stateMutability": "nonpayable",
      "type": "function"
    },
    {
      "inputs": [
        {
          "internalType": "string",
          "name": "newBaseURI",
          "type": "string"
        }
      ],
      "name": "setBaseURI",
      "outputs": [],
      "stateMutability": "nonpayable",
      "type": "function"
    },
    {
      "inputs": [
        {
          "internalType": "string",
          "name": "newURI",
          "type": "string"
        },
        {
          "internalType": "uint256",
          "name": "contentId",
          "type": "uint256"
        }
      ],
      "name": "setContentURI",
      "outputs": [],
      "stateMutability": "nonpayable",
      "type": "function"
    }
  ],
  "bytecode": "0x6080604052600061013255600061013560146101000a81548160ff0219169083151502179055503480156200003357600080fd5b50600060019054906101000a900460ff166200005e5760008054906101000a900460ff16156200006f565b6200006e6200012b60201b60201c565b5b620000b1576040517f08c379a0000000000000000000000000000000000000000000000000000000008152600401620000a890620001e3565b60405180910390fd5b60008060019054906101000a900460ff16159050801562000102576001600060016101000a81548160ff02191690831515021790555060016000806101000a81548160ff0219169083151502179055505b8015620001245760008060016101000a81548160ff0219169083151502179055505b5062000205565b600062000143306200014960201b6200205c1760201c565b15905090565b600080823b905060008111915050919050565b600082825260208201905092915050565b7f496e697469616c697a61626c653a20636f6e747261637420697320616c72656160008201527f647920696e697469616c697a6564000000000000000000000000000000000000602082015250565b6000620001cb602e836200015c565b9150620001d8826200016d565b604082019050919050565b60006020820190508181036000830152620001fe81620001bc565b9050919050565b61555e80620002156000396000f3fe6080604052600436106102465760003560e01c8063715018a611610139578063b88d4fde116100b6578063e2a559941161007a578063e2a55994146108cf578063e5015d9e146108f8578063e985e9c514610921578063f2fde38b1461095e578063f378828314610987578063f8e93ef9146109c457610246565b8063b88d4fde146107c3578063bb3bafd6146107ec578063c87b56dd1461082a578063cc45969614610867578063cf8faa3d1461089257610246565b8063996517cf116100fd578063996517cf146106ee5780639d2b86f614610719578063a22cb46514610744578063a75052cb1461076d578063b187bd261461079857610246565b8063715018a614610619578063872bdcdb146106305780638da5cb5b1461065b5780639354f1751461068657806395d89b41146106c357610246565b806328b74c95116101c757806355f804b31161018b57806355f804b3146105205780636352211e146105495780636817c76c146105865780636c0360eb146105b157806370a08231146105dc57610246565b806328b74c95146104155780632dbefd0b146104405780632f745c591461047d57806342842e0e146104ba5780634f6ccce7146104e357610246565b806319188c351161020e57806319188c35146103445780631a861d261461036f5780632324839d1461039a57806323b872dd146103c3578063240976bf146103ec57610246565b806301ffc9a71461024b57806306fdde0314610288578063081812fc146102b3578063095ea7b3146102f057806318160ddd14610319575b600080fd5b34801561025757600080fd5b50610272600480360381019061026d91906136f3565b6109e0565b60405161027f919061373b565b60405180910390f35b34801561029457600080fd5b5061029d610a5a565b6040516102aa91906137ef565b60405180910390f35b3480156102bf57600080fd5b506102da60048036038101906102d59190613847565b610aec565b6040516102e791906138b5565b60405180910390f35b3480156102fc57600080fd5b50610317600480360381019061031291906138fc565b610b71565b005b34801561032557600080fd5b5061032e610c89565b60405161033b919061394b565b60405180910390f35b34801561035057600080fd5b50610359610c96565b604051610366919061394b565b60405180910390f35b34801561037b57600080fd5b50610384610c9d565b604051610391919061394b565b60405180910390f35b3480156103a657600080fd5b506103c160048036038101906103bc919061398b565b610ca4565b005b3480156103cf57600080fd5b506103ea60048036038101906103e59190613a0e565b610f40565b005b3480156103f857600080fd5b50610413600480360381019061040e9190613a8d565b610fa0565b005b34801561042157600080fd5b5061042a61103a565b6040516104379190613b78565b60405180910390f35b34801561044c57600080fd5b5061046760048036038101906104629190613847565b611093565b60405161047491906137ef565b60405180910390f35b34801561048957600080fd5b506104a4600480360381019061049f91906138fc565b611134565b6040516104b1919061394b565b60405180910390f35b3480156104c657600080fd5b506104e160048036038101906104dc9190613a0e565b6111d9565b005b3480156104ef57600080fd5b5061050a60048036038101906105059190613847565b6111f9565b604051610517919061394b565b60405180910390f35b34801561052c57600080fd5b5061054760048036038101906105429190613bff565b61126a565b005b34801561055557600080fd5b50610570600480360381019061056b9190613847565b6112fd565b60405161057d91906138b5565b60405180910390f35b34801561059257600080fd5b5061059b6113af565b6040516105a8919061394b565b60405180910390f35b3480156105bd57600080fd5b506105c66113b6565b6040516105d391906137ef565b60405180910390f35b3480156105e857600080fd5b5061060360048036038101906105fe9190613c4c565b611445565b604051610610919061394b565b60405180910390f35b34801561062557600080fd5b5061062e6114fd565b005b34801561063c57600080fd5b50610645611585565b604051610652919061394b565b60405180910390f35b34801561066757600080fd5b5061067061158c565b60405161067d91906138b5565b60405180910390f35b34801561069257600080fd5b506106ad60048036038101906106a89190613847565b6115b6565b6040516106ba919061394b565b60405180910390f35b3480156106cf57600080fd5b506106d86115db565b6040516106e591906137ef565b60405180910390f35b3480156106fa57600080fd5b5061070361166d565b604051610710919061394b565b60405180910390f35b34801561072557600080fd5b5061072e611674565b60405161073b9190613cd8565b60405180910390f35b34801561075057600080fd5b5061076b60048036038101906107669190613cf3565b61169b565b005b34801561077957600080fd5b506107826116b1565b60405161078f919061394b565b60405180910390f35b3480156107a457600080fd5b506107ad6116f8565b6040516107ba919061373b565b60405180910390f35b3480156107cf57600080fd5b506107ea60048036038101906107e59190613e63565b61170c565b005b3480156107f857600080fd5b50610813600480360381019061080e9190613847565b61176e565b604051610821929190613fb6565b60405180910390f35b34801561083657600080fd5b50610851600480360381019061084c9190613847565b61184a565b60405161085e91906137ef565b60405180910390f35b34801561087357600080fd5b5061087c61191c565b604051610889919061394b565b60405180910390f35b34801561089e57600080fd5b506108b960048036038101906108b49190613847565b611923565b6040516108c6919061394b565b60405180910390f35b3480156108db57600080fd5b506108f660048036038101906108f19190614043565b611942565b005b34801561090457600080fd5b5061091f600480360381019061091a9190614090565b611a54565b005b34801561092d57600080fd5b50610948600480360381019061094391906140f0565b611b15565b604051610955919061373b565b60405180910390f35b34801561096a57600080fd5b5061098560048036038101906109809190613c4c565b611ba9565b005b34801561099357600080fd5b506109ae60048036038101906109a99190613847565b611ca1565b6040516109bb91906141b4565b60405180910390f35b6109de60048036038101906109d99190614043565b611d48565b005b60007f780e9d63000000000000000000000000000000000000000000000000000000007bffffffffffffffffffffffffffffffffffffffffffffffffffffffff1916827bffffffffffffffffffffffffffffffffffffffffffffffffffffffff19161480610a535750610a528261206f565b5b9050919050565b606060658054610a69906141fe565b80601f0160208091040260200160405190810160405280929190818152602001828054610a95906141fe565b8015610ae25780601f10610ab757610100808354040283529160200191610ae2565b820191906000526020600020905b815481529060010190602001808311610ac557829003601f168201915b5050505050905090565b6000610af782612151565b610b36576040517f08c379a0000000000000000000000000000000000000000000000000000000008152600401610b2d906142a2565b60405180910390fd5b6069600083815260200190815260200160002060009054906101000a900473ffffffffffffffffffffffffffffffffffffffff169050919050565b6000610b7c826112fd565b90508073ffffffffffffffffffffffffffffffffffffffff168373ffffffffffffffffffffffffffffffffffffffff161415610bed576040517f08c379a0000000000000000000000000000000000000000000000000000000008152600401610be490614334565b60405180910390fd5b8073ffffffffffffffffffffffffffffffffffffffff16610c0c6121bd565b73ffffffffffffffffffffffffffffffffffffffff161480610c3b5750610c3a81610c356121bd565b611b15565b5b610c7a576040517f08c379a0000000000000000000000000000000000000000000000000000000008152600401610c71906143c6565b60405180910390fd5b610c8483836121c5565b505050565b6000609980549050905090565b6101335481565b6101315481565b600060019054906101000a900460ff16610ccc5760008054906101000a900460ff1615610cd5565b610cd461227e565b5b610d14576040517f08c379a0000000000000000000000000000000000000000000000000000000008152600401610d0b90614458565b60405180910390fd5b60008060019054906101000a900460ff161590508015610d64576001600060016101000a81548160ff02191690831515021790555060016000806101000a81548160ff0219169083151502179055505b8260400135838060600190610d799190614487565b905014610d8557600080fd5b610e33838060000190610d9891906144ea565b8080601f016020809104026020016040519081016040528093929190818152602001838380828437600081840152601f19601f82011690508083019250505050505050848060200190610deb91906144ea565b8080601f016020809104026020016040519081016040528093929190818152602001838380828437600081840152601f19601f8201169050808301925050505050505061228f565b610e3c856122fc565b8361013560006101000a81548173ffffffffffffffffffffffffffffffffffffffff021916908373ffffffffffffffffffffffffffffffffffffffff160217905550826040013561012d81905550828060600190610e9a9190614487565b61012e9190610eaa9291906134af565b50826080013561012f819055508260a0013561013081905550828060e00190610ed391906144ea565b6101349190610ee39291906134fc565b508161013181905550428360c001351115610f1057428360c00135610f08919061457c565b610132819055505b42610133819055508015610f395760008060016101000a81548160ff0219169083151502179055505b5050505050565b610f51610f4b6121bd565b826123c2565b610f90576040517f08c379a0000000000000000000000000000000000000000000000000000000008152600401610f8790614622565b60405180910390fd5b610f9b8383836124a0565b505050565b610fa86121bd565b73ffffffffffffffffffffffffffffffffffffffff16610fc661158c565b73ffffffffffffffffffffffffffffffffffffffff161461101c576040517f08c379a00000000000000000000000000000000000000000000000000000000081526004016110139061468e565b60405180910390fd5b8061013560146101000a81548160ff02191690831515021790555050565b606061012e80548060200260200160405190810160405280929190818152602001828054801561108957602002820191906000526020600020905b815481526020019060010190808311611075575b5050505050905090565b61013960205280600052604060002060009150905080546110b3906141fe565b80601f01602080910402602001604051908101604052809291908181526020018280546110df906141fe565b801561112c5780601f106111015761010080835404028352916020019161112c565b820191906000526020600020905b81548152906001019060200180831161110f57829003601f168201915b505050505081565b600061113f83611445565b8210611180576040517f08c379a000000000000000000000000000000000000000000000000000000000815260040161117790614720565b60405180910390fd5b609760008473ffffffffffffffffffffffffffffffffffffffff1673ffffffffffffffffffffffffffffffffffffffff168152602001908152602001600020600083815260200190815260200160002054905092915050565b6111f48383836040518060200160405280600081525061170c565b505050565b6000611203610c89565b8210611244576040517f08c379a000000000000000000000000000000000000000000000000000000000815260040161123b906147b2565b60405180910390fd5b60998281548110611258576112576147d2565b5b90600052602060002001549050919050565b6112726121bd565b73ffffffffffffffffffffffffffffffffffffffff1661129061158c565b73ffffffffffffffffffffffffffffffffffffffff16146112e6576040517f08c379a00000000000000000000000000000000000000000000000000000000081526004016112dd9061468e565b60405180910390fd5b818161013491906112f89291906134fc565b505050565b6000806067600084815260200190815260200160002060009054906101000a900473ffffffffffffffffffffffffffffffffffffffff169050600073ffffffffffffffffffffffffffffffffffffffff168173ffffffffffffffffffffffffffffffffffffffff1614156113a6576040517f08c379a000000000000000000000000000000000000000000000000000000000815260040161139d90614873565b60405180910390fd5b80915050919050565b61012f5481565b61013480546113c4906141fe565b80601f01602080910402602001604051908101604052809291908181526020018280546113f0906141fe565b801561143d5780601f106114125761010080835404028352916020019161143d565b820191906000526020600020905b81548152906001019060200180831161142057829003601f168201915b505050505081565b60008073ffffffffffffffffffffffffffffffffffffffff168273ffffffffffffffffffffffffffffffffffffffff1614156114b6576040517f08c379a00000000000000000000000000000000000000000000000000000000081526004016114ad90614905565b60405180910390fd5b606860008373ffffffffffffffffffffffffffffffffffffffff1673ffffffffffffffffffffffffffffffffffffffff168152602001908152602001600020549050919050565b6115056121bd565b73ffffffffffffffffffffffffffffffffffffffff1661152361158c565b73ffffffffffffffffffffffffffffffffffffffff1614611579576040517f08c379a00000000000000000000000000000000000000000000000000000000081526004016115709061468e565b60405180910390fd5b61158360006122fc565b565b6101325481565b600060c960009054906101000a900473ffffffffffffffffffffffffffffffffffffffff16905090565b61012e81815481106115c757600080fd5b906000526020600020016000915090505481565b6060606680546115ea906141fe565b80601f0160208091040260200160405190810160405280929190818152602001828054611616906141fe565b80156116635780601f1061163857610100808354040283529160200191611663565b820191906000526020600020905b81548152906001019060200180831161164657829003601f168201915b5050505050905090565b6101305481565b61013560009054906101000a900473ffffffffffffffffffffffffffffffffffffffff1681565b6116ad6116a66121bd565b83836126fc565b5050565b600061013254610133546116c59190614925565b4210156116f0574261013254610133546116df9190614925565b6116e9919061457c565b90506116f5565b600090505b90565b61013560149054906101000a900460ff1681565b61171d6117176121bd565b836123c2565b61175c576040517f08c379a000000000000000000000000000000000000000000000000000000000815260040161175390614622565b60405180910390fd5b61176884848484612869565b50505050565b60608060006101386000858152602001908152602001600020905061013560009054906101000a900473ffffffffffffffffffffffffffffffffffffffff1673ffffffffffffffffffffffffffffffffffffffff1663fb3bc76e826000600281106117dc576117db6147d2565b5b01546040518263ffffffff1660e01b81526004016117fa919061394b565b600060405180830381865afa158015611817573d6000803e3d6000fd5b505050506040513d6000823e3d601f19601f820116820180604052508101906118409190614b42565b9250925050915091565b606061185582612151565b61185e57600080fd5b600061186983611ca1565b9050600061188e82600060028110611884576118836147d2565b5b60200201516128c5565b905060008151116118ae5760405180602001604052806000815250611913565b806118d0836000600281106118c6576118c56147d2565b5b6020020151612a28565b6118f1846001600281106118e7576118e66147d2565b5b6020020151612a28565b60405160200161190393929190614c8e565b6040516020818303038152906040525b92505050919050565b61012d5481565b6101376020528060005260406000206000915090508060000154905081565b61194a6121bd565b73ffffffffffffffffffffffffffffffffffffffff1661196861158c565b73ffffffffffffffffffffffffffffffffffffffff16146119be576040517f08c379a00000000000000000000000000000000000000000000000000000000081526004016119b59061468e565b60405180910390fd5b600082829050116119ce57600080fd5b8181905061012d60008282546119e49190614925565b9250508190555060005b82829050811015611a4f5761012e838383818110611a0f57611a0e6147d2565b5b9050602002013590806001815401808255809150506001900390600052602060002001600090919091909150558080611a4790614cd5565b9150506119ee565b505050565b611a5c6121bd565b73ffffffffffffffffffffffffffffffffffffffff16611a7a61158c565b73ffffffffffffffffffffffffffffffffffffffff1614611ad0576040517f08c379a0000000000000000000000000000000000000000000000000000000008152600401611ac79061468e565b60405180910390fd5b600081118015611ae3575061012d548111155b611aec57600080fd5b828261013960008481526020019081526020016000209190611b0f9291906134fc565b50505050565b6000606a60008473ffffffffffffffffffffffffffffffffffffffff1673ffffffffffffffffffffffffffffffffffffffff16815260200190815260200160002060008373ffffffffffffffffffffffffffffffffffffffff1673ffffffffffffffffffffffffffffffffffffffff16815260200190815260200160002060009054906101000a900460ff16905092915050565b611bb16121bd565b73ffffffffffffffffffffffffffffffffffffffff16611bcf61158c565b73ffffffffffffffffffffffffffffffffffffffff1614611c25576040517f08c379a0000000000000000000000000000000000000000000000000000000008152600401611c1c9061468e565b60405180910390fd5b600073ffffffffffffffffffffffffffffffffffffffff168173ffffffffffffffffffffffffffffffffffffffff161415611c95576040517f08c379a0000000000000000000000000000000000000000000000000000000008152600401611c8c90614d90565b60405180910390fd5b611c9e816122fc565b50565b611ca9613582565b611cb282612151565b611cf1576040517f08c379a0000000000000000000000000000000000000000000000000000000008152600401611ce890614dfc565b60405180910390fd5b6101386000838152602001908152602001600020600280602002604051908101604052809291908260028015611d3c576020028201915b815481526020019060010190808311611d28575b50505050509050919050565b600260fb541415611d8e576040517f08c379a0000000000000000000000000000000000000000000000000000000008152600401611d8590614e68565b60405180910390fd5b600260fb8190555061013560149054906101000a900460ff1615611db157600080fd5b60008282905011611dc157600080fd5b6101325461013354611dd39190614925565b421015611ddf57600080fd5b6101315482829050611def610c89565b611df99190614925565b1115611e0457600080fd5b6000610130541115611e37576101305482829050611e2133611445565b611e2b9190614925565b1115611e3657600080fd5b5b611e3f61158c565b73ffffffffffffffffffffffffffffffffffffffff163373ffffffffffffffffffffffffffffffffffffffff1614611e8f5761012f5482829050611e839190614e88565b3414611e8e57600080fd5b5b61013560009054906101000a900473ffffffffffffffffffffffffffffffffffffffff1673ffffffffffffffffffffffffffffffffffffffff1663a84f8f763484846040518463ffffffff1660e01b8152600401611eee929190614f43565b6000604051808303818588803b158015611f0757600080fd5b505af1158015611f1b573d6000803e3d6000fd5b505050505060005b8282905081101561204f576000838383818110611f4357611f426147d2565b5b905060200201359050600081118015611f5f575061012d548111155b611f6857600080fd5b60006101376000838152602001908152602001600020905061012e600183611f90919061457c565b81548110611fa157611fa06147d2565b5b90600052602060002001546001611fb783612b89565b611fc19190614925565b1115611fcc57600080fd5b611fd581612b97565b611fe0610136612b97565b6000611fed610136612b89565b9050611ff93382612bad565b604051806040016040528084815260200161201384612b89565b81525061013860008381526020019081526020016000209060026120389291906135a4565b50505050808061204790614cd5565b915050611f23565b50600160fb819055505050565b600080823b905060008111915050919050565b60007f80ac58cd000000000000000000000000000000000000000000000000000000007bffffffffffffffffffffffffffffffffffffffffffffffffffffffff1916827bffffffffffffffffffffffffffffffffffffffffffffffffffffffff1916148061213a57507f5b5e139f000000000000000000000000000000000000000000000000000000007bffffffffffffffffffffffffffffffffffffffffffffffffffffffff1916827bffffffffffffffffffffffffffffffffffffffffffffffffffffffff1916145b8061214a575061214982612d7b565b5b9050919050565b60008073ffffffffffffffffffffffffffffffffffffffff166067600084815260200190815260200160002060009054906101000a900473ffffffffffffffffffffffffffffffffffffffff1673ffffffffffffffffffffffffffffffffffffffff1614159050919050565b600033905090565b816069600083815260200190815260200160002060006101000a81548173ffffffffffffffffffffffffffffffffffffffff021916908373ffffffffffffffffffffffffffffffffffffffff160217905550808273ffffffffffffffffffffffffffffffffffffffff16612238836112fd565b73ffffffffffffffffffffffffffffffffffffffff167f8c5be1e5ebec7d5bd14f71427d1e84f3dd0314c0f7b2291e5b200ac8c7c3b92560405160405180910390a45050565b60006122893061205c565b15905090565b600060019054906101000a900460ff166122de576040517f08c379a00000000000000000000000000000000000000000000000000000000081526004016122d590614fd9565b60405180910390fd5b6122e6612de5565b6122ee612e36565b6122f88282612e87565b5050565b600060c960009054906101000a900473ffffffffffffffffffffffffffffffffffffffff1690508160c960006101000a81548173ffffffffffffffffffffffffffffffffffffffff021916908373ffffffffffffffffffffffffffffffffffffffff1602179055508173ffffffffffffffffffffffffffffffffffffffff168173ffffffffffffffffffffffffffffffffffffffff167f8be0079c531659141344cd1fd0a4f28419497f9722a3daafe3b4186f6b6457e060405160405180910390a35050565b60006123cd82612151565b61240c576040517f08c379a00000000000000000000000000000000000000000000000000000000081526004016124039061506b565b60405180910390fd5b6000612417836112fd565b90508073ffffffffffffffffffffffffffffffffffffffff168473ffffffffffffffffffffffffffffffffffffffff16148061248657508373ffffffffffffffffffffffffffffffffffffffff1661246e84610aec565b73ffffffffffffffffffffffffffffffffffffffff16145b8061249757506124968185611b15565b5b91505092915050565b8273ffffffffffffffffffffffffffffffffffffffff166124c0826112fd565b73ffffffffffffffffffffffffffffffffffffffff1614612516576040517f08c379a000000000000000000000000000000000000000000000000000000000815260040161250d906150fd565b60405180910390fd5b600073ffffffffffffffffffffffffffffffffffffffff168273ffffffffffffffffffffffffffffffffffffffff161415612586576040517f08c379a000000000000000000000000000000000000000000000000000000000815260040161257d9061518f565b60405180910390fd5b612591838383612f08565b61259c6000826121c5565b6001606860008573ffffffffffffffffffffffffffffffffffffffff1673ffffffffffffffffffffffffffffffffffffffff16815260200190815260200160002060008282546125ec919061457c565b925050819055506001606860008473ffffffffffffffffffffffffffffffffffffffff1673ffffffffffffffffffffffffffffffffffffffff16815260200190815260200160002060008282546126439190614925565b92505081905550816067600083815260200190815260200160002060006101000a81548173ffffffffffffffffffffffffffffffffffffffff021916908373ffffffffffffffffffffffffffffffffffffffff160217905550808273ffffffffffffffffffffffffffffffffffffffff168473ffffffffffffffffffffffffffffffffffffffff167fddf252ad1be2c89b69c2b068fc378daa952ba7f163c4a11628f55a4df523b3ef60405160405180910390a4505050565b8173ffffffffffffffffffffffffffffffffffffffff168373ffffffffffffffffffffffffffffffffffffffff16141561276b576040517f08c379a0000000000000000000000000000000000000000000000000000000008152600401612762906151fb565b60405180910390fd5b80606a60008573ffffffffffffffffffffffffffffffffffffffff1673ffffffffffffffffffffffffffffffffffffffff16815260200190815260200160002060008473ffffffffffffffffffffffffffffffffffffffff1673ffffffffffffffffffffffffffffffffffffffff16815260200190815260200160002060006101000a81548160ff0219169083151502179055508173ffffffffffffffffffffffffffffffffffffffff168373ffffffffffffffffffffffffffffffffffffffff167f17307eab39ab6107e8899845ad3d59bd9653f200f220920489ca2b5937696c318360405161285c919061373b565b60405180910390a3505050565b6128748484846124a0565b6128808484848461301c565b6128bf576040517f08c379a00000000000000000000000000000000000000000000000000000000081526004016128b69061528d565b60405180910390fd5b50505050565b60606000610139600084815260200190815260200160002080546128e8906141fe565b905014156129835761013480546128fe906141fe565b80601f016020809104026020016040519081016040528092919081815260200182805461292a906141fe565b80156129775780601f1061294c57610100808354040283529160200191612977565b820191906000526020600020905b81548152906001019060200180831161295a57829003601f168201915b50505050509050612a23565b610139600083815260200190815260200160002080546129a2906141fe565b80601f01602080910402602001604051908101604052809291908181526020018280546129ce906141fe565b8015612a1b5780601f106129f057610100808354040283529160200191612a1b565b820191906000526020600020905b8154815290600101906020018083116129fe57829003601f168201915b505050505090505b919050565b60606000821415612a70576040518060400160405280600181526020017f30000000000000000000000000000000000000000000000000000000000000008152509050612b84565b600082905060005b60008214612aa2578080612a8b90614cd5565b915050600a82612a9b91906152dc565b9150612a78565b60008167ffffffffffffffff811115612abe57612abd613d38565b5b6040519080825280601f01601f191660200182016040528015612af05781602001600182028036833780820191505090505b5090505b60008514612b7d57600182612b09919061457c565b9150600a85612b18919061530d565b6030612b249190614925565b60f81b818381518110612b3a57612b396147d2565b5b60200101907effffffffffffffffffffffffffffffffffffffffffffffffffffffffffffff1916908160001a905350600a85612b7691906152dc565b9450612af4565b8093505050505b919050565b600081600001549050919050565b6001816000016000828254019250508190555050565b600073ffffffffffffffffffffffffffffffffffffffff168273ffffffffffffffffffffffffffffffffffffffff161415612c1d576040517f08c379a0000000000000000000000000000000000000000000000000000000008152600401612c149061538a565b60405180910390fd5b612c2681612151565b15612c66576040517f08c379a0000000000000000000000000000000000000000000000000000000008152600401612c5d906153f6565b60405180910390fd5b612c7260008383612f08565b6001606860008473ffffffffffffffffffffffffffffffffffffffff1673ffffffffffffffffffffffffffffffffffffffff1681526020019081526020016000206000828254612cc29190614925565b92505081905550816067600083815260200190815260200160002060006101000a81548173ffffffffffffffffffffffffffffffffffffffff021916908373ffffffffffffffffffffffffffffffffffffffff160217905550808273ffffffffffffffffffffffffffffffffffffffff16600073ffffffffffffffffffffffffffffffffffffffff167fddf252ad1be2c89b69c2b068fc378daa952ba7f163c4a11628f55a4df523b3ef60405160405180910390a45050565b60007f01ffc9a7000000000000000000000000000000000000000000000000000000007bffffffffffffffffffffffffffffffffffffffffffffffffffffffff1916827bffffffffffffffffffffffffffffffffffffffffffffffffffffffff1916149050919050565b600060019054906101000a900460ff16612e34576040517f08c379a0000000000000000000000000000000000000000000000000000000008152600401612e2b90614fd9565b60405180910390fd5b565b600060019054906101000a900460ff16612e85576040517f08c379a0000000000000000000000000000000000000000000000000000000008152600401612e7c90614fd9565b60405180910390fd5b565b600060019054906101000a900460ff16612ed6576040517f08c379a0000000000000000000000000000000000000000000000000000000008152600401612ecd90614fd9565b60405180910390fd5b8160659080519060200190612eec9291906135e4565b508060669080519060200190612f039291906135e4565b505050565b612f138383836131a4565b600073ffffffffffffffffffffffffffffffffffffffff168373ffffffffffffffffffffffffffffffffffffffff161415612f5657612f51816131a9565b612f95565b8173ffffffffffffffffffffffffffffffffffffffff168373ffffffffffffffffffffffffffffffffffffffff1614612f9457612f9383826131f2565b5b5b600073ffffffffffffffffffffffffffffffffffffffff168273ffffffffffffffffffffffffffffffffffffffff161415612fd857612fd38161335f565b613017565b8273ffffffffffffffffffffffffffffffffffffffff168273ffffffffffffffffffffffffffffffffffffffff1614613016576130158282613430565b5b5b505050565b600061303d8473ffffffffffffffffffffffffffffffffffffffff1661205c565b15613197578373ffffffffffffffffffffffffffffffffffffffff1663150b7a026130666121bd565b8786866040518563ffffffff1660e01b8152600401613088949392919061546b565b6020604051808303816000875af19250505080156130c457506040513d601f19601f820116820180604052508101906130c191906154cc565b60015b613147573d80600081146130f4576040519150601f19603f3d011682016040523d82523d6000602084013e6130f9565b606091505b5060008151141561313f576040517f08c379a00000000000000000000000000000000000000000000000000000000081526004016131369061528d565b60405180910390fd5b805181602001fd5b63150b7a0260e01b7bffffffffffffffffffffffffffffffffffffffffffffffffffffffff1916817bffffffffffffffffffffffffffffffffffffffffffffffffffffffff19161491505061319c565b600190505b949350505050565b505050565b609980549050609a600083815260200190815260200160002081905550609981908060018154018082558091505060019003906000526020600020016000909190919091505550565b600060016131ff84611445565b613209919061457c565b90506000609860008481526020019081526020016000205490508181146132ee576000609760008673ffffffffffffffffffffffffffffffffffffffff1673ffffffffffffffffffffffffffffffffffffffff168152602001908152602001600020600084815260200190815260200160002054905080609760008773ffffffffffffffffffffffffffffffffffffffff1673ffffffffffffffffffffffffffffffffffffffff168152602001908152602001600020600084815260200190815260200160002081905550816098600083815260200190815260200160002081905550505b6098600084815260200190815260200160002060009055609760008573ffffffffffffffffffffffffffffffffffffffff1673ffffffffffffffffffffffffffffffffffffffff16815260200190815260200160002060008381526020019081526020016000206000905550505050565b60006001609980549050613373919061457c565b90506000609a60008481526020019081526020016000205490506000609983815481106133a3576133a26147d2565b5b9060005260206000200154905080609983815481106133c5576133c46147d2565b5b906000526020600020018190555081609a600083815260200190815260200160002081905550609a6000858152602001908152602001600020600090556099805480613414576134136154f9565b5b6001900381819060005260206000200160009055905550505050565b600061343b83611445565b905081609760008573ffffffffffffffffffffffffffffffffffffffff1673ffffffffffffffffffffffffffffffffffffffff168152602001908152602001600020600083815260200190815260200160002081905550806098600084815260200190815260200160002081905550505050565b8280548282559060005260206000209081019282156134eb579160200282015b828111156134ea5782358255916020019190600101906134cf565b5b5090506134f8919061366a565b5090565b828054613508906141fe565b90600052602060002090601f01602090048101928261352a5760008555613571565b82601f1061354357803560ff1916838001178555613571565b82800160010185558215613571579182015b82811115613570578235825591602001919060010190613555565b5b50905061357e919061366a565b5090565b6040518060400160405280600290602082028036833780820191505090505090565b82600281019282156135d3579160200282015b828111156135d25782518255916020019190600101906135b7565b5b5090506135e0919061366a565b5090565b8280546135f0906141fe565b90600052602060002090601f0160209004810192826136125760008555613659565b82601f1061362b57805160ff1916838001178555613659565b82800160010185558215613659579182015b8281111561365857825182559160200191906001019061363d565b5b509050613666919061366a565b5090565b5b8082111561368357600081600090555060010161366b565b5090565b6000604051905090565b600080fd5b600080fd5b60007fffffffff0000000000000000000000000000000000000000000000000000000082169050919050565b6136d08161369b565b81146136db57600080fd5b50565b6000813590506136ed816136c7565b92915050565b60006020828403121561370957613708613691565b5b6000613717848285016136de565b91505092915050565b60008115159050919050565b61373581613720565b82525050565b6000602082019050613750600083018461372c565b92915050565b600081519050919050565b600082825260208201905092915050565b60005b83811015613790578082015181840152602081019050613775565b8381111561379f576000848401525b50505050565b6000601f19601f8301169050919050565b60006137c182613756565b6137cb8185613761565b93506137db818560208601613772565b6137e4816137a5565b840191505092915050565b6000602082019050818103600083015261380981846137b6565b905092915050565b6000819050919050565b61382481613811565b811461382f57600080fd5b50565b6000813590506138418161381b565b92915050565b60006020828403121561385d5761385c613691565b5b600061386b84828501613832565b91505092915050565b600073ffffffffffffffffffffffffffffffffffffffff82169050919050565b600061389f82613874565b9050919050565b6138af81613894565b82525050565b60006020820190506138ca60008301846138a6565b92915050565b6138d981613894565b81146138e457600080fd5b50565b6000813590506138f6816138d0565b92915050565b6000806040838503121561391357613912613691565b5b6000613921858286016138e7565b925050602061393285828601613832565b9150509250929050565b61394581613811565b82525050565b6000602082019050613960600083018461393c565b92915050565b600080fd5b6000610120828403121561398257613981613966565b5b81905092915050565b600080600080608085870312156139a5576139a4613691565b5b60006139b3878288016138e7565b94505060206139c4878288016138e7565b935050604085013567ffffffffffffffff8111156139e5576139e4613696565b5b6139f18782880161396b565b9250506060613a0287828801613832565b91505092959194509250565b600080600060608486031215613a2757613a26613691565b5b6000613a35868287016138e7565b9350506020613a46868287016138e7565b9250506040613a5786828701613832565b9150509250925092565b613a6a81613720565b8114613a7557600080fd5b50565b600081359050613a8781613a61565b92915050565b600060208284031215613aa357613aa2613691565b5b6000613ab184828501613a78565b91505092915050565b600081519050919050565b600082825260208201905092915050565b6000819050602082019050919050565b613aef81613811565b82525050565b6000613b018383613ae6565b60208301905092915050565b6000602082019050919050565b6000613b2582613aba565b613b2f8185613ac5565b9350613b3a83613ad6565b8060005b83811015613b6b578151613b528882613af5565b9750613b5d83613b0d565b925050600181019050613b3e565b5085935050505092915050565b60006020820190508181036000830152613b928184613b1a565b905092915050565b600080fd5b600080fd5b600080fd5b60008083601f840112613bbf57613bbe613b9a565b5b8235905067ffffffffffffffff811115613bdc57613bdb613b9f565b5b602083019150836001820283011115613bf857613bf7613ba4565b5b9250929050565b60008060208385031215613c1657613c15613691565b5b600083013567ffffffffffffffff811115613c3457613c33613696565b5b613c4085828601613ba9565b92509250509250929050565b600060208284031215613c6257613c61613691565b5b6000613c70848285016138e7565b91505092915050565b6000819050919050565b6000613c9e613c99613c9484613874565b613c79565b613874565b9050919050565b6000613cb082613c83565b9050919050565b6000613cc282613ca5565b9050919050565b613cd281613cb7565b82525050565b6000602082019050613ced6000830184613cc9565b92915050565b60008060408385031215613d0a57613d09613691565b5b6000613d18858286016138e7565b9250506020613d2985828601613a78565b9150509250929050565b600080fd5b7f4e487b7100000000000000000000000000000000000000000000000000000000600052604160045260246000fd5b613d70826137a5565b810181811067ffffffffffffffff82111715613d8f57613d8e613d38565b5b80604052505050565b6000613da2613687565b9050613dae8282613d67565b919050565b600067ffffffffffffffff821115613dce57613dcd613d38565b5b613dd7826137a5565b9050602081019050919050565b82818337600083830152505050565b6000613e06613e0184613db3565b613d98565b905082815260208101848484011115613e2257613e21613d33565b5b613e2d848285613de4565b509392505050565b600082601f830112613e4a57613e49613b9a565b5b8135613e5a848260208601613df3565b91505092915050565b60008060008060808587031215613e7d57613e7c613691565b5b6000613e8b878288016138e7565b9450506020613e9c878288016138e7565b9350506040613ead87828801613832565b925050606085013567ffffffffffffffff811115613ece57613ecd613696565b5b613eda87828801613e35565b91505092959194509250565b600081519050919050565b600082825260208201905092915050565b6000819050602082019050919050565b6000613f1d82613874565b9050919050565b613f2d81613f12565b82525050565b6000613f3f8383613f24565b60208301905092915050565b6000602082019050919050565b6000613f6382613ee6565b613f6d8185613ef1565b9350613f7883613f02565b8060005b83811015613fa9578151613f908882613f33565b9750613f9b83613f4b565b925050600181019050613f7c565b5085935050505092915050565b60006040820190508181036000830152613fd08185613f58565b90508181036020830152613fe48184613b1a565b90509392505050565b60008083601f84011261400357614002613b9a565b5b8235905067ffffffffffffffff8111156140205761401f613b9f565b5b60208301915083602082028301111561403c5761403b613ba4565b5b9250929050565b6000806020838503121561405a57614059613691565b5b600083013567ffffffffffffffff81111561407857614077613696565b5b61408485828601613fed565b92509250509250929050565b6000806000604084860312156140a9576140a8613691565b5b600084013567ffffffffffffffff8111156140c7576140c6613696565b5b6140d386828701613ba9565b935093505060206140e686828701613832565b9150509250925092565b6000806040838503121561410757614106613691565b5b6000614115858286016138e7565b9250506020614126858286016138e7565b9150509250929050565b600060029050919050565b600081905092915050565b6000819050919050565b6000602082019050919050565b61416681614130565b614170818461413b565b925061417b82614146565b8060005b838110156141ac5781516141938782613af5565b965061419e83614150565b92505060018101905061417f565b505050505050565b60006040820190506141c9600083018461415d565b92915050565b7f4e487b7100000000000000000000000000000000000000000000000000000000600052602260045260246000fd5b6000600282049050600182168061421657607f821691505b6020821081141561422a576142296141cf565b5b50919050565b7f4552433732313a20617070726f76656420717565727920666f72206e6f6e657860008201527f697374656e7420746f6b656e0000000000000000000000000000000000000000602082015250565b600061428c602c83613761565b915061429782614230565b604082019050919050565b600060208201905081810360008301526142bb8161427f565b9050919050565b7f4552433732313a20617070726f76616c20746f2063757272656e74206f776e6560008201527f7200000000000000000000000000000000000000000000000000000000000000602082015250565b600061431e602183613761565b9150614329826142c2565b604082019050919050565b6000602082019050818103600083015261434d81614311565b9050919050565b7f4552433732313a20617070726f76652063616c6c6572206973206e6f74206f7760008201527f6e6572206e6f7220617070726f76656420666f7220616c6c0000000000000000602082015250565b60006143b0603883613761565b91506143bb82614354565b604082019050919050565b600060208201905081810360008301526143df816143a3565b9050919050565b7f496e697469616c697a61626c653a20636f6e747261637420697320616c72656160008201527f647920696e697469616c697a6564000000000000000000000000000000000000602082015250565b6000614442602e83613761565b915061444d826143e6565b604082019050919050565b6000602082019050818103600083015261447181614435565b9050919050565b600080fd5b600080fd5b600080fd5b600080833560016020038436030381126144a4576144a3614478565b5b80840192508235915067ffffffffffffffff8211156144c6576144c561447d565b5b6020830192506020820236038313156144e2576144e1614482565b5b509250929050565b6000808335600160200384360303811261450757614506614478565b5b80840192508235915067ffffffffffffffff8211156145295761452861447d565b5b60208301925060018202360383131561454557614544614482565b5b509250929050565b7f4e487b7100000000000000000000000000000000000000000000000000000000600052601160045260246000fd5b600061458782613811565b915061459283613811565b9250828210156145a5576145a461454d565b5b828203905092915050565b7f4552433732313a207472616e736665722063616c6c6572206973206e6f74206f60008201527f776e6572206e6f7220617070726f766564000000000000000000000000000000602082015250565b600061460c603183613761565b9150614617826145b0565b604082019050919050565b6000602082019050818103600083015261463b816145ff565b9050919050565b7f4f776e61626c653a2063616c6c6572206973206e6f7420746865206f776e6572600082015250565b6000614678602083613761565b915061468382614642565b602082019050919050565b600060208201905081810360008301526146a78161466b565b9050919050565b7f455243373231456e756d657261626c653a206f776e657220696e646578206f7560008201527f74206f6620626f756e6473000000000000000000000000000000000000000000602082015250565b600061470a602b83613761565b9150614715826146ae565b604082019050919050565b60006020820190508181036000830152614739816146fd565b9050919050565b7f455243373231456e756d657261626c653a20676c6f62616c20696e646578206f60008201527f7574206f6620626f756e64730000000000000000000000000000000000000000602082015250565b600061479c602c83613761565b91506147a782614740565b604082019050919050565b600060208201905081810360008301526147cb8161478f565b9050919050565b7f4e487b7100000000000000000000000000000000000000000000000000000000600052603260045260246000fd5b7f4552433732313a206f776e657220717565727920666f72206e6f6e657869737460008201527f656e7420746f6b656e0000000000000000000000000000000000000000000000602082015250565b600061485d602983613761565b915061486882614801565b604082019050919050565b6000602082019050818103600083015261488c81614850565b9050919050565b7f4552433732313a2062616c616e636520717565727920666f7220746865207a6560008201527f726f206164647265737300000000000000000000000000000000000000000000602082015250565b60006148ef602a83613761565b91506148fa82614893565b604082019050919050565b6000602082019050818103600083015261491e816148e2565b9050919050565b600061493082613811565b915061493b83613811565b9250827fffffffffffffffffffffffffffffffffffffffffffffffffffffffffffffffff038211156149705761496f61454d565b5b828201905092915050565b600067ffffffffffffffff82111561499657614995613d38565b5b602082029050602081019050919050565b6149b081613f12565b81146149bb57600080fd5b50565b6000815190506149cd816149a7565b92915050565b60006149e66149e18461497b565b613d98565b90508083825260208201905060208402830185811115614a0957614a08613ba4565b5b835b81811015614a325780614a1e88826149be565b845260208401935050602081019050614a0b565b5050509392505050565b600082601f830112614a5157614a50613b9a565b5b8151614a618482602086016149d3565b91505092915050565b600067ffffffffffffffff821115614a8557614a84613d38565b5b602082029050602081019050919050565b600081519050614aa58161381b565b92915050565b6000614abe614ab984614a6a565b613d98565b90508083825260208201905060208402830185811115614ae157614ae0613ba4565b5b835b81811015614b0a5780614af68882614a96565b845260208401935050602081019050614ae3565b5050509392505050565b600082601f830112614b2957614b28613b9a565b5b8151614b39848260208601614aab565b91505092915050565b60008060408385031215614b5957614b58613691565b5b600083015167ffffffffffffffff811115614b7757614b76613696565b5b614b8385828601614a3c565b925050602083015167ffffffffffffffff811115614ba457614ba3613696565b5b614bb085828601614b14565b9150509250929050565b600081905092915050565b6000614bd082613756565b614bda8185614bba565b9350614bea818560208601613772565b80840191505092915050565b7f2d00000000000000000000000000000000000000000000000000000000000000600082015250565b6000614c2c600183614bba565b9150614c3782614bf6565b600182019050919050565b7f2e6a736f6e000000000000000000000000000000000000000000000000000000600082015250565b6000614c78600583614bba565b9150614c8382614c42565b600582019050919050565b6000614c9a8286614bc5565b9150614ca68285614bc5565b9150614cb182614c1f565b9150614cbd8284614bc5565b9150614cc882614c6b565b9150819050949350505050565b6000614ce082613811565b91507fffffffffffffffffffffffffffffffffffffffffffffffffffffffffffffffff821415614d1357614d1261454d565b5b600182019050919050565b7f4f776e61626c653a206e6577206f776e657220697320746865207a65726f206160008201527f6464726573730000000000000000000000000000000000000000000000000000602082015250565b6000614d7a602683613761565b9150614d8582614d1e565b604082019050919050565b60006020820190508181036000830152614da981614d6d565b9050919050565b7f746f6b656e20646f6573206e6f74206578697374000000000000000000000000600082015250565b6000614de6601483613761565b9150614df182614db0565b602082019050919050565b60006020820190508181036000830152614e1581614dd9565b9050919050565b7f5265656e7472616e637947756172643a207265656e7472616e742063616c6c00600082015250565b6000614e52601f83613761565b9150614e5d82614e1c565b602082019050919050565b60006020820190508181036000830152614e8181614e45565b9050919050565b6000614e9382613811565b9150614e9e83613811565b9250817fffffffffffffffffffffffffffffffffffffffffffffffffffffffffffffffff0483118215151615614ed757614ed661454d565b5b828202905092915050565b600080fd5b6000614ef38385613ac5565b93507f07ffffffffffffffffffffffffffffffffffffffffffffffffffffffffffffff831115614f2657614f25614ee2565b5b602083029250614f37838584613de4565b82840190509392505050565b60006020820190508181036000830152614f5e818486614ee7565b90509392505050565b7f496e697469616c697a61626c653a20636f6e7472616374206973206e6f74206960008201527f6e697469616c697a696e67000000000000000000000000000000000000000000602082015250565b6000614fc3602b83613761565b9150614fce82614f67565b604082019050919050565b60006020820190508181036000830152614ff281614fb6565b9050919050565b7f4552433732313a206f70657261746f7220717565727920666f72206e6f6e657860008201527f697374656e7420746f6b656e0000000000000000000000000000000000000000602082015250565b6000615055602c83613761565b915061506082614ff9565b604082019050919050565b6000602082019050818103600083015261508481615048565b9050919050565b7f4552433732313a207472616e73666572206f6620746f6b656e2074686174206960008201527f73206e6f74206f776e0000000000000000000000000000000000000000000000602082015250565b60006150e7602983613761565b91506150f28261508b565b604082019050919050565b60006020820190508181036000830152615116816150da565b9050919050565b7f4552433732313a207472616e7366657220746f20746865207a65726f2061646460008201527f7265737300000000000000000000000000000000000000000000000000000000602082015250565b6000615179602483613761565b91506151848261511d565b604082019050919050565b600060208201905081810360008301526151a88161516c565b9050919050565b7f4552433732313a20617070726f766520746f2063616c6c657200000000000000600082015250565b60006151e5601983613761565b91506151f0826151af565b602082019050919050565b60006020820190508181036000830152615214816151d8565b9050919050565b7f4552433732313a207472616e7366657220746f206e6f6e20455243373231526560008201527f63656976657220696d706c656d656e7465720000000000000000000000000000602082015250565b6000615277603283613761565b91506152828261521b565b604082019050919050565b600060208201905081810360008301526152a68161526a565b9050919050565b7f4e487b7100000000000000000000000000000000000000000000000000000000600052601260045260246000fd5b60006152e782613811565b91506152f283613811565b925082615302576153016152ad565b5b828204905092915050565b600061531882613811565b915061532383613811565b925082615333576153326152ad565b5b828206905092915050565b7f4552433732313a206d696e7420746f20746865207a65726f2061646472657373600082015250565b6000615374602083613761565b915061537f8261533e565b602082019050919050565b600060208201905081810360008301526153a381615367565b9050919050565b7f4552433732313a20746f6b656e20616c7265616479206d696e74656400000000600082015250565b60006153e0601c83613761565b91506153eb826153aa565b602082019050919050565b6000602082019050818103600083015261540f816153d3565b9050919050565b600081519050919050565b600082825260208201905092915050565b600061543d82615416565b6154478185615421565b9350615457818560208601613772565b615460816137a5565b840191505092915050565b600060808201905061548060008301876138a6565b61548d60208301866138a6565b61549a604083018561393c565b81810360608301526154ac8184615432565b905095945050505050565b6000815190506154c6816136c7565b92915050565b6000602082840312156154e2576154e1613691565b5b60006154f0848285016154b7565b91505092915050565b7f4e487b7100000000000000000000000000000000000000000000000000000000600052603160045260246000fdfea26469706673582212208296051eefe89f9c23316f274c1a189474241b37aacf119491375b2efa7bf44f64736f6c634300080c0033",
  "immutableReferences": {},
  "source": "// contracts/MintSplitERC721.sol\n// SPDX-License-Identifier: MIT\npragma solidity ^0.8.0;\n\nimport \"@openzeppelin/contracts-upgradeable/token/ERC721/extensions/ERC721EnumerableUpgradeable.sol\";\nimport \"@openzeppelin/contracts-upgradeable/security/ReentrancyGuardUpgradeable.sol\";\nimport \"@openzeppelin/contracts-upgradeable/access/OwnableUpgradeable.sol\";\nimport \"@manifoldxyz/royalty-registry-solidity/contracts/specs/IManifold.sol\";\nimport \"@openzeppelin/contracts/utils/Strings.sol\";\nimport \"@openzeppelin/contracts/utils/Counters.sol\";\nimport \"./RevenueSplitter.sol\";\n\n// TODO: Consider using ERC721 fork to optimize gas\ncontract MintSplitERC721 is IManifold, ERC721EnumerableUpgradeable, OwnableUpgradeable, ReentrancyGuardUpgradeable {\n    using Counters for Counters.Counter;\n    using Strings for uint;\n\n    uint public contentCount;\n    uint[] public supplyLimits;\n    uint public mintPrice;\n    uint public mintLimit;\n    uint public maxLimit;\n    uint public allowMintingAfter = 0;\n    uint public timeDeployed;\n    string public baseURI;\n    RevenueSplitter public revenueSplitter;\n    bool public isPaused = false;\n\n    Counters.Counter private tokenIds;\n    mapping (uint => Counters.Counter) public contentSupplies;\n    mapping (uint => uint[2]) private tokenSubjects; // [content id, edition #]\n    mapping (uint => string) public contentUriOverrides;\n\n    constructor() initializer {}\n\n    function initialize(\n        address _owner,\n        address _revenueSplitter,\n        MintSplitSharedLibV1.ProjectParams calldata _params,\n        uint _maxLimit\n    ) initializer public {\n        require(_params.supplyLimits.length == _params.contentCount);\n\n        __ERC721_init(_params.projectName, _params.symbol);\n        _transferOwnership(_owner);\n        revenueSplitter = RevenueSplitter(_revenueSplitter);\n\n        contentCount = _params.contentCount;\n        supplyLimits = _params.supplyLimits;\n        mintPrice = _params.mintPrice;\n        mintLimit = _params.mintLimit;\n        baseURI = _params.baseURI;\n        maxLimit = _maxLimit;\n\n        if (_params.releaseTime > block.timestamp) {\n            allowMintingAfter = _params.releaseTime - block.timestamp;\n        }\n\n        timeDeployed = block.timestamp;\n    }\n\n    // Internal\n    function _baseURI(uint contentId) internal view virtual returns (string memory) {\n        if (bytes(contentUriOverrides[contentId]).length == 0) return baseURI;\n\n        return contentUriOverrides[contentId];\n    }\n\n    // External\n    function mint(uint[] calldata contentIds) external payable nonReentrant {\n        require(!isPaused);\n        require(contentIds.length > 0);\n        require(block.timestamp >= timeDeployed + allowMintingAfter);\n        require(totalSupply() + contentIds.length <= maxLimit);\n        \n        if (mintLimit > 0) {\n            require((balanceOf(msg.sender) + contentIds.length) <= mintLimit);\n        }\n\n        if (msg.sender != owner()) {\n            require(msg.value == (contentIds.length * mintPrice));\n        }\n\n        revenueSplitter.receiveMint{value: msg.value}(contentIds);\n\n        for (uint i = 0; i < contentIds.length; i++) {\n            uint contentId = contentIds[i];\n            require(contentId > 0 && contentId <= contentCount);\n\n            Counters.Counter storage contentSupply = contentSupplies[contentId];\n\n            // The supply limit for content id 1 is found at supplyLimits[0]\n            require((contentSupply.current() + 1) <= supplyLimits[contentId - 1]);\n\n            contentSupply.increment();\n            tokenIds.increment();\n\n            uint newTokenId = tokenIds.current();\n            _mint(msg.sender, newTokenId);\n            tokenSubjects[newTokenId] = [contentId, contentSupply.current()];\n        }\n    }\n\n    function getRoyalties(uint256 tokenId) external view returns (address payable[] memory, uint256[] memory) {\n        uint[2] storage subject = tokenSubjects[tokenId];\n        return revenueSplitter.getContentRoyalties(subject[0]);\n    }\n\n    function getSecondsUntilMinting() external view returns (uint256) {\n        if (block.timestamp < timeDeployed + allowMintingAfter) {\n            return (timeDeployed + allowMintingAfter) - block.timestamp;\n        } else {\n            return 0;\n        }\n    }\n\n    function tokenURI(uint256 tokenId)\n        public\n        view\n        virtual\n        override\n        returns (string memory)\n    {\n        require(_exists(tokenId));\n\n        uint[2] memory subject = tokenSubject(tokenId);\n        string memory currentBaseURI = _baseURI(subject[0]);\n        return\n            bytes(currentBaseURI).length > 0\n                ? string(\n                    abi.encodePacked(\n                        currentBaseURI,\n                        subject[0].toString(), // content id\n                        '-',\n                        subject[1].toString(), // edition #\n                        \".json\"\n                    )\n                )\n                : \"\";\n    }\n\n    // Public\n    function tokenSubject(uint tokenId) public view returns (uint[2] memory) {\n        require(_exists(tokenId), \"token does not exist\");\n\n        return tokenSubjects[tokenId];\n    }\n\n    function getSupplyLimits() public view returns (uint[] memory) {\n        return supplyLimits;\n    }\n\n    // Only Owner\n    function setIsPaused(bool _state) public onlyOwner {\n        isPaused = _state;\n    }\n\n    function addContent(uint[] calldata newSupplyLimits) external onlyOwner {\n        require(newSupplyLimits.length > 0);\n        contentCount += newSupplyLimits.length;\n        for (uint i = 0; i < newSupplyLimits.length; i++) {\n            supplyLimits.push(newSupplyLimits[i]);\n        }\n    }\n\n    function setBaseURI(string calldata newBaseURI) public onlyOwner {\n        baseURI = newBaseURI;\n    }\n    \n    function setContentURI(string calldata newURI, uint contentId) public onlyOwner {\n        require(contentId > 0 && contentId <= contentCount);\n        contentUriOverrides[contentId] = newURI;\n    }\n}",
  "sourcePath": "/Users/justinfsl/Dev/misc/mintsplit/solidity/contracts/MintSplitERC721.sol",
  "compiler": {
    "name": "solc",
    "version": "0.8.12+commit.f00d7308.Emscripten.clang"
  },
  "schemaVersion": "3.4.4",
  "updatedAt": "2022-03-08T21:55:38.088Z",
  "networkType": "ethereum",
  "devdoc": {
    "kind": "dev",
    "methods": {
      "approve(address,uint256)": {
        "details": "See {IERC721-approve}."
      },
      "balanceOf(address)": {
        "details": "See {IERC721-balanceOf}."
      },
      "getApproved(uint256)": {
        "details": "See {IERC721-getApproved}."
      },
      "getRoyalties(uint256)": {
        "details": "Get royalites of a token.  Returns list of receivers and basisPoints  bytes4(keccak256('getRoyalties(uint256)')) == 0xbb3bafd6  => 0xbb3bafd6 = 0xbb3bafd6"
      },
      "isApprovedForAll(address,address)": {
        "details": "See {IERC721-isApprovedForAll}."
      },
      "name()": {
        "details": "See {IERC721Metadata-name}."
      },
      "owner()": {
        "details": "Returns the address of the current owner."
      },
      "ownerOf(uint256)": {
        "details": "See {IERC721-ownerOf}."
      },
      "renounceOwnership()": {
        "details": "Leaves the contract without owner. It will not be possible to call `onlyOwner` functions anymore. Can only be called by the current owner. NOTE: Renouncing ownership will leave the contract without an owner, thereby removing any functionality that is only available to the owner."
      },
      "safeTransferFrom(address,address,uint256)": {
        "details": "See {IERC721-safeTransferFrom}."
      },
      "safeTransferFrom(address,address,uint256,bytes)": {
        "details": "See {IERC721-safeTransferFrom}."
      },
      "setApprovalForAll(address,bool)": {
        "details": "See {IERC721-setApprovalForAll}."
      },
      "supportsInterface(bytes4)": {
        "details": "See {IERC165-supportsInterface}."
      },
      "symbol()": {
        "details": "See {IERC721Metadata-symbol}."
      },
      "tokenByIndex(uint256)": {
        "details": "See {IERC721Enumerable-tokenByIndex}."
      },
      "tokenOfOwnerByIndex(address,uint256)": {
        "details": "See {IERC721Enumerable-tokenOfOwnerByIndex}."
      },
      "tokenURI(uint256)": {
        "details": "See {IERC721Metadata-tokenURI}."
      },
      "totalSupply()": {
        "details": "See {IERC721Enumerable-totalSupply}."
      },
      "transferFrom(address,address,uint256)": {
        "details": "See {IERC721-transferFrom}."
      },
      "transferOwnership(address)": {
        "details": "Transfers ownership of the contract to a new account (`newOwner`). Can only be called by the current owner."
      }
    },
    "version": 1
  },
  "userdoc": {
    "kind": "user",
    "methods": {},
    "version": 1
  }
}