{
  "contractName": "RevenueSplitter",
  "abi": [
    {
      "inputs": [],
      "stateMutability": "nonpayable",
      "type": "constructor"
    },
    {
      "anonymous": false,
      "inputs": [
        {
          "indexed": true,
          "internalType": "address",
          "name": "previousOwner",
          "type": "address"
        },
        {
          "indexed": true,
          "internalType": "address",
          "name": "newOwner",
          "type": "address"
        }
      ],
      "name": "OwnershipTransferred",
      "type": "event"
    },
    {
      "anonymous": false,
      "inputs": [
        {
          "indexed": false,
          "internalType": "uint256[]",
          "name": "contentIds",
          "type": "uint256[]"
        },
        {
          "indexed": false,
          "internalType": "uint256",
          "name": "amount",
          "type": "uint256"
        }
      ],
      "name": "PaymentReceived",
      "type": "event"
    },
    {
      "anonymous": false,
      "inputs": [
        {
          "indexed": false,
          "internalType": "address",
          "name": "to",
          "type": "address"
        },
        {
          "indexed": false,
          "internalType": "uint256",
          "name": "amount",
          "type": "uint256"
        }
      ],
      "name": "PaymentReleased",
      "type": "event"
    },
    {
      "anonymous": false,
      "inputs": [
        {
          "indexed": false,
          "internalType": "uint256",
          "name": "contentId",
          "type": "uint256"
        },
        {
          "indexed": false,
          "internalType": "address",
          "name": "recipient",
          "type": "address"
        },
        {
          "indexed": false,
          "internalType": "uint256",
          "name": "bps",
          "type": "uint256"
        },
        {
          "indexed": false,
          "internalType": "bool",
          "name": "isMint",
          "type": "bool"
        }
      ],
      "name": "RoyaltyAdded",
      "type": "event"
    },
    {
      "anonymous": false,
      "inputs": [
        {
          "indexed": false,
          "internalType": "uint256",
          "name": "contentId",
          "type": "uint256"
        },
        {
          "indexed": false,
          "internalType": "address",
          "name": "recipient",
          "type": "address"
        },
        {
          "indexed": false,
          "internalType": "bool",
          "name": "isMint",
          "type": "bool"
        }
      ],
      "name": "RoyaltyRemoved",
      "type": "event"
    },
    {
      "anonymous": false,
      "inputs": [
        {
          "indexed": false,
          "internalType": "uint256",
          "name": "contentId",
          "type": "uint256"
        },
        {
          "indexed": false,
          "internalType": "address",
          "name": "recipient",
          "type": "address"
        },
        {
          "indexed": false,
          "internalType": "uint256",
          "name": "bps",
          "type": "uint256"
        },
        {
          "indexed": false,
          "internalType": "bool",
          "name": "isMint",
          "type": "bool"
        }
      ],
      "name": "RoyaltyUpdated",
      "type": "event"
    },
    {
      "inputs": [
        {
          "internalType": "address",
          "name": "",
          "type": "address"
        }
      ],
      "name": "balance",
      "outputs": [
        {
          "internalType": "uint256",
          "name": "",
          "type": "uint256"
        }
      ],
      "stateMutability": "view",
      "type": "function",
      "constant": true
    },
    {
      "inputs": [],
      "name": "owner",
      "outputs": [
        {
          "internalType": "address",
          "name": "",
          "type": "address"
        }
      ],
      "stateMutability": "view",
      "type": "function",
      "constant": true
    },
    {
      "inputs": [],
      "name": "renounceOwnership",
      "outputs": [],
      "stateMutability": "nonpayable",
      "type": "function"
    },
    {
      "inputs": [],
      "name": "totalBalance",
      "outputs": [
        {
          "internalType": "uint256",
          "name": "",
          "type": "uint256"
        }
      ],
      "stateMutability": "view",
      "type": "function",
      "constant": true
    },
    {
      "inputs": [
        {
          "internalType": "address",
          "name": "newOwner",
          "type": "address"
        }
      ],
      "name": "transferOwnership",
      "outputs": [],
      "stateMutability": "nonpayable",
      "type": "function"
    },
    {
      "inputs": [
        {
          "internalType": "address",
          "name": "_owner",
          "type": "address"
        },
        {
          "internalType": "address",
          "name": "_erc721",
          "type": "address"
        },
        {
          "components": [
            {
              "internalType": "uint256",
              "name": "contentId",
              "type": "uint256"
            },
            {
              "internalType": "bool",
              "name": "isMint",
              "type": "bool"
            },
            {
              "components": [
                {
                  "internalType": "address payable[]",
                  "name": "recipients",
                  "type": "address[]"
                },
                {
                  "internalType": "uint256[]",
                  "name": "bps",
                  "type": "uint256[]"
                }
              ],
              "internalType": "struct MintSplitSharedLibV1.PaymentSplit",
              "name": "split",
              "type": "tuple"
            }
          ],
          "internalType": "struct MintSplitSharedLibV1.PaymentSplitConfig[]",
          "name": "_splitConfigs",
          "type": "tuple[]"
        }
      ],
      "name": "initialize",
      "outputs": [],
      "stateMutability": "nonpayable",
      "type": "function"
    },
    {
      "inputs": [
        {
          "internalType": "uint256",
          "name": "contentId",
          "type": "uint256"
        }
      ],
      "name": "getContentRoyalties",
      "outputs": [
        {
          "internalType": "address payable[]",
          "name": "",
          "type": "address[]"
        },
        {
          "internalType": "uint256[]",
          "name": "",
          "type": "uint256[]"
        }
      ],
      "stateMutability": "view",
      "type": "function",
      "constant": true
    },
    {
      "inputs": [
        {
          "internalType": "uint256",
          "name": "contentId",
          "type": "uint256"
        }
      ],
      "name": "getContentMintSplits",
      "outputs": [
        {
          "internalType": "address payable[]",
          "name": "",
          "type": "address[]"
        },
        {
          "internalType": "uint256[]",
          "name": "",
          "type": "uint256[]"
        }
      ],
      "stateMutability": "view",
      "type": "function",
      "constant": true
    },
    {
      "inputs": [
        {
          "internalType": "uint256[]",
          "name": "contentIds",
          "type": "uint256[]"
        }
      ],
      "name": "receiveMint",
      "outputs": [],
      "stateMutability": "payable",
      "type": "function",
      "payable": true
    },
    {
      "inputs": [
        {
          "internalType": "address payable",
          "name": "account",
          "type": "address"
        }
      ],
      "name": "release",
      "outputs": [],
      "stateMutability": "nonpayable",
      "type": "function"
    },
    {
      "inputs": [
        {
          "components": [
            {
              "internalType": "uint256",
              "name": "contentId",
              "type": "uint256"
            },
            {
              "internalType": "bool",
              "name": "isMint",
              "type": "bool"
            },
            {
              "components": [
                {
                  "internalType": "address payable[]",
                  "name": "recipients",
                  "type": "address[]"
                },
                {
                  "internalType": "uint256[]",
                  "name": "bps",
                  "type": "uint256[]"
                }
              ],
              "internalType": "struct MintSplitSharedLibV1.PaymentSplit",
              "name": "split",
              "type": "tuple"
            }
          ],
          "internalType": "struct MintSplitSharedLibV1.PaymentSplitConfig[]",
          "name": "splitConfigs",
          "type": "tuple[]"
        }
      ],
      "name": "setRevenueSplits",
      "outputs": [],
      "stateMutability": "nonpayable",
      "type": "function"
    },
    {
      "inputs": [],
      "name": "withdraw",
      "outputs": [],
      "stateMutability": "payable",
      "type": "function",
      "payable": true
    }
  ],
  "bytecode": "0x60806040523480156200001157600080fd5b50600060019054906101000a900460ff166200003c5760008054906101000a900460ff16156200004d565b6200004c6200010960201b60201c565b5b6200008f576040517f08c379a00000000000000000000000000000000000000000000000000000000081526004016200008690620001c1565b60405180910390fd5b60008060019054906101000a900460ff161590508015620000e0576001600060016101000a81548160ff02191690831515021790555060016000806101000a81548160ff0219169083151502179055505b8015620001025760008060016101000a81548160ff0219169083151502179055505b50620001e3565b600062000121306200012760201b62000ef11760201c565b15905090565b600080823b905060008111915050919050565b600082825260208201905092915050565b7f496e697469616c697a61626c653a20636f6e747261637420697320616c72656160008201527f647920696e697469616c697a6564000000000000000000000000000000000000602082015250565b6000620001a9602e836200013a565b9150620001b6826200014b565b604082019050919050565b60006020820190508181036000830152620001dc816200019a565b9050919050565b61254380620001f36000396000f3fe6080604052600436106100a75760003560e01c8063a84f8f7611610064578063a84f8f7614610173578063ad7a672f1461018f578063be2ae5a1146101ba578063e3d670d7146101f8578063f2fde38b14610235578063fb3bc76e1461025e576100a7565b806319165587146100ac5780633ccfd60b146100d5578063715018a6146100df57806371911348146100f657806387a7dd281461011f5780638da5cb5b14610148575b600080fd5b3480156100b857600080fd5b506100d360048036038101906100ce91906112f3565b61029c565b005b6100dd6103db565b005b3480156100eb57600080fd5b506100f46104dd565b005b34801561010257600080fd5b5061011d600480360381019061011891906113c3565b610565565b005b34801561012b57600080fd5b5061014660048036038101906101419190611437565b6107d8565b005b34801561015457600080fd5b5061015d61097c565b60405161016a9190611493565b60405180910390f35b61018d60048036038101906101889190611504565b6109a6565b005b34801561019b57600080fd5b506101a4610bcf565b6040516101b1919061156a565b60405180910390f35b3480156101c657600080fd5b506101e160048036038101906101dc91906115b1565b610bd5565b6040516101ef92919061175a565b60405180910390f35b34801561020457600080fd5b5061021f600480360381019061021a9190611791565b610cdb565b60405161022c919061156a565b60405180910390f35b34801561024157600080fd5b5061025c60048036038101906102579190611791565b610cf3565b005b34801561026a57600080fd5b50610285600480360381019061028091906115b1565b610deb565b60405161029392919061175a565b60405180910390f35b600260655414156102e2576040517f08c379a00000000000000000000000000000000000000000000000000000000081526004016102d99061181b565b60405180910390fd5b60026065819055506000609b60008373ffffffffffffffffffffffffffffffffffffffff1673ffffffffffffffffffffffffffffffffffffffff1681526020019081526020016000205490506000609b60008473ffffffffffffffffffffffffffffffffffffffff1673ffffffffffffffffffffffffffffffffffffffff1681526020019081526020016000208190555080609a6000828254610385919061186a565b925050819055506103968282610f04565b7fdf20fd1e76bc69d672e4814fafb2c449bba3a5369d8359adf9e05e6fde87b05682826040516103c79291906118fd565b60405180910390a150600160658190555050565b6103e3610ff8565b73ffffffffffffffffffffffffffffffffffffffff1661040161097c565b73ffffffffffffffffffffffffffffffffffffffff1614610457576040517f08c379a000000000000000000000000000000000000000000000000000000000815260040161044e90611972565b60405180910390fd5b60003373ffffffffffffffffffffffffffffffffffffffff16609a544761047e919061186a565b60405161048a906119c3565b60006040518083038185875af1925050503d80600081146104c7576040519150601f19603f3d011682016040523d82523d6000602084013e6104cc565b606091505b50509050806104da57600080fd5b50565b6104e5610ff8565b73ffffffffffffffffffffffffffffffffffffffff1661050361097c565b73ffffffffffffffffffffffffffffffffffffffff1614610559576040517f08c379a000000000000000000000000000000000000000000000000000000000815260040161055090611972565b60405180910390fd5b6105636000611000565b565b600060019054906101000a900460ff1661058d5760008054906101000a900460ff1615610596565b6105956110c6565b5b6105d5576040517f08c379a00000000000000000000000000000000000000000000000000000000081526004016105cc90611a4a565b60405180910390fd5b60008060019054906101000a900460ff161590508015610625576001600060016101000a81548160ff02191690831515021790555060016000806101000a81548160ff0219169083151502179055505b6000838390501161063557600080fd5b61063d6110d7565b610645611128565b61064e85611000565b83609760006101000a81548173ffffffffffffffffffffffffffffffffffffffff021916908373ffffffffffffffffffffffffffffffffffffffff16021790555060005b838390508110156107af57368484838181106106b1576106b0611a6a565b5b90506020028101906106c39190611aa8565b90508080604001906106d59190611ad0565b80602001906106e49190611af8565b90508180604001906106f69190611ad0565b80600001906107059190611b5b565b90501461071157600080fd5b8060200160208101906107249190611bf6565b15610764578080604001906107399190611ad0565b6098600083600001358152602001908152602001600020818161075c919061213c565b90505061079b565b8080604001906107749190611ad0565b60996000836000013581526020019081526020016000208181610797919061213c565b9050505b5080806107a79061214a565b915050610692565b5080156107d15760008060016101000a81548160ff0219169083151502179055505b5050505050565b6107e0610ff8565b73ffffffffffffffffffffffffffffffffffffffff166107fe61097c565b73ffffffffffffffffffffffffffffffffffffffff1614610854576040517f08c379a000000000000000000000000000000000000000000000000000000000815260040161084b90611972565b60405180910390fd5b60005b82829050811015610977573683838381811061087657610875611a6a565b5b90506020028101906108889190611aa8565b90503681806040019061089b9190611ad0565b90508080602001906108ad9190611af8565b90508180600001906108bf9190611b5b565b9050146108cb57600080fd5b60008260200160208101906108e09190611bf6565b15610903576098600084600001358152602001908152602001600020905061091d565b609960008460000135815260200190815260200160002090505b81806000019061092d9190611b5b565b82600001919061093e929190611181565b5081806020019061094f9190611af8565b826001019190610960929190611221565b50505050808061096f9061214a565b915050610857565b505050565b6000603360009054906101000a900473ffffffffffffffffffffffffffffffffffffffff16905090565b609760009054906101000a900473ffffffffffffffffffffffffffffffffffffffff1673ffffffffffffffffffffffffffffffffffffffff163373ffffffffffffffffffffffffffffffffffffffff1614610a0057600080fd5b60008282905011610a1057600080fd5b34609a6000828254610a229190612193565b9250508190555060008282905034610a3a9190612218565b905060005b83839050811015610b8e57600060986000868685818110610a6357610a62611a6a565b5b905060200201358152602001908152602001600020905060005b8160000180549050811015610b79576000826000018281548110610aa457610aa3611a6a565b5b9060005260206000200160009054906101000a900473ffffffffffffffffffffffffffffffffffffffff1690506000836001018381548110610ae957610ae8611a6a565b5b906000526020600020015490506127108187610b059190611c67565b610b0f9190612218565b609b60008473ffffffffffffffffffffffffffffffffffffffff1673ffffffffffffffffffffffffffffffffffffffff1681526020019081526020016000206000828254610b5d9190612193565b9250508190555050508080610b719061214a565b915050610a7d565b50508080610b869061214a565b915050610a3f565b507f3ef47bfb27f47c14821244fd3989f4f536ba9f3b2881bca9c17437e86140b8cc838334604051610bc2939291906122b9565b60405180910390a1505050565b609a5481565b6060806000609860008581526020019081526020016000209050806000018160010181805480602002602001604051908101604052809291908181526020018280548015610c7857602002820191906000526020600020905b8160009054906101000a900473ffffffffffffffffffffffffffffffffffffffff1673ffffffffffffffffffffffffffffffffffffffff1681526020019060010190808311610c2e575b5050505050915080805480602002602001604051908101604052809291908181526020018280548015610cca57602002820191906000526020600020905b815481526020019060010190808311610cb6575b505050505090509250925050915091565b609b6020528060005260406000206000915090505481565b610cfb610ff8565b73ffffffffffffffffffffffffffffffffffffffff16610d1961097c565b73ffffffffffffffffffffffffffffffffffffffff1614610d6f576040517f08c379a0000000000000000000000000000000000000000000000000000000008152600401610d6690611972565b60405180910390fd5b600073ffffffffffffffffffffffffffffffffffffffff168173ffffffffffffffffffffffffffffffffffffffff161415610ddf576040517f08c379a0000000000000000000000000000000000000000000000000000000008152600401610dd69061235d565b60405180910390fd5b610de881611000565b50565b6060806000609960008581526020019081526020016000209050806000018160010181805480602002602001604051908101604052809291908181526020018280548015610e8e57602002820191906000526020600020905b8160009054906101000a900473ffffffffffffffffffffffffffffffffffffffff1673ffffffffffffffffffffffffffffffffffffffff1681526020019060010190808311610e44575b5050505050915080805480602002602001604051908101604052809291908181526020018280548015610ee057602002820191906000526020600020905b815481526020019060010190808311610ecc575b505050505090509250925050915091565b600080823b905060008111915050919050565b80471015610f47576040517f08c379a0000000000000000000000000000000000000000000000000000000008152600401610f3e906123c9565b60405180910390fd5b60008273ffffffffffffffffffffffffffffffffffffffff1682604051610f6d906119c3565b60006040518083038185875af1925050503d8060008114610faa576040519150601f19603f3d011682016040523d82523d6000602084013e610faf565b606091505b5050905080610ff3576040517f08c379a0000000000000000000000000000000000000000000000000000000008152600401610fea9061245b565b60405180910390fd5b505050565b600033905090565b6000603360009054906101000a900473ffffffffffffffffffffffffffffffffffffffff16905081603360006101000a81548173ffffffffffffffffffffffffffffffffffffffff021916908373ffffffffffffffffffffffffffffffffffffffff1602179055508173ffffffffffffffffffffffffffffffffffffffff168173ffffffffffffffffffffffffffffffffffffffff167f8be0079c531659141344cd1fd0a4f28419497f9722a3daafe3b4186f6b6457e060405160405180910390a35050565b60006110d130610ef1565b15905090565b600060019054906101000a900460ff16611126576040517f08c379a000000000000000000000000000000000000000000000000000000000815260040161111d906124ed565b60405180910390fd5b565b600060019054906101000a900460ff16611177576040517f08c379a000000000000000000000000000000000000000000000000000000000815260040161116e906124ed565b60405180910390fd5b6001606581905550565b828054828255906000526020600020908101928215611210579160200282015b8281111561120f57823573ffffffffffffffffffffffffffffffffffffffff168260006101000a81548173ffffffffffffffffffffffffffffffffffffffff021916908373ffffffffffffffffffffffffffffffffffffffff160217905550916020019190600101906111a1565b5b50905061121d919061126e565b5090565b82805482825590600052602060002090810192821561125d579160200282015b8281111561125c578235825591602001919060010190611241565b5b50905061126a919061126e565b5090565b5b8082111561128757600081600090555060010161126f565b5090565b600080fd5b600080fd5b600073ffffffffffffffffffffffffffffffffffffffff82169050919050565b60006112c082611295565b9050919050565b6112d0816112b5565b81146112db57600080fd5b50565b6000813590506112ed816112c7565b92915050565b6000602082840312156113095761130861128b565b5b6000611317848285016112de565b91505092915050565b600061132b82611295565b9050919050565b61133b81611320565b811461134657600080fd5b50565b60008135905061135881611332565b92915050565b600080fd5b600080fd5b600080fd5b60008083601f8401126113835761138261135e565b5b8235905067ffffffffffffffff8111156113a05761139f611363565b5b6020830191508360208202830111156113bc576113bb611368565b5b9250929050565b600080600080606085870312156113dd576113dc61128b565b5b60006113eb87828801611349565b94505060206113fc87828801611349565b935050604085013567ffffffffffffffff81111561141d5761141c611290565b5b6114298782880161136d565b925092505092959194509250565b6000806020838503121561144e5761144d61128b565b5b600083013567ffffffffffffffff81111561146c5761146b611290565b5b6114788582860161136d565b92509250509250929050565b61148d81611320565b82525050565b60006020820190506114a86000830184611484565b92915050565b60008083601f8401126114c4576114c361135e565b5b8235905067ffffffffffffffff8111156114e1576114e0611363565b5b6020830191508360208202830111156114fd576114fc611368565b5b9250929050565b6000806020838503121561151b5761151a61128b565b5b600083013567ffffffffffffffff81111561153957611538611290565b5b611545858286016114ae565b92509250509250929050565b6000819050919050565b61156481611551565b82525050565b600060208201905061157f600083018461155b565b92915050565b61158e81611551565b811461159957600080fd5b50565b6000813590506115ab81611585565b92915050565b6000602082840312156115c7576115c661128b565b5b60006115d58482850161159c565b91505092915050565b600081519050919050565b600082825260208201905092915050565b6000819050602082019050919050565b611613816112b5565b82525050565b6000611625838361160a565b60208301905092915050565b6000602082019050919050565b6000611649826115de565b61165381856115e9565b935061165e836115fa565b8060005b8381101561168f5781516116768882611619565b975061168183611631565b925050600181019050611662565b5085935050505092915050565b600081519050919050565b600082825260208201905092915050565b6000819050602082019050919050565b6116d181611551565b82525050565b60006116e383836116c8565b60208301905092915050565b6000602082019050919050565b60006117078261169c565b61171181856116a7565b935061171c836116b8565b8060005b8381101561174d57815161173488826116d7565b975061173f836116ef565b925050600181019050611720565b5085935050505092915050565b60006040820190508181036000830152611774818561163e565b9050818103602083015261178881846116fc565b90509392505050565b6000602082840312156117a7576117a661128b565b5b60006117b584828501611349565b91505092915050565b600082825260208201905092915050565b7f5265656e7472616e637947756172643a207265656e7472616e742063616c6c00600082015250565b6000611805601f836117be565b9150611810826117cf565b602082019050919050565b60006020820190508181036000830152611834816117f8565b9050919050565b7f4e487b7100000000000000000000000000000000000000000000000000000000600052601160045260246000fd5b600061187582611551565b915061188083611551565b9250828210156118935761189261183b565b5b828203905092915050565b6000819050919050565b60006118c36118be6118b984611295565b61189e565b611295565b9050919050565b60006118d5826118a8565b9050919050565b60006118e7826118ca565b9050919050565b6118f7816118dc565b82525050565b600060408201905061191260008301856118ee565b61191f602083018461155b565b9392505050565b7f4f776e61626c653a2063616c6c6572206973206e6f7420746865206f776e6572600082015250565b600061195c6020836117be565b915061196782611926565b602082019050919050565b6000602082019050818103600083015261198b8161194f565b9050919050565b600081905092915050565b50565b60006119ad600083611992565b91506119b88261199d565b600082019050919050565b60006119ce826119a0565b9150819050919050565b7f496e697469616c697a61626c653a20636f6e747261637420697320616c72656160008201527f647920696e697469616c697a6564000000000000000000000000000000000000602082015250565b6000611a34602e836117be565b9150611a3f826119d8565b604082019050919050565b60006020820190508181036000830152611a6381611a27565b9050919050565b7f4e487b7100000000000000000000000000000000000000000000000000000000600052603260045260246000fd5b600080fd5b600080fd5b600080fd5b600082356001606003833603038112611ac457611ac3611a99565b5b80830191505092915050565b600082356001604003833603038112611aec57611aeb611a99565b5b80830191505092915050565b60008083356001602003843603038112611b1557611b14611a99565b5b80840192508235915067ffffffffffffffff821115611b3757611b36611a9e565b5b602083019250602082023603831315611b5357611b52611aa3565b5b509250929050565b60008083356001602003843603038112611b7857611b77611a99565b5b80840192508235915067ffffffffffffffff821115611b9a57611b99611a9e565b5b602083019250602082023603831315611bb657611bb5611aa3565b5b509250929050565b60008115159050919050565b611bd381611bbe565b8114611bde57600080fd5b50565b600081359050611bf081611bca565b92915050565b600060208284031215611c0c57611c0b61128b565b5b6000611c1a84828501611be1565b91505092915050565b6000819050919050565b7f4e487b7100000000000000000000000000000000000000000000000000000000600052604160045260246000fd5b600081549050919050565b6000611c7282611551565b9150611c7d83611551565b9250817fffffffffffffffffffffffffffffffffffffffffffffffffffffffffffffffff0483118215151615611cb657611cb561183b565b5b828202905092915050565b60008190506001806001038301049050919050565b60008190508160005260206000209050919050565b600082821b905092915050565b600060088302611d287fffffffffffffffffffffffffffffffffffffffffffffffffffffffffffffffff82611ceb565b611d328683611ceb565b95508019841693508086168417925050509392505050565b6000611d65611d60611d5b84611551565b61189e565b611551565b9050919050565b6000819050919050565b611d7f83611d4a565b611d93611d8b82611d6c565b848454611cf8565b825550505050565b600090565b611da8611d9b565b611db3818484611d76565b505050565b5b81811015611dd757611dcc600082611da0565b600181019050611db9565b5050565b81831015611e1457611dec82611cc1565b611df584611cc1565b611dfe83611cd6565b818101838201611e0e8183611db8565b50505050505b505050565b68010000000000000000821115611e3357611e32611c2d565b5b611e3c81611c5c565b828255611e4a838284611ddb565b505050565b600082905092915050565b60008135611e67816112c7565b80915050919050565b600060088302611e9473ffffffffffffffffffffffffffffffffffffffff82611ceb565b611e9e8683611ceb565b95508019841693508086168417925050509392505050565b6000611ec1826118a8565b9050919050565b6000611ed382611eb6565b9050919050565b6000819050919050565b611eed83611ec8565b611f01611ef982611eda565b848454611e70565b825550505050565b611f138383611e4f565b611f1d8183611e19565b611f2683611c23565b611f2f83611cd6565b6000805b84811015611f6a5783611f4581611e5a565b9050611f52818486611ee4565b60208501945060018401935050600181019050611f33565b5050505050505050565b611f7f838383611f09565b505050565b6000819050919050565b600081549050919050565b60008190506001806001038301049050919050565b60008190508160005260206000209050919050565b5b81811015611fe257611fd7600082611da0565b600181019050611fc4565b5050565b8183101561201f57611ff782611f99565b61200084611f99565b61200983611fae565b8181018382016120198183611fc3565b50505050505b505050565b6801000000000000000082111561203e5761203d611c2d565b5b61204781611f8e565b828255612055838284611fe6565b505050565b600082905092915050565b6000813561207281611585565b80915050919050565b612085838361205a565b61208f8183612024565b61209883611f84565b6120a183611fae565b6000805b848110156120dc57836120b781612065565b90506120c4818486611d76565b602085019450600184019350506001810190506120a5565b5050505050505050565b6120f183838361207b565b505050565b60008101600083016121088185611b5b565b612113818386611f74565b5050505060018101602083016121298185611af8565b6121348183866120e6565b505050505050565b61214682826120f6565b5050565b600061215582611551565b91507fffffffffffffffffffffffffffffffffffffffffffffffffffffffffffffffff8214156121885761218761183b565b5b600182019050919050565b600061219e82611551565b91506121a983611551565b9250827fffffffffffffffffffffffffffffffffffffffffffffffffffffffffffffffff038211156121de576121dd61183b565b5b828201905092915050565b7f4e487b7100000000000000000000000000000000000000000000000000000000600052601260045260246000fd5b600061222382611551565b915061222e83611551565b92508261223e5761223d6121e9565b5b828204905092915050565b600080fd5b82818337600083830152505050565b600061226983856116a7565b93507f07ffffffffffffffffffffffffffffffffffffffffffffffffffffffffffffff83111561229c5761229b612249565b5b6020830292506122ad83858461224e565b82840190509392505050565b600060408201905081810360008301526122d481858761225d565b90506122e3602083018461155b565b949350505050565b7f4f776e61626c653a206e6577206f776e657220697320746865207a65726f206160008201527f6464726573730000000000000000000000000000000000000000000000000000602082015250565b60006123476026836117be565b9150612352826122eb565b604082019050919050565b600060208201905081810360008301526123768161233a565b9050919050565b7f416464726573733a20696e73756666696369656e742062616c616e6365000000600082015250565b60006123b3601d836117be565b91506123be8261237d565b602082019050919050565b600060208201905081810360008301526123e2816123a6565b9050919050565b7f416464726573733a20756e61626c6520746f2073656e642076616c75652c207260008201527f6563697069656e74206d61792068617665207265766572746564000000000000602082015250565b6000612445603a836117be565b9150612450826123e9565b604082019050919050565b6000602082019050818103600083015261247481612438565b9050919050565b7f496e697469616c697a61626c653a20636f6e7472616374206973206e6f74206960008201527f6e697469616c697a696e67000000000000000000000000000000000000000000602082015250565b60006124d7602b836117be565b91506124e28261247b565b604082019050919050565b60006020820190508181036000830152612506816124ca565b905091905056fea264697066735822122057c38e948df2749acc7d02895d61a4eef4170c9bc8cb747c1bd6ea21a62a86da64736f6c634300080c0033",
  "immutableReferences": {},
  "source": "// contracts/RevenueSplitter.sol\n// SPDX-License-Identifier: MIT\npragma solidity ^0.8.0;\n\nimport \"@openzeppelin/contracts-upgradeable/access/OwnableUpgradeable.sol\";\nimport \"@openzeppelin/contracts-upgradeable/utils/AddressUpgradeable.sol\";\nimport \"@openzeppelin/contracts-upgradeable/security/ReentrancyGuardUpgradeable.sol\";\nimport \"./MintSplitSharedLibV1.sol\";\n\ncontract RevenueSplitter is OwnableUpgradeable, ReentrancyGuardUpgradeable {\n    event RoyaltyRemoved(uint contentId, address recipient, bool isMint);\n    event RoyaltyAdded(uint contentId, address recipient, uint bps, bool isMint);\n    event RoyaltyUpdated(uint contentId, address recipient, uint bps, bool isMint);\n    event PaymentReleased(address to, uint amount);\n    event PaymentReceived(uint[] contentIds, uint amount);\n\n    address private erc721;\n\n    mapping (uint => MintSplitSharedLibV1.PaymentSplit) private _contentMintSplits;\n    mapping (uint => MintSplitSharedLibV1.PaymentSplit) private _contentRoyalties;\n\n    uint public totalBalance;\n    mapping (address => uint) public balance;\n    \n    constructor() initializer {}\n\n    function initialize(address _owner, address _erc721, MintSplitSharedLibV1.PaymentSplitConfig[] calldata _splitConfigs) initializer public {\n        require(_splitConfigs.length > 0);\n\n        __Context_init_unchained();\n        __ReentrancyGuard_init_unchained();\n        _transferOwnership(_owner); // Owner address forwarded from factory.createProject\n\n        erc721 = _erc721; // Address of the sibling erc721 contract\n\n        /**\n            TODO:\n            x require split configs length > 0\n            - default config ??\n            - require bps < 10000 ??\n         */\n\n        for (uint i = 0; i < _splitConfigs.length; i++) {\n            MintSplitSharedLibV1.PaymentSplitConfig calldata splitConfig = _splitConfigs[i];\n            require(splitConfig.split.recipients.length == splitConfig.split.bps.length);\n            if (splitConfig.isMint) {\n                _contentMintSplits[splitConfig.contentId] = splitConfig.split;\n            } else {\n                _contentRoyalties[splitConfig.contentId] = splitConfig.split;\n            }\n        }\n    }\n\n    // External\n    function getContentRoyalties(uint256 contentId) external view returns (address payable[] memory, uint256[] memory) {\n        MintSplitSharedLibV1.PaymentSplit storage royalties = _contentRoyalties[contentId];\n        return (royalties.recipients, royalties.bps);\n    }\n    \n    function getContentMintSplits(uint256 contentId) external view returns (address payable[] memory, uint256[] memory) {\n        MintSplitSharedLibV1.PaymentSplit storage mintSplits = _contentMintSplits[contentId];\n        return (mintSplits.recipients, mintSplits.bps);\n    }\n\n    function receiveMint(uint[] calldata contentIds) external payable {\n        require(msg.sender == erc721);\n        require(contentIds.length > 0);\n\n        totalBalance += msg.value;\n        uint valuePerToken = msg.value / contentIds.length;\n        for (uint i = 0; i < contentIds.length; i++) {\n            MintSplitSharedLibV1.PaymentSplit storage mintSplit = _contentMintSplits[contentIds[i]];\n\n            // TODO: Nested loops are bad. Look for another way to do this\n            for (uint j = 0; j < mintSplit.recipients.length; j++) {\n                address recipient = mintSplit.recipients[j];\n                uint bps = mintSplit.bps[j];\n                balance[recipient] += (valuePerToken*bps/10000);\n            }\n        }\n\n        emit PaymentReceived(contentIds, msg.value);\n    }\n\n    function release(address payable account) external nonReentrant {\n        uint payment = balance[account];\n        balance[account] = 0;\n        totalBalance -= payment;\n        AddressUpgradeable.sendValue(account, payment);\n        emit PaymentReleased(account, payment);\n    }\n\n    // Owner\n    function setRevenueSplits(MintSplitSharedLibV1.PaymentSplitConfig[] calldata splitConfigs) external onlyOwner {\n        for (uint i = 0; i < splitConfigs.length; i++) {\n            MintSplitSharedLibV1.PaymentSplitConfig calldata splitConfig = splitConfigs[i];\n            MintSplitSharedLibV1.PaymentSplit calldata newSplit = splitConfig.split;\n            require(newSplit.recipients.length == newSplit.bps.length);\n            MintSplitSharedLibV1.PaymentSplit storage currentSplit;\n            if (splitConfig.isMint) {\n                currentSplit = _contentMintSplits[splitConfig.contentId];\n            } else {\n                currentSplit = _contentRoyalties[splitConfig.contentId];\n            }\n            currentSplit.recipients = newSplit.recipients;\n            currentSplit.bps = newSplit.bps;\n        }\n    }\n\n    function withdraw() public payable onlyOwner {\n        (bool success, ) = payable(msg.sender).call{\n            value: (address(this).balance - totalBalance)\n        }(\"\");\n        require(success);\n    }\n}",
  "sourcePath": "/Users/justinfsl/Dev/misc/mintsplit/solidity/contracts/RevenueSplitter.sol",
  "compiler": {
    "name": "solc",
    "version": "0.8.12+commit.f00d7308.Emscripten.clang"
  },
  "schemaVersion": "3.3.4",
  "updatedAt": "2022-03-09T22:35:14.806Z",
  "networkType": "ethereum",
  "devdoc": {
    "kind": "dev",
    "methods": {
      "owner()": {
        "details": "Returns the address of the current owner."
      },
      "renounceOwnership()": {
        "details": "Leaves the contract without owner. It will not be possible to call `onlyOwner` functions anymore. Can only be called by the current owner. NOTE: Renouncing ownership will leave the contract without an owner, thereby removing any functionality that is only available to the owner."
      },
      "transferOwnership(address)": {
        "details": "Transfers ownership of the contract to a new account (`newOwner`). Can only be called by the current owner."
      }
    },
    "version": 1
  },
  "userdoc": {
    "kind": "user",
    "methods": {},
    "version": 1
  }
}