{
  "contractName": "RevenueSplitter",
  "abi": [
    {
      "inputs": [],
      "stateMutability": "nonpayable",
      "type": "constructor"
    },
    {
      "anonymous": false,
      "inputs": [
        {
          "indexed": true,
          "internalType": "address",
          "name": "owner",
          "type": "address"
        },
        {
          "components": [
            {
              "internalType": "uint256",
              "name": "contentId",
              "type": "uint256"
            },
            {
              "internalType": "bool",
              "name": "isMint",
              "type": "bool"
            },
            {
              "components": [
                {
                  "internalType": "address payable[]",
                  "name": "recipients",
                  "type": "address[]"
                },
                {
                  "internalType": "uint256[]",
                  "name": "bps",
                  "type": "uint256[]"
                }
              ],
              "internalType": "struct MintSplitSharedLib.PaymentSplit",
              "name": "split",
              "type": "tuple"
            }
          ],
          "indexed": false,
          "internalType": "struct MintSplitSharedLib.PaymentSplitConfig",
          "name": "config",
          "type": "tuple"
        }
      ],
      "name": "DefaultSplitSet",
      "type": "event"
    },
    {
      "anonymous": false,
      "inputs": [
        {
          "indexed": true,
          "internalType": "address",
          "name": "previousOwner",
          "type": "address"
        },
        {
          "indexed": true,
          "internalType": "address",
          "name": "newOwner",
          "type": "address"
        }
      ],
      "name": "OwnershipTransferred",
      "type": "event"
    },
    {
      "anonymous": false,
      "inputs": [
        {
          "indexed": true,
          "internalType": "address",
          "name": "owner",
          "type": "address"
        },
        {
          "indexed": true,
          "internalType": "address",
          "name": "to",
          "type": "address"
        },
        {
          "indexed": false,
          "internalType": "uint256",
          "name": "amount",
          "type": "uint256"
        }
      ],
      "name": "PaymentReleased",
      "type": "event"
    },
    {
      "anonymous": false,
      "inputs": [
        {
          "indexed": true,
          "internalType": "address",
          "name": "owner",
          "type": "address"
        },
        {
          "components": [
            {
              "internalType": "uint256",
              "name": "contentId",
              "type": "uint256"
            },
            {
              "internalType": "bool",
              "name": "isMint",
              "type": "bool"
            },
            {
              "components": [
                {
                  "internalType": "address payable[]",
                  "name": "recipients",
                  "type": "address[]"
                },
                {
                  "internalType": "uint256[]",
                  "name": "bps",
                  "type": "uint256[]"
                }
              ],
              "internalType": "struct MintSplitSharedLib.PaymentSplit",
              "name": "split",
              "type": "tuple"
            }
          ],
          "indexed": false,
          "internalType": "struct MintSplitSharedLib.PaymentSplitConfig[]",
          "name": "configs",
          "type": "tuple[]"
        }
      ],
      "name": "SplitsSet",
      "type": "event"
    },
    {
      "inputs": [
        {
          "internalType": "address",
          "name": "",
          "type": "address"
        }
      ],
      "name": "balance",
      "outputs": [
        {
          "internalType": "uint256",
          "name": "",
          "type": "uint256"
        }
      ],
      "stateMutability": "view",
      "type": "function",
      "constant": true
    },
    {
      "inputs": [],
      "name": "owner",
      "outputs": [
        {
          "internalType": "address",
          "name": "",
          "type": "address"
        }
      ],
      "stateMutability": "view",
      "type": "function",
      "constant": true
    },
    {
      "inputs": [],
      "name": "renounceOwnership",
      "outputs": [],
      "stateMutability": "nonpayable",
      "type": "function"
    },
    {
      "inputs": [],
      "name": "totalBalance",
      "outputs": [
        {
          "internalType": "uint256",
          "name": "",
          "type": "uint256"
        }
      ],
      "stateMutability": "view",
      "type": "function",
      "constant": true
    },
    {
      "inputs": [
        {
          "internalType": "address",
          "name": "newOwner",
          "type": "address"
        }
      ],
      "name": "transferOwnership",
      "outputs": [],
      "stateMutability": "nonpayable",
      "type": "function"
    },
    {
      "inputs": [
        {
          "internalType": "address",
          "name": "owner",
          "type": "address"
        },
        {
          "components": [
            {
              "internalType": "uint256",
              "name": "contentId",
              "type": "uint256"
            },
            {
              "internalType": "bool",
              "name": "isMint",
              "type": "bool"
            },
            {
              "components": [
                {
                  "internalType": "address payable[]",
                  "name": "recipients",
                  "type": "address[]"
                },
                {
                  "internalType": "uint256[]",
                  "name": "bps",
                  "type": "uint256[]"
                }
              ],
              "internalType": "struct MintSplitSharedLib.PaymentSplit",
              "name": "split",
              "type": "tuple"
            }
          ],
          "internalType": "struct MintSplitSharedLib.PaymentSplitConfig[]",
          "name": "configs",
          "type": "tuple[]"
        },
        {
          "components": [
            {
              "internalType": "address payable[]",
              "name": "recipients",
              "type": "address[]"
            },
            {
              "internalType": "uint256[]",
              "name": "bps",
              "type": "uint256[]"
            }
          ],
          "internalType": "struct MintSplitSharedLib.PaymentSplit",
          "name": "defaultMint",
          "type": "tuple"
        },
        {
          "components": [
            {
              "internalType": "address payable[]",
              "name": "recipients",
              "type": "address[]"
            },
            {
              "internalType": "uint256[]",
              "name": "bps",
              "type": "uint256[]"
            }
          ],
          "internalType": "struct MintSplitSharedLib.PaymentSplit",
          "name": "defaultRoyalty",
          "type": "tuple"
        }
      ],
      "name": "initialize",
      "outputs": [],
      "stateMutability": "nonpayable",
      "type": "function"
    },
    {
      "inputs": [
        {
          "internalType": "bytes4",
          "name": "interfaceId",
          "type": "bytes4"
        }
      ],
      "name": "supportsInterface",
      "outputs": [
        {
          "internalType": "bool",
          "name": "",
          "type": "bool"
        }
      ],
      "stateMutability": "view",
      "type": "function",
      "constant": true
    },
    {
      "inputs": [
        {
          "internalType": "uint256",
          "name": "cid",
          "type": "uint256"
        }
      ],
      "name": "receiveMint",
      "outputs": [],
      "stateMutability": "payable",
      "type": "function",
      "payable": true
    },
    {
      "inputs": [
        {
          "internalType": "uint256[]",
          "name": "contentIds",
          "type": "uint256[]"
        }
      ],
      "name": "receiveMintBatch",
      "outputs": [],
      "stateMutability": "payable",
      "type": "function",
      "payable": true
    },
    {
      "inputs": [
        {
          "internalType": "uint256",
          "name": "cid",
          "type": "uint256"
        }
      ],
      "name": "getMintSplits",
      "outputs": [
        {
          "internalType": "address payable[]",
          "name": "recipients_",
          "type": "address[]"
        },
        {
          "internalType": "uint256[]",
          "name": "bps",
          "type": "uint256[]"
        }
      ],
      "stateMutability": "view",
      "type": "function",
      "constant": true
    },
    {
      "inputs": [
        {
          "internalType": "uint256",
          "name": "cid",
          "type": "uint256"
        }
      ],
      "name": "getRoyaltySplits",
      "outputs": [
        {
          "internalType": "address payable[]",
          "name": "recipients_",
          "type": "address[]"
        },
        {
          "internalType": "uint256[]",
          "name": "bps",
          "type": "uint256[]"
        }
      ],
      "stateMutability": "view",
      "type": "function",
      "constant": true
    },
    {
      "inputs": [],
      "name": "getDefaultSplits",
      "outputs": [
        {
          "components": [
            {
              "internalType": "address payable[]",
              "name": "recipients",
              "type": "address[]"
            },
            {
              "internalType": "uint256[]",
              "name": "bps",
              "type": "uint256[]"
            }
          ],
          "internalType": "struct MintSplitSharedLib.PaymentSplit",
          "name": "mint",
          "type": "tuple"
        },
        {
          "components": [
            {
              "internalType": "address payable[]",
              "name": "recipients",
              "type": "address[]"
            },
            {
              "internalType": "uint256[]",
              "name": "bps",
              "type": "uint256[]"
            }
          ],
          "internalType": "struct MintSplitSharedLib.PaymentSplit",
          "name": "royalty",
          "type": "tuple"
        }
      ],
      "stateMutability": "view",
      "type": "function",
      "constant": true
    },
    {
      "inputs": [
        {
          "internalType": "address payable",
          "name": "account",
          "type": "address"
        }
      ],
      "name": "release",
      "outputs": [],
      "stateMutability": "nonpayable",
      "type": "function"
    },
    {
      "inputs": [
        {
          "components": [
            {
              "internalType": "uint256",
              "name": "contentId",
              "type": "uint256"
            },
            {
              "internalType": "bool",
              "name": "isMint",
              "type": "bool"
            },
            {
              "components": [
                {
                  "internalType": "address payable[]",
                  "name": "recipients",
                  "type": "address[]"
                },
                {
                  "internalType": "uint256[]",
                  "name": "bps",
                  "type": "uint256[]"
                }
              ],
              "internalType": "struct MintSplitSharedLib.PaymentSplit",
              "name": "split",
              "type": "tuple"
            }
          ],
          "internalType": "struct MintSplitSharedLib.PaymentSplitConfig[]",
          "name": "configs",
          "type": "tuple[]"
        }
      ],
      "name": "setSplits",
      "outputs": [],
      "stateMutability": "nonpayable",
      "type": "function"
    },
    {
      "inputs": [
        {
          "components": [
            {
              "internalType": "uint256",
              "name": "contentId",
              "type": "uint256"
            },
            {
              "internalType": "bool",
              "name": "isMint",
              "type": "bool"
            },
            {
              "components": [
                {
                  "internalType": "address payable[]",
                  "name": "recipients",
                  "type": "address[]"
                },
                {
                  "internalType": "uint256[]",
                  "name": "bps",
                  "type": "uint256[]"
                }
              ],
              "internalType": "struct MintSplitSharedLib.PaymentSplit",
              "name": "split",
              "type": "tuple"
            }
          ],
          "internalType": "struct MintSplitSharedLib.PaymentSplitConfig",
          "name": "config",
          "type": "tuple"
        }
      ],
      "name": "setDefaultSplit",
      "outputs": [],
      "stateMutability": "nonpayable",
      "type": "function"
    },
    {
      "inputs": [],
      "name": "withdraw",
      "outputs": [],
      "stateMutability": "payable",
      "type": "function",
      "payable": true
    }
  ],
  "bytecode": "0x60806040523480156200001157600080fd5b50600060019054906101000a900460ff166200003c5760008054906101000a900460ff16156200004d565b6200004c6200010960201b60201c565b5b6200008f576040517f08c379a00000000000000000000000000000000000000000000000000000000081526004016200008690620001c1565b60405180910390fd5b60008060019054906101000a900460ff161590508015620000e0576001600060016101000a81548160ff02191690831515021790555060016000806101000a81548160ff0219169083151502179055505b8015620001025760008060016101000a81548160ff0219169083151502179055505b50620001e3565b600062000121306200012760201b620015dd1760201c565b15905090565b600080823b905060008111915050919050565b600082825260208201905092915050565b7f496e697469616c697a61626c653a20636f6e747261637420697320616c72656160008201527f647920696e697469616c697a6564000000000000000000000000000000000000602082015250565b6000620001a9602e836200013a565b9150620001b6826200014b565b604082019050919050565b60006020820190508181036000830152620001dc816200019a565b9050919050565b61332b80620001f36000396000f3fe6080604052600436106100f35760003560e01c8063a60452421161008a578063da2f1a7311610059578063da2f1a73146102c9578063e3d670d7146102f2578063f2fde38b1461032f578063fc973d1f14610358576100f3565b8063a60452421461020b578063a9d4fc5614610237578063ad7a672f14610275578063b4bba826146102a0576100f3565b8063715018a6116100c6578063715018a61461018457806377262d2a1461019b5780638da5cb5b146101b757806392cf64ed146101e2576100f3565b806301ffc9a7146100f85780631916558714610135578063296e96011461015e5780633ccfd60b1461017a575b600080fd5b34801561010457600080fd5b5061011f600480360381019061011a9190611a83565b610396565b60405161012c9190611acb565b60405180910390f35b34801561014157600080fd5b5061015c60048036038101906101579190611b44565b610410565b005b61017860048036038101906101739190611bd6565b61058e565b005b610182610747565b005b34801561019057600080fd5b50610199610849565b005b6101b560048036038101906101b09190611c59565b6108d1565b005b3480156101c357600080fd5b506101cc610a21565b6040516101d99190611ca7565b60405180910390f35b3480156101ee57600080fd5b5061020960048036038101906102049190611d18565b610a4b565b005b34801561021757600080fd5b50610220610ae5565b60405161022e929190611f25565b60405180910390f35b34801561024357600080fd5b5061025e60048036038101906102599190611c59565b610ce9565b60405161026c92919061203a565b60405180910390f35b34801561028157600080fd5b5061028a610eed565b6040516102979190612080565b60405180910390f35b3480156102ac57600080fd5b506102c760048036038101906102c291906120bf565b610ef3565b005b3480156102d557600080fd5b506102f060048036038101906102eb9190612153565b611027565b005b3480156102fe57600080fd5b5061031960048036038101906103149190612213565b6112ca565b6040516103269190612080565b60405180910390f35b34801561033b57600080fd5b5061035660048036038101906103519190612213565b6112e2565b005b34801561036457600080fd5b5061037f600480360381019061037a9190611c59565b6113d9565b60405161038d92919061203a565b60405180910390f35b60007f3469e32e000000000000000000000000000000000000000000000000000000007bffffffffffffffffffffffffffffffffffffffffffffffffffffffff1916827bffffffffffffffffffffffffffffffffffffffffffffffffffffffff191614806104095750610408826115f0565b5b9050919050565b600260655403610455576040517f08c379a000000000000000000000000000000000000000000000000000000000815260040161044c9061229d565b60405180910390fd5b60026065819055506000609e60008373ffffffffffffffffffffffffffffffffffffffff1673ffffffffffffffffffffffffffffffffffffffff168152602001908152602001600020549050600081116104ae57600080fd5b6000609e60008473ffffffffffffffffffffffffffffffffffffffff1673ffffffffffffffffffffffffffffffffffffffff16815260200190815260200160002081905550806097600082825461050591906122ec565b92505081905550610516828261165a565b8173ffffffffffffffffffffffffffffffffffffffff16610535610a21565b73ffffffffffffffffffffffffffffffffffffffff167f8ac5b3c2902b21b6bbb4d99ec195e28a242cb6a1777804db10b84d91e20064298360405161057a9190612080565b60405180910390a350600160658190555050565b34609760008282546105a09190612320565b92505081905550600082829050346105b891906123a5565b905060005b8383905081101561074157600080609c60008787868181106105e2576105e16123d6565b5b905060200201358152602001908152602001600020600001805490501461063457609c600086868581811061061a576106196123d6565b5b905060200201358152602001908152602001600020610637565b60985b905060005b816000018054905081101561072c57612710826001018281548110610664576106636123d6565b5b90600052602060002001548561067a9190612405565b61068491906123a5565b609e600084600001848154811061069e5761069d6123d6565b5b9060005260206000200160009054906101000a900473ffffffffffffffffffffffffffffffffffffffff1673ffffffffffffffffffffffffffffffffffffffff1673ffffffffffffffffffffffffffffffffffffffff16815260200190815260200160002060008282546107129190612320565b9250508190555080806107249061245f565b91505061063c565b505080806107399061245f565b9150506105bd565b50505050565b61074f61174e565b73ffffffffffffffffffffffffffffffffffffffff1661076d610a21565b73ffffffffffffffffffffffffffffffffffffffff16146107c3576040517f08c379a00000000000000000000000000000000000000000000000000000000081526004016107ba906124f3565b60405180910390fd5b60003373ffffffffffffffffffffffffffffffffffffffff16609754476107ea91906122ec565b6040516107f690612544565b60006040518083038185875af1925050503d8060008114610833576040519150601f19603f3d011682016040523d82523d6000602084013e610838565b606091505b505090508061084657600080fd5b50565b61085161174e565b73ffffffffffffffffffffffffffffffffffffffff1661086f610a21565b73ffffffffffffffffffffffffffffffffffffffff16146108c5576040517f08c379a00000000000000000000000000000000000000000000000000000000081526004016108bc906124f3565b60405180910390fd5b6108cf6000611756565b565b34609760008282546108e39190612320565b92505081905550600080609c6000848152602001908152602001600020600001805490501461092457609c6000838152602001908152602001600020610927565b60985b905060005b8160000180549050811015610a1c57612710826001018281548110610954576109536123d6565b5b90600052602060002001543461096a9190612405565b61097491906123a5565b609e600084600001848154811061098e5761098d6123d6565b5b9060005260206000200160009054906101000a900473ffffffffffffffffffffffffffffffffffffffff1673ffffffffffffffffffffffffffffffffffffffff1673ffffffffffffffffffffffffffffffffffffffff1681526020019081526020016000206000828254610a029190612320565b925050819055508080610a149061245f565b91505061092c565b505050565b6000603360009054906101000a900473ffffffffffffffffffffffffffffffffffffffff16905090565b610a5361174e565b73ffffffffffffffffffffffffffffffffffffffff16610a71610a21565b73ffffffffffffffffffffffffffffffffffffffff1614610ac7576040517f08c379a0000000000000000000000000000000000000000000000000000000008152600401610abe906124f3565b60405180910390fd5b60008282905011610ad757600080fd5b610ae1828261181c565b5050565b610aed611a07565b610af5611a07565b6098609a8160405180604001604052908160008201805480602002602001604051908101604052809291908181526020018280548015610b8a57602002820191906000526020600020905b8160009054906101000a900473ffffffffffffffffffffffffffffffffffffffff1673ffffffffffffffffffffffffffffffffffffffff1681526020019060010190808311610b40575b5050505050815260200160018201805480602002602001604051908101604052809291908181526020018280548015610be257602002820191906000526020600020905b815481526020019060010190808311610bce575b50505050508152505091508060405180604001604052908160008201805480602002602001604051908101604052809291908181526020018280548015610c7e57602002820191906000526020600020905b8160009054906101000a900473ffffffffffffffffffffffffffffffffffffffff1673ffffffffffffffffffffffffffffffffffffffff1681526020019060010190808311610c34575b5050505050815260200160018201805480602002602001604051908101604052809291908181526020018280548015610cd657602002820191906000526020600020905b815481526020019060010190808311610cc2575b5050505050815250509050915091509091565b6060806000609c600085815260200190815260200160002090506000816000018054905003610e00576098600001609860010181805480602002602001604051908101604052809291908181526020018280548015610d9d57602002820191906000526020600020905b8160009054906101000a900473ffffffffffffffffffffffffffffffffffffffff1673ffffffffffffffffffffffffffffffffffffffff1681526020019060010190808311610d53575b5050505050915080805480602002602001604051908101604052809291908181526020018280548015610def57602002820191906000526020600020905b815481526020019060010190808311610ddb575b505050505090509250925050610ee8565b806000018160010181805480602002602001604051908101604052809291908181526020018280548015610e8957602002820191906000526020600020905b8160009054906101000a900473ffffffffffffffffffffffffffffffffffffffff1673ffffffffffffffffffffffffffffffffffffffff1681526020019060010190808311610e3f575b5050505050915080805480602002602001604051908101604052809291908181526020018280548015610edb57602002820191906000526020600020905b815481526020019060010190808311610ec7575b5050505050905092509250505b915091565b60975481565b610efb61174e565b73ffffffffffffffffffffffffffffffffffffffff16610f19610a21565b73ffffffffffffffffffffffffffffffffffffffff1614610f6f576040517f08c379a0000000000000000000000000000000000000000000000000000000008152600401610f66906124f3565b60405180910390fd5b806020016020810190610f829190612585565b15610fad57808060400190610f9791906125c1565b60988181610fa59190612b9a565b905050610fcf565b808060400190610fbd91906125c1565b609a8181610fcb9190612b9a565b9050505b610fd7610a21565b73ffffffffffffffffffffffffffffffffffffffff167f5e28e66c0f6c568a5b0ead2f83afc6e5eb538921f0760a997578fd1eac493e408260405161101c9190612e93565b60405180910390a250565b600060019054906101000a900460ff1661104f5760008054906101000a900460ff1615611058565b61105761194c565b5b611097576040517f08c379a000000000000000000000000000000000000000000000000000000000815260040161108e90612f27565b60405180910390fd5b60008060019054906101000a900460ff1615905080156110e7576001600060016101000a81548160ff02191690831515021790555060016000806101000a81548160ff0219169083151502179055505b6110ef61195d565b6110f76119ae565b61110086611756565b600083806000019061111291906125e9565b9050036111b2576098600001869080600181540180825580915050600190039060005260206000200160009091909190916101000a81548173ffffffffffffffffffffffffffffffffffffffff021916908373ffffffffffffffffffffffffffffffffffffffff160217905550609860010161271090806001815401808255809150506001900390600052602060002001600090919091909150556111c5565b82609881816111c19190612b9a565b9050505b60008280600001906111d791906125e9565b90500361127757609a600001869080600181540180825580915050600190039060005260206000200160009091909190916101000a81548173ffffffffffffffffffffffffffffffffffffffff021916908373ffffffffffffffffffffffffffffffffffffffff160217905550609a60010161044c908060018154018082558091505060019003906000526020600020016000909190919091505561128a565b81609a81816112869190612b9a565b9050505b60008585905003156112a1576112a0858561181c565b5b80156112c25760008060016101000a81548160ff0219169083151502179055505b505050505050565b609e6020528060005260406000206000915090505481565b6112ea61174e565b73ffffffffffffffffffffffffffffffffffffffff16611308610a21565b73ffffffffffffffffffffffffffffffffffffffff161461135e576040517f08c379a0000000000000000000000000000000000000000000000000000000008152600401611355906124f3565b60405180910390fd5b600073ffffffffffffffffffffffffffffffffffffffff168173ffffffffffffffffffffffffffffffffffffffff16036113cd576040517f08c379a00000000000000000000000000000000000000000000000000000000081526004016113c490612fb9565b60405180910390fd5b6113d681611756565b50565b6060806000609d6000858152602001908152602001600020905060008160000180549050036114f057609a600001609a6001018180548060200260200160405190810160405280929190818152602001828054801561148d57602002820191906000526020600020905b8160009054906101000a900473ffffffffffffffffffffffffffffffffffffffff1673ffffffffffffffffffffffffffffffffffffffff1681526020019060010190808311611443575b50505050509150808054806020026020016040519081016040528092919081815260200182805480156114df57602002820191906000526020600020905b8154815260200190600101908083116114cb575b5050505050905092509250506115d8565b80600001816001018180548060200260200160405190810160405280929190818152602001828054801561157957602002820191906000526020600020905b8160009054906101000a900473ffffffffffffffffffffffffffffffffffffffff1673ffffffffffffffffffffffffffffffffffffffff168152602001906001019080831161152f575b50505050509150808054806020026020016040519081016040528092919081815260200182805480156115cb57602002820191906000526020600020905b8154815260200190600101908083116115b7575b5050505050905092509250505b915091565b600080823b905060008111915050919050565b60007f01ffc9a7000000000000000000000000000000000000000000000000000000007bffffffffffffffffffffffffffffffffffffffffffffffffffffffff1916827bffffffffffffffffffffffffffffffffffffffffffffffffffffffff1916149050919050565b8047101561169d576040517f08c379a000000000000000000000000000000000000000000000000000000000815260040161169490613025565b60405180910390fd5b60008273ffffffffffffffffffffffffffffffffffffffff16826040516116c390612544565b60006040518083038185875af1925050503d8060008114611700576040519150601f19603f3d011682016040523d82523d6000602084013e611705565b606091505b5050905080611749576040517f08c379a0000000000000000000000000000000000000000000000000000000008152600401611740906130b7565b60405180910390fd5b505050565b600033905090565b6000603360009054906101000a900473ffffffffffffffffffffffffffffffffffffffff16905081603360006101000a81548173ffffffffffffffffffffffffffffffffffffffff021916908373ffffffffffffffffffffffffffffffffffffffff1602179055508173ffffffffffffffffffffffffffffffffffffffff168173ffffffffffffffffffffffffffffffffffffffff167f8be0079c531659141344cd1fd0a4f28419497f9722a3daafe3b4186f6b6457e060405160405180910390a35050565b60005b828290508110156118f0573683838381811061183e5761183d6123d6565b5b905060200281019061185091906130d7565b90508060200160208101906118659190612585565b156118a55780806040019061187a91906125c1565b609c600083600001358152602001908152602001600020818161189d9190612b9a565b9050506118dc565b8080604001906118b591906125c1565b609d60008360000135815260200190815260200160002081816118d89190612b9a565b9050505b5080806118e89061245f565b91505061181f565b506118f9610a21565b73ffffffffffffffffffffffffffffffffffffffff167f6c765e625a6c369ecc4a4bc22bb38c07e8c8667b07130f3408233c8472dfc45b838360405161194092919061323f565b60405180910390a25050565b6000611957306115dd565b15905090565b600060019054906101000a900460ff166119ac576040517f08c379a00000000000000000000000000000000000000000000000000000000081526004016119a3906132d5565b60405180910390fd5b565b600060019054906101000a900460ff166119fd576040517f08c379a00000000000000000000000000000000000000000000000000000000081526004016119f4906132d5565b60405180910390fd5b6001606581905550565b604051806040016040528060608152602001606081525090565b600080fd5b600080fd5b60007fffffffff0000000000000000000000000000000000000000000000000000000082169050919050565b611a6081611a2b565b8114611a6b57600080fd5b50565b600081359050611a7d81611a57565b92915050565b600060208284031215611a9957611a98611a21565b5b6000611aa784828501611a6e565b91505092915050565b60008115159050919050565b611ac581611ab0565b82525050565b6000602082019050611ae06000830184611abc565b92915050565b600073ffffffffffffffffffffffffffffffffffffffff82169050919050565b6000611b1182611ae6565b9050919050565b611b2181611b06565b8114611b2c57600080fd5b50565b600081359050611b3e81611b18565b92915050565b600060208284031215611b5a57611b59611a21565b5b6000611b6884828501611b2f565b91505092915050565b600080fd5b600080fd5b600080fd5b60008083601f840112611b9657611b95611b71565b5b8235905067ffffffffffffffff811115611bb357611bb2611b76565b5b602083019150836020820283011115611bcf57611bce611b7b565b5b9250929050565b60008060208385031215611bed57611bec611a21565b5b600083013567ffffffffffffffff811115611c0b57611c0a611a26565b5b611c1785828601611b80565b92509250509250929050565b6000819050919050565b611c3681611c23565b8114611c4157600080fd5b50565b600081359050611c5381611c2d565b92915050565b600060208284031215611c6f57611c6e611a21565b5b6000611c7d84828501611c44565b91505092915050565b6000611c9182611ae6565b9050919050565b611ca181611c86565b82525050565b6000602082019050611cbc6000830184611c98565b92915050565b60008083601f840112611cd857611cd7611b71565b5b8235905067ffffffffffffffff811115611cf557611cf4611b76565b5b602083019150836020820283011115611d1157611d10611b7b565b5b9250929050565b60008060208385031215611d2f57611d2e611a21565b5b600083013567ffffffffffffffff811115611d4d57611d4c611a26565b5b611d5985828601611cc2565b92509250509250929050565b600081519050919050565b600082825260208201905092915050565b6000819050602082019050919050565b611d9a81611b06565b82525050565b6000611dac8383611d91565b60208301905092915050565b6000602082019050919050565b6000611dd082611d65565b611dda8185611d70565b9350611de583611d81565b8060005b83811015611e16578151611dfd8882611da0565b9750611e0883611db8565b925050600181019050611de9565b5085935050505092915050565b600081519050919050565b600082825260208201905092915050565b6000819050602082019050919050565b611e5881611c23565b82525050565b6000611e6a8383611e4f565b60208301905092915050565b6000602082019050919050565b6000611e8e82611e23565b611e988185611e2e565b9350611ea383611e3f565b8060005b83811015611ed4578151611ebb8882611e5e565b9750611ec683611e76565b925050600181019050611ea7565b5085935050505092915050565b60006040830160008301518482036000860152611efe8282611dc5565b91505060208301518482036020860152611f188282611e83565b9150508091505092915050565b60006040820190508181036000830152611f3f8185611ee1565b90508181036020830152611f538184611ee1565b90509392505050565b600082825260208201905092915050565b6000611f7882611d65565b611f828185611f5c565b9350611f8d83611d81565b8060005b83811015611fbe578151611fa58882611da0565b9750611fb083611db8565b925050600181019050611f91565b5085935050505092915050565b600082825260208201905092915050565b6000611fe782611e23565b611ff18185611fcb565b9350611ffc83611e3f565b8060005b8381101561202d5781516120148882611e5e565b975061201f83611e76565b925050600181019050612000565b5085935050505092915050565b600060408201905081810360008301526120548185611f6d565b905081810360208301526120688184611fdc565b90509392505050565b61207a81611c23565b82525050565b60006020820190506120956000830184612071565b92915050565b600080fd5b6000606082840312156120b6576120b561209b565b5b81905092915050565b6000602082840312156120d5576120d4611a21565b5b600082013567ffffffffffffffff8111156120f3576120f2611a26565b5b6120ff848285016120a0565b91505092915050565b61211181611c86565b811461211c57600080fd5b50565b60008135905061212e81612108565b92915050565b60006040828403121561214a5761214961209b565b5b81905092915050565b60008060008060006080868803121561216f5761216e611a21565b5b600061217d8882890161211f565b955050602086013567ffffffffffffffff81111561219e5761219d611a26565b5b6121aa88828901611cc2565b9450945050604086013567ffffffffffffffff8111156121cd576121cc611a26565b5b6121d988828901612134565b925050606086013567ffffffffffffffff8111156121fa576121f9611a26565b5b61220688828901612134565b9150509295509295909350565b60006020828403121561222957612228611a21565b5b60006122378482850161211f565b91505092915050565b600082825260208201905092915050565b7f5265656e7472616e637947756172643a207265656e7472616e742063616c6c00600082015250565b6000612287601f83612240565b915061229282612251565b602082019050919050565b600060208201905081810360008301526122b68161227a565b9050919050565b7f4e487b7100000000000000000000000000000000000000000000000000000000600052601160045260246000fd5b60006122f782611c23565b915061230283611c23565b925082821015612315576123146122bd565b5b828203905092915050565b600061232b82611c23565b915061233683611c23565b9250827fffffffffffffffffffffffffffffffffffffffffffffffffffffffffffffffff0382111561236b5761236a6122bd565b5b828201905092915050565b7f4e487b7100000000000000000000000000000000000000000000000000000000600052601260045260246000fd5b60006123b082611c23565b91506123bb83611c23565b9250826123cb576123ca612376565b5b828204905092915050565b7f4e487b7100000000000000000000000000000000000000000000000000000000600052603260045260246000fd5b600061241082611c23565b915061241b83611c23565b9250817fffffffffffffffffffffffffffffffffffffffffffffffffffffffffffffffff0483118215151615612454576124536122bd565b5b828202905092915050565b600061246a82611c23565b91507fffffffffffffffffffffffffffffffffffffffffffffffffffffffffffffffff820361249c5761249b6122bd565b5b600182019050919050565b7f4f776e61626c653a2063616c6c6572206973206e6f7420746865206f776e6572600082015250565b60006124dd602083612240565b91506124e8826124a7565b602082019050919050565b6000602082019050818103600083015261250c816124d0565b9050919050565b600081905092915050565b50565b600061252e600083612513565b91506125398261251e565b600082019050919050565b600061254f82612521565b9150819050919050565b61256281611ab0565b811461256d57600080fd5b50565b60008135905061257f81612559565b92915050565b60006020828403121561259b5761259a611a21565b5b60006125a984828501612570565b91505092915050565b600080fd5b600080fd5b600080fd5b6000823560016040038336030381126125dd576125dc6125b2565b5b80830191505092915050565b60008083356001602003843603038112612606576126056125b2565b5b80840192508235915067ffffffffffffffff821115612628576126276125b7565b5b602083019250602082023603831315612644576126436125bc565b5b509250929050565b6000819050919050565b7f4e487b7100000000000000000000000000000000000000000000000000000000600052604160045260246000fd5b600081549050919050565b60008190506001806001038301049050919050565b60008190508160005260206000209050919050565b600082821b905092915050565b6000600883026126f77fffffffffffffffffffffffffffffffffffffffffffffffffffffffffffffffff826126ba565b61270186836126ba565b95508019841693508086168417925050509392505050565b6000819050919050565b600061273e61273961273484611c23565b612719565b611c23565b9050919050565b6000819050919050565b61275883612723565b61276c61276482612745565b8484546126c7565b825550505050565b600090565b612781612774565b61278c81848461274f565b505050565b5b818110156127b0576127a5600082612779565b600181019050612792565b5050565b818310156127ed576127c582612690565b6127ce84612690565b6127d7836126a5565b8181018382016127e78183612791565b50505050505b505050565b6801000000000000000082111561280c5761280b612656565b5b61281581612685565b8282556128238382846127b4565b505050565b600082905092915050565b6000813561284081611b18565b80915050919050565b60006008830261286d73ffffffffffffffffffffffffffffffffffffffff826126ba565b61287786836126ba565b95508019841693508086168417925050509392505050565b60006128aa6128a56128a084611ae6565b612719565b611ae6565b9050919050565b60006128bc8261288f565b9050919050565b60006128ce826128b1565b9050919050565b6000819050919050565b6128e8836128c3565b6128fc6128f4826128d5565b848454612849565b825550505050565b61290e8383612828565b61291881836127f2565b6129218361264c565b61292a836126a5565b6000805b84811015612965578361294081612833565b905061294d8184866128df565b6020850194506001840193505060018101905061292e565b5050505050505050565b61297a838383612904565b505050565b6000808335600160200384360303811261299c5761299b6125b2565b5b80840192508235915067ffffffffffffffff8211156129be576129bd6125b7565b5b6020830192506020820236038313156129da576129d96125bc565b5b509250929050565b6000819050919050565b600081549050919050565b60008190506001806001038301049050919050565b60008190508160005260206000209050919050565b5b81811015612a4057612a35600082612779565b600181019050612a22565b5050565b81831015612a7d57612a55826129f7565b612a5e846129f7565b612a6783612a0c565b818101838201612a778183612a21565b50505050505b505050565b68010000000000000000821115612a9c57612a9b612656565b5b612aa5816129ec565b828255612ab3838284612a44565b505050565b600082905092915050565b60008135612ad081611c2d565b80915050919050565b612ae38383612ab8565b612aed8183612a82565b612af6836129e2565b612aff83612a0c565b6000805b84811015612b3a5783612b1581612ac3565b9050612b2281848661274f565b60208501945060018401935050600181019050612b03565b5050505050505050565b612b4f838383612ad9565b505050565b6000810160008301612b6681856125e9565b612b7181838661296f565b505050506001810160208301612b87818561297f565b612b92818386612b44565b505050505050565b612ba48282612b54565b5050565b6000612bb76020840184611c44565b905092915050565b6000612bce6020840184612570565b905092915050565b612bdf81611ab0565b82525050565b600080fd5b600082356001604003833603038112612c0657612c05612be5565b5b82810191505092915050565b600080fd5b600080fd5b60008083356001602003843603038112612c3957612c38612be5565b5b83810192508235915060208301925067ffffffffffffffff821115612c6157612c60612c12565b5b602082023603841315612c7757612c76612c17565b5b509250929050565b6000612c8e6020840184611b2f565b905092915050565b6000602082019050919050565b6000612caf8385611d70565b9350612cba8261264c565b8060005b85811015612cf357612cd08284612c7f565b612cda8882611da0565b9750612ce583612c96565b925050600181019050612cbe565b5085925050509392505050565b60008083356001602003843603038112612d1d57612d1c612be5565b5b83810192508235915060208301925067ffffffffffffffff821115612d4557612d44612c12565b5b602082023603841315612d5b57612d5a612c17565b5b509250929050565b600080fd5b82818337600083830152505050565b6000612d838385611e2e565b93507f07ffffffffffffffffffffffffffffffffffffffffffffffffffffffffffffff831115612db657612db5612d63565b5b602083029250612dc7838584612d68565b82840190509392505050565b600060408301612de66000840184612c1c565b8583036000870152612df9838284612ca3565b92505050612e0a6020840184612d00565b8583036020870152612e1d838284612d77565b925050508091505092915050565b600060608301612e3e6000840184612ba8565b612e4b6000860182611e4f565b50612e596020840184612bbf565b612e666020860182612bd6565b50612e746040840184612bea565b8482036040860152612e868282612dd3565b9150508091505092915050565b60006020820190508181036000830152612ead8184612e2b565b905092915050565b7f496e697469616c697a61626c653a20636f6e747261637420697320616c72656160008201527f647920696e697469616c697a6564000000000000000000000000000000000000602082015250565b6000612f11602e83612240565b9150612f1c82612eb5565b604082019050919050565b60006020820190508181036000830152612f4081612f04565b9050919050565b7f4f776e61626c653a206e6577206f776e657220697320746865207a65726f206160008201527f6464726573730000000000000000000000000000000000000000000000000000602082015250565b6000612fa3602683612240565b9150612fae82612f47565b604082019050919050565b60006020820190508181036000830152612fd281612f96565b9050919050565b7f416464726573733a20696e73756666696369656e742062616c616e6365000000600082015250565b600061300f601d83612240565b915061301a82612fd9565b602082019050919050565b6000602082019050818103600083015261303e81613002565b9050919050565b7f416464726573733a20756e61626c6520746f2073656e642076616c75652c207260008201527f6563697069656e74206d61792068617665207265766572746564000000000000602082015250565b60006130a1603a83612240565b91506130ac82613045565b604082019050919050565b600060208201905081810360008301526130d081613094565b9050919050565b6000823560016060038336030381126130f3576130f26125b2565b5b80830191505092915050565b600082825260208201905092915050565b6000819050919050565b60006060830161312d6000840184612ba8565b61313a6000860182611e4f565b506131486020840184612bbf565b6131556020860182612bd6565b506131636040840184612bea565b84820360408601526131758282612dd3565b9150508091505092915050565b600061318e838361311a565b905092915050565b6000823560016060038336030381126131b2576131b1612be5565b5b82810191505092915050565b6000602082019050919050565b60006131d783856130ff565b9350836020840285016131e984613110565b8060005b8781101561322d5784840389526132048284613196565b61320e8582613182565b9450613219836131be565b925060208a019950506001810190506131ed565b50829750879450505050509392505050565b6000602082019050818103600083015261325a8184866131cb565b90509392505050565b7f496e697469616c697a61626c653a20636f6e7472616374206973206e6f74206960008201527f6e697469616c697a696e67000000000000000000000000000000000000000000602082015250565b60006132bf602b83612240565b91506132ca82613263565b604082019050919050565b600060208201905081810360008301526132ee816132b2565b905091905056fea2646970667358221220b8aba23b30fda8225e923a2ba3a6be3359bd3c93a9cde1961fa6fbc11fb185b064736f6c634300080d0033",
  "immutableReferences": {},
  "source": "// SPDX-License-Identifier: MIT\npragma solidity ^0.8.0;\nimport \"@openzeppelin/contracts-upgradeable/access/OwnableUpgradeable.sol\";\nimport \"@openzeppelin/contracts-upgradeable/security/ReentrancyGuardUpgradeable.sol\";\nimport \"@openzeppelin/contracts-upgradeable/utils/AddressUpgradeable.sol\";\nimport \"@openzeppelin/contracts/utils/introspection/ERC165.sol\";\nimport \"./MintSplitSharedLib.sol\";\nimport \"./IRevenueSplitter.sol\";\n\n/// @author mintsplit.io\n\n/// @title MintSplit Revenue Splitter Smart Contract\ncontract RevenueSplitter is ERC165, OwnableUpgradeable, ReentrancyGuardUpgradeable, IRevenueSplitter {\n    uint public totalBalance;\n    MintSplitSharedLib.PaymentSplit defaultMintSplit;\n    MintSplitSharedLib.PaymentSplit defaultRoyaltySplit;\n    mapping (uint => MintSplitSharedLib.PaymentSplit) private contentMintSplits;\n    mapping (uint => MintSplitSharedLib.PaymentSplit) private contentRoyalties;\n    mapping (address => uint) public balance;\n\n    event SplitsSet(address indexed owner, MintSplitSharedLib.PaymentSplitConfig[] configs);\n    event DefaultSplitSet(address indexed owner, MintSplitSharedLib.PaymentSplitConfig config);\n    event PaymentReleased(address indexed owner, address indexed to, uint amount);\n\n    /**\n    @dev Automatically mark the implementation\n    contract as initialized when it is deployed\n    */\n    constructor() initializer {}\n\n    /**\n    Initialize a new revenue splitter\n    @param owner the address that initialized the revenue splitter clone\n    @param configs data for configuring mint and royalty split overrides\n    @param defaultMint data for configuring default mint split\n    @param defaultRoyalty data for configuring default royalty split\n    */\n    function initialize(\n        address owner,\n        MintSplitSharedLib.PaymentSplitConfig[] calldata configs,\n        MintSplitSharedLib.PaymentSplit calldata defaultMint,\n        MintSplitSharedLib.PaymentSplit calldata defaultRoyalty\n    )\n        initializer public\n    {\n        __Context_init_unchained();\n        __ReentrancyGuard_init_unchained();\n        _transferOwnership(owner);\n\n        if (defaultMint.recipients.length == 0) {\n            defaultMintSplit.recipients.push(payable(owner));\n            defaultMintSplit.bps.push(10000); // 100%\n        } else {\n            defaultMintSplit = defaultMint;\n        }\n\n        if (defaultRoyalty.recipients.length == 0) {\n            defaultRoyaltySplit.recipients.push(payable(owner));\n            defaultRoyaltySplit.bps.push(1100); // 11%\n        } else {\n            defaultRoyaltySplit = defaultRoyalty;\n        }\n        \n        if (configs.length == 0) return;\n        \n        _setSplits(configs);\n    }\n\n    /**\n    Set revenue splits - internal\n    @param configs data for configuring mint and royalty splits\n    */\n    function _setSplits(MintSplitSharedLib.PaymentSplitConfig[] calldata configs) internal {\n        for (uint i = 0; i < configs.length; i++) {\n            MintSplitSharedLib.PaymentSplitConfig calldata config = configs[i];\n            if (config.isMint) {\n                contentMintSplits[config.contentId] = config.split;\n            } else {\n                contentRoyalties[config.contentId] = config.split;\n            }\n        }\n        emit SplitsSet(owner(), configs);\n    }\n\n    /**\n    @dev See {IERC165-supportsInterface}.\n    */\n    function supportsInterface(bytes4 interfaceId) public view virtual override(ERC165, IERC165) returns (bool) {\n        return interfaceId == type(IRevenueSplitter).interfaceId || super.supportsInterface(interfaceId);\n    }\n\n    /**\n    @dev See {IRevenueSplitter-receiveMint}\n    */\n    function receiveMint(uint cid) external payable {\n        totalBalance += msg.value;\n        MintSplitSharedLib.PaymentSplit storage split = contentMintSplits[cid].recipients.length == 0 ? defaultMintSplit : contentMintSplits[cid];\n        for (uint i = 0; i < split.recipients.length; i++) {\n            balance[split.recipients[i]] += (msg.value*split.bps[i]/10000);\n        }\n    }\n\n    /**\n    @dev See {IRevenueSplitter-receiveMintBatch}\n    */\n    function receiveMintBatch(uint[] calldata contentIds) external payable {\n        totalBalance += msg.value;\n        uint valuePerToken = msg.value / contentIds.length;\n        for (uint i = 0; i < contentIds.length; i++) {\n            MintSplitSharedLib.PaymentSplit storage split = contentMintSplits[contentIds[i]].recipients.length == 0 ? defaultMintSplit : contentMintSplits[contentIds[i]];\n            for (uint j = 0; j < split.recipients.length; j++) {\n                balance[split.recipients[j]] += (valuePerToken*split.bps[j]/10000);\n            }\n        }\n    }\n\n    /**\n    @dev See {IRevenueSplitter-getMintSplits}\n    */\n    function getMintSplits(uint cid) external view returns(address payable[] memory recipients_, uint256[] memory bps) {\n        MintSplitSharedLib.PaymentSplit storage split = contentMintSplits[cid];\n        if (split.recipients.length == 0) return (defaultMintSplit.recipients, defaultMintSplit.bps);\n        return (split.recipients, split.bps);\n    }\n\n    /**\n    @dev See {IRevenueSplitter-getRoyaltySplits}\n    */\n    function getRoyaltySplits(uint cid) external view returns(address payable[] memory recipients_, uint256[] memory bps) {\n        MintSplitSharedLib.PaymentSplit storage split = contentRoyalties[cid];\n        if (split.recipients.length == 0) return (defaultRoyaltySplit.recipients, defaultRoyaltySplit.bps);\n        return (split.recipients, split.bps);\n    }\n\n    /**\n    Get the default revenue splits\n    @return mint the default mint split\n    @return royalty the default royalty split\n    */\n    function getDefaultSplits() external view returns(MintSplitSharedLib.PaymentSplit memory mint, MintSplitSharedLib.PaymentSplit memory royalty) {\n        return (defaultMintSplit, defaultRoyaltySplit);\n    }\n\n    /**\n    @dev See {IRevenueSplitter-release}\n    */\n    function release(address payable account) external nonReentrant {\n        uint payment = balance[account];\n        require(payment > 0);\n        balance[account] = 0;\n        totalBalance -= payment;\n        AddressUpgradeable.sendValue(account, payment);\n        emit PaymentReleased(owner(), account, payment);\n    }\n\n    /**\n    @dev See {IRevenueSplitter-setSplits}\n    */\n    function setSplits(MintSplitSharedLib.PaymentSplitConfig[] calldata configs) external onlyOwner {\n        require(configs.length > 0);\n        _setSplits(configs);\n    }\n\n    /**\n    @dev See {IRevenueSplitter-setDefaultSplit}\n    */\n    function setDefaultSplit(MintSplitSharedLib.PaymentSplitConfig calldata config) external onlyOwner {\n        if (config.isMint) {\n            defaultMintSplit = config.split;\n        } else {\n            defaultRoyaltySplit = config.split;\n        }\n        emit DefaultSplitSet(owner(), config);\n    }\n\n    /// Withdraw contract funds\n    function withdraw() public payable onlyOwner {\n        (bool success, ) = payable(msg.sender).call{\n            value: (address(this).balance - totalBalance)\n        }(\"\");\n        require(success);\n    }\n}",
  "sourcePath": "/Users/justinfsl/Dev/misc/mintsplit/solidity/contracts/RevenueSplitter.sol",
  "compiler": {
    "name": "solc",
    "version": "0.8.13+commit.abaa5c0e.Emscripten.clang"
  },
  "schemaVersion": "3.3.4",
  "updatedAt": "2022-03-29T16:58:01.991Z",
  "networkType": "ethereum",
  "devdoc": {
    "kind": "dev",
    "methods": {
      "constructor": {
        "details": "Automatically mark the implementation contract as initialized when it is deployed"
      },
      "getDefaultSplits()": {
        "returns": {
          "mint": "the default mint split",
          "royalty": "the default royalty split"
        }
      },
      "getMintSplits(uint256)": {
        "details": "See {IRevenueSplitter-getMintSplits}"
      },
      "getRoyaltySplits(uint256)": {
        "details": "See {IRevenueSplitter-getRoyaltySplits}"
      },
      "initialize(address,(uint256,bool,(address[],uint256[]))[],(address[],uint256[]),(address[],uint256[]))": {
        "params": {
          "configs": "data for configuring mint and royalty split overrides",
          "defaultMint": "data for configuring default mint split",
          "defaultRoyalty": "data for configuring default royalty split",
          "owner": "the address that initialized the revenue splitter clone"
        }
      },
      "owner()": {
        "details": "Returns the address of the current owner."
      },
      "receiveMint(uint256)": {
        "details": "See {IRevenueSplitter-receiveMint}"
      },
      "receiveMintBatch(uint256[])": {
        "details": "See {IRevenueSplitter-receiveMintBatch}"
      },
      "release(address)": {
        "details": "See {IRevenueSplitter-release}"
      },
      "renounceOwnership()": {
        "details": "Leaves the contract without owner. It will not be possible to call `onlyOwner` functions anymore. Can only be called by the current owner. NOTE: Renouncing ownership will leave the contract without an owner, thereby removing any functionality that is only available to the owner."
      },
      "setDefaultSplit((uint256,bool,(address[],uint256[])))": {
        "details": "See {IRevenueSplitter-setDefaultSplit}"
      },
      "setSplits((uint256,bool,(address[],uint256[]))[])": {
        "details": "See {IRevenueSplitter-setSplits}"
      },
      "supportsInterface(bytes4)": {
        "details": "See {IERC165-supportsInterface}."
      },
      "transferOwnership(address)": {
        "details": "Transfers ownership of the contract to a new account (`newOwner`). Can only be called by the current owner."
      }
    },
    "title": "MintSplit Revenue Splitter Smart Contract",
    "version": 1
  },
  "userdoc": {
    "kind": "user",
    "methods": {
      "getDefaultSplits()": {
        "notice": "Get the default revenue splits"
      },
      "initialize(address,(uint256,bool,(address[],uint256[]))[],(address[],uint256[]),(address[],uint256[]))": {
        "notice": "Initialize a new revenue splitter"
      },
      "withdraw()": {
        "notice": "Withdraw contract funds"
      }
    },
    "version": 1
  }
}